:020000040800F2
:10000000483D012055020008B1250008D923000809
:1000100045250008B50B00083D3E00080000000023
:100020000000000000000000000000009D0100082A
:10003000A91B000800000000F101000805360008B7
:100040006F0200086F0200086F0200086F020008CC
:100050006F0200086F0200086F0200086F020008BC
:100060006F0200086F0200086F0200086F020008AC
:100070006F0200086F0200086F0200086F0200089C
:100080006F0200086F0200086F0200086F0200088C
:100090001D0D00086F0200086F0200086F020008C3
:1000A0006F0200086F0200086F0200086F0200086C
:1000B0006F0200088D3600086F0200086F0200080A
:1000C0006F0200086F0200086F0200086F0200084C
:1000D0006F0200086F0200086F0200086F0200083C
:1000E0006F0200086F0200086F0200086F0200082C
:1000F0006F0200086F0200086F0200086F0200081C
:100100006F0200086F0200086F0200086F0200080B
:100110006F0200086F0200086F0200086F020008FB
:100120006F020008A11800086F0200086F020008A3
:100130006F0200086F0200086F0200086F020008DB
:10014000910F00086F0200086F0200086F0200089C
:10015000E11800086F0200086F020008CD3A00089D
:100160006F0200086F0200086F0200086F020008AB
:100170006F0200086F0200086F0200086F0200089B
:100180006F0200086F020008DFF80CD000F022FBBD
:100190000048004755440008483D01202A4B196893
:1001A0000868B0E8F04F80F30988BFF36F8F4FF015
:1001B000000080F3118870470000000006480068C6
:1001C000006880F3088862B661B6BFF34F8FBFF353
:1001D0006F8F00DF00BF00BF08ED00E0DFF80C000C
:1001E000016841F470010160704700BF88ED00E0D4
:1001F000EFF30980BFF36F8F134B1A681EF0100FD7
:1002000008BF20ED108A20E9F04F106008B44FF0CD
:10021000500080F31188BFF34F8FBFF36F8F05F04D
:1002200029F94FF0000080F3118808BC19680868AC
:10023000B0E8F04F1EF0100F08BFB0EC108A80F34A
:100240000988BFF36F8F70474C000020EFF30580E3
:10025000704700000648804706480047FEE7FEE773
:10026000FEE7FEE7FEE7FEE7FEE7FEE7FEE7FEE766
:10027000313600088901000840EA01039B0703D0DA
:1002800009E008C9121F08C0042AFAD203E011F8D5
:10029000013B00F8013B521EF9D27047D2B201E097
:1002A00000F8012B491EFBD270470022F6E710B57B
:1002B00013460A4604461946FFF7F0FF204610BDD4
:1002C0002DE9FE4F804681EA0300C00F0C460090E6
:1002D00021F0004123F00045B8EB0200A94105D20E
:1002E0004046214690461C460B46024623F00040FD
:1002F000104347D0270DC7F30A00C3F30A510290F9
:10030000401A019040286BDAC3F3130040F4801BBD
:100310000098924620B10023D2EB030A63EB0B0B4B
:1003200001985946C0F14002504600F09EF9064639
:100330000D4650465946019A00F0A6F910EB080008
:100340006141002487EA115284EAE7731A4340D0DE
:10035000009A62B3019A012A4FEA075215DC001B8A
:1003600061EB02014FF0004202EA0752CDE9004280
:10037000001C41F5801132462B4600F0DDF903B038
:10038000BDE8F08F40462146F9E7001B61EB020112
:10039000001C41F5801300185B412018A2F50017DE
:1003A00047EB030140EAD570B6196D4111E06D08C5
:1003B0004FEA360645EAC0754FEA0752001B61EB6B
:1003C0000201001C41F5801149084FEA3000001974
:1003D000514132462B4603B0BDE8F04F00F09DB9C5
:1003E0000098012240000023D0EB020263EBE0738F
:1003F000009821464FEAE074B8EB000061EB04017D
:10040000E9E783F000435BE781F0004158E72DE91D
:10041000FE4F81EA030404F0004421F000410094FF
:100420004FF0000B23F0004350EA01045ED052EA83
:1004300003045BD0C3F30A54C1F30A552C44A4F25D
:10044000F3340194A0FB0254C1F3130141F4801171
:10045000C3F3130343F4801301FB024400FB034E78
:10046000840A970A44EA815447EA8357A4FB076841
:1004700002958D0A05FB07854FEA932C04FB0C546B
:100480002705029D4FEA065847EA1637B5EB0805DF
:100490006EEB070C870E920E47EA811742EA831231
:1004A000A7FB0201B6EB0B0164EB00042B0D43EA42
:1004B0000C335E1844EB1C50DA465146E7FB020150
:1004C000C5F313044FEA0B3343EA14534FEA0432E3
:1004D000019C43EA0603A4F10C040294009CCDE9BC
:1004E00000B400F029F903B0BDE8F08F0020014608
:1004F000F9E72DE9F04D81EA030404F0004B21F007
:10050000004514464FF0000A23F0004150EA05026E
:1005100020D054EA01021DD0C5F30A570246C5F3A4
:100520001303C1F31300C1F30A5640F4801543F4DA
:100530008013A7EB0608101BD64608F2FD3873EBB4
:10054000050002D308F1010801E092185B41B8F1FF
:10055000000F03DA00200146BDE8F08D00204FF4C3
:100560008011064684460EE0171B73EB050705D382
:10057000121B63EB050306434CEA010C49084FEAE2
:10058000300092185B4150EA0107EDD152EA0300B6
:1005900012D082EA040083EA0501084305D0101B4B
:1005A000AB4106D20122002306E000224FF00043B7
:1005B00002E06FF0010253101AEB06004CEB0851F9
:1005C00010EB0A0041EB0B01BDE8F04D00F0A5B8BF
:1005D0000EB5C10F80EAE0700844CA07002140F25E
:1005E00033438DE80E000A460B4600F0A5F803B031
:1005F00000BD0EB540F2334102910021CDE900115A
:100600000A460B4600F098F803B000BD00F0004227
:1006100030F000400AD0C10D01F56071C0F3160042
:1006200042EA0151C20840071143704700200146C9
:10063000704701F0004330B421F0004150EA01025C
:1006400006D00A0DA2F56072C1F31301002A02DC84
:1006500030BC00207047440F44EAC104C100E018D8
:1006600030BC00EBC25000F021B8202A04DB203A55
:1006700000FA02F1002070479140C2F1200320FAF5
:1006800003F3194390407047202A06DBCB17203A2A
:1006900041FA02F043EAE07306E041FA02F3D04087
:1006A000C2F1200291400843194670470029A8BFB3
:1006B0007047401C490008BF20F00100704710B48B
:1006C000B0FA80FC00FA0CF050EA010404BF10BC40
:1006D000704749B1CCF1200421FA04F411FA0CF16D
:1006E00018BF012121430843A3EB0C01CB1D4FEAA6
:1006F00000614FEA102042BF002010BC704700EBA1
:10070000C35010440029A4BF10BC7047401C4900CE
:1007100008BF20F0010010BC704710B5141E73F123
:10072000000408DA401C41F1000192185B411A43B1
:1007300001D120F0010010BD2DE9F04D92469B46FD
:1007400011B1B1FA81F202E0B0FA80F220329046A3
:10075000FFF78BFF04460F4640EA0A0041EA0B010F
:1007600053465A46084313D0114653EA010019D0A4
:10077000C8F14002504600F03FF805460E4650468C
:1007800059464246FFF771FF084305D0012004E0B7
:1007900020463946BDE8F08D0020054346EAE07664
:1007A0002C4337430A986305E40AA0EB08000022B3
:1007B000FD0A44EA47540A3002D500200146E9E721
:1007C000010510196941DDE9084500196941BDE8D5
:1007D000F04DA2E7064C074D06E0E06840F001034B
:1007E00094E8070098471034AC42F6D3FFF7D0FCEA
:1007F000085F0008285F0008202A04DB203A21FA5D
:1008000002F00021704721FA02F3D040C2F1200229
:100810009140084319467047704700000349024859
:10082000896888607047000031080008803801201E
:1008300010B5084C08482178D0F8D425012903D0F8
:10084000BDE81040002110470121034890470220D5
:10085000207010BDE50000206C3201202DE9F04130
:10086000374E0446012730780025012804D17170E5
:1008700002203070F1B325737078012803D002286C
:1008800028D0B8B356E094F8A805D4F8A4150428E5
:100890000CD00122B2EE040A204604F05BFB207B60
:1008A000012847D1204600F04DF843E00222B7EE80
:1008B000000A204604F04EFB207B01283AD184F840
:1008C000285284F8DC5284F890533770757084F89D
:1008D000A8552FE094F8A905D4F8A41504280ED043
:1008E0000122B2EE0B0A204604F034FB207B0128E3
:1008F00020D100E01DE0204600F094F81AE002222A
:10090000B1EE020A204604F025FB207B012811D11C
:10091000C4F8B85084F8C050C4F8205284F8285263
:1009200084F8DC5284F890533770757084F8A955B8
:1009300000E037702046BDE8F04103F0FFBD000045
:10094000D400002070B5044690F8A82500F5617128
:10095000002500F53470C2B1294E04F50773012A51
:1009600027D0022A36D0032A33D102223146184634
:1009700003F062FB94F8280201282AD1C4F820521F
:1009800084F828522573042021E00122F1EE080AA0
:100990009FED1C0A03F080FB94F8DC02012818D1BB
:1009A00094F89003012814D1C4F8205284F82852F6
:1009B0000DE001223146184603F03EFB94F8280270
:1009C000012806D184F8DC5284F89053022084F880
:1009D000A80570BD0222F3EE040A9FED0B0A03F096
:1009E0005BFB94F8DC020128F3D194F89003012812
:1009F000EFD1C4F8205284F828520320E7E7000022
:100A0000A8E4FFFF00003643000020C30148D0F8EF
:100A1000001608476C3201200148D0F80816084734
:100A20006C32012070B5044690F8A9150025012606
:100A3000B43081B1012920D002292AD003291BD149
:100A40002046FFF77FFF94F8A805042814D12573EA
:100A500084F8A8552DE0D4F8A015012204F05CFA22
:100A600094F8C000012807D184F8DC5284F8905330
:100A700084F8A85584F8A96570BD2046FFF762FF89
:100A800094F8A8050428F7D1267384F8C0500220F2
:100A90000FE0D4F8A015012204F03EFA94F8C0004B
:100AA0000128E9D184F8DC5284F8905384F8A855E1
:100AB000032084F8A90570BD0148D0F80416084742
:100AC0006C32012070B53949394A4FF4FA74D1F8C3
:100AD0001F000023057CC5B1012D20D14578067883
:100AE00046EA05250D80C578867846EA05254D80BD
:100AF0004579067946EA05258D80C579867946EAE5
:100B00000525CD800374138009E01088401C00B2D5
:100B10001080A04203DBCB808B804B800B80D1F810
:100B20001F00457CA5B3012D1FD0022D1CD103222F
:100B300001F80A2F01224A7003784A7E63F3C71234
:100B40004A7643788A7E63F301028A76837863F378
:100B500083028A76C37863F305128A76037963F396
:100B600087128A764079C87670BD447A057A45EA5C
:100B7000042464420C81847A8C72C47ACC72447BE3
:100B8000057B45EA0424A1F81D404374538070BDE1
:100B9000FFE75088401C00B25080A042F7DB0B8179
:100BA000A1F81D30CB728B72F1E7000038320120C2
:100BB000C0000020FEE70000F0B585B000244FF42F
:100BC000007500958DF808408DF8094008258DF8CE
:100BD0000A50050A8DF80C00080A8DF80D008DF8F2
:100BE0000E10100A8DF80F008DF81020180A8DF8DD
:100BF00011000C4E8DF80B508DF8123069463046BE
:100C000000F044FD054640F6FF7701E0641CA4B205
:100C10002946304600F08CFD002801D1BC42F5D3B6
:100C200005B0F0BD006400402DE9F04F8BB08A465E
:100C300081461E46904601210820DDF850B001F0A3
:100C400005FE0121480601F00DFE324F0922002168
:100C5000384601F058F809220121384601F053F8CE
:100C60000320079002208DF8200000248DF82240F8
:100C70008DF8210001258DF8235007A9384600F092
:100C8000F1FF14208DF8240004208DF825008DF844
:100C9000275009A801F08EFC1F4F384600F052FB88
:100CA000684600F0E3FC8DF806408DF808408DF8AA
:100CB00007508DF809408DF802B08DF80A408DF884
:100CC00003908DF804A08DF80B508DF80580ADF8D9
:100CD00000606946384600F00DFC8DF816408DF82E
:100CE00017408DF81850ADF80C40ADF81040ADF835
:100CF0000E40ADF81240ADF814408DF8195003A81D
:100D000000F036FB01220221384600F0EBFB0BB06D
:100D1000BDE8F08F000C02400064004010B55B4C51
:100D200086B00221204600F089FB00286ED0022107
:100D3000204600F017FA5649204600F0FBF96A46B3
:100D40000021204600F04AFC009940F2052351485A
:100D5000A1F2052299426FD01DDCA1F50071013985
:100D60002CD001293DD0022952D003294ED19DF823
:100D70000C109DF80B2001EB022109B281819DF836
:100D80000E209DF80D3002EB0322424B12B2C281BD
:100D900095331B2038E0012A5BD0022A67D0032A52
:100DA00034D1BDF80B103C4B49BA09B28183BDF870
:100DB0000D2052BA12B2C2832D2025E09DF80C10EE
:100DC0009DF80B2001EB022109B201809DF80E2055
:100DD0009DF80D3002EB03222E4B12B242802033DD
:100DE000D7E79DF80C109DF80B2001EB022109B20A
:100DF00081809DF80E209DF80D3002EB0322254BDB
:100E000012B2C280473330E000F0E8F906B010BDFE
:100E10009DF80C109DF80B2001EB022109B2018115
:100E20009DF80E209DF80D3002EB0322194B12B2F3
:100E300042816E3327E0FFE7BDF80B10164B49BA2D
:100E400009B20182BDF80D20753B52BA12B242823E
:100E50000BE0BDF80B10104B49BA09B28182BDF806
:100E60000D204E3B52BA12B2C2821320CCE7BDF81D
:100E70000B10094B49BA09B20183BDF80D20273B7D
:100E800052BA12B242832420BEE700000064004040
:100E90000800003266300120973101202DE9F04F23
:100EA000894682468BB0984693460121022001F084
:100EB000CDFC0121880601F0D5FC334F0922052124
:100EC000384600F020FF09220621384600F01BFFBB
:100ED0006020022607908DF8206000248DF82240C3
:100EE00003208DF8210001258DF8235007A93846ED
:100EF00000F0B8FE40208DF824008DF825608DF8B4
:100F0000275009A801F056FB204E304600F01AFA8F
:100F1000684600F0ABFB14988DF806408DF8084049
:100F20008DF802008DF807408DF809408DF80A40D1
:100F30008DF803A08DF804908DF80B508DF805B056
:100F4000ADF800806946304600F0D4FA0E208DF8E6
:100F500016008DF817408DF81850ADF80C40ADF81C
:100F60001040ADF80E40ADF81240ADF814408DF8C9
:100F7000195003A800F0FCF901220221304600F0CC
:100F8000B1FA0BB0BDE8F08F0004024000680040E9
:100F900010B5494C86B00221204600F04FFA0028D7
:100FA0002DD00221204600F0DDF86A4600212046BF
:100FB00000F014FB009A01214048A2F20142052AE8
:100FC0001DD2DFE802F0031E323A6A009DF80B20C2
:100FD00002709DF80C2042709DF80D2082709DF8E3
:100FE0000E20C2709DF80F2002719DF810204271F2
:100FF0009DF8112082719DF81220C271017406B013
:1010000010BD9DF80B2002729DF80C2042729DF8D5
:101010000D2082729DF80E20C2729DF80F2002737F
:101020009DF8102042734174E9E79DF80B100A29DE
:1010300003D19DF81210CE2904D09DF81210772903
:1010400015D02AE09DF80C1001709DF80D1041702C
:101050009DF80E1081709DF80F10C1709DF8101052
:1010600001719DF8111041710221417415E09DF844
:101070000B2002709DF80C2042709DF80D208270AC
:101080009DF80E20C2709DF80F2002719DF810206F
:1010900042719DF811208271C1719DF81110AC2927
:1010A000ADD19DF81210CE29A9D19DF80B10017079
:1010B0009DF80C104170A2E700680040BE3101208D
:1010C000F0B585B0002400918DF808408DF80940F6
:1010D00008218DF80A1001788DF80B1041788DF8F1
:1010E0000C1081788DF80D10C1788DF80E100179F3
:1010F0008DF80F1041798DF8101081798DF811104D
:10110000C0790B4E8DF812006946304600F0BEFAE9
:10111000054640F6FF7701E0641CA4B2294630463C
:1011200000F006FB002801D1BC42F5D305B0F0BDAC
:10113000006800400A4A914202D100218161704753
:10114000C1F313028B0101D5C26070474B0101D579
:1011500002617047090101D58260704742607047A3
:101160007000F03030B5082310240422B1F5007F60
:101170001DD010DC202929D007DC012921D0042929
:1011800022D0082900D1C46030BD402920D0B1F55B
:10119000807FF9D10BE00025B1F5004F06D008DCC7
:1011A000B1F5806F03D0B1F5006FEDD1856142607C
:1011B00030BDB1F5803F0DD0B1F5003FF8D14460AE
:1011C00030BD0549816030BDC36030BD036130BDB5
:1011D000046130BD436030BD010101002DE9F047DD
:1011E0001C462DED028B4FF40059A3F82320B3F8D1
:1011F0002130D31AA4F82530A4F821200022002998
:1012000001DD494503DD022384F8203001E084F844
:101210002020A1F2D17341F28735AB4202D2227075
:10122000627034E041F6583C0126B4F90430A568F8
:101230004FF4FA68614501DD267005E0414500DAAA
:10124000A6702778012F03D1414501DA66700EE0C0
:10125000A778012F02D1614500DDE6702678012EC6
:1012600002D16678012E02D0012F08D011E05B1C5C
:10127000A38005F50055A5602270627009E0E6784C
:10128000012E06D15B1EA380A5F50055A560A270B6
:10129000E270B4F90430002B02DD01EB433308E0C7
:1012A00002DBA5684D4506DD03445B03A3F500534F
:1012B0000B44E36000E0E160A368B4F90650064621
:1012C000B3EB403F02DDA1606D1C07E07603002B0D
:1012D0000ADAA6F500567018A0606D1EE580A2809F
:1012E000BDEC028BBDE8F087E068FFF771F941ECD7
:1012F000180B3046FFF77DF941EC100B53EC102B27
:101300009FED0D0B51EC100BFFF7F3F853EC182B7E
:10131000FFF77DF8FFF78DF900EE905A00EE100A06
:101320009FED071AF8EEE00AA06100EE810A10EEC8
:10133000100A6061D4E700000000000000807640E1
:101340000000B443094910B588424FF0010101D1B2
:101350004C0601E04FF08064204601F08FFA2046F1
:10136000BDE81040002101F089BA0000006400408F
:10137000F0B5827A012191402E4A136843F00103AF
:1013800013602C4B1C331C688C431C60294D067B5E
:10139000294C0C35A6B92E688E432E604688C78826
:1013A00046EA0746877A04EBC707C7F8406606880F
:1013B000878846EA0746877A04EBC707C7F844667A
:1013C000067B012E12D12E680E432E60867A0568A8
:1013D00004EBC6064FEA3545C6F84056867A45689E
:1013E00004EBC6044FEA3545C4F84456114CC57A9F
:1013F000241D002D256806D00D4325600D4C058960
:10140000143415B104E08D43F7E725688D4325605A
:101410000589012D02D125680D432560407B0128F7
:1014200002D1186808431860106820F001001060AD
:10143000F0BD000000660040006000400246002051
:1014400053690B424AD0B1F5807F3BD013DC0829A9
:101450002ED007DC012926D0022927D004293DD12E
:10146000D0682BE0102925D0202926D0402935D15D
:101470001069102130E0B1F5004F2BD00BDCB1F535
:10148000007F22D0B1F5806F22D0B1F5006F25D159
:101490009069702120E0B1F5803F11D0B1F5003F97
:1014A0001CD15068E5E790680D4915E0D06802E06E
:1014B000D068DEE7106903210EE0106908210BE017
:1014C0005068FBE79069012106E09069022103E082
:1014D000906900E05068042100F0DCB9704700001A
:1014E00001010100002A426901D00A4300E08A4359
:1014F0004261704710B50368002223F002030360C5
:10150000036843F0010303604FF6FF7300E0521CD1
:101510004468E40701D19A42F9D14268D2073ED02B
:101520008A79012A02683CD022F080020260CA79DE
:10153000012A026838D022F0400202600A7A012AA9
:10154000026834D022F0200202604A7A012A02683E
:1015500030D022F0100202608A7A012A02682CD070
:1015600022F008020260CA7A012A026828D022F01A
:10157000040202608A78CC78920742EA04620C790D
:1015800042EA04424C79098842EA0452491E0A435D
:10159000C261016821F001010160002114E0002016
:1015A00010BD42F08002C1E742F04002C5E742F0C0
:1015B0002002C9E742F01002CDE742F00802D1E76D
:1015C00042F00402D5E7491C4268D20701D0994293
:1015D000F9D14068C007E2D1012010BD10B500EB81
:1015E0000113D3F8B04114F004041472D3F8B041DD
:1015F00034D0E408C2F80440D3F8B04104F0020447
:101600005472D3F8B44104F00F049472D3F8B44187
:10161000240AD474D3F8B841D472D3F8B841240A58
:101620001473D3F8B841240C5473D3F8B841240E82
:101630009473D3F8BC41D473D3F8BC41240A147416
:10164000D3F8BC41240C5474D3F8BC311B0E9374F2
:1016500039B1016941F02001016110BD640D1460D0
:10166000CAE7C16841F02001C16010BD002181714D
:10167000C171017241728172C1728170C1700321A6
:1016800001710221417101210180704730B502468C
:10169000002093685B0108D49068000101D5012007
:1016A00003E09068C00037D5022002EB0012D2F8A8
:1016B000803103F00103C2F880310B7A73B3D2F8A2
:1016C00080414D681C434B7A43EAC5031C43C2F872
:1016D00080418B7A03F00F038B72D2F8843123F0B0
:1016E0000F03C2F88431D2F884318C7A2343C2F8D4
:1016F0008431CB7ACC6843EA0423C2F88831CB7BAF
:10170000096943EA0121C2F88C11D2F8801141F035
:101710000101C2F8801130BD042030BDD2F8803103
:101720004C7A23430C8843EA4453C2F88031D0E713
:10173000002221B1012905D0022906D112E08268D8
:10174000114801E08268114802401149501A8A424A
:1017500014D00ADCA2B16FF0806010180FD00228FC
:101760000CD10FE082680B48EEE7B0F5007F09D09E
:101770000949401803D0B0F5003F03D0002070475E
:101780000220704701207047030000040003000896
:1017900000010008000003100001FFF72DE9F04FE1
:1017A0002E482F4AA0F15801DFF8D0C0C8600020B1
:1017B000486088600A6010312A4A88600A6096464C
:1017C000294A4A6093460C31284A88600A6092464A
:1017D000274A4A6001F1180391469860254A1A6029
:1017E000254959600C33264F9860C3F800C05F60EC
:1017F0000C33DFF890809860C3F80080224E5E6062
:10180000243B224D98601D60214C5C60283B43F8CE
:10181000582F596098609A61D9611862DA6019612D
:1018200058615A6299620D49D86228318D60CC6046
:101830000861C1F814C08F61C861C1F820A0C1F867
:1018400024908862C1F82C800E634863C1F838E0A8
:10185000C1F83CB00864BDE8F08F0000D838012022
:10186000F93500081D08000819080008512400086F
:101870004D2400081D26000819260008F12E000836
:10188000ED2E00085D1D0008591D0008D92700082D
:10189000C9270008024600200A4200D001207047F4
:1018A00070B50B4D0B4C2946204600F00BF9012872
:1018B0000DD12946204600F033F82946204600F095
:1018C00045F8BDE870400449044801F0ABBA70BD6A
:1018D0000088001028640240D0310120142F01201C
:1018E00070B50B4D0B4C2946204600F0EBF8012853
:1018F0000DD12946204600F013F82946204600F075
:1019000025F8BDE870400449044801F08BBA70BD69
:101910000088002088640240D0310120142F01206B
:10192000074A904201D2074801E005481038064AAC
:101930008B0001EA020101D5C160704781607047E8
:1019400010640240006002407D0F7D0F074A904204
:1019500001D2074801E005481038064A8B0001EA29
:10196000020101D5C1607047816070471064024078
:10197000006002407D0F7D0F0029016802D041F018
:10198000010101E021F00101016070472DE9F04300
:10199000016821F001010160002101604160816066
:1019A000C1600161212141613C493C4A3D2510391A
:1019B000904202D18D60BDE8F083384A4FF47466DE
:1019C0001832904201D18E60F5E7344A4FF4741713
:1019D0003032904201D18F60EDE7304A4FF0746CA5
:1019E0004832904202D1C1F808C0E4E72B4B2C4AA0
:1019F0006033984201D1CA60DDE7284C294B783426
:101A0000A04201D1CB60D6E7DFF89080264C08F1E8
:101A10009008404501D1CC60CDE7DFF880804FF0E1
:101A20003D5908F1A808404502D1C1F80C90C2E721
:101A30001E49DFF878800839404501D10D60BAE7CA
:101A40001A4D1835A84201D10E60B4E7174D303554
:101A5000A84201D10F60AEE7144D4835A84202D12B
:101A6000C1F800C0A7E7114D10496035091FA84211
:101A700001D10A609FE70D4A7832904201D10B6094
:101A800099E70A4A9032904201D10C6093E7074AE5
:101A9000A83290428FD1C1F800908CE710600240CC
:101AA0003D000020400F002000003D201064024057
:101AB000014600200968C90700D00120704740682E
:101AC00080B270470246094B00209A4201D2084A70
:101AD00001E0064A103A8B0001D5526800E0126816
:101AE000044B1A400A4200D00120704710640240A3
:101AF000006002407D0F7D0F0B0607D5436912B1D0
:101B000043F0800301E023F080034361802908D083
:101B1000002A026801F01E0101D00A4300E08A4356
:101B20000260704730B50368124ACC6813400A68F7
:101B30002243D1E905452C432243CC6922430C6A58
:101B400022434C6A22438C6A22434C6B22438C6BA7
:101B500022431A430260426922F00703D1E90B24B1
:101B600022431A4342610A6942604A688260896876
:101B7000C16030BD3F801CF0416070474FF4FA7087
:101B800003F02EFB01F016FC0649C1F8C80500BFA2
:101B900000F0D6F802F054F9FEF794FF022003F0AB
:101BA0001FFBF5E76C320120704700004FF4FA701C
:101BB00003F016FB064C074D1F21204600F0BCF831
:101BC0008021284600F0B8F8C82003F009FBF3E7AD
:101BD00000100240000402400021C1708170417079
:101BE00001708160C1608180C18041610161C1611A
:101BF0008161022280F82020A0F82510A0F823108F
:101C0000A0F82110704710B50446032923D8032AF1
:101C100021D851EA020001D101210A46E06801EB16
:101C2000C10100EB810002EB42016FF02F0202EBD9
:101C300081010144A16022686068904710B1A068EA
:101C400000688047A068606040688047A06880683E
:101C5000BDE81040004710BD0148D0F80C160847F9
:101C60006C320120F0B50023012403270D6804FA2B
:101C700003F21540954242D1D0F800C05E0007FA49
:101C800006F52CEA050CC0F800C091F804C0D0F8A5
:101C900000E00CFA06FC4CEA0E0CC0F800C091F80B
:101CA00004C0BCF1010F02D0BCF1020F1FD1D0F86B
:101CB00008C02CEA050CC0F808C091F805C0D0F89F
:101CC00008E00CFA06FC4CEA0E0CC0F808C0D0F88C
:101CD00004C02CEA020CC0F804C0426891F806C0A7
:101CE0000CFA03FC1FFA8CFC42EA0C024260C26848
:101CF000AA43C260CA79C568B2402A43C2605B1C6D
:101D0000102BB3D3F0BD4B07DB0E9A40C90810B5BA
:101D100000EB8100016A0F249C40A1430162016A2B
:101D20001143016210BD0246002012690A4200D030
:101D3000012070470183704742694A404261704701
:101D400010B501F069FB034C207001F08DFB607051
:101D500010BD0000B2000020704700000349024897
:101D60008968886070470000711D00088038012074
:101D70000148D0F8F01508476C32012070B590F892
:101D8000A8250446002500F534763949D21E00F511
:101D90000770062A67D2DFE802F003182333414EAA
:101DA00034480178C9B34078B8B30121F2EE040A8F
:101DB0009FED310A304602F05FFA94F8DC02012808
:101DC00051D184F8285204204BE0012202F034F96A
:101DD00094F82802012846D184F8DC52052040E01E
:101DE0000221F2EE040A9FED250A304602F044FA81
:101DF00094F8DC02012836D184F87451062030E0D2
:101E0000022104F5B47001F06FFD94F8740101280B
:101E100029D184F82852072023E024E0022202F08E
:101E20000BF994F8280201281DD184F8C05084F8D9
:101E3000DC52082015E0022104F1B40001F08EFD0F
:101E40000121F2EE040A9FED0E0A304602F014FA68
:101E500094F8C000012803D094F8DC02012802D1D4
:101E6000022084F8A8052046BDE8704002F066BB59
:101E7000A8E4FFFFB200002000002A430000000099
:101E80000000824210B51F4C1D48C4F8D0051E4802
:101E9000C4F8D4051D48C4F8DC051D48C4F8D805AD
:101EA0001C48C4F8E0051C48C4F8E4051B48C4F805
:101EB000E8051B48C4F8EC051A48C4F8F0051A48B0
:101EC000C4F8F4051948C4F8F8051948C4F8FC0525
:101ED0001848C4F800061848C4F804061748C4F89F
:101EE00008061748C4F80C06204604F2CC5400F04B
:101EF00029F801F089FA20606069BDE810400047C8
:101F0000451F00086C3201205D080008953000086C
:101F1000052800089D170008213F000845290008F2
:101F2000F5340008094000088D440008ED2200083F
:101F30007D2300087D1D0008E12000081D22000807
:101F4000212F00082DE9F04F04462DED048BB1B090
:101F500000266022594918A8FEF78EF957496022D9
:101F600060316846FEF788F95548C4F8B40555480D
:101F7000C4F8BC055448C4F8C0055448C4F8C405A6
:101F8000B1460DF1600AEB46DFED518A9FED518AB3
:101F90009FED519AC6EB061000EB400804EB880554
:101FA000284600F0D1FA771CF9B204F82810D4F8CA
:101FB000BC2508469047C5F8AD0006EB46060BEB7E
:101FC0008600B0EE682A90EC030A05F15D00F0EEA1
:101FD000481A00F0D7FB0AEB8600B0EE492A90ECD5
:101FE000030A05F10D00F0EE481A00F0CBFB55F89E
:101FF000AD0FFEB2816945F8A51C8169C1612968F0
:1020000088690861286881694161132025F8AB0C53
:1020100085F8059085F80690052EBBD306A9DFED5F
:102020002F8AF0EE481A91EC030AB0EE682A04F207
:10203000C51000F0A7FB12A9B0EE682A91EC030AC4
:10204000F0EE481A04F2954000F09CFB1B216180E1
:102050002420A4F86A01A4F81E12A4F83A04A4F8F3
:10206000EE0484F8AB9584F8AA9584F8A99584F8D1
:10207000A89584F8B29584F8B19584F8B09584F861
:10208000AF9584F8AE9584F8AD9584F8AC95D4F806
:10209000C0058047C4F8A00502218170D4F8A005CE
:1020A0004170D4F8A0050170D4F8C4058047C4F885
:1020B000A40531B0BDEC048BBDE8F08F485E00088C
:1020C000B90B0008BD33000811340008B93400080A
:1020D00000D004460000000000007A4600B06546CB
:1020E0002DE9F04190F8A8250446002500F5B476C6
:1020F0003A49921E00F5347004F50773072A67D237
:10210000DFE802F0041524303D4C580034480178D3
:1021100009B9407890B30121304601F0E5FB94F80D
:102120007401012854D184F8DC5203204EE00121CF
:10213000F2EE040A9FED2B0A02F09EF894F8DC02FE
:10214000012845D184F8285204203FE00122184696
:1021500001F072FF94F82802012839D184F87451F3
:10216000052033E00221304601F0BEFB94F87401F3
:1021700001282DD184F8DC52062027E028E0022136
:10218000F2EE040A9FED180A02F076F894F8DC02E9
:1021900001281DD184F82852072017E00222184692
:1021A00001F04AFF94F82802012811D184F8DC528A
:1021B00008200BE00121F2EE040A9FED0C0A02F068
:1021C0005BF894F8DC02012802D1022084F8A8050B
:1021D0002046BDE8F04102F0B1B90000A8E4FFFFDD
:1021E000B200002000002A430000000000008242EC
:1021F0004FF4FA7002F0F4FFFFF744FE064C00BF04
:10220000D4F8C805C27A817AD4F8CC05FFF7FBFC74
:10221000022002F0E5FFF3E76C32012070B590F880
:10222000A8150446002500F5B472891E00F5347027
:1022300005294DD2DFE801F0031423313E00274881
:10224000017809B94078A0B30121104601F04CFB98
:1022500094F8740101283BD184F8DC52032035E066
:102260000121F2EE040A9FED1E0A02F005F894F82F
:10227000DC0201282CD184F82852042026E0012217
:10228000184904F5077001F0D7FE94F828020128D8
:102290001ED184F87451052018E00221104601F087
:1022A00023FB94F87401012812D184F8DC52062033
:1022B0000CE00DE00221F2EE040A9FED0B0A01F0A2
:1022C000DBFF94F8DC02012802D1022084F8A80583
:1022D0002046BDE8704002F031B90000B200002095
:1022E00000002A43A8E4FFFF00000C4270B504463A
:1022F00090F8A805002520B1012813D0022835D177
:102300001DE02573D4F8A4150122B3EE040A20467B
:1023100002F020FE207B012828D184F8C05084F8E8
:10232000DC5221E0012104F1B40001F017FB94F824
:10233000C00001281AD184F87451022014E0012150
:1023400004F5B47001F0D0FA94F8740101280DD1AD
:102350000121F2EE040A9FED080A04F5347001F041
:102360008BFF84F8DC52032084F8A8052046BDE8E2
:10237000704002F0E3B800000000A04270B50025F4
:1023800005730446D0F8A4150222B7EE000A02F045
:10239000E1FD207B012804D094F8C000012805D07D
:1023A00009E084F8C05084F8DC5270BD022104F1C9
:1023B000B40001F0D3FA94F8DC020128F5D104F559
:1023C0003470BDE870400221F2EE040A9FED010A6C
:1023D00001F052BF00000000FEE70000F8B5144C09
:1023E0001248E060134820611348A0601348206041
:1023F00013486060134860611348A06101F060F801
:102400002069804760698047A06980470025009562
:1024100026680323072204212846B04700956468F4
:102420000323072204210020A047F8BDC13400087F
:10243000E8000020E52400082D370008290C0008DA
:102440009D0E0008B9390008453B000870470000A0
:1024500010B51E4CD4F8C80590F82300000602D52C
:10246000D4F8F81501E0D4F8FC1518488847D4F8DA
:10247000C80590F8240000F003011548012902D195
:10248000826814499160D4F8C81591F82410C1F3FA
:102490008101012902D182680F499160D4F8C815E1
:1024A00091F82410C1F30111012902D182680B496E
:1024B0009160D4F8C815012291F82410B2EB911F55
:1024C00002D180680649816010BD00006C32012095
:1024D000803801200D0A0008B90A0008190A00080E
:1024E000591C00087CB50121102000F0AFF9012132
:1024F000022000F0ABF901208DF8040000218DF8D6
:10250000061003218DF805108DF807001F200B4CD5
:10251000009069462046FFF7A5FB8020084D0090FB
:1025200069462846FFF79EFB1F212046FFF702FC65
:1025300080212846FFF7FEFB7CBD00000010024012
:1025400000040240FEE7000070B500252DED028B6F
:1025500004469FED168A458045700570456085608C
:102560000573B0EE482AF0EE481AB0EE481AF0EEC5
:10257000480AB0EE480A0D3000F004F9B0EE482ADF
:10258000F0EE481AB0EE481AF0EE480AB0EE480AEB
:1025900004F15D0000F0F6F854F8AD0FFFF71CFBF6
:1025A0000B2020716571BDEC028B70BD0000000036
:1025B0007047000030B50F22C47801780123FCB1C8
:1025C000144C246801F1E02104F4E064C4F5E064F3
:1025D000C4F30724C4F10405E2404478AC40857894
:1025E000154025432A0181F80024007800F01F01DE
:1025F0008B404009800000F1E020C0F8003130BD80
:1026000001F01F0083404809800000F1E020C0F87D
:10261000803130BD0CED00E07047000003490248F6
:1026200089688860704700003126000880380120E2
:102630000349012008700348D0F8D8150847000066
:10264000E50000206C32012010B500287ED010EE8D
:10265000103A10EE901A036000EE103A00EE901A55
:102660004160C26930EE600A0262826910EE101A9F
:10267000C2618161436A00EE101A00EE903A30EEBA
:10268000800A00EE902A10EE103A00EE101A436213
:10269000C46A046330EE600A846AC46210EE104AB1
:1026A00000EE101A8462C26800EE902A20EE800AC2
:1026B00010EE102A00EE103A4263016900EE901A03
:1026C00020EE800A10EE101A00EE104A8163436972
:1026D00000EE903A20EE800A10EE103A00EE101A4A
:1026E000C363816C00EE901AB4EEE00AF1EE10FACA
:1026F00000DB8163846B00EE101A00EE904AB1EEAD
:10270000400AF4EEC00AF1EE10FA06D800EE101AF4
:10271000B1EE400A10EE101A8163816B00EE102AB0
:1027200000EE901A70EE200A00EE103A30EE800AA9
:1027300010EE101A0164406C00EE101A00EE900AC0
:10274000B4EEE00AF1EE10FA07DB00E002E000EE82
:10275000100A10BD9FED0A0A10BD00EE900A00EEAF
:10276000101AF1EE600AB4EEE00AF1EE10FA04D8A5
:1027700000EE100AB1EE400A10BD00EE101A10BDB6
:102780000000000000281DD010EE101AC16010EEED
:10279000901A016111EE101A416111EE901A8164D4
:1027A00012EE101A416400218161C16101628162EF
:1027B000C162016341628160416001600164C16383
:1027C00081634163704700000249002081F8AB0536
:1027D000704700006C320120034902488968886014
:1027E00070470000ED27000880380120044890F869
:1027F000AB15052902D0D0F8F41508477047000042
:102800006C32012070B50446D0F8AD0000231A46A2
:102810004169C161D4F861014169C161D4F815020F
:102820004169C161D4F8C9024169C161D4F8B455A4
:1028300019461846A847D4F8B8450023A446BDE871
:1028400070401A461946184660470000044A00299D
:10285000116801D0014300E081431160704700001E
:1028600030380240044A0029116801D0014300E0D9
:10287000814311607047000040380240044A00293B
:10288000116801D0014300E08143116070470000EE
:1028900020380240044A0029116801D0014300E0B9
:1028A000814311607047000044380240044A002907
:1028B000116801D0014300E08143116070470000BE
:1028C0002438024030B51C4A11681C4B11F00C0131
:1028D00003D0042901D0082901D0036013E0164970
:1028E000091F0C680C6804F03F04B3FBF4F30C6898
:1028F0000968C4F388146343C1F30141491C4900CA
:10290000B3FBF1F1016011680F2303EA11110C4BC5
:102910005C5C0168E14041601468072505EA942485
:102920001C5D21FA04F48460126805EA52329A5C54
:10293000D140C16030BD00000838024040787D01C0
:102940001400002070B50446B1F90200FAEE040A42
:1029500000EE100ABAEE0E1AB8EEC00A20EE200AF7
:10296000BDEEC00A10EE100A6060B1F9002000EE62
:10297000102AB8EEC00A20EE010AB2EE041ABDEE2B
:10298000C00A10EE102AC4F8B820B1F9062000EEF3
:10299000102AB8EEC00A20EE010ABDEEC00A10EE01
:1029A000102AC4F86C21B1F9042000EE102AB8EE08
:1029B000C00A20EE200ABDEEC00A10EE102AC4F8AC
:1029C0002022B1F9081000EE101AB8EEC00A9FEDEF
:1029D000F91AD4F8D81204F10D05C0EE010A00EE80
:1029E000101A002830EE800A10EE101AC4F8D8121F
:1029F000D4F8AD107ED0B1F9231000EE101AF8EE25
:102A0000C00A00EE100A2846B8EEC00AFFF71CFE06
:102A1000D4F8AD004169C161D4F8B810D4F86101AF
:102A200004F1C10500297DD0B0F9230000EE100AA1
:102A30002846F8EEC00A00EE101AB8EEC00AFFF7FA
:102A400003FED4F861114869C1F81C00D4F86C0188
:102A500004F27515002866D0D4F81512B1F92310C8
:102A600000EE101AF8EEC00A00EE100A2846B8EE82
:102A7000C00AFFF7E9FDD4F815024169C0F81C103F
:102A8000D4F83C14D4F8E50404F2454500297DD07F
:102A9000B0F9230000EE100A2846F8EEC00A00EE56
:102AA000101AB8EEC00AFFF7CFFDD4F8E50441696B
:102AB000C0F81C10D4F8C912BF48B1F92320643201
:102AC000C82A7DD8D4F82022002A79D0C288521C86
:102AD00013B20122C380322B72DB7FD14B690B61B1
:102AE0004FF002014170D4F82012002974DD027009
:102AF00074E0FFE7486900EE900AC86900EE100A2A
:102B000004F15D00FFF7A0FDD4F8AD00B0F923009B
:102B100000EE100AD4F89D00F8EEC00A00EE100A8C
:102B2000284601E003E01CE0FFF78EFD74E74169F1
:102B3000C06900EE901A00EE100A04F21110FFF7BF
:102B400083FDD4F86101B0F9230000EE100AD4F837
:102B50005101F8EEC00A00EE100A2846FFF774FD96
:102B600074E7D4F815024169C06900EE901A00EECE
:102B7000100A04F2C510FFF767FDD4F81502B0F98A
:102B8000230000EE100AF8EEC00A00E007E0D4F8D7
:102B9000050200EE100A2846FFF756FD70E741696E
:102BA000C06900EE901A00EE100A04F29540FFF79B
:102BB0004BFDD4F8E504B0F9230000EE100A01E063
:102BC0001DE009E0D4F8D504F8EEC00A00EE100AC2
:102BD0002846FFF739FD6DE7FF21017090F90010DD
:102BE000012903D1D4F82032002B05DB491C06D182
:102BF000D4F82012002902DD0021C180427090F932
:102C0000011004F22925022902D001291CD030E04C
:102C1000D4F8C9024169006900EE901A00EE100A6A
:102C200004F27920FFF710FDD4F8C902B0F92300AF
:102C300000EE100AD4F8B902F8EEC00A00EE100A4D
:102C40002846FFF701FD14E0D4F8C902B0F92300CB
:102C500000EE100AD4F82002F8EEC00A00EE100AC6
:102C60002846B8EEC00AFFF7EFFCD4F8C902416964
:102C70000161D4F87D03406900EE900AD4F8D802CF
:102C800000EE100A04F22D30FFF7DEFCD4F87D03CD
:102C9000B0F9230000EE100AD4F86D03F8EEC00A74
:102CA00000EE100A04F2DD20FFF7CEFCD4F8881302
:102CB000D4F8310404F29135E9B3B0F9230000EE01
:102CC000100A2846F8EEC00A00EE101AB8EEC00A44
:102CD000FFF7BAFCD4F831144869C861D4F8F0148D
:102CE000D4F8990504F2F94531B3B0F9230000EEA8
:102CF000100A2846F8EEC00A00EE101AB8EEC00A14
:102D0000FFF7A2FCD4F899054169C161D4F86902C2
:102D100000EE100ABDEEC00A10EE100A03B2D4F89D
:102D2000B50100EE100ABDEEC00A10EE100A02B2A4
:102D3000D4F8010101E041E05AE000EE100AD4F8B5
:102D4000B455BDEEC00A10EE100A01B2D4F84D0021
:102D500000EE100ABDEEC00A10EE100A00B2A8473D
:102D6000D4F8390500EE100ABDEEC00A10EE100AC4
:102D700003B2D4F8850400EE100ABDEEC00A10EECE
:102D8000100A02B2D4F8D10300EE100ABDEEC00A58
:102D900010EE100A01B2D4F81D03D4F8B84500EEC5
:102DA000100AA446BDE87040BDEEC00A10EE100A3D
:102DB00000B260470000C844CC0000204169C069EF
:102DC00000EE901A00EE100A04F2E130FFF73CFC2E
:102DD000D4F83104B0F9230000EE100AD4F821042D
:102DE000F8EEC00A00EE100A2846FFF72DFC75E742
:102DF0004169C06900EE901A00EE100A04F24950D1
:102E0000FFF722FCD4F89905B0F9230000EE100A70
:102E1000D4F88905F8EEC00A00EE100A2846FFF73C
:102E200013FC73E7F0B500285CD000295AD02E4877
:102E30000278437842EA0322C2F30A020A80437806
:102E40008478DB0843EA4413C3F30A034B80847895
:102E5000C578A40944EA8504057944EA8524C4F3C5
:102E60000A048C80057946796D0845EAC615C5F3D4
:102E70000A05CD804679B6098E724679C6F30116E9
:102E8000CE728679C77946EA0726A1F80D60067AE0
:102E9000477A46EA0726A1F80F60867AC77A46EA9B
:102EA0000726A1F81160067BCE76467B0E77867BDF
:102EB000C77B46EA0726A1F81D60067C407CA2F588
:102EC00080620A80A3F580634B80A4F5806446EAA3
:102ED00000208C80A5F58065CD80A0F580600881FC
:102EE00001200873F0BD0000142F0120704700007E
:102EF000034902488968886070470000112F000864
:102F0000803801204FF4FA7002F06AF90220FBE7E2
:102F10000248D0F8E825D0F8C81510476C320120D7
:102F200070B504460222F3EE040A9FED590A00F53B
:102F3000617100F5347001F0AFF8207B01281BD1DE
:102F4000D4F8AD004169006900EE901A00EE100A55
:102F500004F15D00FFF778FBD4F8AD00B0F9210073
:102F600000EE100AD4F89D00F8EEC00A00EE100A38
:102F700004F10D00FFF768FBD4F87D03406900EE13
:102F8000900AD4F8D80200EE100A04F22D30FFF7B0
:102F90005BFBD4F83104406900EE900AD4F88C034E
:102FA00000EE100A04F2E130FFF74EFBD4F87D0387
:102FB000B0F9230000EE100AD4F86D03F8EEC00A51
:102FC00000EE100A04F2DD20FFF73EFBD4F83104D6
:102FD000B0F9230000EE100AD4F82104F8EEC00A7C
:102FE00000EE100A04F29130FFF72EFBD4F86902CC
:102FF000D4F8B45500EE100ABDEEC00A10EE100A67
:1030000003B2D4F8B50100EE100ABDEEC00A10EE0E
:10301000100A02B2D4F8010100EE100ABDEEC00A97
:1030200010EE100A01B2D4F84D0000EE100ABDEE09
:10303000C00A10EE100A00B2A847D4F8390500EE15
:10304000100ABDEEC00A10EE100A03B2D4F88504CF
:1030500000EE100ABDEEC00A10EE100A02B2D4F85B
:10306000D10300EE100ABDEEC00A10EE100A01B244
:10307000D4F81D03D4F8B84500EE100AA446BDE804
:103080007040BDEEC00A10EE100A00B260470000AA
:10309000000020C32DE9F041044690F8AC05C24D74
:1030A0004FF001080026B0B9C4F84D60D4F8AD0067
:1030B000B0F92300401D0A280DD82888401C00B212
:1030C0002880642807DB2E8094F8B305401C84F820
:1030D000B30584F8AC8594F8AD15D4F8610104F11A
:1030E000C107B9B1806900EE900AD4F8BC0000EEC7
:1030F000100A04F21110FFF7A7FAD4F86101B0F931
:10310000230000EE100AD4F85101F8EEC00A00EED8
:10311000100A2DE0C4F8B860B0F9231032316429E8
:1031200018D86988491C09B26980042912DB6E80AD
:1031300094F8B315491C84F8B31584F8AD8541693A
:103140000161D4F861014169C161D4F8610140694C
:10315000C4F8BC00D4F86101B0F9230000EE100AF5
:10316000D4F8B800F8EEC00A00EE100AB8EEC00AB3
:103170003846FFF769FA94F8AF0548BB8B48C4F8A6
:103180002002D4F8C902B0F9230000EE100AF8EECC
:10319000C00A9FED870A04F22920FFF755FAD4F8F8
:1031A000C902B0F923003230642811D8E888401CE5
:1031B00000B2E88005280BDBC4F82062EE8094F8AA
:1031C000B305401C84F8B30584F8AF85C4F8696280
:1031D00094F8B00504F2DD27B8B3D4F87D03806914
:1031E00000EE900AD4F8D80200EE100A04F22D3056
:1031F000FFF72AFAD4F87D03B0F9230000EE100A95
:10320000D4F86D03F8EEC00A00EE100A3846FFF756
:103210001BFAD4F83104806900EE900AD4F88C03CC
:1032200000EE100A04F2E130FFF70EFAD4F8310490
:10323000B0F9230000EE100AD4F82104F8EEC00A19
:1032400000EE100A04F2913042E0FFE7C4F8D462C5
:10325000C4F8D163D4F87D13B1F923001E303C28A3
:1032600027D82889401C00B22881042821DB2E8120
:1032700094F8B305801C84F8B30584F8B08584F80D
:10328000B18548690861D4F87D134869C861D4F8EC
:103290007D034069C4F8D802D4F831044169016162
:1032A000D4F831044169C161D4F831044069C4F8EB
:1032B0008C03D4F87D03B0F9230000EE100AD4F893
:1032C000D402F8EEC00A00EE100A3846B8EEC00A82
:1032D000FFF7BAF994F8B305052813D1D4F8A4156B
:1032E00000231A46486C086484F8B365D4F8B455D2
:1032F00019461846A8470023D4F8B8551A46194667
:103300001846A847D4F86902D4F8B45500EE100A5C
:10331000BDEEC00A10EE100A03B2D4F8B50100EEFB
:10332000100ABDEEC00A10EE100A02B2D4F8010174
:1033300000EE100ABDEEC00A10EE100A01B2D4F879
:103340004D0000EE100ABDEEC00A10EE100A00B2E9
:10335000A847D4F8390500EE100ABDEEC00A10EEF9
:10336000100A03B2D4F8850400EE100ABDEEC00ABC
:1033700010EE100A02B2D4F8D10300EE100ABDEE2E
:10338000C00A10EE100A01B2D4F81D03D4F8B845F3
:1033900000EE100AA446BDE8F041BDEEC00A10EEF2
:1033A000100A00B2604700005E32012030F8FFFFD3
:1033B0000000FAC4004870473832012009281CD2A6
:1033C000DFE800F01B05070A0D10131619000C4862
:1033D00070470B482730704709484E3070470848FF
:1033E0007530704706489C3070470548C3307047B9
:1033F0000348EA30704703487047002070470000D8
:103400008630012097310120004870478038012024
:1034100000487047B200002070B5114D8021284649
:10342000FEF781FC0F4C012805D080212846FEF7CD
:103430007AFC18B105E06088401C01E06088401EFD
:103440006080B4F902100020022902DB0121217002
:1034500003E011F1020F01DC20706080207870BD64
:1034600000000240AC00002070B5114D40212846FC
:10347000FEF759FC0F4C012805D040212846FEF7E5
:1034800052FC18B105E0A088401C01E0A088401E55
:10349000A080B4F904100020022902DB0121617030
:1034A00003E011F1020F01DC6070A080607870BD54
:1034B00000000240AC00002000487047EF310120BE
:1034C0001CB501210846FFF7C1F900208DF8040062
:1034D0008DF8060003208DF8050002208DF8070006
:1034E000C020009069460248FEF7BCFB1CBD0000EE
:1034F000000002400949AC220A704870000A887036
:1035000007480278CA7040780871002048718871B5
:10351000CE20C87111210148FDF7D2BDC4000020A2
:10352000B20000200CB500202749019000900A68E5
:1035300042F480320A604FF4A0430A6802F4003279
:103540000092019A521C0192009A12B9019A9A4271
:10355000F3D10A68920334D5012000901A48403014
:10356000026842F0805202601848026842F4404209
:1035700002601548083002680260026842F40042A6
:103580000260026842F4A0520260031F104A1A60EF
:103590000A6842F080720A600A689201FCD50D4AFE
:1035A00040F205711160016821F0030101600168BA
:1035B00041F0020101600168C1F381010229FAD1E1
:1035C0000CBD00900CBD00000038024000700040AF
:1035D00019544007003C024010B501F02FFD00F0E7
:1035E00033F90448006801F021FEBDE8104001F005
:1035F00045BD000000000020884201D00120704736
:103600000020704710B5502080F31188BFF34F8F12
:10361000BFF36F8F02F074FA18B104494FF0805075
:103620000860002080F3118810BD000004ED00E068
:10363000124810B5016841F470010160104801683A
:1036400041F0010101600E4A002108321160026858
:103650000C4B1A400260031D0B4A1A60026822F4E8
:103660008022026006480C300160FFF75BFF0349CF
:103670004FF000608039086010BD000088ED00E068
:1036800000380240FFFFF6FE1030002470B5234CD6
:103690000121204600F085F8012838D120494888CA
:1036A000401C00B24880B0F57A7F0EDB08784042BB
:1036B0000870002048808A88521C12B28A803C2AF6
:1036C00003DBCA88521CCA80888091F90000154A21
:1036D000154D012802D0401C11D018E0B1F90200AC
:1036E0005A2190FBF1F301FB130080B980211046B1
:1036F000FEF722FB1F212846FEF71EFB07E0802174
:103700001046FEF717FB1F212846FEF713FB204645
:10371000BDE87040012100F037B80000000400400F
:10372000B600002000040240001002407FB50C46A5
:10373000054601210220FFF795F8641E6D1E00204A
:103740000194ADF800500F4CADF80200ADF8080040
:103750006946204600F03AF81D208DF80C0008203C
:103760008DF80D0001208DF80F0003A8FEF722FF51
:1037700001221146204600F020F80121204600F0E9
:1037800006F87FBD00040040C9430182704700294C
:10379000018802D041F0010101E021F00101018026
:1037A000704702460020138A92890B4202EA010206
:1037B00002D0002A00D001207047002A828901D05F
:1037C0000A4300E08A4382817047000030B50288D6
:1037D000164B174C98420DD0A0420BD0B0F1804F41
:1037E00008D0144DA84205D0134DA84202D0134D65
:1037F000A84203D122F070054A882A43104DA842FE
:1038000006D0104DA84203D022F440750A892A43FD
:1038100002804A68C2620A880285984201D0A042AA
:1038200001D1897A01860121818230BD00000140E9
:10383000000401400004004000080040000C00406B
:1038400000100040001400407CB516490720CDE967
:1038500000014FF4807500232A4613A1154802F099
:103860000FF910490920091DCDE9000100232A465E
:1038700011A1144802F004F90A4808240C30CDE9DB
:10388000004000232A4610A1124802F0F9F805482A
:1038900000230830CDE900402A460FA1114802F06C
:1038A000EFF87CBD0400002052656D6F74655F54B5
:1038B00061736B00052F00084465746563745F5481
:1038C00061736B00AD1B0008446174615F546173E8
:1038D0006B0000007D1B000847726173705F5461CC
:1038E000736B0000F121000810B50446D0F8AD005C
:1038F000012904D0022902D08169016110BD6FF055
:10390000020202EB410142F2107211FB02F100EEE1
:10391000101ADFED100AB8EEC00A20EE200ABDEE44
:10392000C00A10EE101A6160B0F9230000F08CFD9F
:103930003228E3DC08480178491CC9B20170142917
:10394000DCD900210170D4F8AD008169016101204A
:10395000207310BD9A99993ED600002010B50446F8
:10396000D0F8AD00012904D0022902D0816901619B
:1039700010BD6FF0020202EB410142F2107211FB26
:1039800002F16160B0F9230000F05EFDB0F5967FB2
:10399000EEDC08484178491CC9B241700529E7D9D5
:1039A00000214170D4F8AD008169016101202073CC
:1039B00010BD0000D600002070B596B001213D4832
:1039C000FEF744FF01211020FEF764FF3A4E072264
:1039D0000A213046FEF797F902208DF850000024A6
:1039E0008DF8524003208DF85100351513958DF850
:1039F000534013A93046FEF735F9304E304600F0FB
:103A000039F92F480F90ADF844500420ADF84040EC
:103A1000ADF84600ADF84240ADF848400FA9304639
:103A200000F0B6F90121304600F012F901224021E0
:103A3000304600F017F944208DF854008DF85540B9
:103A400001208DF8570015A8FEF7B4FD1D4E00218A
:103A50003046FDF791FF3068C007FCD13046FDF7D6
:103A600095FF4FF000600090144804A9001D0190DC
:103A70001548CDE90204122081E831004FF480702E
:103A8000CDE908404FF44030CDE90A0407940C9486
:103A90000D94694630460E94FEF744F80122102139
:103AA0003046FEF729F801213046FDF765FF16B0D4
:103AB00070BD000001004000000002400010014005
:103AC000A086010088640240142F012070B5194CB3
:103AD00040F22441204600F023F9002828D0164D5A
:103AE00000212846FDF748FF2846FDF7E1FF0028A2
:103AF000FAD120880F48001D00882846FDF7DFFF17
:103B0000C0F1800080B200210C4C0D4A03E0535CF0
:103B10006354491C89B28142F9D380212846FEF7BB
:103B20002BF801212846FDF727FF012084F84800E3
:103B300070BD00000014014028640240EF310120F4
:103B4000E62F012070B590B001213C48FEF77EFEC3
:103B500001212020FEF79EFE394E08220621304624
:103B6000FEF7D1F8082207213046FEF7CCF8C02036
:103B7000049002208DF8140000248DF816400325CF
:103B80008DF815508DF8174004A93046FEF76AF8F5
:103B90002C4E304600F06EF84FF4E1300090ADF856
:103BA00008400C20ADF80440ADF80A00ADF806401E
:103BB000ADF80C406946304600F0EAF847208DF831
:103BC000180001208DF81B008DF8195006A8FEF78B
:103BD000F1FC012240F22441304600F0C0F80121FE
:103BE000304600F035F8184D2846FDF7CFFEA80501
:103BF0000090301D01901548CDE902048020CDE9E8
:103C00000404C000CDE906048010CDE908404FF45B
:103C10004030CDE90A040C940D94694628460E9470
:103C2000FDF780FF01212846FDF7A6FE0122402175
:103C3000304600F017F810B070BD000004004000DE
:103C4000000802400014014028640240E62F0120D1
:103C50000029818902D041F4005101E021F4005192
:103C600081817047002A828A01D00A4300E08A439A
:103C700082827047224910B5884206D10121102066
:103C8000FEF714FE0021102020E01E49884202D1D8
:103C900001214C0429E01C49884202D101218C04F5
:103CA00023E01A49884202D10121CC041DE01849C1
:103CB000884202D101210C0517E01649884209D13A
:103CC00001212020FEF7F2FD00212020BDE8104058
:103CD000FEF7ECBD1049884202D101218C0704E0B7
:103CE0000E4988420AD1012144052046FEF7C6FD4F
:103CF0002046BDE810400021FEF7C0BD10BD000009
:103D0000001001400044004000480040004C0040CA
:103D1000005000400014014000780040007C00404A
:103D200030B501F01F0201240025C1F3421304FA4B
:103D300002F2012B0FD0022B0FD0838A4FEA112100
:103D40000088134204FA01F400EA040001D000B133
:103D50000125284630BD8389F0E7038AEEE710B5D8
:103D6000C1F3421301F01F040121A140012B07D030
:103D7000022B07D01430002A026805D00A4304E061
:103D80000C30F8E71030F6E78A43026010BD0000FF
:103D90007FB50446008A0D4620F44051E888084368
:103DA0002082A08941F20C618843A9882A891143A5
:103DB0006A8902431143A181A08A20F44071A88935
:103DC0000843A0826846FEF77DFD1A48844202D06F
:103DD0001948844201D1039800E00298A18909049E
:103DE00000EBC00101EB0010296801D5490000E09B
:103DF0008900B0FBF1F26420B2FBF0F109010B097C
:103E00006FF018056B4302EB8302A3891D044FF08A
:103E1000320306D503EBC202B2FBF0F000F007005C
:103E200005E003EB0212B2FBF0F000F00F000843D4
:103E300020817FBD0010014000140140FEE700001A
:103E400010B52B4C002094F8481001294FD1617F08
:103E5000A1F13002092A08D801EB4102C2EBC111DD
:103E600000EBC10000F5894080B2A17FA1F13002D2
:103E7000092A08D801EBC10202EB011100EB810015
:103E8000A0F5965080B2E17FA1F13002092A06D850
:103E900001EB810100EB4100A0F5F07080B294F8D5
:103EA0002010A1F13002092A02D83038084480B22B
:103EB00000EE100AB2EE041AF8EE400A80EE810A13
:103EC00010EE100AFCF7A2FB9FED0A1B53EC112B1E
:103ED000FCF797FAFCF7ADFB084960640A78032AFF
:103EE00002D104220A702064002084F8480010BD2A
:103EF000EF3101206666666666661040BE000020EF
:103F000002E008C8121F08C1002AFAD170477047A2
:103F1000002001E001C1121F002AFBD17047000000
:103F20002DE9F04106460D46501C01D0012A66D10C
:103F3000344CA07800B9A27094F902000027904296
:103F400003D0E77001202071A2704FF47A7012FB49
:103F500000F06860D5F8AD00B0F9230000F074FA05
:103F60001E2808DCE078401CC0B2E070142802D99A
:103F70000220207105E02079022802D0012803D018
:103F800013E0C5F84D7010E0D5F8AD00B0F923008E
:103F900000EE100A6868F8EEC00A00EE100A05F19B
:103FA0000D00B8EEC00AFEF74FFBD6F83905D6F87B
:103FB000B84500EE100AA446BDEEC00A10EE100A85
:103FC00003B2D6F8850400EE100ABDEEC00A10EE6A
:103FD000100A02B2D6F8D10300EE100ABDEEC00AF4
:103FE00010EE100A01B2D6F81D03BDE8F04100EE54
:103FF000100ABDEEC00A10EE100A00B26047BDE81C
:10400000F0810000CC00002010B50446094801787A
:10401000012909D002290BD1204600F0B1F9204630
:10402000BDE8104000F08ABA022101700020207320
:1040300010BD0000E400002010B5044690F8B30065
:10404000401C84F8B300D4F8AD00012A04D0022A41
:1040500002D08169016110BD5242032303EB420289
:1040600012FB01F16160B0F9230000F0EDF9322894
:10407000F1DC08488188491C09B281806429EADDA5
:1040800000218180D4F8AD00816901610120207395
:1040900010BD0000D60000202DE9F04101272DEDD4
:1040A000028BF0EE608AB0EE408A0D460446012A8B
:1040B0000DD0022A7ED0D4F8AD004069A060D5F8BA
:1040C000AD004069A860BDEC028BBDE8F081A0683E
:1040D00000EE900A9FED650A70EE800A10EE900ADD
:1040E000A060A86800EE900A30EEC00A10EE100A38
:1040F000A860A06800EE900AD4F8AD00C06900EE98
:10410000100A30EE080AF4EEC00AF1EE10FA06DBEF
:1041100000EE100A30EE080A10EE100AA060A8683F
:1041200000EE900AD5F8AD00C06900EE100A30EE3E
:10413000480AF4EEC00AF1EE10FA06D800EE100AB2
:1041400030EE480A10EE100AA860D4F8AD004169BC
:10415000C06900EE101A70EE480A00EE100A30EE48
:10416000C00A00F005F9B4EEE80AF1EE10FA0AD838
:104170002773D4F8AD00C06900EE100A30EE480A8B
:1041800010EE100AA060D5F8AD004169C06900EEDC
:10419000101A70EE080A00EE100A30EEC00A00F0A5
:1041A000E7F8B4EEE80AF1EE10FA8CD82F73D4F8E1
:1041B000AD0000E008E0C06900EE100A30EE480AE9
:1041C00010EE100AA0607EE7A0689FED290A00EEBD
:1041D000900A70EEC00A10EE900AA060A86800EE87
:1041E000900A30EE800A10EE100AA860D4F8AD00F4
:1041F0004169C06900EE101A00EE900A30EE600AC4
:1042000000F0B6F8B4EEE80A1A4EF1EE10FA02D851
:104210003088401C3080D5F8AD004169C06900EE9F
:10422000101A00EE900A30EE600A00F0A1F8B4EE29
:10423000E80AF1EE10FA02D87088401C7080B6F9D6
:1042400000001428BFDBB6F902001428BBDBD4F849
:10425000AD004069A060D5F8AD004069A860277343
:104260002F730020308070802DE700009A99193F4D
:10427000CDCCCC3EE000002070B504462DED028B85
:104280000125D0F8AD00F0EE608AB0EE408A012939
:1042900006D002293DD04069A060BDEC028B70BD04
:1042A000A168DFED300A00EE101A30EE601A11EE50
:1042B000101AA16001EE101AC16900EE101A30EE5A
:1042C000480AB4EEC01AF1EE10FA06D800EE101A41
:1042D00030EE480A10EE101AA1604169C06900EE84
:1042E000101A70EE080A00EE100A30EEC00A00F054
:1042F0003FF8B4EEE80AF1EE10FACED82573D4F800
:10430000AD00C06900EE100A30EE480A10EE100A47
:10431000C2E7A168DFED140A00EE101A30EE200AA1
:1043200010EE101AA1604169C06900EE101A00EE8B
:10433000900A30EE600A00F01BF8B4EEE80A0B4871
:10434000F1EE10FA02D84188491C4180B0F9021000
:104350001429A2DBD4F8AD104969A16025730021AE
:1043600041809AE7CDCCCC3E9A99993ED600002068
:10437000B5EEC00AF1EE10FA01D2B1EE400A704774
:1043800070B590F8AA2504462D49002500F5077060
:10439000062A1ED2DFE802F003111E2C1D49D4F8B4
:1043A000A4150122B2EE040A204600F0D3FD207BC2
:1043B00001280ED184F8285209E00122FFF73CFEC3
:1043C00094F82802012804D184F8C050022084F80F
:1043D000AA0570BD022104F5B470FFF785FA94F8C0
:1043E0007401012804D184F8DC52032084F8AA0562
:1043F0000122F1EE080A9FED130A04F5617104F53C
:104400003470FFF749FE94F8DC020128E1D194F8FA
:1044100090030128DDD184F82852C4F82052C4F852
:10442000F05484F8F8540520D1E70222FFF704FE87
:1044300094F828020128CCD194F8AA05401CC6E7BC
:10444000A8E4FFFF00003643002801DA404200B232
:10445000704700001CB5FDF7C1FF07490120CDE9F9
:1044600000010202002305A1074801F009FB00F04A
:10447000C1FF00201CBD00000000002053746172C9
:10448000745F5461736B0000D935000870B5044641
:1044900090F8AB250025264900F5347004F5077324
:1044A000052A13D2DFE802F00313212F3D0001217A
:1044B000F1EE080A9FED1F0AFFF7DEFE94F8DC021A
:1044C000012803D184F8285284F8AB0570BD01227D
:1044D0001846FFF7B1FD94F828020128F6D184F8B8
:1044E000DC52022084F8AA0570BD0221F3EE040A12
:1044F0009FED110AFFF7C0FE94F8DC020128F3D10A
:1045000084F8285209E002221846FFF795FD94F836
:1045100028020128E8D184F8DC5294F8AB05401C4D
:10452000D2E784F8285284F8DC520520CCE700005A
:10453000A8E4FFFF00006D43000020C32DE9F04117
:104540000446007B04F10D050027E8B3012858D08C
:10455000C4F84D705FF00106C6EB061000EB40009A
:1045600004EB8005287B80B3012877D0C5F84D7017
:10457000761CF6B2032EEFD394F8281204F2292504
:10458000002969D0012968D0C4F86972D4F8690299
:1045900000EE100ABDEEC00A10EE100A03B2D4F805
:1045A000B50100EE100ABDEEC00A10EE100A02B20C
:1045B000D4F8010100EE100ABDEEC00A10EE100A98
:1045C00001B2D4F84D0001E00DE036E000EE100A33
:1045D000D4F8B445BDEEC00AA446BDE8F04110EEE3
:1045E000100A00B26047D4F8AD00B0F9230000EE25
:1045F000100A6068F8EEC00A00EE100AB8EEC00AB1
:1046000017E0D4F8AD10486900EE900A086900EE92
:10461000100A04F15D00FEF717F8D4F8AD00B0F908
:10462000230000EE100AD4F89D00F8EEC00A00EE58
:10463000100A2846FEF708F88CE7D5F8AD00B0F967
:10464000230000EE100A6868F8EEC00A00EE100AB7
:10465000B8EEC00A1AE001E01DE02BE0D5F8AD107D
:10466000886900EE900A086900EE100A05F15D0005
:10467000FDF7EAFFD5F8AD00B0F9230000EE100A0F
:10468000D5F89D00F8EEC00A00EE100A05F10D0005
:10469000FDF7DAFF6CE7D4F8C902B0F9230000EEA9
:1046A000100AD4F82002F8EEC00A00EE100AB8EEA4
:1046B000C00A17E0D4F8C9028169006900EE901AB7
:1046C00000EE100A04F27920FDF7BEFFD4F8C9020B
:1046D000B0F9230000EE100AD4F8B902F8EEC00ACF
:1046E00000EE100A2846FDF7AFFF4FE72DE9F04135
:1046F000184C0F460546E6682068001D00F05AFC7D
:1047000038B9206890F82C10012088402169814335
:104710002161681C07D137B12168BDE8F0410E481E
:10472000091D00F07FBC20683544B5424560216812
:1047300005D2A06BBDE8F041091D00F05BBC606BC9
:10474000091D00F057FCA06A854200D2A562BDE8B1
:10475000F08100004C000020C00200202DE9F04153
:10476000054600F06BFC2D4CA068401CA060206842
:104770002B4F10B1606930B32BE02560A068012891
:1047800027D1002606EB860007EB800000F024FC12
:10479000761C102EF6D3234800F01EFC214814305E
:1047A00000F01AFC1F48283000F016FC1D483C3071
:1047B00000F012FC1B48503000F00EFC19486063FA
:1047C0001430A06305E02068E96AC06A884200D816
:1047D0002560606A401C60622864E96A01202269E1
:1047E00088401043206101EB810007EB8000291D08
:1047F00000F018FC00F042FC606900280CD0206832
:10480000E96AC06A884207D207494FF080500860C1
:10481000BFF34F8FBFF36F8FBDE8F0814C000020D6
:10482000300100207002002004ED00E010B500F01F
:1048300005FC0E4C2068A0B90D4800F0CDFB0C48DB
:10484000143000F0C9FB0A48E060143020610022F7
:104850000C210A2000F0ACFE206010B105A100F090
:1048600089FCBDE8104000F009BC000038000020C1
:1048700008010020546D72510000000070B5114E07
:10488000114C17E000F0EEFD3068B8B101F024FAE9
:1048900000F0D4FBF068C568281D00F08BFBA06811
:1048A000401EA0606068401E606000F0E7FB284684
:1048B00000F055F860680028E4D170BD01F00CFAF2
:1048C000F8E70000AC0200204C00002030B4026C7D
:1048D0000B46002A0BD0C1681144C1604468A14254
:1048E00001D30168C16030BC1846FBF7C5BC30BCC1
:1048F00070472DE9F041856B174604460026026C8F
:1049000082B1C7B1E068FBF7B7FCE168206C091A17
:10491000E1602268914202D26168081AE060022FC9
:1049200016D017E02068A8B9606801F04DF9064676
:10493000002060600EE0A068FBF79EFC216CA06880
:104940000844A0606168884204D32068A06001E048
:1049500005B16D1E6D1CA5633046BDE8F08110B534
:104960000446006B00F09EFB2046BDE8104000F0BE
:1049700099BB000010484FF49631420706D0C01D85
:104980000D4920F00700411AC1F596310B4A00236A
:104990000144C2E900030839103A21F0070111600F
:1049A0004B600B600B1AC0E9001393604FF000409E
:1049B0005360D0607047000014030020980000206E
:1049C000074C4FF08056074DFFF758FF206801282D
:1049D000FAD92E60BFF34F8FBFF36F8FF4E700005B
:1049E0003001002004ED00E02DE9F0470E46DDE93E
:1049F00009841746824691009946089DA522206B9E
:104A0000FBF74CFC6FF00301206B01EB87010844BE
:104A100020F00707780707D0502080F31188BFF3F4
:104A20004F8FBFF36F8FFEE72218315C82F834108E
:104A3000315C11B1401C0A28F6D3002684F83D6091
:104A4000102D00D30F25E562C4E91256201D00F099
:104A5000CEFA04F1180000F0CAFA2461C5F1100082
:104A60006462A061266584F854604A46514638461F
:104A700000F03CFA2060B8F1000F01D0C8F8004007
:104A8000BDE8F08730B5114900E011460A6882425E
:104A9000FBD34B685C18844203D1406818444860DB
:104AA000084643681C18944209D1084C103C2468FD
:104AB000A24209D052681A4442600A681268026031
:104AC000814200D0086030BD0460F9E79800002002
:104AD00070B5002441600B4D0061914206D8D11A97
:104AE0008269914206D2011D286907E09A4203D2E9
:104AF000994201D3012403E0011DE86800F07AFA2D
:104B0000204670BD3800002010B5044600F096FA2B
:104B1000A06B28B15FF0000400F0B0FA204610BD91
:104B20000124F9E730B587B02B4D4BE004980028FD
:104B300048DB069C606910B1201D00F03BFA02A81A
:104B400000F0B6F8024604980A283BD2DFE800F0ED
:104B50000505053A263705053A260598A169034655
:104B600001442046FFF7B4FF00B3616A204688473E
:104B7000E069012826D1002000900598A169002352
:104B800042181946204601F02FF978B9502080F3D9
:104B90001188BFF34F8FBFF36F8FFEE70598A061B9
:104BA00028B1811813462046FFF792FF0AE05020F3
:104BB00080F31188BFF34F8FBFF36F8FFEE720465E
:104BC00000F070FA00231A4604A9286800F01AFDC4
:104BD0000028ABD107B030BD380000202DE9FC41E2
:104BE0000F46054600F03EFC01A800F061F80446BF
:104BF000019818B101F070F8BDE8FC81224EAFB108
:104C000030690068A8B30027291B3A46306800F0D5
:104C1000C5FA01F061F80028EED11C494FF0805030
:104C20000860BFF34F8FBFF36F8FE5E7A542EBD866
:104C300001F052F8F0682746C068C468201D00F0F3
:104C4000B9F9E069012810D1A0692B4641193A460B
:104C50002046FFF73DFF40B100200346014600908B
:104C60002A46204601F0C0F820B1616A20468847F4
:104C7000C2E707E0502080F31188BFF34F8FBFF3E6
:104C80006F8FFEE70127BFE73800002004ED00E04A
:104C90000648416B096829B1416BC968C968496810
:104CA000816270474FF0FF31FAE700004C000020AE
:104CB00070B5054600F01EFF064E0446B0688442FB
:104CC00003D200F009F8012000E00020286020460F
:104CD000B46070BD38000020F8B5194D1FE0C06801
:104CE000C4680668201D00F065F9616A204688479F
:104CF000E069012813D1A0693044B04206D924618B
:104D00006060211DE86800F075F908E000200346A6
:104D1000014600903246204601F066F838B1E86856
:104D200001680029DBD12969C5E90310F8BD5020CD
:104D300080F31188BFF34F8FBFF36F8FFEE7000042
:104D40003800002008484068401C4FF0500080F3B5
:104D5000118804D0BFF34F8FBFF36F8FFEE7BFF30F
:104D60004F8FBFF36F8FFEE7A0000020074CE06875
:104D7000016841B1C0680021D0F80000FFF72EFFA4
:104D8000FFF7D0FEF3E701210020F7E7380000200D
:104D90002DE9F041044600F051F994F9455004F131
:104DA000240609E0606A48B1304600F059FF08B1B6
:104DB00000F092FA6D1E6DB2002DF3DC4FF0FF365D
:104DC00084F8456000F05AF900F038F994F944503D
:104DD00004F1100709E0206948B1384600F040FFAF
:104DE00008B100F079FA6D1E6DB2002DF3DC84F885
:104DF0004460BDE8F04100F041B900002DE9F04108
:104E00000546002700F02EFB314E306808B9FFF749
:104E1000B1FDF06805424BD1C5B3083568070ED027
:104E200005F00700C0F108000544680707D05020CE
:104E300080F31188BFF34F8FBFF36F8FFEE72DB361
:104E40007068854234D82248103001460C6801E071
:104E500020460C466168A94202D221680029F7D198
:104E600031688C4224D00768216801606068083787
:104E7000411B10290FD96019420708D0502080F338
:104E80001188BFF34F8FBFF36F8FFEE710E04160D3
:104E90006560FFF7F7FD61687068401A7060B2687E
:104EA000904200D2B060F06801430020C4E90001E4
:104EB00000F012FF780707D0502080F31188BFF36D
:104EC0004F8FBFF36F8FFEE73846BDE8F0810000DB
:104ED000880000200449086818B10868C26C521C98
:104EE000C2640868704700004C00002010B5031F22
:104EF0004FF080741C601B1F21F001011960191F05
:104F0000044B0B6014390A60091F6FF00202443829
:104F10000A6010BD454D0008012A10D0022A0ED0AB
:104F20000022C0F84D200A78012A07D149780129CA
:104F300004D10173D0F8AD004169016170476FF091
:104F4000020303EB42024FF47A7312FB03F2426056
:104F5000E9E700000123012A04D0022A17D000212A
:104F600041607047124A42604A6C096C00EE902A18
:104F700001EE101A70EEC10AF4EEC00AF1EE10FA5A
:104F8000EFDB0373D0F8AD0041690161704740F673
:104F9000B83242604A6C096C00EE902A01EE101A99
:104FA00070EEC10AF4EEC00AF1EE10FAE9D97047CA
:104FB00048F4FFFFD0E9013201699A60D0E901238A
:104FC0005A604A68824201D182684A6000220261C6
:104FD0000868401E0860704700F108014FF0FF327A
:104FE000C0E90112C1600161002101607047002128
:104FF0000161704730B50B685A1C02D000F10802FD
:1050000002E0026904E02246546825689D42FAD90C
:1050100053684B6099608A60516008610168491C5F
:10502000016030BD42684A6093688B609368596044
:10503000916008610168491C01607047502080F34D
:105040001188BFF34F8FBFF36F8F0A494868401C28
:10505000486001280CD10848006810F0FF0F07D005
:10506000502080F31188BFF34F8FBFF36F8FFEE79F
:1050700070470000A000002004ED00E008494868E7
:1050800028B1401E486001D180F31188704750203C
:1050900080F31188BFF34F8FBFF36F8FFEE70000DF
:1050A000A000002070B5002827D0144DA0F10804FE
:1050B0006168E868014207D1502080F31188BFF38E
:1050C0004F8FBFF36F8FFEE722683AB1502080F315
:1050D0001188BFF34F8FBFF36F8FFEE7814361608D
:1050E00000F0C0F960686968084468602046FFF70E
:1050F000C9FCBDE8704000F0EFBD70BD8800002025
:1051000006484FF47A710068B0FBF1F14FF0E020EF
:10511000491E416107210161704700002400002001
:1051200010B5FBF793F8114910280ED300F1E020D9
:1051300090F8F0030A78904207D2502080F311884B
:10514000BFF34F8FBFF36F8FFEE709480068896890
:1051500000F4E060884207D9502080F31188BFF343
:105160004F8FBFF36F8FFEE710BD0000A00000203F
:105170000CED00E010B5084B002200BF53F83240A0
:105180001CB1521C082AF9D310BD43F8321003EBAE
:10519000C201486010BD0000D402002070B5154661
:1051A0000E460446FFF74AFF94F944100020491CBC
:1051B00001D184F8440094F94510491C01D184F8C8
:1051C0004500FFF75BFFA06B28B92A46314604F182
:1051D000240000F09FF82046BDE87040FFF7D8BDDE
:1051E00010B5020014D00F48006B38B1502080F386
:1051F0001188BFF34F8FBFF36F8FFEE700F032F9D6
:1052000000211046FFF772FA00F066FD002807D172
:1052100005494FF080500860BFF34F8FBFF36F8F89
:1052200010BD00004C00002004ED00E070B5054604
:10523000FFF704FF244C05B92568281DFFF7BAFEC7
:1052400058B9E86A214A00EB800152F8211021B9CF
:1052500001218140206988432061A86A18B105F1C5
:105260001800FFF7A7FE606A401C60622068854254
:1052700007D1291D1648FFF7D5FE6068401C606005
:1052800007E0A068401EA0602846FFF768FBFFF714
:10529000FFFCFFF7F3FE6069002814D02068854208
:1052A00011D1206B38B1502080F31188BFF34F8F9C
:1052B000BFF36F8FFEE707494FF080500860BFF3E0
:1052C0004F8FBFF36F8F70BD4C0000203001002066
:1052D000AC02002004ED00E001490120C8617047E4
:1052E0004C00002010B50C4650B10949096818312E
:1052F000FFF780FE2046BDE810400121FFF7F6B918
:10530000502080F31188BFF34F8FBFF36F8FFEE7FC
:105310004C00002070B514460D4668B10A49096872
:105320001831FFF77FFE0CB14FF0FF3521462846BC
:10533000BDE87040FFF7DAB9502080F31188BFF361
:105340004F8FBFF36F8FFEE74C00002070B5040055
:1053500039D01D4DE06A2968C96A884233D2A069F4
:10536000002804DB2868C06AC0F11000A061E16A6F
:10537000164E01EB8101606906EB810188421FD165
:10538000201DFFF717FE012150B9E06A00EB8002F3
:1053900056F8222022B92A6901FA00F082432A61D4
:1053A0002868C06AE0622A6981401143296100EBE4
:1053B000800006EB8000211DBDE87040FFF732BE83
:1053C0002868C06AE06270BD4C00002030010020F7
:1053D00028B107490A6A0260C968416070475020D5
:1053E00080F31188BFF34F8FBFF36F8FFEE700008C
:1053F0004C0000201CB517480024CDE9004023468E
:10540000822215A1164800F03BFB012803D100F0D1
:10541000C5FC012809D0401C1AD1502080F3118806
:10542000BFF34F8FBFF36F8FFEE7502080F31188DB
:10543000BFF34F8FBFF36F8F06484FF0FF312C380B
:10544000816201214161C460BDE81C4000F040B8A8
:105450001CBD00007800002049444C4500000000BD
:10546000C14900080248016B491C016370470000F4
:105470004C0000201448016B11B10121C16170473B
:105480000021C1610169B1FA81F1C1F11F0101EB94
:1054900081020E4951F822306BB101EB820101F11A
:1054A00008034A6852684A609A4201D152684A60C9
:1054B000D16801607047502080F31188BFF34F8F8F
:1054C000BFF36F8FFEE700004C000020300100208A
:1054D0001CB532480168324A914207D1502080F30E
:1054E0001188BFF34F8FBFF36F8FFEE700682C4921
:1054F000491E884207D1502080F31188BFF34F8F97
:10550000BFF36F8FFEE7274908780190FF200870EE
:1055100008788DF800009DF800009DF8002000F04C
:10552000F000904207D0502080F31188BFF34F8FD6
:10553000BFF36F8FFEE79DF800001B4A00F050009C
:1055400010700720906005E09DF800305B008DF83A
:105550000030401E9DF800301B06F5D4000200F418
:10556000E0609060019808700C482030016841F4B8
:1055700070010160016841F070410160FFF7C0FDFA
:1055800000205060FAF72AFE0848016841F04041C7
:105590000160FAF713FE00201CBD000000ED00E0E2
:1055A00071C20F4100E400E0A000002034EF00E0F1
:1055B0002DE9F04117460E46050016D0EEB105FB69
:1055C00006F05030FFF71AFC04000CD004F1500034
:1055D000AEB12060C4E90F562046012100F0C8F8A2
:1055E000204684F84C70BDE8F081502080F311888B
:1055F000BFF34F8FBFF36F8FFEE70020E1E724601A
:10560000E8E700002DE9FF4F002683B09B468A465D
:10561000040003D0BAF1000F08D011E0502080F34D
:105620001188BFF34F8FBFF36F8FFEE7206C38B147
:10563000502080F31188BFF34F8FBFF36F8FFEE7C9
:1056400000F04AFADFF824814FF000094FF080574C
:1056500048B9059838B1502080F31188BFF34F8FB7
:10566000BFF36F8FFEE7FFF7E9FCA56B45B351462B
:105670002046E668FFF72AF9BBF1000F13D0E66079
:10568000606A50B104F1240000F0EAFA28B1C8F8C9
:105690000070BFF34F8FBFF36F8FFFF7EFFC012058
:1056A00007B0BDE8F08F6D1EA563206810B9FFF745
:1056B00011FC606020690028EFD004F11000E3E7DE
:1056C000059808B11EB106E0FFF7D8FC27E0684650
:1056D000FFF77EFE0126FFF7D1FCFFF7C3FEFFF7C1
:1056E000ADFC94F94400401C01D184F8449094F935
:1056F0004500401C01D184F84590FFF7BFFC05A987
:10570000684600F087F9002820460AD0FFF740FBE2
:1057100000F0E2FA2046FFF7F7F90028A3D00020B6
:10572000BEE7FFF7F1F9D8B1206830B9FFF786FC82
:105730006068FFF70BFEFFF7A1FC04F12400059958
:10574000FFF7D0FD2046FFF723FB00F0C5FA002845
:1057500089D1C8F80070BFF34F8FBFF36F8F82E716
:105760002046FFF715FB00F0B7FA7CE704ED00E0F8
:1057700070B50D46040025D0FFF760FCD4E90F207A
:10578000216802FB001161600021A1632168A16012
:105790000A46D4E90F01401E00FB0121E1602146C9
:1057A0004FF0FF3001F8440F487004F110008DB144
:1057B000FFF712FC04F12400FFF70EFCFFF75EFC7C
:1057C000012070BD502080F31188BFF34F8FBFF3CD
:1057D0006F8FFEE721690029F0D000F041FA002820
:1057E000ECD004494FF080500860BFF34F8FBFF3F7
:1057F0006F8FE3E704ED00E02DE9FF4782B01D461F
:105800008A464FF00008040003D0BAF1000F08D018
:1058100011E0502080F31188BFF34F8FBFF36F8FDB
:10582000FEE7206C38B1502080F31188BFF34F8F12
:10583000BFF36F8FFEE7022D0AD1E06B012807D07E
:10584000502080F31188BFF34F8FBFF36F8FFEE7B7
:1058500000F042F93F4F4FF000094FF0805648B931
:10586000049838B1502080F31188BFF34F8FBFF3F5
:105870006F8FFEE7FFF7E2FBA06BE16B884207D377
:10588000022D05D00498D0B1B8F1000F1AD01EE057
:105890002A4651462046FFF72CF8616A19B104F1F7
:1058A000240000F0DDF920B13E60BFF34F8FBFF35D
:1058B0006F8FFFF7E3FB012006B0BDE8F087FFF72D
:1058C000DDFB22E06846FFF783FD4FF00108FFF79C
:1058D000D5FBFFF7C7FDFFF7B1FB94F94400401C6F
:1058E00001D184F8449094F94500401C01D184F81A
:1058F0004590FFF7C3FB04A9684600F08BF830B170
:105900002046FFF745FA00F0E7F90020D4E7FFF75B
:1059100095FBA06BE16B884213D1FFF7AFFB04F15D
:1059200010000499FFF7DEFC2046FFF731FA00F083
:10593000D3F900289ED13E60BFF34F8FBFF36F8F26
:1059400098E7FFF79BFB2046FFF722FA00F0C4F927
:1059500090E7000004ED00E02DE9F0471F46904677
:105960008946040003D0B9F1000F08D011E050209F
:1059700080F31188BFF34F8FBFF36F8FFEE7206C6A
:1059800038B1502080F31188BFF34F8FBFF36F8F72
:10599000FEE7022F0AD1E06B012807D0502080F3E8
:1059A0001188BFF34F8FBFF36F8FFEE7FFF7B8FB90
:1059B0005020EFF3118680F31188BFF34F8FBFF3B0
:1059C0006F8FA06BE16B884206D3022F04D00020BA
:1059D00086F31188BDE8F08794F945503A46494668
:1059E0002046FEF786FF681C04D06D1C84F84550E5
:1059F0000120EDE7606A0028FAD004F1240000F0ED
:105A00002FF90028F4D0B8F1000FF1D00121C8F827
:105A10000010EDE770B50D46040019D005B3FFF78F
:105A20000DFB164AD1682868431C0FD02368126A00
:105A3000934202D062688A421AD96268891A814206
:105A400016D2401A28602046FFF7C2FC002410E05E
:105A5000502080F31188BFF34F8FBFF36F8FFEE7A5
:105A6000502080F31188BFF34F8FBFF36F8FFEE795
:105A70000124FFF703FB204670BD00004C0000200E
:105A80002DE9FF5F8346DDE90E87994616468A4673
:105A90009000FFF7B3F905001AD05820FFF7AEF9D0
:105AA000040012D025630021CDE90241CDE9008731
:105AB0004B46324651465846FEF796FF2046FEF7C3
:105AC0004DFE012004B0BDE8F09F2846FFF7EAFA3A
:105AD0004FF0FF30F6E700000548416919B1006B4F
