:020000040800F2
:10000000203D01205902000839220008192000086B
:10001000CD210008B50B00084D3800080000000095
:10002000000000000000000000000000A101000826
:10003000051C000800000000F50100088D300008D4
:1000400073020008730200087302000873020008BC
:1000500073020008730200087302000873020008AC
:10006000730200087302000873020008730200089C
:10007000730200087302000873020008730200088C
:10008000730200087302000873020008730200087C
:100090008D0D000873020008730200087302000847
:1000A000730200087302000873020008730200085C
:1000B000730200081531000873020008730200087B
:1000C000730200087302000873020008730200083C
:1000D000730200087302000873020008730200082C
:1000E000730200087302000873020008730200081C
:1000F000730200087302000873020008730200080C
:1001000073020008730200087302000873020008FB
:1001100073020008730200087302000873020008EB
:10012000730200080919000873020008730200082E
:1001300073020008730200087302000873020008CB
:10014000FD0F000873020008730200087302000824
:10015000491900087302000873020008DD34000822
:10016000730200087302000873020008730200089B
:10017000730200087302000873020008730200088B
:100180007302000873020008DFF810D000F024FBAF
:1001900000480047BD3D0008AFF30080203D01202E
:1001A0002A4B19680868B0E8F04F80F30988BFF35C
:1001B0006F8F4FF0000080F311887047000000003F
:1001C00006480068006880F3088862B661B6BFF32D
:1001D0004F8FBFF36F8F00DF00BF00BF08ED00E05F
:1001E000DFF80C00016841F470010160704700BF46
:1001F00088ED00E0EFF30980BFF36F8F134B1A68AF
:100200001EF0100F08BF20ED108A20E9F04F10609B
:1002100008B44FF0500080F31188BFF34F8FBFF345
:100220006F8F04F095FD4FF0000080F3118808BC3B
:1002300019680868B0E8F04F1EF0100F08BFB0EC66
:10024000108A80F30988BFF36F8F70474C0000203D
:10025000EFF30580704700000648804706480047D6
:10026000FEE7FEE7FEE7FEE7FEE7FEE7FEE7FEE766
:10027000FEE7FEE7B93000088901000840EA010303
:100280009B0703D009E008C9121F08C0042AFAD24C
:1002900003E011F8013B00F8013B521EF9D2704710
:1002A000D2B201E000F8012B491EFBD270470022B8
:1002B000F6E710B513460A4604461946FFF7F0FF65
:1002C000204610BD2DE9FE4F804681EA0300C00F95
:1002D0000C46009021F0004123F00045B8EB0200ED
:1002E000A94105D24046214690461C460B4602468F
:1002F00023F00040104347D0270DC7F30A00C3F393
:100300000A510290401A019040286BDAC3F313009F
:1003100040F4801B0098924620B10023D2EB030AE0
:1003200063EB0B0B01985946C0F14002504600F0B8
:100330009EF906460D4650465946019A00F0A6F928
:1003400010EB08006141002487EA115284EAE77348
:100350001A4340D0009A62B3019A012A4FEA075229
:1003600015DC001B61EB02014FF0004202EA07526C
:10037000CDE90042001C41F5801132462B4600F0C9
:10038000DDF903B0BDE8F08F40462146F9E7001BD8
:1003900061EB0201001C41F5801300185B4120183D
:1003A000A2F5001747EB030140EAD570B6196D417D
:1003B00011E06D084FEA360645EAC0754FEA07526C
:1003C000001B61EB0201001C41F5801149084FEA56
:1003D00030000019514132462B4603B0BDE8F04FC2
:1003E00000F09DB90098012240000023D0EB0202EA
:1003F00063EBE073009821464FEAE074B8EB00002D
:1004000061EB0401E9E783F000435BE781F0004121
:1004100058E72DE9FE4F81EA030404F0004421F07F
:10042000004100944FF0000B23F0004350EA010418
:100430005ED052EA03045BD0C3F30A54C1F30A55F9
:100440002C44A4F2F3340194A0FB0254C1F3130131
:1004500041F48011C3F3130343F4801301FB0244FE
:1004600000FB034E840A970A44EA815447EA835703
:10047000A4FB076802958D0A05FB07854FEA932CBC
:1004800004FB0C542705029D4FEA065847EA16372D
:10049000B5EB08056EEB070C870E920E47EA811745
:1004A00042EA8312A7FB0201B6EB0B0164EB0004E6
:1004B0002B0D43EA0C335E1844EB1C50DA465146D0
:1004C000E7FB0201C5F313044FEA0B3343EA14536D
:1004D0004FEA0432019C43EA0603A4F10C0402949F
:1004E000009CCDE900B400F029F903B0BDE8F08F1D
:1004F00000200146F9E72DE9F04D81EA030404F0FC
:10050000004B21F0004514464FF0000A23F0004153
:1005100050EA050220D054EA01021DD0C5F30A5763
:100520000246C5F31303C1F31300C1F30A5640F4A6
:10053000801543F48013A7EB0608101BD64608F27B
:10054000FD3873EB050002D308F1010801E09218B1
:100550005B41B8F1000F03DA00200146BDE8F08DE1
:1005600000204FF48011064684460EE0171B73EB03
:10057000050705D3121B63EB050306434CEA010C88
:1005800049084FEA300092185B4150EA0107EDD16B
:1005900052EA030012D082EA040083EA050108430C
:1005A00005D0101BAB4106D20122002306E0002239
:1005B0004FF0004302E06FF0010253101AEB060007
:1005C0004CEB085110EB0A0041EB0B01BDE8F04D7C
:1005D00000F0A5B80EB5C10F80EAE0700844CA0764
:1005E000002140F233438DE80E000A460B4600F02E
:1005F000A5F803B000BD0EB540F2334102910021D1
:10060000CDE900110A460B4600F098F803B000BD92
:1006100000F0004230F000400AD0C10D01F56071D9
:10062000C0F3160042EA0151C20840071143704767
:1006300000200146704701F0004330B421F0004132
:1006400050EA010206D00A0DA2F56072C1F313014F
:10065000002A02DC30BC00207047440F44EAC10489
:10066000C100E01830BC00EBC25000F021B8202AD5
:1006700004DB203A00FA02F1002070479140C2F1F9
:10068000200320FA03F3194390407047202A06DB29
:10069000CB17203A41FA02F043EAE07306E041FA50
:1006A00002F3D040C2F1200291400843194670473E
:1006B0000029A8BF7047401C490008BF20F0010076
:1006C000704710B4B0FA80FC00FA0CF050EA010454
:1006D00004BF10BC704749B1CCF1200421FA04F4E6
:1006E00011FA0CF118BF012121430843A3EB0C01BF
:1006F000CB1D4FEA00614FEA102042BF002010BC22
:10070000704700EBC35010440029A4BF10BC7047D1
:10071000401C490008BF20F0010010BC704710B514
:10072000141E73F1000408DA401C41F10001921814
:100730005B411A4301D120F0010010BD2DE9F04DBD
:1007400092469B4611B1B1FA81F202E0B0FA80F212
:1007500020329046FFF78BFF04460F4640EA0A001E
:1007600041EA0B0153465A46084313D0114653EA57
:10077000010019D0C8F14002504600F03FF805468C
:100780000E46504659464246FFF771FF084305D0D2
:10079000012004E020463946BDE8F08D00200543E5
:1007A00046EAE0762C4337430A986305E40AA0EB57
:1007B00008000022FD0A44EA47540A3002D500200E
:1007C0000146E9E7010510196941DDE9084500190D
:1007D0006941BDE8F04DA2E7064C074D06E0E06830
:1007E00040F0010394E8070098471034AC42F6D378
:1007F000FFF7CEFCE457000804580008202A04DB69
:10080000203A21FA02F00021704721FA02F3D04089
:10081000C2F120029140084319467047704700001A
:10082000034902488968886070470000350800085D
:100830005638012010B5084C08482178D0F8CC254E
:10084000012903D0BDE810400021104701210348D1
:1008500090470220207010BDE70000206A3201207E
:100860002DE9F041374E0446012730780025012854
:1008700004D1717002203070F1B3257370780128B3
:1008800003D0022828D0B8B356E094F8A005D4F8D5
:100890009C1504280CD00122B2EE040A204603F075
:1008A000C7FF207B012847D1204600F065F843E0D0
:1008B0000222B7EE000A204603F0BAFF207B01288F
:1008C0003AD184F8255284F8D85284F88B53377083
:1008D000757084F8A0552FE094F8A105D4F89C1504
:1008E00004280ED00122B2EE0B0A204603F0A0FF2E
:1008F000207B012820D100E01DE0204600F09EF87A
:100900001AE00222B1EE020A204603F091FF207B9A
:10091000012811D1C4F8B75084F8BF50C4F81D5253
:1009200084F8255284F8D85284F88B533770757048
:1009300084F8A15500E037702046BDE8F04103F08F
:1009400059BA0000D800002010B5044609480178C3
:10095000012909D002290BD1204603F077F920465E
:10096000BDE8104003F046BA022101700020207358
:1009700010BD0000E600002070B5044690F8A025E8
:1009800000F27F31002500F53370CAB141F27C5688
:1009900004F21923012A27D0022A36D0032A33D1A0
:1009A00002223146184603F02FF894F82502012858
:1009B0002AD1C4F81D5284F825522573042021E061
:1009C0000122F1EE080A9FED1B0A03F047F894F8A4
:1009D000D802012818D194F88B03012814D1C4F847
:1009E0001D5284F825520DE001223146184603F0CD
:1009F0000BF894F82502012806D184F8D85284F81F
:100A00008B53022084F8A00570BD0222F3EE040A85
:100A10009FED090A03F022F894F8D8020128F3D1D7
:100A200094F88B030128EFD1C4F81D5284F82552A5
:100A30000320E7E700003643000020C370B50446FA
:100A400090F8A11500250126B33081B1012920D0ED
:100A500002292AD003291BD12046FFF78DFF94F8E5
:100A6000A005042814D1257384F8A0552DE0D4F8EE
:100A70009815012203F0ACFE94F8BF00012807D1BD
:100A800084F8D85284F88B5384F8A05584F8A16573
:100A900070BD2046FFF770FF94F8A0050428F7D139
:100AA000267384F8BF5002200FE0D4F89815012275
:100AB00003F08EFE94F8BF000128E9D184F8D852E3
:100AC00084F88B5384F8A055032084F8A10570BDE9
:100AD00010B502F0A9F90249C1F81F0010BD0000CD
:100AE0003832012070B53148314B4FF4FA74D0F8E8
:100AF0001F200021157CC5B1012D20D15578167815
:100B000046EA05250580D578967846EA052545808C
:100B10005579167946EA05258580D579967946EA8C
:100B20000525C5801174198009E01A88521C12B27B
:100B30001A80A24203DBC180818041800180D0F80D
:100B40001F20557C2DB3012D10D0022D0DD1032176
:100B500000F80A1F012141701378417E63F382017E
:100B60004176527862F30101417670BD547A157A6C
:100B700045EA042464420481947A8472D47AC4726B
:100B8000547B157B45EA0424A0F81D40517459801C
:100B900070BD5A88521C12B25A80A242F8DB018101
:100BA000A0F81D10C172817270BD000038320120A2
:100BB000C4000020FEE70000F0B585B000244FF42B
:100BC000007500958DF808408DF8094008258DF8CE
:100BD0000A50050A8DF80C00080A8DF80D008DF8F2
:100BE0000E10100A8DF80F008DF81020180A8DF8DD
:100BF00011000C4E8DF80B508DF8123069463046BE
:100C000000F06EFD054640F6FF7701E0641CA4B2DB
:100C10002946304600F0C4FD002801D1BC42F5D37E
:100C200005B0F0BD00640040F0B585B0002440F28E
:100C3000FF1500958DF808408DF8094008258DF8BE
:100C40000A50050A8DF80C00080A8DF80D008DF881
:100C50000E10100A8DF80F008DF81020180A8DF86C
:100C600011000C4E8DF80B508DF81230694630464D
:100C700000F036FD054640F6FF7701E0641CA4B2A3
:100C80002946304600F08CFD002801D1BC42F5D346
:100C900005B0F0BD006400402DE9F04F8BB08A46EE
:100CA00081461E46904601210820DDF850B001F033
:100CB000F1FB0121480601F0F9FB324F0922002126
:100CC000384601F048F809220121384601F043F87E
:100CD00002218DF82010032000248DF822408DF889
:100CE0002100079001258DF8235007A9384600F010
:100CF000E1FF14208DF824008DF825508DF8275041
:100D000009A801F09BFA204F384600F045FB6846E1
:100D100000F0D6FC8DF806408DF808408DF80740AD
:100D20008DF809408DF802B08DF80A408DF80390D7
:100D30008DF804A08DF80B508DF80580ADF800609B
:100D40006946384600F000FC8DF816408DF81740D3
:100D50008DF81850ADF80C40ADF81040ADF80E40CD
:100D6000ADF81240ADF814408DF8195003A800F00A
:100D700029FB01220221384600F0DEFB0BB0BDE862
:100D8000F08F0000000C02400064004010B55A4C87
:100D900086B00221204600F07BFB00286ED00221A5
:100DA000204600F009FA5549204600F0EDF96A4660
:100DB0000021204600F03CFC009940F205235048F9
:100DC000A1F2052299426FD01DDCA1F50071013915
:100DD0002CD001293DD0022952D003294ED19DF8B3
:100DE0000C109DF80B2001EB022109B281819DF8C6
:100DF0000E209DF80D3002EB0322414B12B2C2814E
:100E000095331B2038E0012A5BD0022A67D0032AE1
:100E100034D1BDF80B103B4B49BA09B28183BDF800
:100E20000D2052BA12B2C283242025E09DF80C1086
:100E30009DF80B2001EB022109B201809DF80E20E4
:100E40009DF80D3002EB03222D4B12B2428020336D
:100E5000D7E79DF80C109DF80B2001EB022109B299
:100E600081809DF80E209DF80D3002EB0322244B6B
:100E700012B2C280473330E000F0DAF906B010BD9C
:100E80009DF80C109DF80B2001EB022109B20181A5
:100E90009DF80E209DF80D3002EB0322184B12B284
:100EA00042816E33C0E7FFE7BDF80B10154B49BA1E
:100EB00009B20182BDF80D20753B52BA12B24282CE
:100EC0000BE0BDF80B100F4B49BA09B28182BDF897
:100ED0000D204E3B52BA12B2C2821320CCE7BDF8AD
:100EE0000B10084B49BA09B20183BDF80D20273B0E
:100EF00052BA12B2428397E7006400400800003201
:100F000066300120973101202DE9F04F8946824655
:100F10008BB0984693460121022001F0BBFA0121D3
:100F2000880601F0C3FA334F09220521384600F044
:100F300012FF09220621384600F00DFF602002262C
:100F400007908DF8206000248DF8224003208DF852
:100F5000210001258DF8235007A9384600F0AAFE8C
:100F600040208DF824008DF825608DF8275009A8C1
:100F700001F064F9204E304600F00EFA684600F0A9
:100F80009FFB14988DF806408DF808408DF80200FC
:100F90008DF807408DF809408DF80A408DF803A0C0
:100FA0008DF804908DF80B508DF805B0ADF80080E9
:100FB0006946304600F0C8FA0E208DF816008DF80C
:100FC00017408DF81850ADF80C40ADF81040ADF852
:100FD0000E40ADF81240ADF814408DF8195003A83A
:100FE00000F0F0F901220221304600F0A5FA0BB022
:100FF000BDE8F08F000402400068004010B5434C8B
:1010000086B00221204600F043FA00282DD00221AC
:10101000204600F0D1F86A460021204600F008FB87
:10102000009A01213A48A2F20142052A1DD2DFE8C6
:1010300002F0031E323A5E009DF80B2002709DF80C
:101040000C2042709DF80D2082709DF80E20C27019
:101050009DF80F2002719DF8102042719DF811201B
:1010600082719DF81220C271017406B010BD9DF806
:101070000B2002729DF80C2042729DF80D208272A6
:101080009DF80E20C2729DF80F2002739DF810206B
:1010900042734174E9E79DF80B100A2903D19DF8CA
:1010A0001210CE2904D09DF81210772909D01EE025
:1010B0009DF80C1001709DF80D10417002214174D3
:1010C00015E09DF80B2002709DF80C2042709DF8F1
:1010D0000D2082709DF80E20C2709DF80F200271C5
:1010E0009DF8102042719DF811208271C1719DF808
:1010F0001110AC29B9D19DF81210CE29B5D19DF8A7
:101100000B1001709DF80C104170AEE700680040B4
:10111000BE310120F0B585B0002400918DF8084063
:101120008DF8094008218DF80A1001788DF80B1010
:1011300041788DF80C1081788DF80D10C1788DF8FC
:101140000E1001798DF80F1041798DF8101081790A
:101150008DF81110C0790B4E8DF81200694630469B
:1011600000F0BEFA054640F6FF7701E0641CA4B229
:101170002946304600F014FB002801D1BC42F5D3CB
:1011800005B0F0BD006800400A4A914202D100213A
:1011900081617047C1F313028B0101D5C2607047B2
:1011A0004B0101D502617047090101D5826070478A
:1011B000426070477000F03030B5082310240422DC
:1011C000B1F5007F1DD010DC202929D007DC0129D2
:1011D00021D0042922D0082900D1C46030BD402983
:1011E00020D0B1F5807FF9D10BE00025B1F5004F9B
:1011F00006D008DCB1F5806F03D0B1F5006FEDD1FA
:101200008561426030BDB1F5803F0DD0B1F5003F42
:10121000F8D1446030BD0549816030BDC36030BD48
:10122000036130BD046130BD436030BD0101010088
:101230002DE9F0471C462DED028B4FF40059A3F821
:101240002320B3F82130D31AA4F82530A4F82120A4
:101250000022002901DD494503DD022384F8203006
:1012600001E084F82020A1F2D17341F28735AB422E
:1012700002D22270627034E041F6583C0126B4F983
:101280000430A5684FF4FA68614501DD267005E079
:10129000414500DAA6702778012F03D1414501DAD4
:1012A00066700EE0A778012F02D1614500DDE6707F
:1012B0002678012E02D16678012E02D0012F08D0A7
:1012C00011E05B1CA38005F50055A56022706270DB
:1012D00009E0E678012E06D15B1EA380A5F5005536
:1012E000A560A270E270B4F90430002B02DD01EBBE
:1012F000433308E002DBA5684D4506DD03445B038C
:10130000A3F500530B44E36000E0E160A368B4F987
:1013100006500646B3EB403F02DDA1606D1C07E0BE
:101320007603002B0ADAA6F500567018A0606D1E31
:10133000E580A280BDEC028BBDE8F087E068FFF796
:1013400049F941EC180B3046FFF755F941EC100B09
:1013500053EC102B9FED0D0B51EC100BFFF7CBF85E
:1013600053EC182BFFF755F8FFF765F900EE905A8C
:1013700000EE100A9FED071AF8EEE00AA06100EEF9
:10138000810A10EE100A6061D4E70000000000003E
:10139000008076400000B443094910B588424FF000
:1013A000010101D14C0601E04FF08064204601F0BC
:1013B00089F82046BDE81040002101F083B8000004
:1013C00000640040F0B5827A012191402E4A1368F2
:1013D00043F0010313602C4B1C331C688C431C60CE
:1013E000294D067B294C0C35A6B92E688E432E60FC
:1013F0004688C78846EA0746877A04EBC707C7F8D6
:1014000040660688878846EA0746877A04EBC7075E
:10141000C7F84466067B012E12D12E680E432E605B
:10142000867A056804EBC6064FEA3545C6F840568D
:10143000867A456804EBC6044FEA3545C4F844563D
:10144000114CC57A241D002D256806D00D4325605A
:101450000D4C0589143415B104E08D43F7E7256878
:101460008D4325600589012D02D125680D43256036
:10147000407B012802D1186808431860106820F0EA
:1014800001001060F0BD00000066004000600040F8
:101490000246002053690B424AD0B1F5807F3BD011
:1014A00013DC08292ED007DC012926D0022927D0F9
:1014B00004293DD1D0682BE0102925D0202926D041
:1014C000402935D11069102130E0B1F5004F2BD003
:1014D0000BDCB1F5007F22D0B1F5806F22D0B1F5E1
:1014E000006F25D19069702120E0B1F5803F11D0C7
:1014F000B1F5003F1CD15068E5E790680D4915E053
:10150000D06802E0D068DEE7106903210EE01069C0
:1015100008210BE05068FBE79069012106E0906923
:10152000022103E0906900E05068042100F0E6B970
:101530007047000001010100002A426901D00A43FE
:1015400000E08A434261704710B50368002223F02F
:1015500002030360036843F0010303604FF6FF7367
:1015600000E0521C4468E40701D19A42F9D1426874
:10157000D2073ED08A79012A02683CD022F080024C
:101580000260CA79012A026838D022F04002026063
:101590000A7A012A026834D022F0200202604A7AD4
:1015A000012A026830D022F0100202608A7A012AF1
:1015B00002682CD022F008020260CA7A012A02686E
:1015C00028D022F0040202608A78CC78920742EA9E
:1015D00004620C7942EA04424C79098842EA0452D6
:1015E000491E0A43C261016821F001010160002126
:1015F00014E0002010BD42F08002C1E742F040023A
:10160000C5E742F02002C9E742F01002CDE742F000
:101610000802D1E742F00402D5E7491C4268D2072C
:1016200001D09942F9D14068C007E2D1012010BD34
:1016300010B500EB0113D3F8B04114F00404147298
:10164000D3F8B04134D0E408C2F80440D3F8B04134
:1016500004F002045472D3F8B44104F00F049472FD
:10166000D3F8B441240AD474D3F8B841D472D3F86F
:10167000B841240A1473D3F8B841240C5473D3F836
:10168000B841240E9473D3F8BC41D473D3F8BC4151
:10169000240A1474D3F8BC41240C5474D3F8BC311C
:1016A0001B0E937439B1016941F02001016110BD35
:1016B000640D1460CAE7C16841F02001C16010BD2B
:1016C00000218171C171017241728172C172817098
:1016D000C170032101710221417101210180704714
:1016E00030B50246002093685B0108D49068000181
:1016F00001D5012003E09068C00044D5022002EB30
:101700000012D2F8803103F00103C2F880310B7A65
:10171000C3B3D2F880414D681C434B7A43EAC503FA
:101720001C43C2F880418B7A03F00F038B72D2F80E
:10173000843123F00F03C2F88431D2F884318C7ADB
:101740002343C2F88431CB7A8C7B0D7B43EA04635C
:101750004C7B240444EA05242343C2F88831CB7B24
:101760008C7C43EA04634C7C097C240444EA012118
:101770000B43C2F88C31D2F8801141F00101C2F85C
:10178000801130BD01E00420FBE7D2F880314C7AB3
:1017900023430C8843EA4453C2F88031C3E7000076
:1017A000002221B1012905D0022906D112E0826868
:1017B000114801E08268114802401149501A8A42DA
:1017C00014D00ADCA2B16FF0806010180FD002288C
:1017D0000CD10FE082680B48EEE7B0F5007F09D02E
:1017E0000949401803D0B0F5003F03D000207047EE
:1017F0000220704701207047030000040003000826
:1018000000010008000003100001FFF72DE9F04778
:101810002C482D4AA0F15801DFF8B880C86000209C
:10182000486088600A601031284A88600A609246E1
:10183000274A4A600C31DFF8A0C08860C1F80080F8
:10184000C1F804C001F10C0391469860234A1A6064
:10185000234959600C33234C98601C60224C5C6017
:101860000C33224F98601F60214E5E600C33214D77
:1018700098601D60204C5C604C3B43F8582F5960C9
:1018800098609A61D9611862DA60196158615A6288
:101890009962D8620B4B28339A60D96018615F61F6
:1018A0009E61D861C3F82080C3F824C09862DD62CD
:1018B0001C635863C3F838A0C3F83C901864BDE8B3
:1018C000F0870000AE3801208130000821080008B0
:1018D0001D080008F9200008F5200008A5220008CE
:1018E000A12200081F2E00081D2E0008C92A00088A
:1018F000C52A0008B11D0008AD1D000802460020E1
:101900000A4200D00120704770B50B4D0B4C2946A0
:10191000204600F00BF901280DD12946204600F0A1
:1019200033F82946204600F045F8BDE870400449E8
:10193000044801F05DB870BD0088001028640240C2
:10194000D0310120142F012070B50B4D0B4C2946CE
:10195000204600F0EBF801280DD12946204600F082
:1019600013F82946204600F025F8BDE870400449E8
:10197000044801F03DB870BD008800208864024032
:10198000D0310120142F0120074A904201D207488C
:1019900001E005481038064A8B0001EA020101D532
:1019A000C16070478160704710640240006002406F
:1019B0007D0F7D0F074A904201D2074801E005489C
:1019C0001038064A8B0001EA020101D5C160704758
:1019D0008160704710640240006002407D0F7D0FFF
:1019E0000029016802D041F0010101E021F001016C
:1019F000016070472DE9F043016821F001010160A9
:101A00000021016041608160C1600161212141616B
:101A10003C493C4A3D251039904202D18D60BDE8D9
:101A2000F083384A4FF474661832904201D18E60C8
:101A3000F5E7344A4FF474173032904201D18F6089
:101A4000EDE7304A4FF0746C4832904202D1C1F851
:101A500008C0E4E72B4B2C4A6033984201D1CA609E
:101A6000DDE7284C294B7834A04201D1CB60D6E782
:101A7000DFF89080264C08F19008404501D1CC60F9
:101A8000CDE7DFF880804FF03D5908F1A8084045C8
:101A900002D1C1F80C90C2E71E49DFF878800839FE
:101AA000404501D10D60BAE71A4D1835A84201D161
:101AB0000E60B4E7174D3035A84201D10F60AEE794
:101AC000144D4835A84202D1C1F800C0A7E7114D16
:101AD00010496035091FA84201D10A609FE70D4AED
:101AE0007832904201D10B6099E70A4A90329042D5
:101AF00001D10C6093E7074AA83290428FD1C1F818
:101B000000908CE7106002403D000020400F002054
:101B100000003D2010640240014600200968C9070A
:101B200000D001207047406880B270470246094BE0
:101B300000209A4201D2084A01E0064A103A8B007E
:101B400001D5526800E01268044B1A400A4200D0E6
:101B50000120704710640240006002407D0F7D0F3D
:101B60000B0607D5436912B143F0800301E023F06F
:101B700080034361802908D0002A026801F01E0119
:101B800001D00A4300E08A430260704730B5036821
:101B9000124ACC6813400A682243D1E905452C4318
:101BA0002243CC6922430C6A22434C6A22438C6A4A
:101BB00022434C6B22438C6B22431A4302604269DE
:101BC00022F00703D1E90B2422431A4342610A6938
:101BD00042604A6882608968C16030BD3F801CF005
:101BE000416070474FF4FA7002F068FFFEF770FF33
:101BF00000F0CEF801F02CFEFEF774FF022002F098
:101C00005DFFF5E7704700004FF4FA7002F056FFF1
:101C1000064C074D1F21204600F0B6F880212846CB
:101C200000F0B2F8C82002F049FFF3E700100240CC
:101C3000000402400021C170817041700170816018
:101C4000C1608180C18041610161C1618161022205
:101C500080F82020A0F82510A0F82310A0F821106B
:101C6000704710B50446032923D8032A21D851EA26
:101C7000020001D101210A46E06801EBC10100EB3D
:101C8000810002EB42016FF02F0202EB810101445F
:101C9000A16022686068904710B1A0680068804722
:101CA000A068606040688047A0688068BDE8104018
:101CB000004710BDF0B50023012403270D6804FA86
:101CC00003F21540954242D1D0F800C05E0007FAF9
:101CD00006F52CEA050CC0F800C091F804C0D0F855
:101CE00000E00CFA06FC4CEA0E0CC0F800C091F8BB
:101CF00004C0BCF1010F02D0BCF1020F1FD1D0F81B
:101D000008C02CEA050CC0F808C091F805C0D0F84E
:101D100008E00CFA06FC4CEA0E0CC0F808C0D0F83B
:101D200004C02CEA020CC0F804C0426891F806C056
:101D30000CFA03FC1FFA8CFC42EA0C024260C268F7
:101D4000AA43C260CA79C568B2402A43C2605B1C1C
:101D5000102BB3D3F0BD4B07DB0E9A40C90810B56A
:101D600000EB8100016A0F249C40A1430162016ADB
:101D70001143016210BD0246002012690A4200D0E0
:101D8000012070470183704742694A4042617047B1
:101D900010B501F07BF8044C207001F09FF86070E2
:101DA00001F0C4F8A07010BDB6000020704700001C
:101DB000034902488968886070470000C51D000813
:101DC000563801200148D0F8E81508476A3201204A
:101DD00010B5154C1348C4F8C8051448C4F8CC0510
:101DE0001348C4F8D4051348C4F8D0051248C4F801
:101DF000D8051248C4F8DC051148C4F8E0051148BC
:101E0000C4F8E4051048C4F8E805204604F2C454B8
:101E100000F01CF801F032F820606069BDE8104065
:101E2000004700004D1E00086A32012061080008CA
:101E30000D2B00084F2400080D1800083139000848
:101E40008D250008852F0008490900082DE9F04F6D
:101E500004462DED048BB1B000266022594918A824
:101E6000FEF70CFA5749602260316846FEF706FA21
:101E70005548C4F8AC055548C4F8B0055448C4F8F2
:101E8000B4055448C4F8B8055348C4F8BC05B14675
:101E90000DF1600AEB46DFED518A9FED518A9FED0F
:101EA000519AB32006FB00F73D19284600F090F93F
:101EB00006F1010808F0FF00E055D4F8B415884792
:101EC000C5F8AD0006EB46060BEB8600B0EE682ABF
:101ED00090EC030A05F15D00F0EE481A00F096FA66
:101EE0000AEB8600B0EE492A90EC030A05F10D00DA
:101EF000F0EE481A00F08AFAD5F8AD0008F0FF06B7
:101F00008169A9608169C161D5F8AD00816901610C
:101F1000D5F8AD00816941611320688085F8B290E1
:101F2000082EBED306A9DFED308AF0EE481A91ECF8
:101F3000030AB0EE682A04F2C31000F067FA12A98F
:101F4000B0EE682A91EC030AF0EE481A04F28F40D2
:101F500000F05CFA1B2161802420A4F86801A4F839
:101F60001B12A4F83404A4F8E70484F8A39584F8B9
:101F7000A29584F8A19584F8A09584F8AA9584F890
:101F8000A99584F8A89584F8A79584F8A69584F86F
:101F9000A59584F8A495D4F8B8058047C4F89805A9
:101FA00002218170D4F898054170D4F89805017029
:101FB000D4F8BC058047C4F89C0531B0BDEC048B57
:101FC000BDE8F08F24570008B90B0008290C000861
:101FD000312E0008852E00087D2F000800D0044611
:101FE0000000000000007A4600B065464FF4FA7029
:101FF00002F064FDFFF7ECFE064C00BFD4F8C0050C
:10200000C27A817AD4F8C405FFF72BFE022002F0D1
:1020100055FDF3E76A320120FEE70000F8B5134CE6
:102020001148E0601248A0601248206012486060C9
:1020300012482061124860611248A06100F096F8D1
:102040002069804760698047002500952668032342
:10205000072204212846B04700956468032307221D
:1020600004210020A047F8BD6D210008EC000020ED
:10207000B5310008990C0008090F0008C9330008A1
:10208000553500089920000802494CF6CC400860FC
:10209000704700000030004070B504460D4645F220
:1020A000555000F021F8204600F012F8284600F0C4
:1020B00015F800F005F8BDE87040FFF7E5BF000037
:1020C00002494AF6AA20086070470000003000402C
:1020D00001494860704700000030004001498860B5
:1020E0007047000000300040014908607047000060
:1020F000003000407047000003490248896888604A
:10210000704700000D2100085638012070B5154CAD
:10211000D4F8C00590F823008207204600F232412F
:10212000D0F8DC3501D0012201E04FF0FF320D483C
:102130009847D4F8C0050C4D90F8230040070FD500
:102140006878D4F8CC25012804D0BDE8704000217F
:10215000044810470121034890470220687070BD71
:102160000120FBE76A320120E70000207CB5012155
:10217000102000F08FF90121022000F08BF90120DE
:102180008DF8040000218DF8061003218DF805104C
:102190008DF807001F200B4C009069462046FFF782
:1021A00089FD8020084D009069462846FFF782FD92
:1021B0001F212046FFF7E6FD80212846FFF7E2FDBC
:1021C0007CBD00000010024000040240FEE7000059
:1021D00070B500252DED028B04469FED168A4580D3
:1021E00045700570456085600573B0EE482AF0EED5
:1021F000481AB0EE481AF0EE480AB0EE480A0D3020
:1022000000F004F9B0EE482AF0EE481AB0EE481A91
:10221000F0EE480AB0EE480A04F15D0000F0F6F86E
:1022200054F8AD0FFFF706FD0B2020716571BDEC72
:10223000028B70BD000000007047000030B50F2217
:10224000C47801780123FCB1144C246801F1E02129
:1022500004F4E064C4F5E064C4F30724C4F10405A5
:10226000E2404478AC408578154025432A0181F846
:102270000024007800F01F018B404009800000F12D
:10228000E020C0F8003130BD01F01F008340480954
:10229000800000F1E020C0F8803130BD0CED00E09E
:1022A0007047000003490248896888607047000051
:1022B000B92200085638012003490120087003485C
:1022C000D0F8D01508470000E70000206A3201204E
:1022D00010B500287ED010EE103A10EE901A036070
:1022E00000EE103A00EE901A4160C26930EE600ACA
:1022F0000262826910EE101AC2618161436A00EEC7
:10230000101A00EE903A30EE800A00EE902A10EE9D
:10231000103A00EE101A4362C46A046330EE600A99
:10232000846AC46210EE104A00EE101A8462C26819
:1023300000EE902A20EE800A10EE102A00EE103AED
:102340004263016900EE901A20EE800A10EE101A26
:1023500000EE104A8163436900EE903A20EE800A55
:1023600010EE103A00EE101AC363816C00EE901A62
:10237000B4EEE00AF1EE10FA00DB8163846B00EE4C
:10238000101A00EE904AB1EE400AF4EEC00AF1EEE7
:1023900010FA06D800EE101AB1EE400A10EE101A2C
:1023A0008163816B00EE102A00EE901A70EE200A15
:1023B00000EE103A30EE800A10EE101A0164406C04
:1023C00000EE101A00EE900AB4EEE00AF1EE10FAF8
:1023D00007DB00E002E000EE100A10BD9FED0A0AE4
:1023E00010BD00EE900A00EE101AF1EE600AB4EE95
:1023F000E00AF1EE10FA04D800EE100AB1EE400A3D
:1024000010BD00EE101A10BD0000000000281DD005
:1024100010EE101AC16010EE901A016111EE101A40
:10242000416111EE901A816412EE101A416400218C
:102430008161C16101628162C16201634162816047
:10244000416001600164C16381634163704770B59D
:102450000446D0F8AD0000231A464169C161D4F8A2
:1024600060014169C161D4F813024169C161D4F8C6
:10247000C6024169C161D4F8AC5519461846A8474F
:10248000D4F8B0450023A446BDE870401A4619466A
:1024900018466047044A0029116801D0014300E052
:1024A000814311607047000030380240044A00291F
:1024B000116801D0014300E08143116070470000C2
:1024C00040380240044A0029116801D0014300E06D
:1024D000814311607047000020380240044A0029FF
:1024E000116801D0014300E0814311607047000092
:1024F00044380240044A0029116801D0014300E039
:1025000081431160704700002438024030B51C4AF6
:1025100011681C4B11F00C0103D0042901D00829CB
:1025200001D0036013E01649091F0C680C6804F021
:102530003F04B3FBF4F30C680968C4F388146343E5
:10254000C1F30141491C4900B3FBF1F1016011687D
:102550000F2303EA11110C4B5C5C0168E140416000
:102560001468072505EA94241C5D21FA04F48460AC
:10257000126805EA52329A5CD140C16030BD000059
:102580000838024040787D011400002070B50446F0
:10259000B1F9020000EE100AF8EEC00AB2EE040A29
:1025A00060EE800AFDEEE00A10EE900A6060B1F97C
:1025B000002000EE902AF8EEE00A60EE800AFDEEC0
:1025C000E00A10EE902AC4F8B720B1F9042000EE1A
:1025D000902AF8EEE00A60EE800AFDEEE00A10EEC6
:1025E000902AC4F81D22B1F9082000EE902AB8EE16
:1025F000E01ADFEDFD0AD4F8D42204F10D05C1EE96
:10260000201A01EE102A31EE811A11EE102AC4F8B8
:10261000D422B1F90820524201EE102AD4F88723BF
:102620000028B8EEC11AC1EE201A00EE902A71EE11
:10263000A00A10EE902AC4F88723B1F9061000EE24
:10264000901AF8EEE00A20EE800ABDEEC00A10EE05
:10265000101AC4F83614D4F8AD107DD0B1F9231097
:1026600000EE101AF8EEC00A00EE100A2846B8EE86
:10267000C00AFFF72DFED4F8AD004169C0F81C1068
:10268000D4F8B710D4F8600104F1C00500297CD05B
:10269000B0F9230000EE100A2846F8EEC00A00EE5A
:1026A000101AB8EEC00AFFF713FED4F8601148699B
:1026B000C1F81C00D4F86A11D4F8130204F273159F
:1026C00000297CD0B0F9230000EE100A2846F8EE6D
:1026D000C00A00EE101AB8EEC00AFFF7F9FDD4F8F0
:1026E00013024169C0F81C10D4F8360404F23F45C7
:1026F000002865D0D4F8DF14B1F9231000EE101AC9
:10270000F8EEC00A00EE100A2846B8EEC00AFFF73D
:10271000DFFDD4F8DF044169C0F81C10D4F8C612FC
:102720000025B248B1F923206432C82A7ED8D4F8F3
:102730001D22002A7AD0C288521C13B20122C38003
:10274000322B73DB0BD14B690B614FF002014170EF
:10275000D4F81D12002900E002E073DD027073E07E
:10276000486900EE900AC86900EE100A04F15D00A5
:10277000FFF7AEFDD4F8AD00B0F9230000EE100A6B
:10278000D4F89D00F8EEC00A00E005E000EE100A63
:102790002846FFF79DFD73E74169C06900EE901A76
:1027A00000EE100A04F58870FFF792FDD4F860017E
:1027B000B0F9230000EE100AF8EEC00A01E008E0CC
:1027C00021E0D4F8500100EE100A2846FFF780FD02
:1027D00070E74169C06900EE901A00EE100A04F239
:1027E000C310FFF775FDD4F81302B0F9230000EE13
:1027F000100AD4F80302F8EEC00A00EE100A2846C8
:10280000FFF766FD70E7D4F8DF044169C06900EEA8
:10281000901A00EE100A04F28F40FFF759FDD4F829
:10282000DF04B0F9230000EE100A01E01CE009E02B
:10283000D4F8CF04F8EEC00A00EE100A2846FFF7DD
:1028400047FD6BE7FF21017090F90010012903D1CA
:10285000D4F81D32002B05DB491C05D1D4F81D121C
:10286000002901DDC580427090F9010004F226269E
:10287000022802D001281CD030E0D4F8C6024169F9
:10288000006900EE901A00EE100A04F27620FFF7BD
:102890001FFDD4F8C602B0F9230000EE100AD4F8E8
:1028A000B602F8EEC00A00EE100A3046FFF710FD3F
:1028B00014E0D4F8C602B0F9230000EE100AD4F8F0
:1028C0001D02F8EEC00A00EE100A3046B8EEC00A4B
:1028D000FFF7FEFCD4F8C60241690161D4F8790320
:1028E000406900EE900AD4F8D40200EE100A04F217
:1028F0002930FFF7EDFCD4F87903B0F9230000EE9E
:10290000100AD4F86903F8EEC00A00EE100A04F2C7
:10291000D920FFF7DDFCD4F82C04406900EE900AC2
:10292000D4F8870300EE100A04F57770FFF7D0FCA7
:10293000D4F82C04B0F9230000EE100AD4F81C04DB
:10294000F8EEC00A00EE100A04F56370FFF7C0FC51
:10295000C4F81953D4F86602D4F8AC5500EE100A46
:10296000BDEEC00A10EE100A03B2D4F8B30100EEB7
:10297000100ABDEEC00A10EE100A02B2D4F800012F
:1029800000EE100ABDEEC00A10EE100A01B2D4F833
:102990004D0000EE100ABDEEC00A10EE100A00B2A3
:1029A000A847D4F8320500EE100ABDEEC00A10EEBA
:1029B000100A03B2D4F87F0400EE100ABDEEC00A7C
:1029C00010EE100A02B2D4F8CC03D4F8B04500EEF1
:1029D000100AA446BDE87040BDEEC00A10EE100A11
:1029E00001B200206047000000004844D0000020F1
:1029F000F0B5002863D0002961D0314802784378CF
:102A000042EA0322C2F30A020A8043788478DB0890
:102A100043EA4413C3F30A034B808478C578A409BE
:102A200044EA8504057944EA8524C4F30A048C80C9
:102A3000057946796D0845EAC615C5F30A05CD80C6
:102A40004679B6098E724679C6F30116CE72067CB7
:102A5000477C46EA0726C6F30A060E818679C779BF
:102A600046EA0726A1F80D60067A477A46EA072665
:102A7000A1F80F60867AC77A46EA0726A1F81160A6
:102A8000067BCE76467B0E77867BC77B46EA07269B
:102A9000A1F81D60067C407CA2F580620A80A3F547
:102AA00080634B80A4F5806446EA00208C80A5F505
:102AB0008065CD80A0F58060088101200873F0BD9D
:102AC000142F01207047000003490248896888607C
:102AD00070470000FD2A0008563801204FF4FA70B4
:102AE00001F0ECFF00F09CF90349C1F8C005022099
:102AF00001F0E4FFFBE700006A3201200248D0F851
:102B0000E025D0F8C01510476A3201202DE9F041C8
:102B1000044690F8A405BE4D4FF001080026B0B958
:102B2000C4F84D60D4F8AD00B0F92300401D0A2868
:102B30000DD82888401C00B22880642807DB2E802E
:102B400094F8AB05401C84F8AB0584F8A48594F890
:102B5000A515D4F8600104F1C007B9B1806900EE91
:102B6000900AD4F8BB0000EE100A04F58870FFF755
:102B7000AFFBD4F86001B0F9230000EE100AD4F8DE
:102B80005001F8EEC00A00EE100A2DE0C4F8B7605C
:102B9000B0F923103231642918D86988491C09B268
:102BA0006980042912DB6E8094F8AB15491C84F807
:102BB000AB1584F8A58541690161D4F860114869B5
:102BC000C861D4F860014069C4F8BB00D4F8600162
:102BD000B0F9230000EE100AD4F8B700F8EEC00AEE
:102BE00000EE100AB8EEC00A3846FFF771FB94F801
:102BF000A70548BB8748C4F81D02D4F8C602B0F93F
:102C0000230000EE100AF8EEC00A9FED830A04F2DA
:102C10002620FFF75DFBD4F8C602B0F9230032305E
:102C2000642811D8E888401C00B2E88005280BDB36
:102C3000C4F81D62EE8094F8AB05401C84F8AB0527
:102C400084F8A785C4F8666294F8A80504F2D92729
:102C5000B8B3D4F87903806900EE900AD4F8D402AE
:102C600000EE100A04F22930FFF732FBD4F87903A2
:102C7000B0F9230000EE100AD4F86903F8EEC00A98
:102C800000EE100A3846FFF723FBD4F82C048069C5
:102C900000EE900AD4F8870300EE100A04F577706E
:102CA000FFF716FBD4F82C04B0F9230000EE100A4D
:102CB000D4F81C04F8EEC00A00EE100A04F56370A4
:102CC00042E0FFE7C4F8D062C4F8CC63D4F87903DB
:102CD000B0F923101E313C2927D82989491C09B293
:102CE0002981042921DB2E8194F8AB15891C84F8F5
:102CF000AB1584F8A88584F8A98541690161D4F8E9
:102D000079134869C861D4F879034069C4F8D402DA
:102D1000D4F82C0441690161D4F82C044169C161E3
:102D2000D4F82C044069C4F88703D4F87903B0F9C7
:102D3000230000EE100AD4F8D002F8EEC00A00EE2C
:102D4000100A3846B8EEC00AFFF7C2FA94F8AB058D
:102D5000052813D1D4F89C0500231A46416C016460
:102D600084F8AB65D4F8AC5519461846A84700233B
:102D7000D4F8B0551A4619461846A847D4F8660242
:102D8000D4F8AC5500EE100ABDEEC00A10EE100AE1
:102D900003B2D4F8B30100EE100ABDEEC00A10EE83
:102DA000100A02B2D4F8000100EE100ABDEEC00A0B
:102DB00010EE100A01B2D4F84D0000EE100ABDEE7C
:102DC000C00A10EE100A00B2A847D4F8320500EE8F
:102DD000100ABDEEC00A10EE100A03B2D4F87F0448
:102DE00000EE100ABDEEC00A10EE100A02B2D4F8CE
:102DF000CC03D4F8B04500EE100AA446BDE8F0417B
:102E0000BDEEC00A10EE100A01B2002060470000BB
:102E10005C32012030F8FFFF0000FAC470477047B1
:102E2000004870473832012000487047BE31012009
:102E300009281CD2DFE800F01B05070A0D10131645
:102E400019000C4870470B482730704709484E302E
:102E5000704708487530704706489C3070470548F1
:102E6000C33070470348EA3070470348704700207A
:102E700070470000863001209731012000487047DC
:102E80005638012000487047B600002070B5114D3B
:102E900008212846FEF76FFF0F4C012805D00821B6
:102EA0002846FEF768FF18B105E0A088401C01E045
:102EB000A088401EA080B4F904100020022902DB83
:102EC0000121217003E011F1020F01DC2070A080CC
:102ED000207870BD00000240AC00002070B5114D9C
:102EE00004212846FEF747FF0F4C012805D0042196
:102EF0002846FEF740FF18B105E0E088401C01E0DD
:102F0000E088401EE080B4F906100020022902DBB0
:102F10000121617003E011F1020F01DC6070E080BB
:102F2000607870BD00000240AC00002070B5114D0B
:102F300040212846FEF71FFF0F4C012805D04021F5
:102F40002846FEF718FF18B105E02089401C01E073
:102F50002089401E2081B4F908100020022902DBDC
:102F60000121A17003E011F1020F01DCA0702081AA
:102F7000A07870BD00000240AC00002000487047FF
:102F8000EF3101200849AC220A704870000A8870AD
:102F90000020C870087148718871CE20C871112155
:102FA0000148FEF7B7B80000C80000200CB50020AB
:102FB0002749019000900A6842F480320A604FF479
:102FC000A0430A6802F400320092019A521C019256
:102FD000009A12B9019A9A42F3D10A68920334D541
:102FE000012000901A484030026842F0805202608E
:102FF0001848026842F440420260154808300268EE
:103000000260026842F400420260026842F4A05288
:103010000260031F104A1A600A6842F080720A6058
:103020000A689201FCD50D4A40F2057111600168F1
:1030300021F003010160016841F0020101600168B3
:10304000C1F381010229FAD10CBD00900CBD000032
:10305000003802400070004019544007003C024014
:1030600010B501F059FC00F033F90448006801F094
:103070004BFDBDE8104001F06FBC000000000020D7
:10308000884201D0012070470020704710B55020C1
:1030900080F31188BFF34F8FBFF36F8F02F09EF95B
:1030A00018B104494FF080500860002080F3118867
:1030B00010BD000004ED00E0124810B5016841F4B5
:1030C000700101601048016841F0010101600E4A81
:1030D00000210832116002680C4B1A400260031D87
:1030E0000B4A1A60026822F48022026006480C3003
:1030F0000160FFF75BFF03494FF000608039086013
:1031000010BD000088ED00E000380240FFFFF6FE31
:103110001030002470B5234C0121204600F085F8C2
:10312000012838D120494888401C00B24880B0F5B9
:103130007A7F0EDB087840420870002048808A8839
:10314000521C12B28A803C2A03DBCA88521CCA80F5
:10315000888091F90000154A154D012802D0401CC5
:1031600011D018E0B1F902005A2190FBF1F301FBF4
:10317000130080B980211046FEF706FE1F21284665
:10318000FEF702FE07E080211046FEF7FBFD1F213F
:103190002846FEF7F7FD2046BDE87040012100F00B
:1031A00037B8000000040040BA00002000040240CC
:1031B000001002407FB50C46054601210220FFF7B2
:1031C00075F9641E6D1E00200194ADF800500F4C7F
:1031D000ADF80200ADF808006946204600F03AF864
:1031E0001D208DF80C0008208DF80D0001208DF8B1
:1031F0000F0003A8FFF722F801221146204600F035
:1032000020F80121204600F006F87FBD00040040B0
:10321000C943018270470029018802D041F00101B1
:1032200001E021F001010180704702460020138A6D
:1032300092890B4202EA010202D0002A00D001204A
:103240007047002A828901D00A4300E08A438281C4
:103250007047000030B50288164B174C98420DD0CD
:10326000A0420BD0B0F1804F08D0144DA84205D039
:10327000134DA84202D0134DA84203D122F070058D
:103280004A882A43104DA84206D0104DA84203D0C8
:1032900022F440750A892A4302804A68C2620A8879
:1032A0000285984201D0A04201D1897A018601218C
:1032B000818230BD00000140000401400004004054
:1032C00000080040000C00400010004000140040C6
:1032D0007CB516490720CDE900014FF48075002325
:1032E0002A4613A1154802F039F810490920091D92
:1032F000CDE9000100232A4611A1144802F02EF85E
:103300000A4808240C30CDE9004000232A4610A1C9
:10331000124802F023F8054800230830CDE90040A8
:103320002A460FA1114802F019F87CBD04000020C4
:1033300052656D6F74655F5461736B00DD2A000820
:103340004465746563745F5461736B00091C000805
:10335000446174615F5461736B000000E51B0008F9
:1033600047726173705F5461736B0000ED1F00085A
:1033700010B50446D0F8AD00012904D0022902D0CE
:103380008169016110BD6FF0020202EB410140F65C
:10339000B83211FB02F16160B0F9230000F008FDC2
:1033A0003228EFDC07480178491CC9B201701E2998
:1033B000E8D900210170D4F8AD00816901610120D4
:1033C000207310BDDA00002070B596B001213D4891
:1033D000FFF760F801211020FFF780F83A4E07222E
:1033E0000A213046FEF7B7FC02208DF85000002479
:1033F0008DF8524003208DF85100351513958DF846
:10340000534013A93046FEF755FC304E304600F0CD
:1034100039F92F480F90ADF844500420ADF84040E2
:10342000ADF84600ADF84240ADF848400FA930462F
:1034300000F0B6F90121304600F012F901224021D6
:10344000304600F017F944208DF854008DF85540AF
:1034500001208DF8570015A8FEF7F0FE1D4E002143
:103460003046FEF7BDFA3068C007FCD13046FEF7A3
:10347000C1FA4FF000600090144804A9001D0190AB
:103480001548CDE90204122081E831004FF4807024
:10349000CDE908404FF44030CDE90A0407940C947C
:1034A0000D94694630460E94FEF770FB0122102100
:1034B0003046FEF755FB01213046FEF791FA16B073
:1034C00070BD0000010040000000024000100140FB
:1034D000A086010088640240142F012070B5194CA9
:1034E00040F22441204600F023F9002828D0164D50
:1034F00000212846FEF774FA2846FEF70DFB002847
:10350000FAD120880F48001D00882846FEF70BFBE3
:10351000C0F1800080B200210C4C0D4A03E0535CE6
:103520006354491C89B28142F9D380212846FEF7B1
:1035300057FB01212846FEF753FA012084F8480082
:1035400070BD00000014014028640240EF310120EA
:10355000E62F012070B590B001213C48FEF79AFF9C
:1035600001212020FEF7BAFF394E082206213046FD
:10357000FEF7F1FB082207213046FEF7ECFBC020E6
:10358000049002208DF8140000248DF816400325C5
:103590008DF815508DF8174004A93046FEF78AFBC8
:1035A0002C4E304600F06EF84FF4E1300090ADF84C
:1035B00008400C20ADF80440ADF80A00ADF8064014
:1035C000ADF80C406946304600F0EAF847208DF827
:1035D000180001208DF81B008DF8195006A8FEF781
:1035E0002DFE012240F22441304600F0C0F80121B6
:1035F000304600F035F8184D2846FEF7FBF9A805CF
:103600000090301D01901548CDE902048020CDE9DD
:103610000404C000CDE906048010CDE908404FF451
:103620004030CDE90A040C940D94694628460E9466
:10363000FEF7ACFA01212846FEF7D2F9012240211B
:10364000304600F017F810B070BD000004004000D4
:10365000000802400014014028640240E62F0120C7
:103660000029818902D041F4005101E021F4005188
:1036700081817047002A828A01D00A4300E08A4390
:1036800082827047224910B5884206D1012110205C
:10369000FEF730FF0021102020E01E49884202D1B1
:1036A00001214C0429E01C49884202D101218C04EB
:1036B00023E01A49884202D10121CC041DE01849B7
:1036C000884202D101210C0517E01649884209D130
:1036D00001212020FEF70EFF00212020BDE8104030
:1036E000FEF708BF1049884202D101218C0704E08F
:1036F0000E4988420AD1012144052046FEF7E2FE28
:103700002046BDE810400021FEF7DCBE10BD0000E1
:10371000001001400044004000480040004C0040C0
:10372000005000400014014000780040007C004040
:1037300030B501F01F0201240025C1F3421304FA41
:1037400002F2012B0FD0022B0FD0838A4FEA1121F6
:103750000088134204FA01F400EA040001D000B129
:103760000125284630BD8389F0E7038AEEE710B5CE
:10377000C1F3421301F01F040121A140012B07D026
:10378000022B07D01430002A026805D00A4304E057
:103790000C30F8E71030F6E78A43026010BD0000F5
:1037A0007FB50446008A0D4620F44051E88808435E
:1037B0002082A08941F20C618843A9882A8911439B
:1037C0006A8902431143A181A08A20F44071A8892B
:1037D0000843A0826846FEF799FE1A48844202D048
:1037E0001948844201D1039800E00298A189090494
:1037F00000EBC00101EB0010296801D5490000E091
:103800008900B0FBF1F26420B2FBF0F109010B0971
:103810006FF018056B4302EB8302A3891D044FF080
:10382000320306D503EBC202B2FBF0F000F0070052
:1038300005E003EB0212B2FBF0F000F00F000843CA
:1038400020817FBD0010014000140140FEE7000010
:1038500010B52B4C002094F8481001294FD1617FFE
:10386000A1F13002092A08D801EB4102C2EBC111D3
:1038700000EBC10000F5894080B2A17FA1F13002C8
:10388000092A08D801EBC10202EB011100EB81000B
:10389000A0F5965080B2E17FA1F13002092A06D846
:1038A00001EB810100EB4100A0F5F07080B294F8CB
:1038B0002010A1F13002092A02D83038084480B221
:1038C00000EE100AB2EE041AF8EE400A80EE810A09
:1038D00010EE100AFCF79CFE9FED0A1B53EC112B17
:1038E000FCF791FDFCF7A7FE084960640A78032AFB
:1038F00002D104220A702064002084F8480010BD20
:10390000EF3101206666666666661040C2000020E0
:1039100002E008C8121F08C1002AFAD17047704798
:10392000002001E001C1121F002AFBD170470000F6
:103930002DE9F04106460D46501C01D0012A5ED10A
:10394000304CA07800B9A27094F902000027904290
:1039500003D0E77001202071A2704FF47A7012FB3F
:1039600000F06860D5F8AD00B0F9230000F020FA4F
:103970001E2808DCE078401CC0B2E070142802D990
:103980000220207105E02079022802D0012803D00E
:1039900013E0C5F84D7010E0D5F8AD00B0F9230084
:1039A00000EE100A6868F8EEC00A00EE100A05F191
:1039B0000D00B8EEC00AFEF78BFCD6F83205D6F83B
:1039C000B04500EE100AA446BDEEC00A10EE100A83
:1039D00003B2D6F87F0400EE100ABDEEC00A10EE66
:1039E000100A02B2D6F8CC03BDE8F04100EE100A8E
:1039F000BDEEC00A10EE100A01B200206047BDE81B
:103A0000F0810000D000002010B50446D0F8AD00D1
:103A1000012A04D0022A02D08169016110BD5242FC
:103A2000032303EB420212FB01F16160B0F92300B2
:103A300000F0BEF93228F1DC07484188491C09B280
:103A400041801429EADD00214180D4F8AD0081696C
:103A500001610120207310BDDA0000202DE9F04142
:103A600001272DED028BF0EE608AB0EE408A0D4604
:103A70000446012A0DD0022A7ED0D4F8AD00406958
:103A8000A060D5F8AD004069A860BDEC028BBDE830
:103A9000F081A06800EE900A9FED650A70EE800A42
:103AA00010EE900AA060A86800EE900A30EEC00AFE
:103AB00010EE100AA860A06800EE900AD4F8AD00DD
:103AC000C06900EE100A30EE080AF4EEC00AF1EE0A
:103AD00010FA06DB00EE100A30EE080A10EE100AAB
:103AE000A060A86800EE900AD5F8AD00C06900EEAD
:103AF000100A30EE480AF4EEC00AF1EE10FA06D8C9
:103B000000EE100A30EE480A10EE100AA860D4F851
:103B1000AD004169C06900EE101A70EE480A00EE6F
:103B2000100A30EEC00A00F089F8B4EEE80AF1EEAF
:103B300010FA0AD82773D4F8AD00C06900EE100A55
:103B400030EE480A10EE100AA060D5F8AD004169C9
:103B5000C06900EE101A70EE080A00EE100A30EE8E
:103B6000C00A00F06BF8B4EEE80AF1EE10FA8CD857
:103B70002F73D4F8AD0000E008E0C06900EE100A31
:103B800030EE480A10EE100AA0607EE7A0689FEDB4
:103B9000290A00EE900A70EEC00A10EE900AA060AA
:103BA000A86800EE900A30EE800A10EE100AA860B5
:103BB000D4F8AD004169C06900EE101A00EE900A19
:103BC00030EE600A00F03AF8B4EEE80A1A4EF1EE70
:103BD00010FA02D83088401C3080D5F8AD00416919
:103BE000C06900EE101A00EE900A30EE600A00F094
:103BF00025F8B4EEE80AF1EE10FA02D87088401CFD
:103C00007080B6F900001428BFDBB6F90200142852
:103C1000BBDBD4F8AD004069A060D5F8AD004069C9
:103C2000A86027732F730020308070802DE700007C
:103C30009A99193FCDCCCC3EE2000020B5EEC00AE7
:103C4000F1EE10FA01D2B1EE400A70472DE9F05FB3
:103C500090F8A21501270025044641F27C5900F294
:103C6000192800F5B37600F27F3B00F5337A092975
:103C700015D2DFE801F005162330495868798E0027
:103C8000D4F89C150122B2EE040A204600F0D0FDC3
:103C9000207B012803D184F8255284F8A275BDE861
:103CA000F09F012249464046FFF7AEFE94F82502F8
:103CB0000128F4D184F8BF50022022E002213046CE
:103CC000FFF756FB94F87201012804D184F8D8520A
:103CD000032084F8A2050122F1EE080A9FED320AC2
:103CE00059465046FFF7BAFE94F8D8020128D6D1BB
:103CF00094F88B030128D2D1C4F8E95484F8F15424
:103D0000042084F8A205CAE704F2E54000F07EFD35
:103D100094F8F104012806D1C4F81D5284F8255204
:103D2000052084F8A205022249464046FFF76CFEB2
:103D300094F82502012806D184F87251062084F8EF
:103D4000A20584F8A37501213046FFF711FB94F812
:103D50007201012808D184F8D85284F88B530720C7
:103D600084F8A20584F8A1750222F3EE040A9FEDFF
:103D70000F0A59465046FFF771FE94F8D802012801
:103D800007D194F88B03012803D12573082084F808
:103D9000A205D4F89C152046BDE8F05F0222B7EEDC
:103DA000000A00F045BD000000003643000020C3BB
:103DB000002801DA404200B2704700001CB5FEF74F
:103DC0002DF907490120CDE900010202002305A1D8
:103DD000074801F0C3FA00F07BFF00201CBD000083
:103DE0000000002053746172745F5461736B0000B3
:103DF0006130000870B504460026B32106FB01457A
:103E0000287BE8B3012854D00020C5F84D00761C6B
:103E1000F6B2042EF1D3D4F87903406900EE900A8B
:103E2000D4F8D40200EE100A04F22930FEF750FA5A
:103E3000D4F82C04406900EE900AD4F8870300EE11
:103E4000100A04F57770FEF743FAD4F87903B0F955
:103E5000230000EE100AD4F86903F8EEC00A00EE61
:103E6000100A04F2D920FEF733FAD4F82C04B0F982
:103E7000230000EE100AD4F81C04F8EEC00A00E09B
:103E800009E000EE100A04F56370FEF721FA94F8D9
:103E9000F10458B33CE0D5F8AD00B0F9230000EED2
:103EA000100A6868F8EEC00A00EE100AB8EEC00A00
:103EB00017E0D5F8AD10486900EE900A086900EEE9
:103EC000100A05F15D00FEF703FAD5F8AD00B0F970
:103ED000230000EE100AD5F89D00F8EEC00A00EEAF
:103EE000100A05F10D00FEF7F3F990E7D4F89205FA
:103EF000B0F9230000EE100AD4F8E904F8EEC00A85
:103F000000EE100A04F2F240B8EEC00AFEF7E0F943
:103F1000D4F86602D4F8AC5500EE100ABDEEC00A23
:103F200010EE100A03B2D4F8B30100EE100ABDEE91
:103F3000C00A10EE100A02B2D4F8000100EE100A16
:103F4000BDEEC00A10EE100A01B2D4F84D0000EE2A
:103F5000100ABDEEC00A10EE100A00B2A847D4F84D
:103F6000320500EE100ABDEEC00A10EE100A03B2D0
:103F7000D4F87F0400EE100ABDEEC00A10EE100A5D
:103F800002B2D4F8CC03D4F8B04500EE100AA4462F
:103F9000BDE87040BDEEC00A10EE100A01B200206C
:103FA000604700002DE9F041184C0F460546E668D1
:103FB0002068001D00F06CFC38B9206890F82C10C7
:103FC00001208840216981432161681C07D137B1F4
:103FD0002168BDE8F0410E48091D00F091BC206841
:103FE0003544B5424560216805D2A06BBDE8F0417B
:103FF000091D00F06DBC606B091D00F069FCA06A32
:10400000854200D2A562BDE8F08100004C0000208E
:10401000C00200202DE9F041054600F07DFC2D4C4A
:10402000A068401CA06020682B4F10B1606930B3BD
:104030002BE02560A068012827D1002606EB86002A
:1040400007EB800000F036FC761C102EF6D32348D8
:1040500000F030FC2148143000F02CFC1F482830C0
:1040600000F028FC1D483C3000F024FC1B48503078
:1040700000F020FC194860631430A06305E020685C
:10408000E96AC06A884200D82560606A401C6062A4
:104090002864E96A0120226988401043206101EB0D
:1040A000810007EB8000291D00F02AFC00F054FC81
:1040B000606900280CD02068E96AC06A884207D28B
:1040C00007494FF080500860BFF34F8FBFF36F8FE9
:1040D000BDE8F0814C00002030010020700200207B
:1040E00004ED00E010B500F017FC0E4C2068A0B9FC
:1040F0000D4800F0DFFB0C48143000F0DBFB0A48F1
:10410000E0601430206100220C210A2000F0BEFE85
:10411000206010B105A100F09BFCBDE8104000F04C
:104120001BBC00003800002008010020546D7251B3
:104130000000000070B5114E114C17E000F000FEB9
:104140003068B8B101F036FA00F0E6FBF068C568F7
:10415000281D00F09DFBA068401EA0606068401E06
:10416000606000F0F9FB284600F055F86068002810
:10417000E4D170BD01F01EFAF8E70000AC020020A7
:104180004C00002030B4026C0B46002A0BD0C168F2
:104190001144C1604468A14201D30168C16030BCD0
:1041A0001846FCF76BB830BC70472DE9F041856BC1
:1041B000174604460026026C82B1C7B1E068FCF7DE
:1041C0005DF8E168206C091AE1602268914202D230
:1041D0006168081AE060022F16D017E02068A8B9BD
:1041E000606801F05FF90646002060600EE0A0689C
:1041F000FCF744F8216CA0680844A060616888421C
:1042000004D32068A06001E005B16D1E6D1CA5639C
:104210003046BDE8F08110B50446006B00F0B0FBFD
:104220002046BDE8104000F0ABBB000010484FF442
:104230009631420706D0C01D0D4920F00700411AF3
:10424000C1F596310B4A00230144C2E90003083945
:10425000103A21F0070111604B600B600B1AC0E9A6
:10426000001393604FF000405360D060704700002F
:104270001403002098000020074C4FF08056074D93
:10428000FFF758FF20680128FAD92E60BFF34F8F3F
:10429000BFF36F8FF4E700003001002004ED00E071
:1042A0002DE9F0470E46DDE9098417468246910064
:1042B0009946089DA522206BFBF7F2FF6FF00301E2
:1042C000206B01EB8701084420F00707780707D02F
:1042D000502080F31188BFF34F8FBFF36F8FFEE73D
:1042E0002218315C82F83410315C11B1401C0A286C
:1042F000F6D3002684F83D60102D00D30F25E5622B
:10430000C4E91256201D00F0E0FA04F1180000F094
:10431000DCFA2461C5F110006462A061266584F8AE
:1043200054604A465146384600F03CFA2060B8F1E5
:10433000000F01D0C8F80040BDE8F08730B5114942
:1043400000E011460A688242FBD34B685C18844245
:1043500003D1406818444860084643681C189442DA
:1043600009D1084C103C2468A24209D052681A4472
:1043700042600A6812680260814200D0086030BD65
:104380000460F9E79800002070B5002441600B4DEF
:104390000061914206D8D11A8269914206D2011D6C
:1043A000286907E09A4203D2994201D3012403E02D
:1043B000011DE86800F08CFA204670BD380000202E
:1043C00010B5044600F0A8FAA06B28B15FF0000415
:1043D00000F0C2FA204610BD0124F9E730B587B0DD
:1043E0002B4D4BE00498002848DB069C606910B117
:1043F000201D00F04DFA02A800F0B6F8024604981D
:104400000A283BD2DFE800F00505053A2637050506
:104410003A260598A169034601442046FFF7B4FFF8
:1044200000B3616A20468847E069012826D1002050
:1044300000900598A169002342181946204601F012
:1044400041F978B9502080F31188BFF34F8FBFF343
:104450006F8FFEE70598A06128B1811813462046AA
:10446000FFF792FF0AE0502080F31188BFF34F8FCF
:10447000BFF36F8FFEE7204600F082FA00231A4652
:1044800004A9286800F02CFD0028ABD107B030BD8E
:10449000380000202DE9FC410F46054600F050FC95
:1044A00001A800F061F80446019818B101F082F803
:1044B000BDE8FC81224EAFB130690068A8B3002787
:1044C000291B3A46306800F0D7FA01F073F800284B
:1044D000EED11C494FF080500860BFF34F8FBFF3FF
:1044E0006F8FE5E7A542EBD801F064F8F068274646
:1044F000C068C468201D00F0CBF9E069012810D124
:10450000A0692B4641193A462046FFF73DFF40B1CE
:1045100000200346014600902A46204601F0D2F8CA
:1045200020B1616A20468847C2E707E0502080F347
:104530001188BFF34F8FBFF36F8FFEE70127BFE7EF
:104540003800002004ED00E00648416B096829B1FD
:10455000416BC968C9684968816270474FF0FF3193
:10456000FAE700004C00002070B5054600F030FF6F
:10457000064E0446B068844203D200F009F80120D8
:1045800000E0002028602046B46070BD38000020A4
:10459000F8B5194D1FE0C068C4680668201D00F01A
:1045A00077F9616A20468847E069012813D1A0693C
:1045B0003044B04206D924616060211DE86800F0F3
:1045C00087F908E000200346014600903246204665
:1045D00001F078F838B1E86801680029DBD1296971
:1045E000C5E90310F8BD502080F31188BFF34F8F49
:1045F000BFF36F8FFEE700003800002008484068D6
:10460000401C4FF0500080F3118804D0BFF34F8F4F
:10461000BFF36F8FFEE7BFF34F8FBFF36F8FFEE7E0
:10462000A0000020074CE068016841B1C06800218B
:10463000D0F80000FFF72EFFFFF7D0FEF3E70121CF
:104640000020F7E7380000202DE9F041044600F093
:1046500063F994F9455004F1240609E0606A48B111
:10466000304600F06BFF08B100F0A4FA6D1E6DB289
:10467000002DF3DC4FF0FF3684F8456000F06CF954
:1046800000F04AF994F9445004F1100709E0206958
:1046900048B1384600F052FF08B100F08BFA6D1EA9
:1046A0006DB2002DF3DC84F84460BDE8F04100F009
:1046B00053B900002DE9F0410546002700F040FB0A
:1046C000314E306808B9FFF7B1FDF06805424BD1B3
:1046D000C5B3083568070ED005F00700C0F1080023
:1046E0000544680707D0502080F31188BFF34F8F2F
:1046F000BFF36F8FFEE72DB37068854234D8224830
:10470000103001460C6801E020460C466168A94261
:1047100002D221680029F7D131688C4224D0076881
:104720002168016060680837411B10290FD96019A2
:10473000420708D0502080F31188BFF34F8FBFF39A
:104740006F8FFEE710E041606560FFF7F7FD61687D
:104750007068401A7060B268904200D2B060F06831
:1047600001430020C4E9000100F024FF780707D0CE
:10477000502080F31188BFF34F8FBFF36F8FFEE798
:104780003846BDE8F0810000880000200449086830
:1047900018B10868C26C521CC264086870470000F7
:1047A0004C00002010B5031F4FF080741C601B1FCD
:1047B00021F001011960191F044B0B6014390A60C4
:1047C000091F6FF0020244380A6010BDFD45000861
:1047D000012A10D0022A0ED00022C0F84D200A78FB
:1047E000012A07D14978012904D10173D0F8AD001D
:1047F0004169016170476FF0020303EB42024FF41D
:104800007A7312FB03F24260E9E70000074AD1889D
:10481000491C89B2D1804FF4FA62426047F23052AB
:10482000914201D30121017370470000DA0000209A
:104830000123012A04D0022A18D0002141607047C8
:1048400040F6B83242604A6C096C00EE902A01EEE4
:10485000101A70EEC10AF4EEC00AF1EE10FAEEDBA7
:104860000373D0F8AD00416901617047074A4260A7
:104870004A6C096C00EE902A01EE101A70EEC10A23
:10488000F4EEC00AF1EE10FAEAD9704748F4FFFFDF
:10489000D0E9013201699A60D0E901235A604A687F
:1048A000824201D182684A60002202610868401E8B
:1048B0000860704700F108014FF0FF32C0E90112B3
:1048C000C1600161002101607047002101617047F2
:1048D00030B50B685A1C02D000F1080202E00269F0
:1048E00004E02246546825689D42FAD953684B601B
:1048F00099608A60516008610168491C016030BD9F
:1049000042684A6093688B6093685960916008615F
:104910000168491C01607047502080F31188BFF383
:104920004F8FBFF36F8F0A494868401C48600128C9
:104930000CD10848006810F0FF0F07D0502080F31A
:104940001188BFF34F8FBFF36F8FFEE770470000F2
:10495000A000002004ED00E00849486828B1401E8E
:10496000486001D180F311887047502080F311888E
:10497000BFF34F8FBFF36F8FFEE70000A000002052
:1049800070B5002827D0144DA0F108046168E868CC
:10499000014207D1502080F31188BFF34F8FBFF33E
:1049A0006F8FFEE722683AB1502080F31188BFF381
:1049B0004F8FBFF36F8FFEE78143616000F0C0F956
:1049C00060686968084468602046FFF7B7FCBDE886
:1049D000704000F0EFBD70BD8800002006484FF425
:1049E0007A710068B0FBF1F14FF0E020491E41619F
:1049F00007210161704700002400002010B5FBF77B
:104A000027FC114910280ED300F1E02090F8F003A4
:104A10000A78904207D2502080F31188BFF34F8F5D
:104A2000BFF36F8FFEE709480068896800F4E06013
:104A3000884207D9502080F31188BFF34F8FBFF30E
:104A40006F8FFEE710BD0000A00000200CED00E01D
:104A500010B5084B002200BF53F832401CB1521C65
:104A6000082AF9D310BD43F8321003EBC2014860A5
:104A700010BD0000D402002070B515460E46044655
:104A8000FFF74AFF94F944100020491C01D184F833
:104A9000440094F94510491C01D184F84500FFF702
:104AA0005BFFA06B28B92A46314604F1240000F0D0
:104AB0009FF82046BDE87040FFF7C6BD10B5020064
:104AC00014D00F48006B38B1502080F31188BFF329
:104AD0004F8FBFF36F8FFEE700F032F900211046D1
:104AE000FFF760FA00F066FD002807D105494FF096
:104AF00080500860BFF34F8FBFF36F8F10BD000071
:104B00004C00002004ED00E070B50546FFF704FFFF
:104B1000244C05B92568281DFFF7BAFE58B9E86A84
:104B2000214A00EB800152F8211021B90121814076
:104B3000206988432061A86A18B105F11800FFF7C1
:104B4000A7FE606A401C60622068854207D1291D6B
:104B50001648FFF7D5FE6068401C606007E0A0685B
:104B6000401EA0602846FFF756FBFFF7EDFCFFF75D
:104B7000F3FE6069002814D02068854211D1206BB3
:104B800038B1502080F31188BFF34F8FBFF36F8F80
:104B9000FEE707494FF080500860BFF34F8FBFF327
:104BA0006F8F70BD4C00002030010020AC0200204F
:104BB00004ED00E001490120C86170474C0000206D
:104BC00010B50C4650B1094909681831FFF780FE4D
:104BD0002046BDE810400121FFF7E4B9502080F3E2
:104BE0001188BFF34F8FBFF36F8FFEE74C0000209B
:104BF00070B514460D4668B10A4909681831FFF7C7
:104C00007FFE0CB14FF0FF3521462846BDE87040CD
:104C1000FFF7C8B9502080F31188BFF34F8FBFF35F
:104C20006F8FFEE74C00002070B5040039D01D4D99
:104C3000E06A2968C96A884233D2A069002804DB87
:104C40002868C06AC0F11000A061E16A164E01EB4D
:104C50008101606906EB810188421FD1201DFFF7A9
:104C600017FE012150B9E06A00EB800256F82220BD
:104C700022B92A6901FA00F082432A612868C06AD1
:104C8000E0622A6981401143296100EB800006EB54
:104C90008000211DBDE87040FFF732BE2868C06A61
:104CA000E06270BD4C0000203001002028B10749AF
:104CB0000A6A0260C96841607047502080F3118819
:104CC000BFF34F8FBFF36F8FFEE700004C00002053
:104CD0001CB517480024CDE900402346822215A1C7
:104CE000164800F03BFB012803D100F0C5FC012869
:104CF00009D0401C1AD1502080F31188BFF34F8F88
:104D0000BFF36F8FFEE7502080F31188BFF34F8F02
:104D1000BFF36F8F06484FF0FF312C3881620121BD
:104D20004161C460BDE81C4000F040B81CBD0000FB
:104D30007800002049444C450000000079420008FA
:104D40000248016B491C0163704700004C000020C1
:104D50001448016B11B10121C16170470021C1618B
:104D60000169B1FA81F1C1F11F0101EB81020E4924
:104D700051F822306BB101EB820101F108034A685E
:104D800052684A609A4201D152684A60D168016013
:104D90007047502080F31188BFF34F8FBFF36F8FA0
:104DA000FEE700004C000020300100201CB5324816
:104DB0000168324A914207D1502080F31188BFF335
:104DC0004F8FBFF36F8FFEE700682C49491E884262
:104DD00007D1502080F31188BFF34F8FBFF36F8F3F
:104DE000FEE7274908780190FF20087008788DF8C1
:104DF00000009DF800009DF8002000F0F0009042B7
:104E000007D0502080F31188BFF34F8FBFF36F8F0F
:104E1000FEE79DF800001B4A00F0500010700720CC
:104E2000906005E09DF800305B008DF80030401E7A
:104E30009DF800301B06F5D4000200F4E06090609D
:104E4000019808700C482030016841F4700101603D
:104E5000016841F070410160FFF7C0FD0020506023
:104E6000FBF7BEF90848016841F040410160FBF7DB
:104E7000A7F900201CBD000000ED00E071C20F4149
:104E800000E400E0A000002034EF00E02DE9F04154
:104E900017460E46050016D0EEB105FB06F0503061
:104EA000FFF708FC04000CD004F15000AEB1206004
:104EB000C4E90F562046012100F0C8F8204684F8C6
:104EC0004C70BDE8F081502080F31188BFF34F8F04
:104ED000BFF36F8FFEE70020E1E72460E8E7000002
:104EE0002DE9FF4F002683B09B468A46040003D07D
:104EF000BAF1000F08D011E0502080F31188BFF301
:104F00004F8FBFF36F8FFEE7206C38B1502080F3D6
:104F10001188BFF34F8FBFF36F8FFEE700F04AFA9F
:104F2000DFF824814FF000094FF0805748B9059809
:104F300038B1502080F31188BFF34F8FBFF36F8FCC
:104F4000FEE7FFF7E9FCA56B45B351462046E6684E
:104F5000FFF718F9BBF1000F13D0E660606A50B19B
:104F600004F1240000F0EAFA28B1C8F80070BFF399
:104F70004F8FBFF36F8FFFF7EFFC012007B0BDE845
:104F8000F08F6D1EA563206810B9FFF7FFFB60600E
:104F900020690028EFD004F11000E3E7059808B17C
:104FA0001EB106E0FFF7D8FC27E06846FFF77EFE5B
:104FB0000126FFF7D1FCFFF7C3FEFFF7ADFC94F924
:104FC0004400401C01D184F8449094F94500401CF1
:104FD00001D184F84590FFF7BFFC05A9684600F0B1
:104FE00087F9002820460AD0FFF72EFB00F0E2FAEE
:104FF0002046FFF7E5F90028A3D00020BEE7FFF721
:10500000DFF9D8B1206830B9FFF786FC6068FFF798
:105010000BFEFFF7A1FC04F124000599FFF7D0FD7A
:105020002046FFF711FB00F0C5FA002889D1C8F827
:105030000070BFF34F8FBFF36F8F82E72046FFF7FB
:1050400003FB00F0B7FA7CE704ED00E070B50D4615
:10505000040025D0FFF760FCD4E90F20216802FB93
:10506000001161600021A1632168A1600A46D4E9B2
:105070000F01401E00FB0121E16021464FF0FF308F
:1050800001F8440F487004F110008DB1FFF712FCD5
:1050900004F12400FFF70EFCFFF75EFC012070BD59
:1050A000502080F31188BFF34F8FBFF36F8FFEE75F
:1050B00021690029F0D000F041FA0028ECD0044921
:1050C0004FF080500860BFF34F8FBFF36F8FE3E75F
:1050D00004ED00E02DE9FF4782B01D468A464FF0FF
:1050E0000008040003D0BAF1000F08D011E05020EE
:1050F00080F31188BFF34F8FBFF36F8FFEE7206CF3
:1051000038B1502080F31188BFF34F8FBFF36F8FFA
:10511000FEE7022D0AD1E06B012807D0502080F372
:105120001188BFF34F8FBFF36F8FFEE700F042F996
:105130003F4F4FF000094FF0805648B9049838B1FE
:10514000502080F31188BFF34F8FBFF36F8FFEE7BE
:10515000FFF7E2FBA06BE16B884207D3022D05D07D
:105160000498D0B1B8F1000F1AD01EE02A4651467B
:105170002046FFF71AF8616A19B104F1240000F023
:10518000DDF920B13E60BFF34F8FBFF36F8FFFF7A4
:10519000E3FB012006B0BDE8F087FFF7DDFB22E06E
:1051A0006846FFF783FD4FF00108FFF7D5FBFFF7D7
:1051B000C7FDFFF7B1FB94F94400401C01D184F80E
:1051C000449094F94500401C01D184F84590FFF7C4
:1051D000C3FB04A9684600F08BF830B12046FFF706
:1051E00033FA00F0E7F90020D4E7FFF795FBA06B56
:1051F000E16B884213D1FFF7AFFB04F11000049973
:10520000FFF7DEFC2046FFF71FFA00F0D3F9002875
:105210009ED13E60BFF34F8FBFF36F8F98E7FFF7CC
:105220009BFB2046FFF710FA00F0C4F990E700005E
:1052300004ED00E02DE9F0471F4690468946040042
:1052400003D0B9F1000F08D011E0502080F311888D
:10525000BFF34F8FBFF36F8FFEE7206C38B1502044
:1052600080F31188BFF34F8FBFF36F8FFEE7022FDC
:105270000AD1E06B012807D0502080F31188BFF3DA
:105280004F8FBFF36F8FFEE7FFF7B8FB5020EFF3B0
:10529000118680F31188BFF34F8FBFF36F8FA06B20
:1052A000E16B884206D3022F04D0002086F31188D8
:1052B000BDE8F08794F945503A4649462046FEF746
:1052C00074FF681C04D06D1C84F845500120EDE784
:1052D000606A0028FAD004F1240000F02FF90028B9
:1052E000F4D0B8F1000FF1D00121C8F80010EDE7BB
:1052F00070B50D46040019D005B3FFF70DFB164A33
:10530000D1682868431C0FD02368126A934202D0E8
:1053100062688A421AD96268891A814216D2401A92
:1053200028602046FFF7C2FC002410E0502080F3E4
:105330001188BFF34F8FBFF36F8FFEE7502080F3CC
:105340001188BFF34F8FBFF36F8FFEE70124FFF784
:1053500003FB204670BD00004C0000202DE9FF5FDC
:105360008346DDE90E87994616468A469000FFF788
:10537000A1F905001AD05820FFF79CF9040012D0BB
:1053800025630021CDE90241CDE900874B46324635
:1053900051465846FEF784FF2046FEF73BFE0120AB
:1053A00004B0BDE8F09F2846FFF7EAFA4FF0FF305F
:1053B000F6E700000548416919B1006B18B10020FB
:1053C0007047012070470220704700004C00002009
:1053D0000148C068704700004C0000202DE9F041F2
:1053E0002E4C0027206B40B1A069401CA061E069F1
:1053F00000B101273846BDE8F081E668761CE6601A
:1054000013D1606B006838B1502080F31188BFF36E
:105410004F8FBFF36F8FFEE7606BA16B6163A0637B
:10542000206A401C2062FFF78FF8A06ADFF87080C6
:10543000864209D3606B006880B1606BC068C56844
:10544000686886420DD2A0622068C06A00EB8001C5
:1054500058F821000128CAD90127C8E74FF0FF30CA
:10546000F1E7281DFFF714FAA86A18B105F1180032
:10547000FFF70EFAE86A0121226981401143216198
:1054800000EB800108EB8100291DFFF739FAE86A7B
:105490002168C96A8842CDD30127CBE74C000020A0
:1054A0003001002070B504004FF0000140D0214DC4
:1054B0002868844207D0502080F31188BFF34F8FB3
:1054C000BFF36F8FFEE7E06C38B1401EE064A36C61
:1054D000E26A9A422CD040B12AE0502080F3118831
:1054E000BFF34F8FBFF36F8FFEE7201DFFF7D0F99B
:1054F000114A012150B9E06A00EB800352F82330D1
:1055000023B92B6901FA00F083432B61A06CE062A0
:10551000C0F11000A061E06A2B6981401943296144
:1055200000EB800002EB8000211DFFF7E9F901216B
:10553000084670BD4C000020300100202DE9F041EC
:10554000C068C468ACB104F118000746FFF7A0F9C1
:10555000154D286B0126A0B139461448FFF7D0F944
:10556000E06A2968C96A88421BD90120EE61BDE85A
:10557000F081502080F31188BFF34F8FBFF36F8FFE
:10558000FEE7201DFFF784F9E16A2A6906FA01F0B7
:105590001043286101EB8100054901EB8000211DCA
:1055A000DCE70020E3E700004C0000209802002028
:1055B000300100202DE9F0472C4D00242746286BB0
:1055C00038B1FFF7A9F9286B401E2863286B40B15A
:1055D00046E0502080F31188BFF34F8FBFF36F8FE9
:1055E000FEE7A968224E0120D1B3A6F5B479804622
:1055F0003068E8B1F068C46804F11800FFF748F9B2
:10560000201DFFF745F9E06A2A6908FA00F1114305
:10561000296100EB800109EB8100211DFFF770F982
:10562000E06A2968C96A8842E2D3C5F81C80DFE7CE
:105630000CB1FEF789FFAC6944B14646FFF7CEFED8
:1056400000B1EE61641EF9D10020A861E86938B1AB
:105650000849012738070860BFF34F8FBFF36F8FEA
:10566000FFF77AF93846BDE8F08700004C000020CB
:105670009802002004ED00E01CB5FEF733FD0D4854
:10568000006868B10B490220091DCDE90001002323
:105690004FF4827208A10A48FFF760FE002807D184
:1056A000502080F31188BFF34F8FBFF36F8FFEE759
:1056B0001CBD000038000020546D7220537663003A
:1056C00025460008FEB51E4613460200089D4FF011
:1056D000000014D0124C2768002F0FD0CDE9001322
:1056E0000292062915DAFFF765FE02284FF0000343
:1056F0000DD0002269462068FFF7ECFCFEBD50206B
:1057000080F31188BFF34F8FBFF36F8FFEE72A46F8
:10571000F0E70023324669463846FFF78BFDFEBDB1
:10572000380000200000804000000000CDCC4C3E3E
:1057300066668640000000000AD7233CF6289C3F9E
:10574000000000000AD7A33C0000604000000000F9
:105750000AD7A33C0000804000000000CDCC4C3DA7
:105760000000804000000000CDCC4C3DF6289C3F5E
:10577000000000000AD7A33CF6289C3F0000000070
:10578000CDCC4C3E0040AF43000000000000C842BA
:105790000000F042000000000000A0410000C942EB
:1057A00000000000000000009A99A54100000000E0
:1057B000000020410000C8420000000000004842F4
:1057C0000000C84200000000000048420000C9423A
:1057D00000000000CDCCCC3D0000C842000000001D
:1057E000000000000458000800000020EC00000049
:1057F00010390008F0580008EC000020343C01008B
:105800002039000800000000000000000000000037
:10581000000000000000000000000000010203047E
:105820000102030406070809007A030A00000000C9
:105830000000000001020304060708090000000040
:105840000000000000000000000000000000000058
:105850000000000000000000000000000000000048
:105860000000000000000000000000000000000038
:105870000000000000000000000000000000000028
:105880000000000000000000000000000000000018
:105890000000000000000000000000000000000008
:1058A0000000000000000000AAAAAAAA0000000050
:1058B0000101010000000000000000000000FF00E6
:1058C00000000000000003000000000000000000D5
:1058D00000000000000100000100000001000000C5
:1058E00000000000000000000000010101000000B5
:040000050800018965
:00000001FF
