:020000040800F2
:10000000403B012059020008CD21000825200008AE
:1000100061210008950C00083D3300080000000035
:10002000000000000000000000000000A101000826
:10003000511B000800000000F50100089D2B00087E
:1000400073020008730200087302000873020008BC
:1000500073020008730200087302000873020008AC
:10006000730200087302000873020008730200089C
:10007000730200087302000873020008730200088C
:10008000730200087302000873020008730200087C
:100090006D0E000873020008730200087302000866
:1000A000730200087302000873020008730200085C
:1000B00073020008252C0008730200087302000870
:1000C000730200087302000873020008730200083C
:1000D000730200087302000873020008730200082C
:1000E000730200087302000873020008730200081C
:1000F000730200087302000873020008730200080C
:1001000073020008730200087302000873020008FB
:1001100073020008730200087302000873020008EB
:1001200073020008551800087302000873020008E3
:1001300073020008730200087302000873020008CB
:10014000D51000087302000873020008730200084B
:10015000951800087302000873020008CD2F0008EC
:10016000730200087302000873020008730200089B
:10017000730200087302000873020008730200088B
:100180007302000873020008DFF810D000F024FBAF
:100190000048004739340008AFF30080403B01209D
:1001A0002A4B19680868B0E8F04F80F30988BFF35C
:1001B0006F8F4FF0000080F311887047000000003F
:1001C00006480068006880F3088862B661B6BFF32D
:1001D0004F8FBFF36F8F00DF00BF00BF08ED00E05F
:1001E000DFF80C00016841F470010160704700BF46
:1001F00088ED00E0EFF30980BFF36F8F134B1A68AF
:100200001EF0100F08BF20ED108A20E9F04F10609B
:1002100008B44FF0500080F31188BFF34F8FBFF345
:100220006F8F03F09BFF4FF0000080F3118808BC34
:1002300019680868B0E8F04F1EF0100F08BFB0EC66
:10024000108A80F30988BFF36F8F70474800002041
:10025000EFF30580704700000648804706480047D6
:10026000FEE7FEE7FEE7FEE7FEE7FEE7FEE7FEE766
:10027000FEE7FEE7C92B00088901000840EA0103F8
:100280009B0703D009E008C9121F08C0042AFAD24C
:1002900003E011F8013B00F8013B521EF9D2704710
:1002A000D2B201E000F8012B491EFBD270470022B8
:1002B000F6E710B513460A4604461946FFF7F0FF65
:1002C000204610BD2DE9FE4F804681EA0300C00F95
:1002D0000C46009021F0004123F00045B8EB0200ED
:1002E000A94105D24046214690461C460B4602468F
:1002F00023F00040104347D0270DC7F30A00C3F393
:100300000A510290401A019040286BDAC3F313009F
:1003100040F4801B0098924620B10023D2EB030AE0
:1003200063EB0B0B01985946C0F14002504600F0B8
:100330009EF906460D4650465946019A00F0A6F928
:1003400010EB08006141002487EA115284EAE77348
:100350001A4340D0009A62B3019A012A4FEA075229
:1003600015DC001B61EB02014FF0004202EA07526C
:10037000CDE90042001C41F5801132462B4600F0C9
:10038000DDF903B0BDE8F08F40462146F9E7001BD8
:1003900061EB0201001C41F5801300185B4120183D
:1003A000A2F5001747EB030140EAD570B6196D417D
:1003B00011E06D084FEA360645EAC0754FEA07526C
:1003C000001B61EB0201001C41F5801149084FEA56
:1003D00030000019514132462B4603B0BDE8F04FC2
:1003E00000F09DB90098012240000023D0EB0202EA
:1003F00063EBE073009821464FEAE074B8EB00002D
:1004000061EB0401E9E783F000435BE781F0004121
:1004100058E72DE9FE4F81EA030404F0004421F07F
:10042000004100944FF0000B23F0004350EA010418
:100430005ED052EA03045BD0C3F30A54C1F30A55F9
:100440002C44A4F2F3340194A0FB0254C1F3130131
:1004500041F48011C3F3130343F4801301FB0244FE
:1004600000FB034E840A970A44EA815447EA835703
:10047000A4FB076802958D0A05FB07854FEA932CBC
:1004800004FB0C542705029D4FEA065847EA16372D
:10049000B5EB08056EEB070C870E920E47EA811745
:1004A00042EA8312A7FB0201B6EB0B0164EB0004E6
:1004B0002B0D43EA0C335E1844EB1C50DA465146D0
:1004C000E7FB0201C5F313044FEA0B3343EA14536D
:1004D0004FEA0432019C43EA0603A4F10C0402949F
:1004E000009CCDE900B400F029F903B0BDE8F08F1D
:1004F00000200146F9E72DE9F04D81EA030404F0FC
:10050000004B21F0004514464FF0000A23F0004153
:1005100050EA050220D054EA01021DD0C5F30A5763
:100520000246C5F31303C1F31300C1F30A5640F4A6
:10053000801543F48013A7EB0608101BD64608F27B
:10054000FD3873EB050002D308F1010801E09218B1
:100550005B41B8F1000F03DA00200146BDE8F08DE1
:1005600000204FF48011064684460EE0171B73EB03
:10057000050705D3121B63EB050306434CEA010C88
:1005800049084FEA300092185B4150EA0107EDD16B
:1005900052EA030012D082EA040083EA050108430C
:1005A00005D0101BAB4106D20122002306E0002239
:1005B0004FF0004302E06FF0010253101AEB060007
:1005C0004CEB085110EB0A0041EB0B01BDE8F04D7C
:1005D00000F0A5B80EB5C10F80EAE0700844CA0764
:1005E000002140F233438DE80E000A460B4600F02E
:1005F000A5F803B000BD0EB540F2334102910021D1
:10060000CDE900110A460B4600F098F803B000BD92
:1006100000F0004230F000400AD0C10D01F56071D9
:10062000C0F3160042EA0151C20840071143704767
:1006300000200146704701F0004330B421F0004132
:1006400050EA010206D00A0DA2F56072C1F313014F
:10065000002A02DC30BC00207047440F44EAC10489
:10066000C100E01830BC00EBC25000F021B8202AD5
:1006700004DB203A00FA02F1002070479140C2F1F9
:10068000200320FA03F3194390407047202A06DB29
:10069000CB17203A41FA02F043EAE07306E041FA50
:1006A00002F3D040C2F1200291400843194670473E
:1006B0000029A8BF7047401C490008BF20F0010076
:1006C000704710B4B0FA80FC00FA0CF050EA010454
:1006D00004BF10BC704749B1CCF1200421FA04F4E6
:1006E00011FA0CF118BF012121430843A3EB0C01BF
:1006F000CB1D4FEA00614FEA102042BF002010BC22
:10070000704700EBC35010440029A4BF10BC7047D1
:10071000401C490008BF20F0010010BC704710B514
:10072000141E73F1000408DA401C41F10001921814
:100730005B411A4301D120F0010010BD2DE9F04DBD
:1007400092469B4611B1B1FA81F202E0B0FA80F212
:1007500020329046FFF78BFF04460F4640EA0A001E
:1007600041EA0B0153465A46084313D0114653EA57
:10077000010019D0C8F14002504600F03FF805468C
:100780000E46504659464246FFF771FF084305D0D2
:10079000012004E020463946BDE8F08D00200543E5
:1007A00046EAE0762C4337430A986305E40AA0EB57
:1007B00008000022FD0A44EA47540A3002D500200E
:1007C0000146E9E7010510196941DDE9084500190D
:1007D0006941BDE8F04DA2E7064C074D06E0E06830
:1007E00040F0010394E8070098471034AC42F6D378
:1007F000FFF7CEFCD84B0008F84B0008202A04DB9A
:10080000203A21FA02F00021704721FA02F3D04089
:10081000C2F1200291400843194670472DE9F0418A
:10082000964E0446012730780025012805D1022084
:1008300071703070002968D025737078012803D05A
:10084000022832D080B361E094F8ED04042813D07C
:10085000D4F8E9140122B2EE040A204602F0FCFAB0
:10086000207B012804D184F87E53204600F008F94B
:1008700094F8ED04042849D1D4F8E9140222B7EE23
:10088000000A204602F0E8FA207B01283ED184F8D5
:10089000255284F8D85284F88B53C4F81D5237700F
:1008A000757084F8ED5431E02FE094F8EE04D4F83C
:1008B000E91404280CD00122B2EE0B0A204602F003
:1008C000CBFA207B012821D1204600F03BF91DE026
:1008D0000222B1EE020A204602F0BEFA207B012875
:1008E00014D1C4F8B75084F8BF50C4F81D5284F82E
:1008F000255284F8D85284F88B533770757084F879
:10090000EE54072084F8F00400E037700027B3208D
:1009100007FB0046307BE0B301287DD0C6F84D5080
:100920007F1CFFB2042FF2D3D4F87903406900EEA4
:10093000900AD4F8D40200EE100A04F2293001F033
:1009400079FCD4F82C04406900EE900AD4F88703AF
:1009500000EE100A04F5777001F06CFCD4F879030E
:10096000B0F9230000EE100AD4F86903F8EEC00ACB
:1009700000EE100A04F2D92001F05CFCD4F82C043B
:10098000B0F9230000EE100AD4F81C04F8EEC00AF7
:1009900000E048E000EE100A04F5637001F04AFC44
:1009A000D4F86602D4F8F95400EE100ABDEEC00A7D
:1009B00010EE100A03B2D4F8B30100EE100ABDEE37
:1009C000C00A10EE100A02B2D4F8000100EE100ABC
:1009D000BDEEC00A10EE100A01B2D4F84D0000EED0
:1009E000100ABDEEC00A10EE100A00B2A847D4F8F3
:1009F000CC0300EE100ABDEEC00A10EE100A01B2E0
:100A0000D4F81903D4F8FD4400EE100ABDEEC00A74
:100A100010EE100A00B200E013E0A446BDE8F04179
:100A200000231A466047D6F8AD00B0F9230000EE67
:100A3000100A7068F8EEC00A00EE100AB8EEC00A9C
:100A400017E0D6F8AD004169006900EE901A00EE9B
:100A5000100A06F15D0001F0EDFBD6F8AD00B0F92B
:100A6000230000EE100AD6F89D00F8EEC00A00EE52
:100A7000100A06F10D0001F0DDFB51E7C400002073
:100A800070B5044690F8ED2400F27F31002500F5A2
:100A90003370CAB141F27C5604F21923012A27D0DF
:100AA000022A36D0032A33D102223146184600F0FA
:100AB000A1FE94F8250201282AD1C4F81D5284F819
:100AC00025522573042021E00122F1EE080A9FED52
:100AD0001B0A01F06DF894F8D802012818D194F897
:100AE0008B03012814D1C4F81D5284F825520DE05F
:100AF00001223146184600F07DFE94F825020128B7
:100B000006D184F8D85284F88B53022084F8ED047F
:100B100070BD0222F3EE040A9FED090A01F048F8C5
:100B200094F8D8020128F3D194F88B030128EFD16F
:100B3000C4F81D5284F825520320E7E7000036432D
:100B4000000020C370B5044690F8EE14002501267D
:100B5000B33081B1012920D002292AD003291BD129
:100B60002046FFF78DFF94F8ED04042814D1257377
:100B700084F8ED542DE0D4F8E514012201F03CFC9A
:100B800094F8BF00012807D184F8D85284F88B5319
:100B900084F8ED5484F8EE6470BD2046FFF770FFD2
:100BA00094F8ED040428F7D1267384F8BF5002208E
:100BB0000FE0D4F8E514012201F01EFC94F8BF0008
:100BC0000128E9D184F8D85284F88B5384F8ED5485
:100BD000032084F8EE0470BD10B501F0D1FE024987
:100BE000C1F81F0010BD0000F931012070B5274881
:100BF000274B0021D0F81F204FF4FA74157C012DEB
:100C00001AD01A88521C12B21A80A24203DBC18089
:100C1000818041800180D0F81F20557C012D22D099
:100C20005A88521C12B25A80A24204DB0181A0F8F9
:100C30001D10C172817270BD5578167846EA05257F
:100C40000580D578967846EA052545805579167948
:100C500046EA05258580D579967946EA0525C58039
:100C600011741980D7E7547A157A45EA042464424E
:100C70000481947A8472D47AC472547B157B45EAD9
:100C80000424A0F81D405174598070BDF931012031
:100C9000C0000020FEE70000F0B585B000244FF44E
:100CA000007500958DF808408DF8094008258DF8ED
:100CB0000A50050A8DF80C00080A8DF80D008DF811
:100CC0000E10100A8DF80F008DF81020180A8DF8FC
:100CD00011000C4E8DF80B508DF8123069463046DD
:100CE00000F0F2FC054640F6FF7701E0641CA4B278
:100CF0002946304600F048FD002801D1BC42F5D31A
:100D000005B0F0BD00640040F0B585B0002440F2AD
:100D1000FF1500958DF808408DF8094008258DF8DD
:100D20000A50050A8DF80C00080A8DF80D008DF8A0
:100D30000E10100A8DF80F008DF81020180A8DF88B
:100D400011000C4E8DF80B508DF81230694630466C
:100D500000F0BAFC054640F6FF7701E0641CA4B23F
:100D60002946304600F010FD002801D1BC42F5D3E1
:100D700005B0F0BD006400402DE9F04F8BB08A460D
:100D800081461E46904601210820DDF850B001F052
:100D900051FB0121480601F059FB324F0922002185
:100DA000384601F046F809220121384601F041F8A1
:100DB00002218DF82010032000248DF822408DF8A8
:100DC0002100079001258DF8235007A9384600F02F
:100DD000DFFF14208DF824008DF825508DF8275062
:100DE00009A801F0F5F9204F384600F0C9FA684625
:100DF00000F05AFC8DF806408DF808408DF8074049
:100E00008DF809408DF802B08DF80A408DF80390F6
:100E10008DF804A08DF80B508DF80580ADF80060BA
:100E20006946384600F084FB8DF816408DF817406F
:100E30008DF81850ADF80C40ADF81040ADF80E40EC
:100E4000ADF81240ADF814408DF8195003A800F029
:100E5000ADFA01220221384600F062FB0BB0BDE87A
:100E6000F08F0000000C02400064004010B5584CA8
:100E700086B00221204600F0FFFA002841D002216E
:100E8000204600F08DF95349204600F071F96A467A
:100E90000021204600F0C0FB009940F205234E4897
:100EA000A1F2052299426BD01DDCA1F50071013938
:100EB00029D001293AD002294ED0032921D19DF809
:100EC0000C109DF80B2001EB022109B281819DF8E5
:100ED0000E209DF80D3002EB03223F4B12B2C2816F
:100EE00095331B2035E0012A57D0022A63D0032A0C
:100EF00007D1BDF80B1049BA8183BDF80D1049BA6E
:100F0000C18306B010BD9DF80C109DF80B2001EBBD
:100F1000022109B201809DF80E209DF80D3002EBF0
:100F200003222D4B12B242802033DAE79DF80C10D9
:100F30009DF80B2001EB022109B281809DF80E2063
:100F40009DF80D3002EB0322234B12B2C2804733CF
:100F50002FE000F061F9D4E79DF80C109DF80B200C
:100F600001EB022109B201819DF80E209DF80D30A0
:100F700002EB0322184B12B242816E332420E8E7C1
:100F8000BDF80B10144B49BA09B20182BDF80D200F
:100F9000BC3352BA12B242820BE0BDF80B100E4BBA
:100FA00049BA09B28182BDF80D20E33352BA12B2B8
:100FB000C2821320CDE7BDF80B10084B49BA09B225
:100FC0000183BDF80D2052BA12B242836020C0E7FF
:100FD00000640040080000324E30012058310120EA
:100FE0002DE9F04F894682468BB098469346012101
:100FF000022001F01FFA0121880601F027FA334F81
:1010000009220521384600F014FF0922062138463E
:1010100000F00FFF6020022607908DF8206000246A
:101020008DF8224003208DF8210001258DF82350F2
:1010300007A9384600F0ACFE40208DF824008DF85A
:1010400025608DF8275009A801F0C2F8204E3046DF
:1010500000F096F9684600F027FB14988DF80640DA
:101060008DF808408DF802008DF807408DF8094092
:101070008DF80A408DF803A08DF804908DF80B5080
:101080008DF805B0ADF800806946304600F050FAA2
:101090000E208DF816008DF817408DF81850ADF819
:1010A0000C40ADF81040ADF80E40ADF81240ADF870
:1010B00014408DF8195003A800F078F9012202219C
:1010C000304600F02DFA0BB0BDE8F08F000402406E
:1010D0000068004010B5244C86B00221204600F084
:1010E000CBF9002824D00221204600F059F86A46A6
:1010F0000021204600F090FA009A1C480121A2F538
:101100008062013A16D0012A12D19DF80B2002729A
:101110009DF80C2042729DF80D2082729DF80E20E1
:10112000C2729DF80F2002739DF810204273417423
:1011300006B010BD9DF80B2002709DF80C20427087
:101140009DF80D2082709DF80E20C2709DF80F2032
:1011500002719DF8102042719DF8112082719DF856
:101160001220C2710174E3E7006800407F31012062
:101170000A4A914202D1002181617047C1F31302F2
:101180008B0101D5C26070474B0101D502617047E8
:10119000090101D582607047426070477000F030ED
:1011A00030B5082310240422B1F5007F1DD010DCD7
:1011B000202929D007DC012921D0042922D008299F
:1011C00000D1C46030BD402920D0B1F5807FF9D175
:1011D0000BE00025B1F5004F06D008DCB1F5806FBB
:1011E00003D0B1F5006FEDD18561426030BDB1F53E
:1011F000803F0DD0B1F5003FF8D1446030BD0549C6
:10120000816030BDC36030BD036130BD046130BD5D
:10121000436030BD010101002DE9F0471C462DED72
:10122000028B4FF40059A3F82320B3F82130D31ACE
:10123000A4F82530A4F821200022002901DD494529
:1012400003DD022384F8203001E084F82020A1F29D
:10125000D17341F28735AB4202D22270627034E022
:1012600041F6583C0126B4F90430A5684FF4FA68F9
:10127000614501DD267005E0414500DAA67027785A
:10128000012F03D1414501DA66700EE0A778012FE6
:1012900002D1614500DDE6702678012E02D1667824
:1012A000012E02D0012F08D011E05B1CA38005F5B0
:1012B0000055A5602270627009E0E678012E06D123
:1012C0005B1EA380A5F50055A560A270E270B4F97D
:1012D0000430002B02DD01EB433308E002DBA5689C
:1012E0004D4506DD03445B03A3F500530B44E36067
:1012F00000E0E160A368B4F906500646B3EB403F56
:1013000002DDA1606D1C07E07603002B0ADAA6F56A
:1013100000567018A0606D1EE580A280BDEC028BA7
:10132000BDE8F087E068FFF755F941EC180B30464F
:10133000FFF761F941EC100B53EC102B9FED0D0BF7
:1013400051EC100BFFF7D7F853EC182BFFF761F8AF
:10135000FFF771F900EE905A00EE100A9FED071AA0
:10136000F8EEE00AA06100EE810A10EE100A60615A
:10137000D4E7000000000000008076400000B44385
:10138000094910B588424FF0010101D14C0601E036
:101390004FF08064204601F065F82046BDE810401B
:1013A000002101F05FB8000000640040F0B5827ACF
:1013B000012191402E4A136843F0010313602C4B26
:1013C0001C331C688C431C60294D067B294C0C3552
:1013D000A6B92E688E432E604688C78846EA07461F
:1013E000877A04EBC707C7F840660688878846EA0D
:1013F0000746877A04EBC707C7F84466067B012EC9
:1014000012D12E680E432E60867A056804EBC6065C
:101410004FEA3545C6F84056867A456804EBC6045F
:101420004FEA3545C4F84456114CC57A241D002DA9
:10143000256806D00D4325600D4C0589143415B17F
:1014400004E08D43F7E725688D4325600589012D6C
:1014500002D125680D432560407B012802D1186820
:1014600008431860106820F001001060F0BD000013
:1014700000660040006000400246002053690B42B5
:101480004AD0B1F5807F3BD013DC08292ED007DC91
:10149000012926D0022927D004293DD1D0682BE08C
:1014A000102925D0202926D0402935D110691021B6
:1014B00030E0B1F5004F2BD00BDCB1F5007F22D02E
:1014C000B1F5806F22D0B1F5006F25D19069702100
:1014D00020E0B1F5803F11D0B1F5003F1CD150683C
:1014E000E5E790680D4915E0D06802E0D068DEE7D6
:1014F000106903210EE0106908210BE05068FBE73A
:101500009069012106E09069022103E0906900E002
:101510005068042100F098B97047000001010100F3
:10152000002A426901D00A4300E08A4342617047C1
:1015300010B50368002223F002030360036843F040
:10154000010303604FF6FF7300E0521C4468E40798
:1015500001D19A42F9D14268D2073ED08A79012A54
:1015600002683CD022F080020260CA79012A026837
:1015700038D022F0400202600A7A012A026834D090
:1015800022F0200202604A7A012A026830D022F05A
:10159000100202608A7A012A02682CD022F0080226
:1015A0000260CA7A012A026828D022F0040202608E
:1015B0008A78CC78920742EA04620C7942EA0442C3
:1015C0004C79098842EA0452491E0A43C261016803
:1015D00021F001010160002114E0002010BD42F063
:1015E0008002C1E742F04002C5E742F02002C9E7AD
:1015F00042F01002CDE742F00802D1E742F00402C7
:10160000D5E7491C4268D20701D09942F9D1406818
:10161000C007E2D1012010BD10B500EB0113D3F8D3
:10162000B04114F004041472D3F8B04134D0E4088B
:10163000C2F80440D3F8B04104F002045472D3F865
:10164000B44104F00F049472D3F8B441240AD47462
:10165000D3F8B841D472D3F8B841240A1473D3F83C
:10166000B841240C5473D3F8B841240E9473D3F8C2
:10167000BC41D473D3F8BC41240A1474D3F8BC41E0
:10168000240C5474D3F8BC311B0E937439B1016926
:1016900041F02001016110BD640D1460CAE7C1680A
:1016A00041F02001C16010BD00218171C171017242
:1016B00041728172C1728170C17003210171022176
:1016C000417101210180704730B5024600209368C6
:1016D0005B0108D49068000101D5012003E0906807
:1016E000C00044D5022002EB0012D2F8803103F092
:1016F0000103C2F880310B7AC3B3D2F880414D6840
:101700001C434B7A43EAC5031C43C2F880418B7AE1
:1017100003F00F038B72D2F8843123F00F03C2F869
:101720008431D2F884318C7A2343C2F88431CB7A65
:101730008C7B0D7B43EA04634C7B240444EA052440
:101740002343C2F88831CB7B8C7C43EA04634C7C16
:10175000097C240444EA01210B43C2F88C31D2F8FD
:10176000801141F00101C2F8801130BD01E0042078
:10177000FBE7D2F880314C7A23430C8843EA445388
:10178000C2F88031C3E70000002221B1012905D051
:10179000022906D112E08268114801E082681148EE
:1017A00002401149501A8A4214D00ADCA2B16FF0EB
:1017B000806010180FD002280CD10FE082680B480F
:1017C000EEE7B0F5007F09D00949401803D0B0F525
:1017D000003F03D00020704702207047012070476F
:1017E00003000004000300080001000800000310CB
:1017F0000001FFF710B50446D0F8AD00012A04D06F
:10180000022A02D08169016110BD5242032303EB19
:10181000420212FB01F16160B0F9230001F007FE02
:101820003228F1DC07484188491C09B2418014295B
:10183000EADD00214180D4F8AD0081690161012019
:10184000207310BDC4000020024600200A4200D0D0
:101850000120704770B50B4D0B4C2946204600F017
:101860000BF901280DD12946204600F033F829460E
:10187000204600F045F8BDE870400449044800F0F7
:1018800055BE70BD008800102864024091310120CF
:10189000FC2E012070B50B4D0B4C2946204600F064
:1018A000EBF801280DD12946204600F013F829460F
:1018B000204600F025F8BDE870400449044800F0D7
:1018C00035BE70BD0088002088640240913101203F
:1018D000FC2E0120074A904201D2074801E005484A
:1018E0001038064A8B0001EA020101D5C160704739
:1018F0008160704710640240006002407D0F7D0FE0
:10190000074A904201D2074801E005481038064ACC
:101910008B0001EA020101D5C16070478160704708
:1019200010640240006002407D0F7D0F00290168B5
:1019300002D041F0010101E021F001010160704796
:101940002DE9F043016821F00101016000210160EF
:1019500041608160C1600161212141613C493C4A93
:101960003D251039904202D18D60BDE8F083384AA0
:101970004FF474661832904201D18E60F5E7344A14
:101980004FF474173032904201D18F60EDE7304A46
:101990004FF0746C4832904202D1C1F808C0E4E7BD
:1019A0002B4B2C4A6033984201D1CA60DDE7284CAA
:1019B000294B7834A04201D1CB60D6E7DFF8908084
:1019C000264C08F19008404501D1CC60CDE7DFF806
:1019D00080804FF03D5908F1A808404502D1C1F878
:1019E0000C90C2E71E49DFF878800839404501D1E4
:1019F0000D60BAE71A4D1835A84201D10E60B4E760
:101A0000174D3035A84201D10F60AEE7144D48356F
:101A1000A84202D1C1F800C0A7E7114D10496035B6
:101A2000091FA84201D10A609FE70D4A783290420F
:101A300001D10B6099E70A4A9032904201D10C60C3
:101A400093E7074AA83290428FD1C1F800908CE703
:101A5000106002403D000020400F002000003D20AB
:101A600010640240014600200968C90700D0012027
:101A70007047406880B270470246094B00209A4286
:101A800001D2084A01E0064A103A8B0001D552689B
:101A900000E01268044B1A400A4200D0012070474F
:101AA00010640240006002407D0F7D0F0B0607D5D9
:101AB000436912B143F0800301E023F080034361E6
:101AC000802908D0002A026801F01E0101D00A43D3
:101AD00000E08A430260704730B50368124ACC6860
:101AE00013400A682243D1E905452C432243CC69BF
:101AF00022430C6A22434C6A22438C6A22434C6B79
:101B000022438C6B22431A430260426922F007038E
:101B1000D1E90B2422431A4342610A6942604A68B0
:101B200082608968C16030BD3F801CF041607047B1
:101B30004FF4FA7002F0C8F9FFF74EF800F096F98A
:101B400001F0FEFBFFF752F8022002F0BDF9F5E7C5
:101B5000704700004FF4FA7002F0B6F9064C074DDA
:101B60001F21204600F07EF98021284600F07AF9F6
:101B7000C82002F0A9F9F3E7001002400004024077
:101B80000021C1708170417001708160C1608180ED
:101B9000C18041610161C1618161022280F8202020
:101BA000A0F82510A0F82310A0F82110704700001D
:101BB0002DE9F04101272DED028BF0EE608AB0EEA9
:101BC000408A0D460446012A0DD0022A7ED0D4F860
:101BD000AD004069A060D5F8AD004069A860BDECDB
:101BE000028BBDE8F081A06800EE900A9FED650AC7
:101BF00070EE800A10EE900AA060A86800EE900ACD
:101C000030EEC00A10EE100AA860A06800EE900A3C
:101C1000D4F8AD00C06900EE100A30EE080AF4EE08
:101C2000C00AF1EE10FA06DB00EE100A30EE080AE8
:101C300010EE100AA060A86800EE900AD5F8AD007A
:101C4000C06900EE100A30EE480AF4EEC00AF1EE68
:101C500010FA06D800EE100A30EE480A10EE100A0C
:101C6000A860D4F8AD004169C06900EE101A70EEAA
:101C7000480A00EE100A30EEC00A01F0D0FBB4EEC4
:101C8000E80AF1EE10FA0AD82773D4F8AD00C0695B
:101C900000EE100A30EE480A10EE100AA060D5F8E7
:101CA000AD004169C06900EE101A70EE080A00EE3E
:101CB000100A30EEC00A01F0B2FBB4EEE80AF1EE11
:101CC00010FA8CD82F73D4F8AD0000E008E0C0699A
:101CD00000EE100A30EE480A10EE100AA0607EE70F
:101CE000A0689FED290A00EE900A70EEC00A10EE7F
:101CF000900AA060A86800EE900A30EE800A10EE0C
:101D0000100AA860D4F8AD004169C06900EE101A4D
:101D100000EE900A30EE600A01F081FBB4EEE80AB2
:101D20001A4EF1EE10FA02D83088401C3080D5F8F7
:101D3000AD004169C06900EE101A00EE900A30EE65
:101D4000600A01F06CFBB4EEE80AF1EE10FA02D87A
:101D50007088401C7080B6F900001428BFDBB6F90B
:101D600002001428BBDBD4F8AD004069A060D5F8B0
:101D7000AD004069A86027732F7300203080708009
:101D80002DE700009A99193FCDCCCC3EC800002029
:101D9000F0B50023012403270D6804FA03F215406F
:101DA000954242D1D0F800C05E0007FA06F52CEA51
:101DB000050CC0F800C091F804C0D0F800E00CFA9F
:101DC00006FC4CEA0E0CC0F800C091F804C0BCF14F
:101DD000010F02D0BCF1020F1FD1D0F808C02CEACD
:101DE000050CC0F808C091F805C0D0F808E00CFA5E
:101DF00006FC4CEA0E0CC0F808C0D0F804C02CEA6F
:101E0000020CC0F804C0426891F806C00CFA03FC4A
:101E10001FFA8CFC42EA0C024260C268AA43C2600C
:101E2000CA79C568B2402A43C2605B1C102BB3D389
:101E3000F0BD4B07DB0E9A40C90810B500EB8100DE
:101E4000016A0F249C40A1430162016A11430162AF
:101E500010BD0246002012690A4200D001207047DE
:101E60000183704742694A404261704710B500F0F3
:101E7000AFFD044C207000F0D3FD607000F0F8FD61
:101E8000A07010BDB20000202DE9F04F04462DEDEA
:101E9000048BABB000265422584915A8FEF7EEF982
:101EA0005649542254316846FEF7E8F95448C4F8BC
:101EB000F9045448C4F8FD045348C4F801055348D4
:101EC000C4F805055248C4F80905B1460DF1540A95
:101ED000EB46DFED508A9FED508A9FED509AB3207C
:101EE00006FB00F73D19284600F03CF906F1010811
:101EF00008F0FF00E055D4F801158847C5F8AD009B
:101F000006EB46060BEB8600B0EE682A90EC030A5F
:101F100005F15D00F0EE481A00F02AFA0AEB86009F
:101F2000B0EE492A90EC030A05F10D00F0EE481AD4
:101F300000F01EFAD5F8AD0008F0FF068169A9602F
:101F40008169C161D5F8AD0081690161D5F8AD0045
:101F5000816941611320688085F8B290072EBED355
:101F600006A9DFED2F8AF0EE481A91EC030AB0EED5
:101F7000682A04F2C31000F0FBF912A9B0EE682A37
:101F800091EC030AF0EE481A04F28F4000F0F0F9E9
:101F90001B2060802421A4F86811A4F81B02A4F877
:101FA000341484F8F09484F8EF9484F8EE9484F870
:101FB000ED9484F8F79484F8F69484F8F59484F812
:101FC000F49484F8F39484F8F29484F8F194D4F8B7
:101FD00005058047C4F8E50402218170D4F8E504C2
:101FE0004170D4F8E5040170D4F809058047C4F8BD
:101FF000E9042BB0BDEC048BBDE8F08F304B00083A
:10200000990C0008090D000889290008C929000851
:10201000C12A000800D004460000000000007A46F3
:1020200000B06546FEE70000F8B5134C1148E060CB
:102030001248A06012482060124860601248206177
:10204000124860611248A06100F05AF82069804788
:102050006069804700250095266803230722042134
:102060002846B04700956468032307220421002016
:10207000A047F8BD01210008D4000020C52C0008AD
:10208000790D0008E10F0008B92E0008453000085E
:10209000A520000802494CF6CC40086070470000BB
:1020A0000030004070B504460D4645F2555000F032
:1020B00021F8204600F012F8284600F015F800F04C
:1020C00005F8BDE87040FFF7E5BF000002494AF699
:1020D000AA200860704700000030004001494860B5
:1020E00070470000003000400149886070470000E0
:1020F0000030004001490860704700000030004097
:102100007CB50121102000F095F90121022000F09A
:1021100091F901208DF8040000218DF806100321AB
:102120008DF805108DF807001F200B4C00906946B4
:102130002046FFF72DFE8020084D00906946284676
:10214000FFF726FE1F212046FFF78AFE8021284642
:10215000FFF786FE7CBD0000001002400004024034
:10216000FEE7000070B500252DED028B04469FEDC3
:10217000168A458045700570456085600573B0EE30
:10218000482AF0EE481AB0EE481AF0EE480AB0EECF
:10219000480A0D3000F0ECF8B0EE482AF0EE481A8C
:1021A000B0EE481AF0EE480AB0EE480A04F15D00BD
:1021B00000F0DEF854F8AD0FFFF7E2FC0B202071C1
:1021C0006571BDEC028B70BD00000000704700001F
:1021D00030B50F22C47801780123FCB1144C246877
:1021E00001F1E02104F4E064C4F5E064C4F30724E1
:1021F000C4F10405E2404478AC408578154025439D
:102200002A0181F80024007800F01F018B4040096A
:10221000800000F1E020C0F8003130BD01F01F0067
:1022200083404809800000F1E020C0F8803130BDD3
:102230000CED00E010B500287ED010EE103A10EE44
:10224000901A036000EE103A00EE901A4160C269E5
:1022500030EE600A0262826910EE101AC26181617A
:10226000436A00EE101A00EE903A30EE800A00EE5B
:10227000902A10EE103A00EE101A4362C46A04630A
:1022800030EE600A846AC46210EE104A00EE101A42
:102290008462C26800EE902A20EE800A10EE102AB6
:1022A00000EE103A4263016900EE901A20EE800AB7
:1022B00010EE101A00EE104A8163436900EE903A66
:1022C00020EE800A10EE103A00EE101AC363816C03
:1022D00000EE901AB4EEE00AF1EE10FA00DB816332
:1022E000846B00EE101A00EE904AB1EE400AF4EE54
:1022F000C00AF1EE10FA06D800EE101AB1EE400A4C
:1023000010EE101A8163816B00EE102A00EE901A15
:1023100070EE200A00EE103A30EE800A10EE101A2D
:102320000164406C00EE101A00EE900AB4EEE00A70
:10233000F1EE10FA07DB00E002E000EE100A10BD3B
:102340009FED0A0A10BD00EE900A00EE101AF1EEA1
:10235000600AB4EEE00AF1EE10FA04D800EE100ABA
:10236000B1EE400A10BD00EE101A10BD00000000D2
:1023700000281DD010EE101AC16010EE901A0161F5
:1023800011EE101A416111EE901A816412EE101ACA
:10239000416400218161C16101628162C1620163A6
:1023A00041628160416001600164C1638163416396
:1023B000704770B50446D0F8AD0000231A46416955
:1023C000C161D4F860014169C161D4F81302416967
:1023D000C161D4F8C6024169C161D4F8F954194603
:1023E0001846A847D4F8FD440023A446BDE8704031
:1023F0001A46194618466047012A10D0022A0ED004
:102400000022C0F84D200A78012A07D14978012915
:1024100004D10173D0F8AD004169016170476FF0DC
:10242000020303EB42024FF47A7312FB03F24260A1
:10243000E9E70000044A0029116801D0014300E0E7
:10244000814311607047000030380240044A00297F
:10245000116801D0014300E0814311607047000022
:1024600040380240044A0029116801D0014300E0CD
:10247000814311607047000020380240044A00295F
:10248000116801D0014300E08143116070470000F2
:1024900044380240044A0029116801D0014300E099
:1024A00081431160704700002438024030B51C4A57
:1024B00011681C4B11F00C0103D0042901D008292C
:1024C00001D0036013E01649091F0C680C6804F082
:1024D0003F04B3FBF4F30C680968C4F38814634346
:1024E000C1F30141491C4900B3FBF1F101601168DE
:1024F0000F2303EA11110C4B5C5C0168E140416061
:102500001468072505EA94241C5D21FA04F484600C
:10251000126805EA52329A5CD140C16030BD0000B9
:102520000838024040787D0110000020F0B50028F6
:1025300063D0002961D031480278437842EA03220F
:10254000C2F30A020A8043788478DB0843EA441322
:10255000C3F30A034B808478C578A40944EA850450
:10256000057944EA8524C4F30A048C800579467908
:102570006D0845EAC615C5F30A05CD804679B6094A
:102580008E724679C6F30116CE72067C477C46EA07
:102590000726C6F30A060E818679C77946EA07261A
:1025A000A1F80D60067A477A46EA0726A1F80F607F
:1025B000867AC77A46EA0726A1F81160067BCE76AE
:1025C000467B0E77867BC77B46EA0726A1F81D600F
:1025D000067C407CA2F580620A80A3F580634B8074
:1025E000A4F5806446EA00208C80A5F58065CD8046
:1025F000A0F58060088101200873F0BDFC2E012049
:102600004FF4FA7001F060FC1848FFF73DFC00F051
:10261000B3F9164C0227164DC4F80D055FF00106FC
:10262000D4F80D05817A032905D190F90B00032810
:1026300009D0022815D02E700C48FFF7BAFE0220F0
:1026400001F042FCECE72878012804D0002107487B
:10265000FEF7E4F8F3E701210448FEF7DFF82F70F6
:10266000EDE7024800F006F8E9E700002A32012011
:10267000D00000202DE9F041044690F8F104BB4D54
:102680004FF001080026B0B9C4F84D60D4F8AD0091
:10269000B0F92300401D0A280DD82888401C00B23C
:1026A0002880642807DB2E8094F8F804401C84F806
:1026B000F80484F8F18494F8F214D4F8600104F179
:1026C000C007B9B1806900EE900AD4F8BB0000EEF3
:1026D000100A04F58870FFF7ADFDD4F86001B0F979
:1026E000230000EE100AD4F85001F8EEC00A00EE04
:1026F000100A2DE0C4F8B760B0F923103231642914
:1027000018D86988491C09B26980042912DB6E80D7
:1027100094F8F814491C84F8F81484F8F284416998
:102720000161D4F860014169C161D4F86001406978
:10273000C4F8BB00D4F86001B0F9230000EE100A21
:10274000D4F8B700F8EEC00A00EE100AB8EEC00ADE
:102750003846FFF76FFD94F8F40448BB8448C4F88A
:102760001D02D4F8C602B0F9230000EE100AF8EEFC
:10277000C00A9FED800A04F22620FFF75BFDD4F823
:10278000C602B0F923003230642811D8E888401C12
:1027900000B2E88005280BDBC4F81D62EE8094F8D7
:1027A000F804401C84F8F80484F8F484C4F86662E1
:1027B00094F8F50404F2D927B8B3D4F87903806902
:1027C00000EE900AD4F8D40200EE100A04F2293088
:1027D000FFF730FDD4F87903B0F9230000EE100ABA
:1027E000D4F86903F8EEC00A00EE100A3846FFF785
:1027F00021FDD4F82C04806900EE900AD4F88703F8
:1028000000EE100A04F57770FFF714FDD4F82C04DD
:10281000B0F9230000EE100AD4F81C04F8EEC00A48
:1028200000EE100A04F5637042E0FFE7C4F8D062DE
:10283000C4F8CC63D4F87903B0F923101E313C29D5
:1028400027D82989491C09B22981042921DB2E8135
:1028500094F8F814891C84F8F81484F8F58484F842
:10286000F68441690161D4F879034169C161D4F802
:1028700079034069C4F8D402D4F82C044169016199
:10288000D4F82C044169C161D4F82C044069C4F81F
:102890008703D4F87903B0F9230000EE100AD4F8C6
:1028A000D002F8EEC00A00EE100A3846B8EEC00AB0
:1028B000FFF7C0FC94F8F804052840D0D4F866026D
:1028C000D4F8F95400EE100ABDEEC00A10EE100A5A
:1028D00003B2D4F8B30100EE100ABDEEC00A10EE48
:1028E000100A02B2D4F8000100EE100ABDEEC00AD0
:1028F00010EE100A01B2D4F84D0000EE100ABDEE41
:10290000C00A10EE100A00B2A847D4F8CC03002386
:1029100000EE100A1A46BDEEC00A10EE100A01B20F
:10292000D4F81903D4F8FD4400EE100ABDEEC00A35
:1029300010EE100A00B2A0470020BDE8F081D4F8E4
:10294000E90400231A46416C016484F8F864D4F861
:10295000F9541946184604F2E944A847002364696B
:102960001A4619461846A0470120E6E71C32012006
:1029700030F8FFFF0000FAC400487047F931012029
:10298000004870477F310120082819D2DFE800F0A5
:10299000180406090C0F12150A4870470948273019
:1029A000704708484E3070470648753070470548F4
:1029B0009C3070470348C33070470248EA30704784
:1029C000002070476E30012000487047B2000020A0
:1029D00070B5114D08212846FFF73BFA0F4C01282E
:1029E00005D008212846FFF734FA18B105E0A08881
:1029F000401C01E0A088401EA080B4F90410002013
:102A0000022902DB0121217003E011F1020F01DC38
:102A10002070A080207870BD00000240A800002037
:102A200070B5114D04212846FFF713FA0F4C012809
:102A300005D004212846FFF70CFA18B105E0E0881C
:102A4000401C01E0E088401EE080B4F90610002040
:102A5000022902DB0121617003E011F1020F01DCA8
:102A60006070E080607870BD00000240A800002027
:102A700070B5114D40212846FFF7EBF90F4C0128A6
:102A800005D040212846FFF7E4F918B105E0208978
:102A9000401C01E02089401E2081B4F9081000206C
:102AA000022902DB0121A17003E011F1020F01DC18
:102AB000A0702081A07870BD00000240A800002016
:102AC00000487047B03101200CB500202749019023
:102AD00000900A6842F480320A604FF4A0430A680A
:102AE00002F400320092019A521C0192009A12B92B
:102AF000019A9A42F3D10A68920334D501200090DA
:102B00001A484030026842F0805202601848026859
:102B100042F44042026015480830026802600268D0
:102B200042F400420260026842F4A0520260031FB5
:102B3000104A1A600A6842F080720A600A689201BC
:102B4000FCD50D4A40F205711160016821F00301C6
:102B50000160016841F0020101600168C1F3810177
:102B60000229FAD10CBD00900CBD000000380240D3
:102B70000070004019544007003C024010B501F0BD
:102B8000D1F800F02DF90448006801F0C3F9BDE860
:102B9000104001F0E7B800000000002010B5502000
:102BA00080F31188BFF34F8FBFF36F8F01F01CFECE
:102BB00018B104494FF080500860002080F311885C
:102BC00010BD000004ED00E0124810B5016841F4AA
:102BD000700101601048016841F0010101600E4A76
:102BE00000210832116002680C4B1A400260031D7C
:102BF0000B4A1A60026822F48022026006480C30F8
:102C00000160FFF761FF03494FF000608039086001
:102C100010BD000088ED00E000380240FFFFF6FE26
:102C20001030002470B5234C0121204600F085F8B7
:102C3000012838D120494888401C00B24880B0F5AE
:102C40007A7F0EDB087840420870002048808A882E
:102C5000521C12B28A803C2A03DBCA88521CCA80EA
:102C6000888091F90000154A154D012802D0401CBA
:102C700011D018E0B1F902005A2190FBF1F301FBE9
:102C8000130080B980211046FFF7ECF81F21284679
:102C9000FFF7E8F807E080211046FFF7E1F81F2171
:102CA0002846FFF7DDF82046BDE87040012100F01E
:102CB00037B8000000040040B600002000040240C5
:102CC000001002407FB50C46054601210220FFF7A7
:102CD000BDFB641E6D1E00200194ADF800500F4C2A
:102CE000ADF80200ADF808006946204600F03AF859
:102CF0001D208DF80C0008208DF80D0001208DF8A6
:102D00000F0003A8FFF764FA01221146204600F0E5
:102D100020F80121204600F006F87FBD00040040A5
:102D2000C943018270470029018802D041F00101A6
:102D300001E021F001010180704702460020138A62
:102D400092890B4202EA010202D0002A00D001203F
:102D50007047002A828901D00A4300E08A438281B9
:102D60007047000030B50288164B174C98420DD0C2
:102D7000A0420BD0B0F1804F08D0144DA84205D02E
:102D8000134DA84202D0134DA84203D122F0700582
:102D90004A882A43104DA84206D0104DA84203D0BD
:102DA00022F440750A892A4302804A68C2620A886E
:102DB0000285984201D0A04201D1897A0186012181
:102DC000818230BD00000140000401400004004049
:102DD00000080040000C00400010004000140040BB
:102DE0007CB508240F486501CDE9004000232A4640
:102DF0000DA1104801F0B8FC0A490920091DCDE9D0
:102E0000000100232A460CA10E4801F0ADFC054844
:102E100000230830CDE900402A460BA10D4801F0FF
:102E2000A3FC7CBD0400002052656D6F74655F5487
:102E300061736B00012600084465746563745F5418
:102E400061736B00551B0008446174615F546173CA
:102E50006B000000311B00080123012A04D0022A64
:102E600018D000214160704740F6B83242604A6C89
:102E7000096C00EE902A01EE101A70EEC10AF4EE11
:102E8000C00AF1EE10FAEEDB0373D0F8AD00416931
:102E900001617047074A42604A6C096C00EE902A53
:102EA00001EE101A70EEC10AF4EEC00AF1EE10FA4B
:102EB000EAD9704748F4FFFF70B596B001213D484C
:102EC000FFF7B8FA01211020FFF7D8FA3A4E07228F
:102ED0000A213046FEF7ADFF02208DF85000002495
:102EE0008DF8524003208DF85100351513958DF85B
:102EF000534013A93046FEF74BFF304E304600F0EA
:102F000039F92F480F90ADF844500420ADF84040F7
:102F1000ADF84600ADF84240ADF848400FA9304644
:102F200000F0B6F90121304600F012F901224021EB
:102F3000304600F017F944208DF854008DF85540C4
:102F400001208DF8570015A8FFF742F91D4E00210A
:102F50003046FEF7EBFC3068C007FCD13046FEF788
:102F6000EFFC4FF000600090144804A9001D019090
:102F70001548CDE90204122081E831004FF4807039
:102F8000CDE908404FF44030CDE90A0407940C9491
:102F90000D94694630460E94FEF79EFD01221021E5
:102FA0003046FEF783FD01213046FEF7BFFC16B028
:102FB00070BD000001004000000002400010014010
:102FC000A086010088640240FC2E012070B5194CD7
:102FD00040F22441204600F023F9002828D0164D65
:102FE00000212846FEF7A2FC2846FEF73BFD0028FC
:102FF000FAD120880F48001D00882846FEF739FDC9
:10300000C0F1800080B200210C4C0D4A03E0535CFB
:103010006354491C89B28142F9D380212846FEF7C6
:1030200085FD01212846FEF781FC012084F8480037
:1030300070BD00000014014028640240B03101203E
:10304000CE2F012070B590B001213C48FFF7F2F976
:1030500001212020FFF712FA394E082206213046BE
:10306000FEF7E7FE082207213046FEF7E2FEC02009
:10307000049002208DF8140000248DF816400325DA
:103080008DF815508DF8174004A93046FEF780FEE4
:103090002C4E304600F06EF84FF4E1300090ADF861
:1030A00008400C20ADF80440ADF80A00ADF8064029
:1030B000ADF80C406946304600F0EAF847208DF83C
:1030C000180001208DF81B008DF8195006A8FFF795
:1030D0007FF8012240F22441304600F0C0F801217F
:1030E000304600F035F8184D2846FEF729FCA805B3
:1030F0000090301D01901548CDE902048020CDE9F3
:103100000404C000CDE906048010CDE908404FF466
:103110004030CDE90A040C940D94694628460E947B
:10312000FEF7DAFC01212846FEF700FC01224021CF
:10313000304600F017F810B070BD000004004000E9
:10314000000802400014014028640240CE2F0120F4
:103150000029818902D041F4005101E021F400519D
:1031600081817047002A828A01D00A4300E08A43A5
:1031700082827047224910B5884206D10121102071
:10318000FFF788F90021102020E01E49884202D173
:1031900001214C0429E01C49884202D101218C0400
:1031A00023E01A49884202D10121CC041DE01849CC
:1031B000884202D101210C0517E01649884209D145
:1031C00001212020FFF766F900212020BDE81040F2
:1031D000FFF760B91049884202D101218C0704E051
:1031E0000E4988420AD1012144052046FFF73AF9E9
:1031F0002046BDE810400021FFF734B910BD0000A3
:10320000001001400044004000480040004C0040D5
:10321000005000400014014000780040007C004055
:1032200030B501F01F0201240025C1F3421304FA56
:1032300002F2012B0FD0022B0FD0838A4FEA11210B
:103240000088134204FA01F400EA040001D000B13E
:103250000125284630BD8389F0E7038AEEE710B5E3
:10326000C1F3421301F01F040121A140012B07D03B
:10327000022B07D01430002A026805D00A4304E06C
:103280000C30F8E71030F6E78A43026010BD00000A
:103290007FB50446008A0D4620F44051E888084373
:1032A0002082A08941F20C618843A9882A891143B0
:1032B0006A8902431143A181A08A20F44071A88940
:1032C0000843A0826846FFF7F1F81A48844202D00A
:1032D0001948844201D1039800E00298A1890904A9
:1032E00000EBC00101EB0010296801D5490000E0A6
:1032F0008900B0FBF1F26420B2FBF0F109010B0987
:103300006FF018056B4302EB8302A3891D044FF095
:10331000320306D503EBC202B2FBF0F000F0070067
:1033200005E003EB0212B2FBF0F000F00F000843DF
:1033300020817FBD0010014000140140FEE7000025
:1033400010B52B4C002094F8481001294FD1617F13
:10335000A1F13002092A08D801EB4102C2EBC111E8
:1033600000EBC10000F5894080B2A17FA1F13002DD
:10337000092A08D801EBC10202EB011100EB810020
:10338000A0F5965080B2E17FA1F13002092A06D85B
:1033900001EB810100EB4100A0F5F07080B294F8E0
:1033A0002010A1F13002092A02D83038084480B236
:1033B00000EE100AB2EE041AF8EE400A80EE810A1E
:1033C00010EE100AFDF724F99FED0A1B53EC112BA8
:1033D000FDF719F8FDF72FF9084960640A78032A08
:1033E00002D104220A702064002084F8480010BD35
:1033F000B03101206666666666661040BE00002039
:1034000002E008C8121F08C1002AFAD170477047AD
:10341000002001E001C1121F002AFBD17047B5EE68
:10342000C00AF1EE10FA01D2B1EE400A704700284E
:1034300001DA404200B270471CB5FEF7F5FD0749BE
:103440000120CDE900010202002305A1074801F097
:103450008BF900F043FE00201CBD0000000000209E
:1034600053746172745F5461736B00007D2B0008AC
:103470002DE9F041184C0F460546E6682068001D0E
:1034800000F00CFC38B9206890F82C10012088401E
:10349000216981432161681C07D137B12168BDE8EA
:1034A000F0410E48091D00F031BC20683544B5429A
:1034B0004560216805D2A06BBDE8F041091D00F010
:1034C0000DBC606B091D00F009FCA06A854200D2AA
:1034D000A562BDE8F081000048000020A80200209D
:1034E0002DE9F041054600F01DFC2D4CA068401C64
:1034F000A06020682B4F10B1606930B32BE02560CD
:10350000A068012827D1002606EB860007EB800083
:1035100000F0D6FB761C102EF6D3234800F0D0FB2B
:103520002148143000F0CCFB1F48283000F0C8FBC5
:103530001D483C3000F0C4FB1B48503000F0C0FB7D
:10354000194860631430A06305E02068E96AC06A26
:10355000884200D82560606A401C60622864E96A7D
:103560000120226988401043206101EB810007EBB4
:103570008000291D00F0CAFB00F0F4FB6069002800
:103580000CD02068E96AC06A884207D207494FF028
:1035900080500860BFF34F8FBFF36F8FBDE8F0819D
:1035A00048000020180100205802002004ED00E02F
:1035B00010B500F0B7FB0E4C2068A0B90D4800F024
:1035C0007FFB0C48143000F07BFB0A48E0601430AD
:1035D000206100220C210A2000F05EFE206010B164
:1035E00005A100F03BFCBDE8104000F0BBBB0000B3
:1035F00034000020F0000020546D725100000000E3
:1036000070B5114E114C17E000F0A0FD3068B8B154
:1036100001F0D6F900F086FBF068C568281D00F0BF
:103620003DFBA068401EA0606068401E606000F026
:1036300099FB284600F055F860680028E4D170BD79
:1036400001F0BEF9F8E700009402002048000020D5
:1036500030B4026C0B46002A0BD0C1681144C16023
:103660004468A14201D30168C16030BC1846FCF730
:1036700005BE30BC70472DE9F041856B1746044606
:103680000026026C82B1C7B1E068FCF7F7FDE16883
:10369000206C091AE1602268914202D26168081A1E
:1036A000E060022F16D017E02068A8B9606801F02A
:1036B000FFF80646002060600EE0A068FCF7DEFD23
:1036C000216CA0680844A0606168884204D3206827
:1036D000A06001E005B16D1E6D1CA5633046BDE81C
:1036E000F08110B50446006B00F050FB2046BDE8A9
:1036F000104000F04BBB000010484FF496314207D9
:1037000006D0C01D0D4920F00700411AC1F59631C1
:103710000B4A00230144C2E900030839103A21F0A2
:10372000070111604B600B600B1AC0E90013936036
:103730004FF000405360D06070470000FC02002052
:1037400094000020074C4FF08056074DFFF758FFBC
:1037500020680128FAD92E60BFF34F8FBFF36F8F17
:10376000F4E700001801002004ED00E02DE9F04727
:103770000E46DDE909841746824691009946089D68
:10378000A522206BFCF78CFD6FF00301206B01EB91
:103790008701084420F00707780707D0502080F3FE
:1037A0001188BFF34F8FBFF36F8FFEE72218315C94
:1037B00082F83410315C11B1401C0A28F6D300267F
:1037C00084F83D60102D00D30F25E562C4E9125640
:1037D000201D00F080FA04F1180000F07CFA24614A
:1037E000C5F110006462A061266584F854604A4601
:1037F0005146384600F03CFA2060B8F1000F01D085
:10380000C8F80040BDE8F08730B5114900E0114626
:103810000A688242FBD34B685C18844203D140683B
:1038200018444860084643681C18944209D1084C63
:10383000103C2468A24209D052681A4442600A68C7
:1038400012680260814200D0086030BD0460F9E770
:103850009400002070B5002441600B4D006191423E
:1038600006D8D11A8269914206D2011D286907E063
:103870009A4203D2994201D3012403E0011DE86872
:1038800000F02CFA204670BD3400002010B504462C
:1038900000F048FAA06B28B15FF0000400F062FA73
:1038A000204610BD0124F9E730B587B02B4D4BE021
:1038B0000498002848DB069C606910B1201D00F0C8
:1038C000EDF902A800F0B6F8024604980A283BD2A7
:1038D000DFE800F00505053A263705053A26059884
:1038E000A169034601442046FFF7B4FF00B3616AB3
:1038F00020468847E069012826D1002000900598DD
:10390000A169002342181946204601F0E1F878B970
:10391000502080F31188BFF34F8FBFF36F8FFEE706
:103920000598A06128B1811813462046FFF792FF41
:103930000AE0502080F31188BFF34F8FBFF36F8FE1
:10394000FEE7204600F022FA00231A4604A9286860
:1039500000F0CCFC0028ABD107B030BD3400002013
:103960002DE9FC410F46054600F0F0FB01A800F0F0
:1039700061F80446019818B101F022F8BDE8FC8115
:10398000224EAFB130690068A8B30027291B3A4620
:10399000306800F077FA01F013F80028EED11C49E6
:1039A0004FF080500860BFF34F8FBFF36F8FE5E794
:1039B000A542EBD801F004F8F0682746C068C46857
:1039C000201D00F06BF9E069012810D1A0692B4699
:1039D00041193A462046FFF73DFF40B1002003461B
:1039E000014600902A46204601F072F820B1616A33
:1039F00020468847C2E707E0502080F31188BFF3D4
:103A00004F8FBFF36F8FFEE70127BFE73400002021
:103A100004ED00E00648416B096829B1416BC968B3
:103A2000C9684968816270474FF0FF31FAE70000CA
:103A30004800002070B5054600F0D0FE064E044652
:103A4000B068844203D200F009F8012000E00020B1
:103A500028602046B46070BD34000020F8B5194DD0
:103A60001FE0C068C4680668201D00F017F9616A8D
:103A700020468847E069012813D1A0693044B0424C
:103A800006D924616060211DE86800F027F908E08C
:103A900000200346014600903246204601F018F807
:103AA00038B1E86801680029DBD12969C5E903104C
:103AB000F8BD502080F31188BFF34F8FBFF36F8F95
:103AC000FEE700003400002008484068401C4FF02A
:103AD000500080F3118804D0BFF34F8FBFF36F8F76
:103AE000FEE7BFF34F8FBFF36F8FFEE79C00002010
:103AF000074CE068016841B1C0680021D0F80000BF
:103B0000FFF72EFFFFF7D0FEF3E701210020F7E7D4
:103B1000340000202DE9F041044600F003F994F947
:103B2000455004F1240609E0606A48B1304600F0CF
:103B30000BFF08B100F044FA6D1E6DB2002DF3DCEE
:103B40004FF0FF3684F8456000F00CF900F0EAF819
:103B500094F9445004F1100709E0206948B138464F
:103B600000F0F2FE08B100F02BFA6D1E6DB2002DD0
:103B7000F3DC84F84460BDE8F04100F0F3B80000E5
:103B80002DE9F0410546002700F0E0FA314E30689B
:103B900008B9FFF7B1FDF06805424BD1C5B3083550
:103BA00068070ED005F00700C0F10800054468075B
:103BB00007D0502080F31188BFF34F8FBFF36F8F72
:103BC000FEE72DB37068854234D822481030014694
:103BD0000C6801E020460C466168A94202D22168C7
:103BE0000029F7D131688C4224D007682168016030
:103BF00060680837411B10290FD96019420708D0A7
:103C0000502080F31188BFF34F8FBFF36F8FFEE713
:103C100010E041606560FFF7F7FD61687068401A69
:103C20007060B268904200D2B060F068014300203A
:103C3000C4E9000100F0C4FE780707D0502080F3EB
:103C40001188BFF34F8FBFF36F8FFEE73846BDE893
:103C5000F0810000840000200449086818B1086859
:103C6000C26C521CC2640868704700004800002003
:103C700010B5031F4FF080741C601B1F21F0010161
:103C80001960191F044B0B6014390A60091F6FF08B
:103C9000020244380A6010BDC93A0008D0E9013276
:103CA00001699A60D0E901235A604A68824201D1D1
:103CB00082684A60002202610868401E08607047FE
:103CC00000F108014FF0FF32C0E90112C16001614B
:103CD00000210160704700210161704730B50B6819
:103CE0005A1C02D000F1080202E0026904E02246F8
:103CF000546825689D42FAD953684B6099608A6080
:103D0000516008610168491C016030BD42684A6029
:103D100093688B6093685960916008610168491CE1
:103D200001607047502080F31188BFF34F8FBFF3BD
:103D30006F8F0A494868401C486001280CD1084828
:103D4000006810F0FF0F07D0502080F31188BFF3F8
:103D50004F8FBFF36F8FFEE7704700009C0000207D
:103D600004ED00E00849486828B1401E486001D1D0
:103D700080F311887047502080F31188BFF34F8F74
:103D8000BFF36F8FFEE700009C00002070B5002895
:103D900027D0144DA0F108046168E868014207D1FA
:103DA000502080F31188BFF34F8FBFF36F8FFEE772
:103DB00022683AB1502080F31188BFF34F8FBFF3D0
:103DC0006F8FFEE78143616000F0C0F96068696849
:103DD000084468602046FFF717FDBDE8704000F01A
:103DE000EFBD70BD8400002006484FF47A71006872
:103DF000B0FBF1F14FF0E020491E41610721016164
:103E0000704700002000002010B5FCF721FA11498E
:103E100010280ED300F1E02090F8F0030A789042C9
:103E200007D2502080F31188BFF34F8FBFF36F8FFD
:103E3000FEE709480068896800F4E060884207D915
:103E4000502080F31188BFF34F8FBFF36F8FFEE7D1
:103E500010BD00009C0000200CED00E010B5084BE8
:103E6000002200BF53F832401CB1521C082AF9D37B
:103E700010BD43F8321003EBC201486010BD0000D2
:103E8000BC02002070B515460E460446FFF74AFFF7
:103E900094F944100020491C01D184F8440094F99D
:103EA0004510491C01D184F84500FFF75BFFA06B6A
:103EB00028B92A46314604F1240000F09FF8204634
:103EC000BDE87040FFF726BE10B5020014D00F48C1
:103ED000006B38B1502080F31188BFF34F8FBFF3D0
:103EE0006F8FFEE700F032F900211046FFF7C0FAAD
:103EF00000F066FD002807D105494FF080500860AA
:103F0000BFF34F8FBFF36F8F10BD0000480000203C
:103F100004ED00E070B50546FFF704FF244C05B939
:103F20002568281DFFF7BAFE58B9E86A214A00EB58
:103F3000800152F8211021B9012181402069884374
:103F40002061A86A18B105F11800FFF7A7FE606AA2
:103F5000401C60622068854207D1291D1648FFF782
:103F6000D5FE6068401C606007E0A068401EA0604D
:103F70002846FFF7B6FBFFF74DFDFFF7F3FE60693C
:103F8000002814D02068854211D1206B38B1502010
:103F900080F31188BFF34F8FBFF36F8FFEE70749A0
:103FA0004FF080500860BFF34F8FBFF36F8F70BD2D
:103FB00048000020180100209402002004ED00E0D9
:103FC00001490120C86170474800002010B50C4627
:103FD00050B1094909681831FFF780FE2046BDE855
:103FE00010400121FFF744BA502080F31188BFF33D
:103FF0004F8FBFF36F8FFEE74800002070B5144667
:104000000D4668B10A4909681831FFF77FFE0CB107
:104010004FF0FF3521462846BDE87040FFF728BA2B
:10402000502080F31188BFF34F8FBFF36F8FFEE7EF
:104030004800002070B5040039D01D4DE06A2968A1
:10404000C96A884233D2A069002804DB2868C06AA4
:10405000C0F11000A061E16A164E01EB81016069B8
:1040600006EB810188421FD1201DFFF717FE0121B9
:1040700050B9E06A00EB800256F8222022B92A6982
:1040800001FA00F082432A612868C06AE0622A6966
:1040900081401143296100EB800006EB8000211D67
:1040A000BDE87040FFF732BE2868C06AE06270BDAC
:1040B000480000201801002028B107490A6A026060
:1040C000C96841607047502080F31188BFF34F8F5B
:1040D000BFF36F8FFEE70000480000201CB51748B3
:1040E0000024CDE900402346822215A1164800F0A5
:1040F0003BFB012803D100F0C5FC012809D0401C7E
:104100001AD1502080F31188BFF34F8FBFF36F8F08
:10411000FEE7502080F31188BFF34F8FBFF36F8FFE
:1041200006484FF0FF312C38816201214161C460A3
:10413000BDE81C4000F040B81CBD00007400002029
:1041400049444C4500000000453700080248016B17
:10415000491C016370470000480000201448016BAF
:1041600011B10121C16170470021C1610169B1FA3A
:1041700081F1C1F11F0101EB81020E4951F822309A
:104180006BB101EB820101F108034A6852684A6091
:104190009A4201D152684A60D1680160704750204C
:1041A00080F31188BFF34F8FBFF36F8FFEE70000DE
:1041B00048000020180100201CB532480168324A2E
:1041C000914207D1502080F31188BFF34F8FBFF386
:1041D0006F8FFEE700682C49491E884207D15020A6
:1041E00080F31188BFF34F8FBFF36F8FFEE727492E
:1041F00008780190FF20087008788DF800009DF87D
:1042000000009DF8002000F0F000904207D0502000
:1042100080F31188BFF34F8FBFF36F8FFEE79DF8D8
:1042200000001B4A00F0500010700720906005E06D
:104230009DF800305B008DF80030401E9DF8003086
:104240001B06F5D4000200F4E0609060019808704D
:104250000C482030016841F470010160016841F0B0
:1042600070410160FFF7C0FD00205060FBF7B8FF10
:104270000848016841F040410160FBF7A1FF0020C0
:104280001CBD000000ED00E071C20F4100E400E041
:104290009C00002034EF00E02DE9F04117460E4667
:1042A000050016D0EEB105FB06F05030FFF768FCB4
:1042B00004000CD004F15000AEB12060C4E90F56E8
:1042C0002046012100F0C8F8204684F84C70BDE873
:1042D000F081502080F31188BFF34F8FBFF36F8FB1
:1042E000FEE70020E1E72460E8E700002DE9FF4F4A
:1042F000002683B09B468A46040003D0BAF1000F23
:1043000008D011E0502080F31188BFF34F8FBFF326
:104310006F8FFEE7206C38B1502080F31188BFF317
:104320004F8FBFF36F8FFEE700F04AFADFF824816A
:104330004FF000094FF0805748B9059838B1502028
:1043400080F31188BFF34F8FBFF36F8FFEE7FFF746
:10435000E9FCA56B45B351462046E668FFF778F9BE
:10436000BBF1000F13D0E660606A50B104F1240085
:1043700000F0EAFA28B1C8F80070BFF34F8FBFF31E
:104380006F8FFFF7EFFC012007B0BDE8F08F6D1EC7
:10439000A563206810B9FFF75FFC60602069002802
:1043A000EFD004F11000E3E7059808B11EB106E074
:1043B000FFF7D8FC27E06846FFF77EFE0126FFF7EF
:1043C000D1FCFFF7C3FEFFF7ADFC94F94400401C9D
:1043D00001D184F8449094F94500401C01D184F83F
:1043E0004590FFF7BFFC05A9684600F087F9002853
:1043F00020460AD0FFF78EFB00F0E2FA2046FFF7D6
:1044000045FA0028A3D00020BEE7FFF73FFAD8B155
:10441000206830B9FFF786FC6068FFF70BFEFFF7F6
:10442000A1FC04F124000599FFF7D0FD2046FFF719
:1044300071FB00F0C5FA002889D1C8F80070BFF3FD
:104440004F8FBFF36F8F82E72046FFF763FB00F0CB
:10445000B7FA7CE704ED00E070B50D46040025D006
:10446000FFF760FCD4E90F20216802FB00116160B6
:104470000021A1632168A1600A46D4E90F01401E12
:1044800000FB0121E16021464FF0FF3001F8440FAD
:10449000487004F110008DB1FFF712FC04F1240004
:1044A000FFF70EFCFFF75EFC012070BD502080F38B
:1044B0001188BFF34F8FBFF36F8FFEE7216900298B
:1044C000F0D000F041FA0028ECD004494FF08050C1
:1044D0000860BFF34F8FBFF36F8FE3E704ED00E099
:1044E0002DE9FF4782B01D468A464FF000080400C0
:1044F00003D0BAF1000F08D011E0502080F31188EA
:10450000BFF34F8FBFF36F8FFEE7206C38B15020A1
:1045100080F31188BFF34F8FBFF36F8FFEE7022D3B
:104520000AD1E06B012807D0502080F31188BFF337
:104530004F8FBFF36F8FFEE700F042F93F4F4FF010
:1045400000094FF0805648B9049838B1502080F3E4
:104550001188BFF34F8FBFF36F8FFEE7FFF7E2FBCA
:10456000A06BE16B884207D3022D05D00498D0B12F
:10457000B8F1000F1AD01EE02A4651462046FFF738
:104580007AF8616A19B104F1240000F0DDF920B174
:104590003E60BFF34F8FBFF36F8FFFF7E3FB012048
:1045A00006B0BDE8F087FFF7DDFB22E06846FFF7C5
:1045B00083FD4FF00108FFF7D5FBFFF7C7FDFFF7BD
:1045C000B1FB94F94400401C01D184F8449094F963
:1045D0004500401C01D184F84590FFF7C3FB04A9B6
:1045E000684600F08BF830B12046FFF793FA00F0F0
:1045F000E7F90020D4E7FFF795FBA06BE16B884259
:1046000013D1FFF7AFFB04F110000499FFF7DEFCB4
:104610002046FFF77FFA00F0D3F900289ED13E60D4
:10462000BFF34F8FBFF36F8F98E7FFF79BFB2046D9
:10463000FFF770FA00F0C4F990E7000004ED00E025
:104640002DE9F0471F4690468946040003D0B9F192
:10465000000F08D011E0502080F31188BFF34F8F76
:10466000BFF36F8FFEE7206C38B1502080F31188C4
:10467000BFF34F8FBFF36F8FFEE7022F0AD1E06BBE
:10468000012807D0502080F31188BFF34F8FBFF36C
:104690006F8FFEE7FFF7B8FB5020EFF3118680F332
:1046A0001188BFF34F8FBFF36F8FA06BE16B884210
:1046B00006D3022F04D0002086F31188BDE8F087CE
:1046C00094F945503A4649462046FEF7D4FF681C07
:1046D00004D06D1C84F845500120EDE7606A002885
:1046E000FAD004F1240000F02FF90028F4D0B8F13A
:1046F000000FF1D00121C8F80010EDE770B50D46AC
:10470000040019D005B3FFF70DFB164AD1682868DD
:10471000431C0FD02368126A934202D062688A4217
:104720001AD96268891A814216D2401A2860204636
:10473000FFF7C2FC002410E0502080F31188BFF383
:104740004F8FBFF36F8FFEE7502080F31188BFF3C8
:104750004F8FBFF36F8FFEE70124FFF703FB204667
:1047600070BD0000480000202DE9FF5F8346DDE9B1
:104770000E87994616468A469000FFF701FA050013
:104780001AD05820FFF7FCF9040012D0256300214D
:10479000CDE90241CDE900874B46324651465846A5
:1047A000FEF7E4FF2046FEF79BFE012004B0BDE8C3
:1047B000F09F2846FFF7EAFA4FF0FF30F6E70000D7
:1047C0000548416919B1006B18B1002070470120FC
:1047D0007047022070470000480000200148C06870
:1047E00070470000480000202DE9F0412E4C0027C2
:1047F000206B40B1A069401CA061E06900B10127B5
:104800003846BDE8F081E668761CE66013D1606B3F
:10481000006838B1502080F31188BFF34F8FBFF389
:104820006F8FFEE7606BA16B6163A063206A401C21
:104830002062FFF7EFF8A06ADFF87080864209D3A4
:10484000606B006880B1606BC068C568686886424C
:104850000DD2A0622068C06A00EB800158F82100E8
:104860000128CAD90127C8E74FF0FF30F1E7281D1A
:10487000FFF714FAA86A18B105F11800FFF70EFA4D
:10488000E86A0121226981401143216100EB800126
:1048900008EB8100291DFFF739FAE86A2168C96A27
:1048A0008842CDD30127CBE7480000201801002023
:1048B00070B504004FF0000140D0214D28688442BB
:1048C00007D0502080F31188BFF34F8FBFF36F8F55
:1048D000FEE7E06C38B1401EE064A36CE26A9A42E5
:1048E0002CD040B12AE0502080F31188BFF34F8FC5
:1048F000BFF36F8FFEE7201DFFF7D0F9114A0121AA
:1049000050B9E06A00EB800352F8233023B92B69D9
:1049100001FA00F083432B61A06CE062C0F110004B
:10492000A061E06A2B6981401943296100EB800096
:1049300002EB8000211DFFF7E9F90121084670BD57
:1049400048000020180100202DE9F041C068C4682B
:10495000ACB104F118000746FFF7A0F9154D286B1C
:104960000126A0B139461448FFF7D0F9E06A29685A
:10497000C96A88421BD90120EE61BDE8F081502050
:1049800080F31188BFF34F8FBFF36F8FFEE7201DB9
:10499000FFF784F9E16A2A6906FA01F010432861F9
:1049A00001EB8100054901EB8000211DDCE70020BF
:1049B000E3E70000480000208002002018010020EA
:1049C0002DE9F0472C4D00242746286B38B1FFF71E
:1049D000A9F9286B401E2863286B40B146E050209F
:1049E00080F31188BFF34F8FBFF36F8FFEE7A96885
:1049F000224E0120D1B3A6F5B47980463068E8B1E3
:104A0000F068C46804F11800FFF748F9201DFFF7AB
:104A100045F9E06A2A6908FA00F11143296100EBBF
:104A2000800109EB8100211DFFF770F9E06A296818
:104A3000C96A8842E2D3C5F81C80DFE70CB1FEF7F3
:104A4000E9FFAC6944B14646FFF7CEFE00B1EE6126
:104A5000641EF9D10020A861E86938B1084901272E
:104A600038070860BFF34F8FBFF36F8FFFF77AF9F6
:104A70003846BDE8F0870000480000208002002092
:104A800004ED00E01CB5FEF793FD0D48006868B129
:104A90000B490220091DCDE9000100234FF4827269
:104AA00008A10A48FFF760FE002807D1502080F3D4
:104AB0001188BFF34F8FBFF36F8FFEE71CBD00005F
:104AC00034000020546D722053766300F13A0008E0
:104AD000FEB51E4613460200089D4FF0000014D09C
:104AE000124C2768002F0FD0CDE90013029206293F
:104AF00015DAFFF765FE02284FF000030DD0002203
:104B000069462068FFF7ECFCFEBD502080F3118859
:104B1000BFF34F8FBFF36F8FFEE72A46F0E7002306
:104B2000324669463846FFF78BFDFEBD3400002053
:104B30000000804000000000CDCC4C3E6666864000
:104B4000000000000AD7233CF6289C3F000000002C
:104B50000AD7A33C00006040000000000AD7A33C35
:104B60000000804000000000CDCC4C3D00008040A3
:104B700000000000CDCC4C3DF6289C3F000000001A
:104B80000AD7A33C0040AF43000000000000C84229
:104B90000000F042000000000000A0410000C942F7
:104BA00000000000000000009A99A54100000000EC
:104BB000000020410000C842000000000000484200
:104BC0000000C84200000000000048420000C94246
:104BD00000000000CDCCCC3DF84B000800000020C8
:104BE000D400000000340008CC4C0008D4000020A1
:104BF0006C3A0100103400080000000000000000C2
:104C0000000000000000000000000000010203049A
:104C10000102030406070809007A030A00000000E5
:104C2000000000000102030406070809000000005C
:104C30000000000000000000000000000000000074
:104C40000000000000000000000000000000000064
:104C50000000000000000000000000000000000054
:104C60000000000000000000000000000000000044
:104C70000000000000000000000000000000000034
:104C80000000000000000000000000000000000024
:104C90000000000000000000AAAAAAAA000000006C
:104CA0000101010000000000000000000000FF0002
:104CB00000000000000003000000000001000000F0
:0C4CC000000000000000000001000000E7
:040000050800018965
:00000001FF
