:020000040800F2
:10000000F03C01205902000855260008B1210008E3
:10001000E9250008E5060008253B0008000000006F
:10002000000000000000000000000000A101000826
:10003000DB1E000800000000F50100084132000846
:1000400073020008730200087302000873020008BC
:1000500073020008730200087302000873020008AC
:10006000730200087302000873020008730200089C
:10007000730200087302000873020008730200088C
:10008000730200087302000873020008730200087C
:10009000BD0800087302000873020008730200081C
:1000A000730200087302000873020008730200085C
:1000B00073020008C93200087302000873020008C6
:1000C000730200087302000873020008730200083C
:1000D0007302000873020008C137000839380008AD
:1000E000730200087302000873020008730200081C
:1000F000730200087302000873020008730200080C
:1001000073020008730200087302000873020008FB
:100110002D360008730200087302000873020008FD
:1001200073020008ED1B0008730200087302000848
:1001300073020008730200087302000873020008CB
:100140000D0B000873020008730200087302000818
:100150002D1C00087302000873020008B93800085B
:10016000730200087302000873020008730200089B
:10017000730200087302000873020008730200088B
:100180007302000873020008DFF810D000F05CFA78
:1001900000480047393F0008AFF30080F03C0120E1
:1001A0002A4B19680868B0E8F04F80F30988BFF35C
:1001B0006F8F4FF0000080F311887047000000003F
:1001C00006480068006880F3088862B661B6BFF32D
:1001D0004F8FBFF36F8F00DF00BF00BF08ED00E05F
:1001E000DFF80C00016841F470010160704700BF46
:1001F00088ED00E0EFF30980BFF36F8F134B1A68AF
:100200001EF0100F08BF20ED108A20E9F04F10609B
:1002100008B44FF0500080F31188BFF34F8FBFF345
:100220006F8F04F01BFD4FF0000080F3118808BCB5
:1002300019680868B0E8F04F1EF0100F08BFB0EC66
:10024000108A80F30988BFF36F8F70474800002041
:10025000EFF30580704700000648804706480047D6
:10026000FEE7FEE7FEE7FEE7FEE7FEE7FEE7FEE766
:10027000FEE7FEE76D3200088901000840EA01034D
:100280009B0703D009E008C9121F08C0042AFAD24C
:1002900003E011F8013B00F8013B521EF9D2704710
:1002A000D2B201E000F8012B491EFBD270470022B8
:1002B000F6E710B513460A4604461946FFF7F0FF65
:1002C000204610BD2DE9FE4F81EA030404F00044EE
:1002D00021F0004100944FF0000B23F0004350EA5E
:1002E00001045ED052EA03045BD0C3F30A54C1F3A5
:1002F0000A552C44A4F2F3340194A0FB0254C1F338
:10030000130141F48011C3F3130343F4801301FB81
:10031000024400FB034E840A970A44EA815447EAE8
:100320008357A4FB076802958D0A05FB07854FEAF2
:10033000932C04FB0C542705029D4FEA065847EA0C
:100340001637B5EB08056EEB070C870E920E47EAE1
:10035000811742EA8312A7FB0201B6EB0B0164EBA3
:1003600000042B0D43EA0C335E1844EB1C50DA46B4
:100370005146E7FB0201C5F313044FEA0B3343EA8E
:1003800014534FEA0432019C43EA0603A4F10C041F
:100390000294009CCDE900B400F008F903B0BDE878
:1003A000F08F00200146F9E72DE9F04D81EA0304C2
:1003B00004F0004B21F0004514464FF0000A23F0F2
:1003C000004150EA050220D054EA01021DD0C5F3D5
:1003D0000A570246C5F31303C1F31300C1F30A56CB
:1003E00040F4801543F48013A7EB0608101BD64693
:1003F00008F2FD3873EB050002D308F1010801E0B3
:1004000092185B41B8F1000F03DA00200146BDE805
:10041000F08D00204FF48011064684460EE0171B35
:1004200073EB050705D3121B63EB050306434CEA88
:10043000010C49084FEA300092185B4150EA01076D
:10044000EDD152EA030012D082EA040083EA0501EA
:10045000084305D0101BAB4106D20122002306E061
:1004600000224FF0004302E06FF0010253101AEB3C
:1004700006004CEB085110EB0A0041EB0B01BDE804
:10048000F04D00F084B80EB5C10F80EAE07008446A
:10049000CA07002140F233438DE80E000A460B469E
:1004A00000F084F803B000BD0EB540F23341029174
:1004B0000021CDE900110A460B4600F077F803B0A1
:1004C00000BD00F0004230F000400AD0C10D01F53F
:1004D0006071C0F3160042EA0151C208400711439F
:1004E000704700200146704701F0004330B421F00E
:1004F000004150EA010206D00A0DA2F56072C1F374
:100500001301002A02DC30BC00207047440F44EA8B
:10051000C104C100E01830BC00EBC250AFF3008052
:100520000029A8BF7047401C490008BF20F0010007
:10053000704710B4B0FA80FC00FA0CF050EA0104E5
:1005400004BF10BC704749B1CCF1200421FA04F477
:1005500011FA0CF118BF012121430843A3EB0C0150
:10056000CB1D4FEA00614FEA102042BF002010BCB3
:10057000704700EBC35010440029A4BF10BC704763
:10058000401C490008BF20F0010010BC704710B5A6
:10059000141E73F1000408DA401C41F100019218A6
:1005A0005B411A4301D120F0010010BD2DE9F04D4F
:1005B00092469B4611B1B1FA81F202E0B0FA80F2A4
:1005C0002032904600F052F804460F4640EA0A00F6
:1005D00041EA0B0153465A46084313D0114653EAE9
:1005E000010019D0C8F14002504600F04EF805460F
:1005F0000E4650465946424600F038F8084305D0AA
:10060000012004E020463946BDE8F08D0020054376
:1006100046EAE0762C4337430A986305E40AA0EBE8
:1006200008000022FD0A44EA47540A3002D500209F
:100630000146E9E7010510196941DDE9084500199E
:100640006941BDE8F04DA2E7064C074D06E0E068C1
:1006500040F0010394E8070098471034AC42F6D309
:10066000FFF796FD7467000894670008202A04DBF2
:10067000203A00FA02F1002070479140C2F12003B5
:1006800020FA03F3194390407047202A04DB203AF4
:1006900021FA02F00021704721FA02F3D040C2F1A2
:1006A00020029140084319467047000006494968F6
:1006B0000A78AC2A02D1CA79CE2A02D00021018060
:1006C0007047B1F80110FAE7BC00002010B502F045
:1006D000DDFC034C206002F0AFFC606010BD000048
:1006E000BC000020FEE70000F0B585B000244FF408
:1006F000007500958DF808408DF8094008258DF8A3
:100700000A50050A8DF80C00080A8DF80D008DF8C6
:100710000E10100A8DF80F008DF81020180A8DF8B1
:1007200011000C4E8DF80B508DF812306946304692
:1007300000F0FCFC054640F6FF7701E0641CA4B223
:100740002946304600F052FD002801D1BC42F5D3C5
:1007500005B0F0BD00640040F0B585B0002440F263
:10076000FF1500958DF808408DF8094008258DF893
:100770000A50050A8DF80C00080A8DF80D008DF856
:100780000E10100A8DF80F008DF81020180A8DF841
:1007900011000C4E8DF80B508DF812306946304622
:1007A00000F0C4FC054640F6FF7701E0641CA4B2EB
:1007B0002946304600F01AFD002801D1BC42F5D38D
:1007C00005B0F0BD006400402DE9F04F8BB08A46C3
:1007D00081461E46904601210820DDF850B002F007
:1007E000C9F80121480602F0D1F8324F0922002150
:1007F000384601F08CFC09220121384601F087FCC3
:1008000002218DF82010032000248DF822408DF85D
:100810002100079001258DF8235007A9384601F0E3
:1008200025FC14208DF824008DF825508DF82750D4
:1008300009A801F011FF204F384600F0D3FA6846AE
:1008400000F064FC8DF806408DF808408DF80740F4
:100850008DF809408DF802B08DF80A408DF80390AC
:100860008DF804A08DF80B508DF80580ADF8006070
:100870006946384600F08EFB8DF816408DF817401B
:100880008DF81850ADF80C40ADF81040ADF80E40A2
:10089000ADF81240ADF814408DF8195003A800F0DF
:1008A000B7FA01220221384600F06CFB0BB0BDE81C
:1008B000F08F0000000C02400064004010B5534C63
:1008C00086B00221204600F009FB002841D0022119
:1008D000204600F0A1F94E49204600F085F96A460D
:1008E0000021204600F0CAFB009A40F20523494847
:1008F000A2F205219A4266D01DDC4649A2F500729B
:10090000A1F11001013A26D0012A36D0022A48D09E
:10091000032A1ED19DF80C009DF80B2000EB02204D
:1009200088819DF80E009DF80D2000EB022000B29A
:10093000C881893132E0012955D002295CD00329D0
:1009400007D1BDF80B1049BA8181BDF80D1049BA25
:10095000C18106B010BD9DF80C009DF80B2000EB86
:10096000022008809DF80E009DF80D2000EB02206B
:1009700000B248802749103110E09DF80C009DF826
:100980000B2000EB022088809DF80E009DF80D20C2
:1009900000EB022000B2C8801E49333100F01AFA81
:1009A000D7E79DF80C009DF80B2000EB0220088192
:1009B0009DF80E009DF80D2000EB022000B248814A
:1009C00014495631EAE7BDF80B10124B49BA09B287
:1009D0000180BDF80D209C3352BA12B2428024200F
:1009E00000F056F9B5E7BDF80B1049BA8180BDF8A3
:1009F0000D1049BAC180ACE7BDF80B1049BA0181AE
:100A0000BDF80D1049BA4181A3E700000064004021
:100A1000080000323A3001202DE9F04F8946824625
:100A20008BB0984693460121022001F0A3FF0121DB
:100A3000880601F0ABFF334F09220521384601F04B
:100A400066FB09220621384601F061FB6020022680
:100A500007908DF8206000248DF8224003208DF847
:100A6000210001258DF8235007A9384601F0FEFA30
:100A700040208DF824008DF825608DF8275009A8B6
:100A800001F0EAFD204E304600F0ACF9684600F077
:100A90003DFB14988DF806408DF808408DF8020053
:100AA0008DF807408DF809408DF80A408DF803A0B5
:100AB0008DF804908DF80B508DF805B0ADF80080DE
:100AC0006946304600F066FA0E208DF816008DF863
:100AD00017408DF81850ADF80C40ADF81040ADF847
:100AE0000E40ADF81240ADF814408DF8195003A82F
:100AF00000F08EF901220221304600F043FA0BB0DB
:100B0000BDE8F08F000402400068004010B5174CAB
:100B100086B00221204600F0E1F9002824D002210D
:100B2000204600F079F86A460021204600F0A6FA37
:100B30000098112818D10E489DF80B1001709DF8EF
:100B40000C1041709DF80D1081709DF80E10C17051
:100B50009DF80F1001719DF8101041719DF8111052
:100B600081719DF81210C17106B010BD006800407F
:100B7000A8000020F0B585B0002400918DF8084051
:100B80008DF8094008218DF80A1001788DF80B10B6
:100B900041788DF80C1081788DF80D10C1788DF8A2
:100BA0000E1001798DF80F1041798DF810108179B0
:100BB0008DF81110C0790B4E8DF812006946304641
:100BC00000F0B4FA054640F6FF7701E0641CA4B2D9
:100BD0002946304600F00AFB002801D1BC42F5D37B
:100BE00005B0F0BD006800400A4A914202D10021E0
:100BF00081617047C1F313028B0101D5C260704758
:100C00004B0101D502617047090101D5826070472F
:100C1000426070477000F03030B508231024042281
:100C2000B1F5007F1DD010DC202929D007DC012977
:100C300021D0042922D0082900D1C46030BD402928
:100C400020D0B1F5807FF9D10BE00025B1F5004F40
:100C500006D008DCB1F5806F03D0B1F5006FEDD19F
:100C60008561426030BDB1F5803F0DD0B1F5003FE8
:100C7000F8D1446030BD0549816030BDC36030BDEE
:100C8000036130BD046130BD436030BD010101002E
:100C90002DE9F0471C462DED028B4FF40059A3F8C7
:100CA0001F20B3F81D30D31AA4F82130A4F81D205A
:100CB0000022002901DD494502DD0223237500E001
:100CC0002275A1F2D17341F28735AB4202D2227074
:100CD000627034E041F6583C0126B4F90430A5684E
:100CE0004FF4FA68614501DD267005E0414500DA00
:100CF000A6702778012F03D1414501DA66700EE016
:100D0000A778012F02D1614500DDE6702678012E1B
:100D100002D16678012E02D0012F08D011E05B1CB1
:100D2000A38005F50055A5602270627009E0E678A1
:100D3000012E06D15B1EA380A5F50055A560A2700B
:100D4000E270B4F90430002B02DD01EB433307E01D
:100D500002DBA5684D4505DD01EB4333A3F50053E8
:100D6000E36000E0E160A3680546B3EB403F03DDCC
:100D7000A160E088401C08E06D03002B0BDAA5F5AC
:100D800000556818A060E088401EE080A280BDEC9D
:100D9000028BBDE8F087E068FFF775FB41EC180BAC
:100DA0002846FFF781FB41EC100B53EC102B9FED15
:100DB000070B51EC100BFFF7F7FA53EC182BFFF76A
:100DC00081FAFFF791FBC4F81500E0E7000000008E
:100DD00000807640A1F81F0031F81D2F821A8A800A
:100DE00008807047094910B588424FF0010101D1D0
:100DF0004C0601E04FF08064204601F0D3FD204610
:100E0000BDE81040002101F0CDBD000000640040AD
:100E1000F0B5827A012191402E4A136843F0010314
:100E200013602C4B1C331C688C431C60294D067BC3
:100E3000294C0C35A6B92E688E432E604688C7888B
:100E400046EA0746877A04EBC707C7F84066068874
:100E5000878846EA0746877A04EBC707C7F84466DF
:100E6000067B012E12D12E680E432E60867A05680D
:100E700004EBC6064FEA3545C6F84056867A456803
:100E800004EBC6044FEA3545C4F84456114CC57A04
:100E9000241D002D256806D00D4325600D4C0589C5
:100EA000143415B104E08D43F7E725688D432560C0
:100EB0000589012D02D125680D432560407B01285D
:100EC00002D1186808431860106820F00100106013
:100ED000F0BD0000006600400060004002460020B7
:100EE00053690B424AD0B1F5807F3BD013DC08290F
:100EF0002ED007DC012926D0022927D004293DD194
:100F0000D0682BE0102925D0202926D0402935D1C2
:100F10001069102130E0B1F5004F2BD00BDCB1F59A
:100F2000007F22D0B1F5806F22D0B1F5006F25D1BE
:100F30009069702120E0B1F5803F11D0B1F5003FFC
:100F40001CD15068E5E790680D4915E0D06802E0D3
:100F5000D068DEE7106903210EE0106908210BE07C
:100F60005068FBE79069012106E09069022103E0E7
:100F7000906900E05068042100F032BE7047000024
:100F800001010100002A426901D00A4300E08A43BE
:100F90004261704710B50368002223F0020303602A
:100FA000036843F0010303604FF6FF7300E0521C37
:100FB0004468E40701D19A42F9D14268D2073ED091
:100FC0008A79012A02683CD022F080020260CA7944
:100FD000012A026838D022F0400202600A7A012A0F
:100FE000026834D022F0200202604A7A012A0268A4
:100FF00030D022F0100202608A7A012A02682CD0D6
:1010000022F008020260CA7A012A026828D022F07F
:10101000040202608A78CC78920742EA04620C7972
:1010200042EA04424C79098842EA0452491E0A43C2
:10103000C261016821F001010160002114E000207B
:1010400010BD42F08002C1E742F04002C5E742F025
:101050002002C9E742F01002CDE742F00802D1E7D2
:1010600042F00402D5E7491C4268D20701D09942F8
:10107000F9D14068C007E2D1012010BD10B500EBE6
:101080000113D3F8B04114F004041472D3F8B04142
:1010900034D0E408C2F80440D3F8B04104F00204AC
:1010A0005472D3F8B44104F00F049472D3F8B441ED
:1010B000240AD474D3F8B841D472D3F8B841240ABE
:1010C0001473D3F8B841240C5473D3F8B841240EE8
:1010D0009473D3F8BC41D473D3F8BC41240A14747C
:1010E000D3F8BC41240C5474D3F8BC311B0E937458
:1010F00039B1016941F02001016110BD640D146036
:10110000CAE7C16841F02001C16010BD00218171B2
:10111000C171017241728172C1728170C17003210B
:1011200001710221417101210180704730B50246F1
:10113000002093685B0108D49068000101D501206C
:1011400003E09068C00044D5022002EB0012D2F800
:10115000803103F00103C2F880310B7AC3B3D2F8B7
:1011600080414D681C434B7A43EAC5031C43C2F8D7
:1011700080418B7A03F00F038B72D2F8843123F015
:101180000F03C2F88431D2F884318C7A2343C2F839
:101190008431CB7A8C7B0D7B43EA04634C7B240443
:1011A00044EA05242343C2F88831CB7B8C7C43EA94
:1011B00004634C7C097C240444EA01210B43C2F8FB
:1011C0008C31D2F8801141F00101C2F8801130BD9C
:1011D00001E00420FBE7D2F880314C7A23430C88ED
:1011E00043EA4453C2F88031C3E70000002221B132
:1011F000012905D0022906D112E08268114801E0D8
:101200008268114802401149501A8A4214D00ADCFF
:10121000A2B16FF0806010180FD002280CD10FE03F
:1012200082680B48EEE7B0F5007F09D00949401805
:1012300003D0B0F5003F03D0002070470220704774
:1012400001207047030000040003000800010008AB
:10125000000003100001FFF705489FED060A00217A
:10126000D0F8ED23B0EE401AF0EE400A104700002F
:101270002634012000000000034902488968886084
:1012800070470000412100082C3801202DE9F04F63
:101290002A482B4AA0F158012B4FC8600020486013
:1012A0000A6088601031274E0F60C1E901600C317F
:1012B000DFF89CC0DFF89480C1F800C0C1E901806C
:1012C0000C31DFF89490DFF88CA0C1F80090C1E9F0
:1012D00001A00C31214BC1E90130214A0A600C31D7
:1012E000214C204D0C60C1E9015093460C319E46C3
:1012F0001F4A1E4B0A60C1E901304C3941F858CFF2
:10130000C1F81890C1E90180CF60C1E907A04A6225
:10131000C1E90460C1E90A300849383131C1A1E8A6
:1013200001488E6061E80A0701F1340787E831005F
:101330000864C1E90223BDE8F08F00008438012071
:1013400035320008D5260008BD260008BD22000859
:10135000A9220008753D0008613D00088D230008A2
:10136000792300087912000859120008E52F0008B7
:10137000E12F00082DE9F043B5EEC01A2DED028BE8
:1013800087B0B0EE608AF0EE408A0025F1EE10FAE8
:1013900089460446009501951AD1F5EEC08AF1EE12
:1013A00010FA04D1B5EEC08AF1EE10FA10D0D4F8DC
:1013B0007503D0F8900000EE100AF1EE400A9FEDA0
:1013C000980A04F2793001F08FF9B0EE401A04E087
:1013D000D4F8750350F8881F416078EE880A78EEDB
:1013E000C81A6E460DF1080830EE810ABDEEC00A3B
:1013F00010EE102A31EE610A02EB82025200BDEEBD
:10140000C00A626010EE100A31EE810A00EB800023
:101410004000BDEEC00AC4F8B50010EE101A31EE5F
:10142000600A01EB81004000BDEEC00AC4F866010D
:1014300010EE103A03EB83004000C4F81702B1200D
:1014400005FB0047D7F8AC00B0F91F0000EE100A0A
:101450007868F8EEC00A00EE100A07F10C00B8EE4A
:10146000C00A01F041F908EB850080ED000AD7F8C9
:10147000AC00B0F81F0026F815006D1CEDB2042D6D
:10148000DDD30421684601F05BFB050003D042F286
:101490002E20854208DC0298E0640398C4F8FD0021
:1014A0000498C4F8AE015FE0BDF9000090B102F00D
:1014B00035FD00EE100ADDED020AB8EEC00A60EE5E
:1014C000200A00EE105AB8EEC01A80EE810A10EE23
:1014D000100A00E00298E064BDF9020090B102F049
:1014E0001DFD00EE100ADDED030AB8EEC00A60EE45
:1014F000200A00EE105AB8EEC01A80EE810A10EEF3
:10150000100A00E00398C4F8FD00BDF9040090B192
:1015100002F004FD00EE100ADDED040AB8EEC00A88
:1015200060EE200A00EE105AB8EEC01A80EE810A72
:1015300010EE100A00E00498C4F8AE01BDF90600F0
:1015400090B102F0EBFC00EE100ADDED050AB8EEFA
:10155000C00A60EE200A00EE105AB8EEC01A80EE03
:10156000810A10EE100A00E0059800EE109AF1EEE4
:10157000040AC4F85F02B8EEC00A20EE200ABDEEED
:10158000C00A10EE100AC4F8C802D4F87013B1F9FA
:101590001F1000EE101AF8EEC00A00EE100A04F553
:1015A0003470B8EEC00A01F09FF8D4F85F02D4F8A6
:1015B000C95300EE100ABDEEC00A10EE100A03B2C5
:1015C000D4F8AE0100EE100ABDEEC00A10EE100A0B
:1015D00002B2D4F8FD0000EE100ABDEEC00A10EE13
:1015E000100A01B2E06C00EE100ABDEEC00A10EE67
:1015F000100A00B2A847D4F81003002300EE100A26
:10160000D4F8CD431A46BDEEC00A194610EE100AB2
:1016100000B2A04707B0BDEC028BBDE8F08300002C
:101620000000000010B5194C1748C4F8E103184831
:10163000C4F8E5031748C4F8E9031748C4F8ED03F4
:101640001648C4F8F1031648C4F8F9031548C4F85D
:10165000F5031548C4F801041448C4F8FD0304F266
:10166000D93401F00FFD2060E168084888472169FE
:101670000648884701F0FEFC6060A0688047BDE82E
:101680001040FFF723B800008D1200082634012017
:10169000553C0008512F000875130008B5180008C4
:1016A000E91600080D170008B9170008AD06000874
:1016B00010B508210A4800F03CFD0A49D1F8D903C9
:1016C000C26A01EE102AC269C06800EE902AD1F801
:1016D000ED2300EE100ABDE810400021014810473C
:1016E0000008024026340120002130B4C0F85F1207
:1016F000C0F8AE11C0F8FD10C164D0F8C9430B4664
:10170000A44630BC0A4608466047000070B504464F
:10171000481C01D001294BD1264A48B2937803B91D
:10172000907092F9025000238D4203D0012555702C
:10173000D380907041F27C5011FB00F1C4F8C812C4
:10174000D4F87003B0F91F0000F16405C82D07D864
:10175000D5886D1C2DB2D5803C2D01DB022555703E
:1017600092F90120022A02D0012A03D00EE0C4F827
:1017700010330BE000EE100A04F53470F8EEC00AE6
:1017800000EE101AB8EEC00A00F0AEFFD4F8100355
:10179000D4F8CD4300EE100AA446BDE87040BDEE7B
:1017A000C00A00231A4610EE100A194600B260471C
:1017B00070BD0000CC00002070B50446D0F8750361
:1017C0000D46D0F8900000EE100A04F27930F1EEE8
:1017D000400A9FED2C0A00F087FFBDEEC00A10EE14
:1017E000100A01B2284881806818491B6060C4F85B
:1017F000B510C4F86601C4F817120025B12005FB26
:101800000046D6F8AC00B0F91F0000EE100A706870
:10181000F8EEC00A00EE100A06F10C00B8EEC00A9D
:1018200000F062FF10EE100A6D1CEDB2F064042DA2
:10183000E4D3D4F85F0200EE100ABDEEC00A10EE49
:10184000100A03B2D4F8AE0100EE100ABDEEC00AD1
:1018500010EE100A02B2D4F8FD0000EE100ABDEE40
:10186000C00A10EE100A01B2E06CD4F8C94300EED1
:10187000100AA446BDE87040BDEEC00A10EE100A82
:1018800000B2604700000000CC000020FFF7CAFE55
:10189000074C00BFD4F8D9030068C27A817AD4F823
:1018A000DD0300F096FB022003F08EF8F2E7000063
:1018B000263401202DE9F04100252DED048BB0EEFA
:1018C000418A8AB0B5EEC08AF0EE608AB0EE409AE6
:1018D000F1EE10FABF4E04462F460895099541D106
:1018E000317804F2793011B101291ED03FE0D4F8EB
:1018F0007513D1F8901000EE101AF1EE400AB3EE15
:101900000E0A00F0F1FED4F87503B0EE408AB24939
:10191000D0F8900000EE100AB1EE400A10EE100A66
:10192000884224DB0120307021E0D4F87513D1F80F
:10193000901000EE101AF1EE400ABBEE0E0A00F015
:10194000D3FED4F87503B0EE408AA449D0F89000D5
:1019500000EE100AB1EE400A10EE100A884206D3DB
:10196000377004E0D4F8751351F8880F4860B5EE6D
:10197000C09AF1EE10FA1CD0D4F87503D0F890009C
:1019800000EE100AB1EE400A10EE100AFEF799FDC3
:1019900041EC100B02F008FA00EE100AB8EEC00A93
:1019A00002F05AFAD4F8750320EE099AD0F89000A4
:1019B000B060F5EEC08AF1EE10FA17D0D4F87503D6
:1019C000D0F8900000EE100AB1EE400A10EE100AB6
:1019D000FEF777FD41EC100B02F0E6F900EE100A7D
:1019E000B8EEC00A02F038FA60EE288AF2EE041A65
:1019F000B0EE001A29EE210A08AEE846B0EE402A01
:101A000008EEA10AF0EE400A08EE010A58EE010ABB
:101A1000BDEEC00A10EE100AB0EE420A606008EE99
:101A2000E10AF0EE401A08EE010A58EE011ABDEE86
:101A3000C00AFDEEE11A11EE900AC4F8B50010EEEE
:101A4000100ABDEEE00AC4F8660110EE100AC4F8F0
:101A50001702B12005FB0047D7F8AC00B0F91F0012
:101A600000EE100A7868F8EEC00A00EE100A07F1DE
:101A70000C00B8EEC00A00F037FE08EB850080EDE0
:101A8000000AD7F8AC00B0F81F0026F815006D1C4E
:101A9000EDB2042DDDD3042108A801F051F80500B2
:101AA00003D042F22E20854208DC0098E0640198C1
:101AB000C4F8FD000298C4F8AE015FE0BDF9200053
:101AC00090B102F02BFA00EE100ADDED000AB8EE3C
:101AD000C00A60EE200A00EE105AB8EEC01A80EE7E
:101AE000810A10EE100A00E00098E064BDF92200BF
:101AF00090B102F013FA00EE100ADDED010AB8EE23
:101B0000C00A60EE200A00EE105AB8EEC01A80EE4D
:101B1000810A10EE100A00E00198C4F8FD00BDF93A
:101B2000240090B102F0FAF900EE100ADDED020A8D
:101B3000B8EEC00A60EE200A00EE105AB8EEC01AE5
:101B400080EE810A10EE100A00E00298C4F8AE019F
:101B5000BDF9260090B102F0E1F900EE100ADDEDCA
:101B6000030AB8EEC00A60EE200A00EE105AB8EE82
:101B7000C01A80EE810A10EE100A00E00398C4F843
:101B80005F0200EE100ABDEEC00A10EE100A03B2AA
:101B9000D4F8AE0100EE100ABDEEC00A10EE100A35
:101BA00002B2D4F8FD0000EE100ABDEEC00A10EE3D
:101BB000100A01B2E06CD4F8C94300EE100ABDEE81
:101BC000C00A10EE100A00B2A0470AB0BDEC048BA8
:101BD000BDE8F081CC0000200000A0410000A0C1C1
:101BE000024600200A4200D00120704770B50B4D1C
:101BF0000B4C2946204600F00BF901280DD129464F
:101C0000204600F033F82946204600F045F8BDE8AC
:101C100070400449044800F029BF70BD00880010DE
:101C2000286402402A310120182F012070B50B4D85
:101C30000B4C2946204600F0EBF801280DD129462F
:101C4000204600F013F82946204600F025F8BDE8AC
:101C500070400449044800F009BF70BD00880020AE
:101C6000886402402A310120182F0120074A90423F
:101C700001D2074801E005481038064A8B0001EA06
:101C8000020101D5C1607047816070471064024055
:101C9000006002407D0F7D0F074A904201D2074845
:101CA00001E005481038064A8B0001EA020101D51F
:101CB000C16070478160704710640240006002405C
:101CC0007D0F7D0F0029016802D041F0010101E084
:101CD00021F00101016070472DE9F043016821F016
:101CE000010101600021016041608160C16001610A
:101CF000212141613C493C4A3D251039904202D1A5
:101D00008D60BDE8F083384A4FF474661832904213
:101D100001D18E60F5E7344A4FF4741730329042A7
:101D200001D18F60EDE7304A4FF0746C4832904239
:101D300002D1C1F808C0E4E72B4B2C4A603398422B
:101D400001D1CA60DDE7284C294B7834A04201D18B
:101D5000CB60D6E7DFF89080264C08F1900840452C
:101D600001D1CC60CDE7DFF880804FF03D5908F11C
:101D7000A808404502D1C1F80C90C2E71E49DFF81F
:101D800078800839404501D10D60BAE71A4D183501
:101D9000A84201D10E60B4E7174D3035A84201D1F9
:101DA0000F60AEE7144D4835A84202D1C1F800C01B
:101DB000A7E7114D10496035091FA84201D10A60FB
:101DC0009FE70D4A7832904201D10B6099E70A4AA9
:101DD0009032904201D10C6093E7074AA8329042BA
:101DE0008FD1C1F800908CE7106002403D000020C8
:101DF000400F002000003D201064024001460020FA
:101E00000968C90700D001207047406880B2704758
:101E10000246094B00209A4201D2084A01E0064AD4
:101E2000103A8B0001D5526800E01268044B1A404A
:101E30000A4200D001207047106402400060024056
:101E40007D0F7D0F0B0607D5436912B143F0800368
:101E500001E023F080034361802908D0002A026852
:101E600001F01E0101D00A4300E08A43026070477E
:101E700030B50368124ACC6813400A682243D1E99E
:101E800005452C432243CC6922430C6A22434C6A09
:101E900022438C6A22434C6B22438C6B22431A43AD
:101EA0000260426922F00703D1E90B2422431A435E
:101EB00042610A6942604A6882608968C16030BDD7
:101EC0003F801CF04160704700B5024602F026F8E2
:101ED000884200DA0022104600BD70472D4E2E4C7D
:101EE0002E4FDFF8BC804FF4A56500BFD6F8D903AC
:101EF0000068B0F9001001F52571A94202D82188C7
:101F0000491C2180B0F9021001F52571A94202D8BF
:101F10002188491C2180B0F9061001F52571A942DC
:101F200002D82188491C2180B0F9041001F52571DF
:101F3000A94202D82188491C2180B0F9081001F576
:101F40002571A94202D82188491C218090F90A10E4
:101F5000491E022902D82188491C218090F90B00D2
:101F6000401E022802D82088401C20802088072894
:101F700003D100F07FF9002020801F21384600F0B7
:101F8000DAF88021404600F0D6F8C82002F01CFDA7
:101F9000ACE7000026340120DA00002000100240E7
:101FA000000402400021C1708170417001708160A5
:101FB000C1608180C1800161C0F81910C0F815109E
:101FC00002220275A0F82110A0F81F10A0F81D1021
:101FD000704710B50446002923D0032921D8002AD0
:101FE0001FD0032A1DD8E06801EBC10100EB81007E
:101FF00002EB42016FF02F0202EB81010144A1606C
:10200000D4E900209047012802D1A06800688047E9
:10201000A068606040688047A0688068BDE81040A4
:10202000004710BD002818D010EE101AB7EE001AA5
:102030000160C26800EE101A00EE902A416820EE9E
:10204000800A00EE902A31EE601A00EE901A01EE3E
:10205000200A10EE101A81604160704710EE101ACD
:10206000C16000218160416001607047F0B50023CC
:10207000012403270D6804FA03F21540954242D16A
:10208000D0F800C05E0007FA06F52CEA050CC0F88F
:1020900000C091F804C0D0F800E00CFA06FC4CEA4D
:1020A0000E0CC0F800C091F804C0BCF1010F02D0C2
:1020B000BCF1020F1FD1D0F808C02CEA050CC0F803
:1020C00008C091F805C0D0F808E00CFA06FC4CEA0C
:1020D0000E0CC0F808C0D0F804C02CEA020CC0F8FE
:1020E00004C0426891F806C00CFA03FC1FFA8CFC8D
:1020F00042EA0C024260C268AA43C260CA79C5685B
:10210000B2402A43C2605B1C102BB3D3F0BD4B0717
:10211000DB0E9A40C90810B500EB8100016A0F245C
:102120009C40A1430162016A1143016210BD4183D9
:1021300070470183704742694A404261704700001E
:1021400010B500F0D5FF06489FED060A0021D0F833
:10215000ED23BDE81040B0EE401AF0EE400A104703
:10216000263401200000000010B558B1084C491E6B
:102170000BD310F8013B5340DBB234F8133083EA41
:102180001222F4E74FF6FF7010BD104610BD00009C
:102190003057000810B5054C04E000BF10F8013BB3
:1021A0005340E25C491EF9D2104610BD305600087B
:1021B000FEE70000F8B5194C174820621848606225
:1021C0001848E06118482060184860611848A0610C
:1021D000184820611848A06200F0D2F9606A804770
:1021E00020688047206980470025009566690323A1
:1021F000072204212846B0470095A569032307223A
:1022000004210020A847A26A01B04FF4FA71BDE88A
:10221000F04004201047000081250008E000002065
:102220009530000851330008AD360008C907000892
:10223000190A0008213500084D22000802494CF611
:10224000CC400860704700000030004070B5044684
:102250000D4645F2555000F021F8204600F012F8E6
:10226000284600F015F800F005F8BDE87040FFF7CB
:10227000E5BF000002494AF6AA2008607047000046
:1022800000300040014948607047000000300040C5
:102290000149886070470000003000400149086033
:1022A00070470000003000400348D0F8750350F834
:1022B000881F41607047000026340120034902480E
:1022C0008968886070470000B11600082C3801202A
:1022D00010B5174CD4F8D903D4F8ED23C16D01EE35
:1022E000101AC16CC06B00EE901A00EE100A0021AB
:1022F00020469047D4F8D90390F86400C1070D48F0
:102300004FF0080102D0FFF714FF01E0FFF70FFFC5
:10231000D4F8D903D4F8F52390F86400800702D5E7
:102320004FF0FF3100E00121BDE8104000481047A8
:10233000263401200008024010B50E4CD4F8D90311
:1023400004F2D93490F86400C0F38001C0F30010A7
:1023500000F0BAFE20686269C16D01EE101AC16C0E
:10236000C06B00EE901A00EE100ABDE8104000218C
:1023700000481047263401200348D0F8750350F870
:10238000881F416070470000263401200648D0F8BD
:10239000D90390F8640001070448806801D5044916
:1023A00000E0044981607047263401202C38012068
:1023B00039230008D122000870B56E4C4FF000019F
:1023C0002068B0F81D20D30703D030F8133F0A333C
:1023D00004E0930704D530F8133F0A3B038001E083
:1023E000A0F81310500705D5206830F8153F0A3BB8
:1023F00003800AE0100705D5236833F8150F0A306B
:10240000188002E02068A0F815102068F1EE040A98
:10241000B2F5005F30F90D3F00EE103AB8EEC00A99
:1024200020EE200ABDEEC00A10EE103A8381236828
:1024300033F90F0F00EE100AB8EEC00A20EE200AA2
:10244000BDEEC00A10EE100A18814B48037823D065
:1024500006DCB2F5006F0BD0B2F5805F06D111E05B
:10246000B2F5804F22D0B2F5004F29D0012132E0E1
:1024700093B394F8642002F00103C3F1010363F302
:10248000000226E043B394F86420C2F34003C3F192
:10249000010363F341021CE0F3B194F86420C2F33A
:1024A0000013C3F1010363F3041212E0A3B194F823
:1024B0006420C2F38003C3F1010363F3820208E0E6
:1024C00053B194F86420C2F3C003C3F1010363F372
:1024D000C30284F864200170284D20686E422A46A9
:1024E000B0F91300314601F01EFD21682A46A1F81B
:1024F000130020683146B0F9150001F014FD216881
:102500002A46A1F8150020683146B0F9170001F0FD
:102510000AFD21682A46A1F8170020683146B0F963
:10252000190001F000FD2168A1F819002068B0F938
:10253000130000EE100A0F48B8EEC00A3430FFF75F
:1025400071FD2068B0F9150000EE100A0948B8EED8
:10255000C00A4430FFF766FD2068B0F91900BDE8F5
:10256000704000EE100A0348B8EEC00A5430FFF77E
:1025700059BD0000C1330120D80000206CFDFFFFD1
:102580007CB50121102000F0F5F90121022000F0B6
:10259000F1F901208DF8040000218DF806100321C7
:1025A0008DF805108DF807001F200D4C009069462E
:1025B0002046FFF75BFD80200A4D009069462846C3
:1025C000FFF754FD07212046FFF7B3FD18212046F1
:1025D000FFF7ADFD80212846FFF7A9FD7CBD000077
:1025E0000010024000040240FEE7000010B504465F
:1025F0002DED028B00209FED168A608060702070A8
:102600006060A060B0EE482AF0EE481AB0EE481ABA
:10261000F0EE480AB0EE480A04F10C0000F002F9AE
:10262000B0EE482AF0EE481AB0EE481AF0EE480A2A
:10263000B0EE480A04F15C0000F0F4F854F8AC0F76
:10264000FFF7B0FC0B202071BDEC028B10BD000029
:10265000000000007047000030B50F22C4780178F8
:102660000123FCB1144C246801F1E02104F4E0647E
:10267000C4F5E064C4F30724C4F10405E2404478DF
:10268000AC408578154025432A0181F80024007864
:1026900000F01F018B404009800000F1E020C0F8ED
:1026A000003130BD01F01F0083404809800000F177
:1026B000E020C0F8803130BD0CED00E0044800217E
:1026C000C0F85F12C0F8AE11C0F8FD10C1647047C9
:1026D0002634012003490248896888607047000059
:1026E000692900082C38012010B500287ED010EE92
:1026F000103A10EE901A036000EE103A00EE901AB5
:102700004160C26930EE600A0262826910EE101AFE
:10271000C2618161436A00EE101A00EE903A30EE19
:10272000800A00EE902A10EE103A00EE101A436272
:10273000C46A046330EE600A846AC46210EE104A10
:1027400000EE101A8462C26800EE902A20EE800A21
:1027500010EE102A00EE103A4263016900EE901A62
:1027600020EE800A10EE101A00EE104A81634369D1
:1027700000EE903A20EE800A10EE103A00EE101AA9
:10278000C363816C00EE901AB4EEE00AF1EE10FA29
:1027900000DB8163846B00EE101A00EE904AB1EE0C
:1027A000400AF4EEC00AF1EE10FA06D800EE101A54
:1027B000B1EE400A10EE101A8163816B00EE102A10
:1027C00000EE901A70EE200A00EE103A30EE800A09
:1027D00010EE101A0164406C00EE101A00EE900A20
:1027E000B4EEE00AF1EE10FA07DB00E002E000EEE2
:1027F000100A10BD9FED0A0A10BD00EE900A00EE0F
:10280000101AF1EE600AB4EEE00AF1EE10FA04D804
:1028100000EE100AB1EE400A10BD00EE101A10BD15
:102820000000000000281DD010EE101AC16010EE4C
:10283000901A016111EE101A416111EE901A816433
:1028400012EE101A416400218161C161016281624E
:10285000C162016341628160416001600164C163E2
:1028600081634163704700002DE9F041374C074612
:102870002DED028B00259FED348AD4F88C605CE04E
:10288000605D552857D16019C17A552953D1817D92
:10289000552950D1C07D53284DD105F11600204453
:1028A0008178C2784379114402791A4411448279BB
:1028B0001144C2791144027A1144427A1144A83178
:1028C000827AC9B28A423AD1C088FDF7EDFD9FED08
:1028D000201B53EC112BFDF7F5FC9FED1F1B53EC58
:1028E000112BFDF7EFFCFDF7FFFD00EE100A00EEE7
:1028F000906A1B4AC4F8880030EE600A10EE101A85
:10290000C4F89010914204DD00EE100A70EE480AFF
:1029100006E0144A91420BD900EE100A70EE080A44
:1029200000EE106A30EEC00A10EE100AC4F89000F3
:10293000012084F894006D1CEDB2BD42A0D3BDEC23
:10294000028BBDE8F08100000000B4438831012013
:10295000000000000000003F000000000080664012
:1029600000009643000096C30148D0F8F9130847C9
:1029700026340120044A0029116801D0014300E0F7
:10298000814311607047000030380240044A00293A
:10299000116801D0014300E08143116070470000DD
:1029A00040380240044A0029116801D0014300E088
:1029B000814311607047000020380240044A00291A
:1029C000116801D0014300E08143116070470000AD
:1029D00044380240044A0029116801D0014300E054
:1029E00081431160704700002438024030B51C4A12
:1029F00011681C4B11F00C0103D0042901D00829E7
:102A000001D0036013E01649091F0C680C6804F03C
:102A10003F04B3FBF4F30C680968C4F38814634300
:102A2000C1F30141491C4900B3FBF1F10160116898
:102A30000F2303EA11110C4B5C5C0168E14041601B
:102A40001468072505EA94241C5D21FA04F48460C7
:102A5000126805EA52329A5CD140C16030BD000074
:102A60000838024040787D0110000020F0B50028B1
:102A700063D0002961D031480278437842EA0322CA
:102A8000C2F30A020A8043788478DB0843EA4413DD
:102A9000C3F30A034B808478C578A40944EA85040B
:102AA000057944EA8524C4F30A048C8005794679C3
:102AB0006D0845EAC615C5F30A05CD804679B60905
:102AC0008E724679C6F30116CE72067C477C46EAC2
:102AD0000726C6F30A060E818679C77946EA0726D5
:102AE000A1F80D60067A477A46EA0726A1F80F603A
:102AF000867AC77A46EA0726A1F81160067BCE7669
:102B0000467B0E77867BC77B46EA0726A1F81D60C9
:102B1000067C407CA2F580620A80A3F580634B802E
:102B2000A4F5806446EA00208C80A5F58065CD8000
:102B3000A0F58060088101200873F0BD182F0120E6
:102B400010B50346B0F9000001F0E8F90446012091
:102B50000B4A0EE033F9100001F0E0F9A04206DD67
:102B6000B2F9000033F9100001F0D8F904461088DA
:102B7000401C108000B28842ECDB204610BD0000F3
:102B8000DC00002010B5044600200A182318401C61
:102B9000A25CC0B283F807211628F6D31B2104F5E6
:102BA000807001F025F8012803D0012084F87B0112
:102BB00010BD94F8070184F8690194F8080184F8BD
:102BC0006A01B4F80901A4F86B01B4F80B01A4F888
:102BD0006D01B4F80D01A4F86F01B4F80F01A4F869
:102BE0007101B4F81101A4F87301B4F81301A4F849
:102BF000750194F8150184F8770194F8160184F8AA
:102C0000780194F8170184F8790194F8181194F870
:102C10007A014A0861F3000062F34100890861F318
:102C2000820084F87A010020C0E7000010B51D4C36
:102C30000A212068B0F90000FFF746F921680880F2
:102C400020680A21B0F90200FFF73EF921684880A8
:102C500020680A21B0F90400FFF736F9216888805E
:102C60002068B0F9020000EE100A201DB8EEC00A7C
:102C7000FFF7D8F92068B0F9000000EE100A04F15F
:102C80001400B8EEC00AFFF7CDF92068B0F90400CF
:102C900000EE100A04F12400BDE81040B8EEC00AAE
:102CA000FFF7C0B9C13301202DE9F04100250446EA
:102CB0002E4601277FE0605DA5287AD105212046B8
:102CC00000F0B4FF012874D1601930F8011FA4F896
:102CD0002F118088A4F83101002041192218401CCE
:102CE000615CC0B282F800110728F6D3B4F9310153
:102CF00001281ED003285CD004285AD0A0F580718A
:102D0000013956D0B0F5817F53D0A0F580710539D7
:102D10004FD0A0F50071013904D0A0F5007102393F
:102D200030D046E0E81DC1B22046FFF72BFF1A3530
:102D30003EE0E81DC1B200200B182218401CE35CE5
:102D4000C0B282F807310728F6D30C2104F5807051
:102D500000F04EFF012803D084F837710B3527E0CF
:102D600094F8070194F8341160F30301000960F34B
:102D7000071184F83411B4F80811A4F8351184F857
:102D80003761EBE7E81DC1B200200B182218401C88
:102D9000E35CC0B282F807311428F6D3192104F598
:102DA000807000F025FF01280FD084F88C71183551
:102DB000EDB26D1CEDB2B4F92D01A8423FF77BAF27
:102DC000184880F83361BDE8F081B4F80711A4F821
:102DD0007C11B4F80911A4F87E1194F80B11204667
:102DE00061F3070094F80C1161F30F2094F80D11B2
:102DF00061F3174094F80E1161F31F60C4F880016D
:102E0000B4F80F11A4F88411B4F81111A4F88611C4
:102E1000B4F81311A4F88811B4F81511A4F88A11A4
:102E2000C5E700001D32012070B50E4C0E4D206824
:102E3000697890F90A00884201D000F051F82068C2
:102E4000017B39B1807A032808D0FFF7EFFE2168B3
:102E5000002008732068807A687070BDFFF7ACFAB4
:102E6000F5E70000C1330120D800002010B52DED9A
:102E7000028B00F035F8184C02209FED188A21686B
:102E8000B0EE480AC87221688872201DFFF7E6F884
:102E9000B0EE480A04F11400FFF7E0F8B0EE480A7B
:102EA00004F12400FFF7DAF8B0EE480A04F1340028
:102EB000FFF7D4F8B0EE480A04F14400FFF7CEF86B
:102EC000B0EE480A04F15400FFF7C8F800F0DEF84D
:102ED0002060BDEC028B10BDC13301200AD7A33D99
:102EE000164800210268D1800268918002685180F2
:102EF0000268118002681173026811810268A2F8E9
:102F000011100268A2F80F100268A2F80D100268F2
:102F100011770268D1760268A2F81D1090F864104B
:102F200021F002014A0862F382018A0862F300017B
:102F300021F0100180F8641070470000C1330120B7
:102F4000FFF794FFFFF770FF022001F03DFDF9E766
:102F500010B504462DED028B00F53170FFF746FBEE
:102F6000052084F8C402D4F8D11388479FED1A8A4B
:102F7000C4F8700304F54870B0EE482AF0EE481A21
:102F8000B0EE481AF0EE480AB0EE480AFFF74AFCE5
:102F90009FED122AF0EE481AB7EE001AF0EE480A3A
:102FA000B1EE000A04F53470FFF73CFCD4F870036E
:102FB00050F8151FC4F8CC1201684160D4F87003B2
:102FC000D0F815100161082084F874032420A4F8B7
:102FD000C602BDEC028B10BD0000000000B06546CB
:102FE0007047000003490248896888607047000004
:102FF000F92F00082C38012010B50D4C9FED0D0A5B
:103000002046D4F8ED230021B0EE401AF0EE400A3D
:1030100004F2D934904720686FF00201E269006839
:1030200090F90B00BDE8104001EB4001004810474B
:10303000263401200000000000487047A80000204E
:10304000062812D2DFE800F0110305080B0E08482D
:10305000704707482330704705484630704704489A
:103060006930704702488C3070470020704700007C
:103070004A300120004870472C3801200048704732
:103080008831012000487047C13301200048704753
:103090002A3101201CB501210420FFF76BFC01201F
:1030A0008DF8040000208DF8060003218DF805102E
:1030B0008DF807000820009069460248FEF7D6FF09
:1030C0001CBD000000080240084A0A23137050701B
:1030D00091700020D070107150719071CE20D0711D
:1030E00040F203411046FDF745BD0000C40000203A
:1030F00070B51A4D05F1080428680178217001881F
:10310000090A61708178A1704188090AE17001792A
:1031100021718188090A61718179A171C08840F2A9
:103120000141000AE0712046FDF724FD286801896D
:103130002170090A6170817AA170C17AE170B0F8DA
:103140001D002071000A60710020A071E07120460E
:10315000BDE8704040F20241FDF70CBDBC0000200C
:103160000CB500202749019000900A6842F4803293
:103170000A604FF4A0430A6802F400320092019AF8
:10318000521C0192009A12B9019A9A42F3D10A682C
:10319000920334D5012000901A484030026842F072
:1031A000805202601848026842F4404202601548AA
:1031B000083002680260026842F40042026002685D
:1031C00042F4A0520260031F104A1A600A6842F0DB
:1031D00080720A600A689201FCD50D4A40F20571BE
:1031E0001160016821F003010160016841F00201F2
:1031F00001600168C1F381010229FAD10CBD009080
:103200000CBD000000380240007000401954400717
:10321000003C024010B501F005FB00F041F9044804
:10322000006801F0F7FBBDE8104001F01BBB000097
:1032300000000020884201D0012070470020704724
:1032400010B5502080F31188BFF34F8FBFF36F8FFD
:1032500002F04AF818B104494FF08050086000208D
:1032600080F3118810BD000004ED00E0124810B595
:10327000016841F4700101601048016841F00101EA
:1032800001600E4A00210832116002680C4B1A409E
:103290000260031D0B4A1A60026822F48022026059
:1032A00006480C300160FFF75BFF03494FF00060F8
:1032B0008039086010BD000088ED00E00038024051
:1032C000FFFFF6FE1030002410B51E4C01212046F1
:1032D00000F079F801282FD11B494888401C00B222
:1032E0004880B0F57A7F0EDB0878404208700020F5
:1032F00048808A88521C12B28A803C2A03DBCA8822
:10330000521CCA80888091F90000104A012802D01E
:10331000401C0DD010E0B1F90200502190FBF1F3F8
:1033200001FB130040B980211046FEF704FF03E0C3
:1033300080211046FEF7FDFE2046BDE81040012129
:1033400000F034B800040040B0000020001002403B
:103350007FB50C46054601210220FFF717FB641ECE
:103360006D1E00200194ADF800500F4CADF8020026
:10337000ADF808006946204600F03AF81D208DF8A7
:103380000C0008208DF80D0001208DF80F0003A817
:10339000FFF762F901221146204600F020F80121D2
:1033A000204600F006F87FBD00040040C9430182BA
:1033B00070470029018802D041F0010101E021F0AD
:1033C00001010180704702460020138A92890B4256
:1033D00002EA010202D0002A00D001207047002A30
:1033E000828901D00A4300E08A438281704700004D
:1033F00030B50288164B174C98420DD0A0420BD026
:10340000B0F1804F08D0144DA84205D0134DA8420A
:1034100002D0134DA84203D122F070054A882A43F6
:10342000104DA84206D0104DA84203D022F440759A
:103430000A892A4302804A68C2620A880285984241
:1034400001D0A04201D1897A01860121818230BD5B
:10345000000001400004014000040040000800405A
:10346000000C0040001000400014004000F07F02FB
:1034700000EE102A9FED081A0006F8EE400A00EE52
:10348000101AB8EE400A00EE810A03D5DFED030AF8
:1034900030EE600A704700000000804300000047E3
:1034A0001CB5082010494401CDE900010023224643
:1034B0000EA1114801F0D8FE0B490620091FCDE9E5
:1034C0000001002322460DA1104801F0CDFE06495F
:1034D0000B20091DCDE90001002322460CA10F4855
:1034E00001F0C2FE1CBD00000800002052656D6F97
:1034F00074655F5461736B00412F0008436861730A
:103500007369735F5461736B000000008D180008CD
:103510004465746563745F5461736B00DD1E00085D
:1035200070B596B001213C48FFF724FA0121C80488
:10353000FFF72CFA394E08220A213046FEF7E7FD44
:1035400008220B213046FEF7E2FD02218DF85010D3
:1035500000248DF852404FF440608DF851101390C4
:1035600001258DF8535013A93046FEF77FFD2C4EF0
:10357000304600F0F3F94FF4E1300F90ADF84440DD
:103580000C20ADF84040ADF84600ADF84240ADF833
:1035900048400FA9304600F06FFA34208DF85400EF
:1035A0008DF8575006208DF8550015A8FFF754F8F0
:1035B000012240F22441304600F045FA0121304614
:1035C00000F0BAF9174D2846FEF786FB6805009013
:1035D000301D01901448CDE902044020CDE90404D7
:1035E0000001CDE906048010CDE908404FF44030D9
:1035F000CDE90A040C940D94694628460E94FEF712
:1036000037FC01212846FEF75DFB012240213046B0
:1036100000F09CF916B070BD0400200000080240C4
:10362000004C004040600240EA2F012070B51B4D65
:1036300040F22441284600F0E7F900282DD0184C2C
:1036400000212046FEF73EFB2046FEF7D7FB002870
:10365000FAD128881148001D008811484830FEF72B
:10366000D4FBC0F14000C0B200210E4A0E4B03E073
:103670005D5C5554491C89B28142F9D3022182F81C
:103680009410FFF7F1F840212046FEF71BFC20467E
:10369000BDE870400121FEF715BB70BD004C004035
:1036A0004060024088310120EA2F012070B596B0B9
:1036B00001213D48FFF75EF901211020FFF77EF957
:1036C0003A4E07220A213046FEF721FD02208DF8EE
:1036D000500000248DF8524003208DF8510035151C
:1036E00013958DF8534013A93046FEF7BFFC304EBA
:1036F000304600F033F92F480F90ADF844500420C5
:10370000ADF84040ADF84600ADF84240ADF8484055
:103710000FA9304600F0B0F90121304600F00CF955
:1037200001224021304600F011F944208DF8540068
:103730008DF8554001208DF8570015A8FEF78CFF35
:103740001D4E00213046FEF7BDFA3068C007FCD19F
:103750003046FEF7C1FA4FF000600090144804A90B
:10376000001D01901548CDE90204122081E83100C6
:103770004FF48070CDE908404FF44030CDE90A04A1
:1037800007940C940D94694630460E94FEF770FB36
:10379000012210213046FEF755FB01213046FEF78D
:1037A00091FA16B070BD0000010040000000024018
:1037B00000100140A086010088640240182F0120FB
:1037C00070B5194D40F22441284600F01DF900283B
:1037D00029D0164C00212046FEF774FA2046FEF749
:1037E0000DFB0028FAD128880F48001D00882046CC
:1037F000FEF70BFBC0F11900C0B200210C4A0D4BC3
:1038000003E0555C5D54491C89B28142F9D319210A
:103810002046FEF757FB01212046FEF753FABDE88C
:10382000704000F021BB70BD004400408860024041
:10383000312F01201131012070B51B4D40F2244180
:10384000284600F0E1F800282CD0184C0021204632
:10385000FEF738FA2046FEF7D1FA0028FAD1288878
:103860001148001D00882046FEF7CFFA4042104D57
:10387000C0B20021A5F801000E4B05F11F0203E0C4
:103880005E5C5654491C89B28142F9D300F04CF970
:1038900020212046FEF716FB01212046FEF712FAF2
:1038A0000120287070BD00000048004028600240E0
:1038B00049310120CA2F012070B51B4C40F2244130
:1038C000204600F0A1F800282DD0184D00212846F0
:1038D000FEF7F8F92846FEF791FA0028FAD1208879
:1038E0001148001D00882846FEF78FFAC0F18000BD
:1038F0000F4C82B20021A4F82D210E4803E0435C56
:103900006354491C89B29142F9D30948FFF7CCF9B5
:1039100080212846FEF7D6FA01212846FEF7D2F983
:10392000012084F8330170BD001401402864024076
:103930001D3201204A2F01200029818902D041F443
:10394000005101E021F4005181817047002A828AF0
:1039500001D00A4300E08A4382827047224910B5B1
:10396000884206D101211020FFF734F800211020F1
:1039700020E01E49884202D101214C0429E01C4963
:10398000884202D101218C0423E01A49884202D1E5
:103990000121CC041DE01849884202D101210C0507
:1039A00017E01649884209D101212020FFF712F8BB
:1039B00000212020BDE81040FFF70CB810498842D4
:1039C00002D101218C0704E00E4988420AD101216D
:1039D00044052046FEF7E6FF2046BDE810400021E2
:1039E000FEF7E0BF10BD00000010014000440040A1
:1039F00000480040004C00400050004000140140CE
:103A000000780040007C004030B501F01F02012426
:103A10000025C1F3421304FA02F2012B0FD0022B4E
:103A20000FD0838A4FEA11210088134204FA01F46F
:103A300000EA040001D000B10125284630BD838989
:103A4000F0E7038AEEE710B5C1F3421301F01F045B
:103A50000121A140012B07D0022B07D01430002AEE
:103A6000026805D00A4304E00C30F8E71030F6E7AE
:103A70008A43026010BD00007FB50446008A0D46EF
:103A800020F44051E88808432082A08941F20C616B
:103A90008843A9882A8911436A8902431143A18175
:103AA000A08A20F44071A8890843A0826846FEF7E6
:103AB0009DFF1A48844202D01948844201D10398DC
:103AC00000E00298A189090400EBC00101EB00109D
:103AD000296801D5490000E08900B0FBF1F26420BB
:103AE000B2FBF0F109010B096FF018056B4302EB13
:103AF0008302A3891D044FF0320306D503EBC202F3
:103B0000B2FBF0F000F0070005E003EB0212B2FB9D
:103B1000F0F000F00F00084320817FBD001001404D
:103B200000140140FEE700002DE9F0412E4D2DED7F
:103B3000028B2878012850D1002405F11F0748E0A6
:103B4000385DFF2843D13E19F079FE283FD17178C6
:103B5000B078FFF78BFC9FED258AC0EE080A10EEC7
:103B6000900AC5F80700F1783079ED1CFFF77EFC6C
:103B7000C0EE080A10EE900A28607179B079FFF75C
:103B800075FCC0EE080AE41DA4B210EE900AA8610C
:103B9000686855F8141F00EE100A00EE901A30EE17
:103BA000600A10EE101A45F8081C55F8141C55F858
:103BB000042C00EE101A00EE902A30EE600A10EE8F
:103BC000102A45F80C2C45F8041C45F81709641C0C
:103BD000A4B2B5F80100A042B2D800202870BDEC14
:103BE000028BBDE8F0810000493101200000C8428D
:103BF00030B50C46050014D0022C12D90A48A11E7B
:103C000002882846FEF7B0FA2919C2B211F8023C20
:103C10009A4206D111F8011CB1EB102F01D10120FD
:103C200030BD002030BD0000B800002030B50C468B
:103C300005000CD0022C0AD9FF22611EFEF7AAFA59
:103C4000291911F8011C814201D1012030BD002049
:103C500030BD00002DE9F04704462DED028B8CB0FD
:103C60000025302230496846FCF708FB2F48C4F88D
:103C7000CD032F48C4F8C9032E48C4F8D1032E48F9
:103C8000C4F8D5032046FEF7B1FC04F1B100FEF7FD
:103C9000ADFC04F5B170FEF7A9FC04F21320FEF7A9
:103CA000A5FC9FED268ADFED268AA946E8464FF05F
:103CB000130A6E1CB12205FB02F7F1B2E155D4F8EC
:103CC000D12308469047274405EB4501C7F8AC00CF
:103CD00008EB8100B0EE482A90EC030A07F10C00D3
:103CE000F0EE681AFEF79EFD87F8B090F5B2A7F8DF
:103CF00002A0042DDDD3D4F8D5038047DFED120AEE
:103D0000C4F875039FED0F2AF0EE601AB2EE041AA4
:103D10009FED0E0A04F27930FEF784FD0CB0BDEC85
:103D2000028BBDE8F08700003059000859070008F1
:103D3000E9060008413000087D30000800007A469E
:103D400000606A4600002544000000000000204298
:103D500002484FF4FA71D0F80124104726340120AC
:103D60000348D0F8750350F8881F41607047000081
:103D700026340120034902488968886070470000A2
:103D8000513D00082C38012002E008C8121F08C16C
:103D9000002AFAD170477047002001E001C1121FCC
:103DA000002AFBD17047000010B52DED028B00F00A
:103DB00053F8DFED230AB5EEC00AF2EE048AF1EE05
:103DC00010FA204C15DB10EE100A1F49884210DA59
:103DD00030EEC00A00F040F820EE280ADFED1B0AA2
:103DE000BDEEC00A10EE100A04EB800090ED000A50
:103DF00017E010EE100A144949420844B0F5000FCC
:103E000012D230EE600A00F027F820EE280ADFED2B
:103E1000100ABDEEC00A10EE100A04EB800090ED0F
:103E2000000A80EE208A06E010EE100A0949884256
:103E300001D1BFEE008AB0EE480ABDEC028B10BD86
:103E40000000B442605900080000B4420000C842BB
:103E50000000C8C200003443B5EEC00AF1EE10FA0B
:103E600001D2B1EE400A70472A480178FE294FD1AD
:103E7000417BEE294CD130F8011F49BA09B200EE5E
:103E8000101A2449B8EEC01A9FED230A1839C1EE62
:103E9000000A10EE902A0A60428852BA12B200EE6E
:103EA000902AB8EEE01AC1EE000A10EE902A4A609D
:103EB000828852BA12B200EE902AB8EEE01AC1EE31
:103EC000000A10EE902A8A60C28852BA12B200EE3E
:103ED000902AB8EEE01AC1EE000A10EE902A0A61AC
:103EE000028952BA12B200EE902AB8EEE01AC1EE80
:103EF000000A10EE902ACA60408940BA00B200EE73
:103F0000900AB8EEE01AC1EE000A10EE900A48617D
:103F100070470000113101200000C842002801DA7A
:103F2000404200B27047884201DD08467047904227
:103F3000FCDA1046704700001CB5FEF73BF9074954
:103F40000120CDE900010202002305A1074801F08C
:103F50008BF900F043FE00201CBD00000000002093
:103F600053746172745F5461736B00001532000802
:103F70002DE9F041184C0F460546E6682068001D03
:103F800000F00CFC38B9206890F82C100120884013
:103F9000216981432161681C07D137B12168BDE8DF
:103FA000F0410E48091D00F031BC20683544B5428F
:103FB0004560216805D2A06BBDE8F041091D00F005
:103FC0000DBC606B091D00F009FCA06A854200D29F
:103FD000A562BDE8F081000048000020C402002076
:103FE0002DE9F041054600F01DFC2D4CA068401C59
:103FF000A06020682B4F10B1606930B32BE02560C2
:10400000A068012827D1002606EB860007EB800078
:1040100000F0D6FB761C102EF6D3234800F0D0FB20
:104020002148143000F0CCFB1F48283000F0C8FBBA
:104030001D483C3000F0C4FB1B48503000F0C0FB72
:10404000194860631430A06305E02068E96AC06A1B
:10405000884200D82560606A401C60622864E96A72
:104060000120226988401043206101EB810007EBA9
:104070008000291D00F0CAFB00F0F4FB60690028F5
:104080000CD02068E96AC06A884207D207494FF01D
:1040900080500860BFF34F8FBFF36F8FBDE8F08192
:1040A00048000020340100207402002004ED00E0EC
:1040B00010B500F0B7FB0E4C2068A0B90D4800F019
:1040C0007FFB0C48143000F07BFB0A48E0601430A2
:1040D000206100220C210A2000F05EFE206010B159
:1040E00005A100F03BFCBDE8104000F0BBBB0000A8
:1040F000340000200C010020546D725100000000BB
:1041000070B5114E114C17E000F0A0FD3068B8B149
:1041100001F0D6F900F086FBF068C568281D00F0B4
:104120003DFBA068401EA0606068401E606000F01B
:1041300099FB284600F055F860680028E4D170BD6E
:1041400001F0BEF9F8E70000B002002048000020AE
:1041500030B4026C0B46002A0BD0C1681144C16018
:104160004468A14201D30168C16030BC1846FCF725
:1041700085B830BC70472DE9F041856B1746044681
:104180000026026C82B1C7B1E068FCF777F8E168FD
:10419000206C091AE1602268914202D26168081A13
:1041A000E060022F16D017E02068A8B9606801F01F
:1041B000FFF80646002060600EE0A068FCF75EF89D
:1041C000216CA0680844A0606168884204D320681C
:1041D000A06001E005B16D1E6D1CA5633046BDE811
:1041E000F08110B50446006B00F050FB2046BDE89E
:1041F000104000F04BBB000010484FF496314207CE
:1042000006D0C01D0D4920F00700411AC1F59631B6
:104210000B4A00230144C2E900030839103A21F097
:10422000070111604B600B600B1AC0E9001393602B
:104230004FF000405360D06070470000180300202A
:1042400094000020074C4FF08056074DFFF758FFB1
:1042500020680128FAD92E60BFF34F8FBFF36F8F0C
:10426000F4E700003401002004ED00E02DE9F04700
:104270000E46DDE909841746824691009946089D5D
:10428000A522206BFCF70CF86FF00301206B01EB0B
:104290008701084420F00707780707D0502080F3F3
:1042A0001188BFF34F8FBFF36F8FFEE72218315C89
:1042B00082F83410315C11B1401C0A28F6D3002674
:1042C00084F83D60102D00D30F25E562C4E9125635
:1042D000201D00F080FA04F1180000F07CFA24613F
:1042E000C5F110006462A061266584F854604A46F6
:1042F0005146384600F03CFA2060B8F1000F01D07A
:10430000C8F80040BDE8F08730B5114900E011461B
:104310000A688242FBD34B685C18844203D1406830
:1043200018444860084643681C18944209D1084C58
:10433000103C2468A24209D052681A4442600A68BC
:1043400012680260814200D0086030BD0460F9E765
:104350009400002070B5002441600B4D0061914233
:1043600006D8D11A8269914206D2011D286907E058
:104370009A4203D2994201D3012403E0011DE86867
:1043800000F02CFA204670BD3400002010B5044621
:1043900000F048FAA06B28B15FF0000400F062FA68
:1043A000204610BD0124F9E730B587B02B4D4BE016
:1043B0000498002848DB069C606910B1201D00F0BD
:1043C000EDF902A800F0B6F8024604980A283BD29C
:1043D000DFE800F00505053A263705053A26059879
:1043E000A169034601442046FFF7B4FF00B3616AA8
:1043F00020468847E069012826D1002000900598D2
:10440000A169002342181946204601F0E1F878B965
:10441000502080F31188BFF34F8FBFF36F8FFEE7FB
:104420000598A06128B1811813462046FFF792FF36
:104430000AE0502080F31188BFF34F8FBFF36F8FD6
:10444000FEE7204600F022FA00231A4604A9286855
:1044500000F0CCFC0028ABD107B030BD3400002008
:104460002DE9FC410F46054600F0F0FB01A800F0E5
:1044700061F80446019818B101F022F8BDE8FC810A
:10448000224EAFB130690068A8B30027291B3A4615
:10449000306800F077FA01F013F80028EED11C49DB
:1044A0004FF080500860BFF34F8FBFF36F8FE5E789
:1044B000A542EBD801F004F8F0682746C068C4684C
:1044C000201D00F06BF9E069012810D1A0692B468E
:1044D00041193A462046FFF73DFF40B10020034610
:1044E000014600902A46204601F072F820B1616A28
:1044F00020468847C2E707E0502080F31188BFF3C9
:104500004F8FBFF36F8FFEE70127BFE73400002016
:1045100004ED00E00648416B096829B1416BC968A8
:10452000C9684968816270474FF0FF31FAE70000BF
:104530004800002070B5054600F0D0FE064E044647
:10454000B068844203D200F009F8012000E00020A6
:1045500028602046B46070BD34000020F8B5194DC5
:104560001FE0C068C4680668201D00F017F9616A82
:1045700020468847E069012813D1A0693044B04241
:1045800006D924616060211DE86800F027F908E081
:1045900000200346014600903246204601F018F8FC
:1045A00038B1E86801680029DBD12969C5E9031041
:1045B000F8BD502080F31188BFF34F8FBFF36F8F8A
:1045C000FEE700003400002008484068401C4FF01F
:1045D000500080F3118804D0BFF34F8FBFF36F8F6B
:1045E000FEE7BFF34F8FBFF36F8FFEE79C00002005
:1045F000074CE068016841B1C0680021D0F80000B4
:10460000FFF72EFFFFF7D0FEF3E701210020F7E7C9
:10461000340000202DE9F041044600F003F994F93C
:10462000455004F1240609E0606A48B1304600F0C4
:104630000BFF08B100F044FA6D1E6DB2002DF3DCE3
:104640004FF0FF3684F8456000F00CF900F0EAF80E
:1046500094F9445004F1100709E0206948B1384644
:1046600000F0F2FE08B100F02BFA6D1E6DB2002DC5
:10467000F3DC84F84460BDE8F04100F0F3B80000DA
:104680002DE9F0410546002700F0E0FA314E306890
:1046900008B9FFF7B1FDF06805424BD1C5B3083545
:1046A00068070ED005F00700C0F108000544680750
:1046B00007D0502080F31188BFF34F8FBFF36F8F67
:1046C000FEE72DB37068854234D822481030014689
:1046D0000C6801E020460C466168A94202D22168BC
:1046E0000029F7D131688C4224D007682168016025
:1046F00060680837411B10290FD96019420708D09C
:10470000502080F31188BFF34F8FBFF36F8FFEE708
:1047100010E041606560FFF7F7FD61687068401A5E
:104720007060B268904200D2B060F068014300202F
:10473000C4E9000100F0C4FE780707D0502080F3E0
:104740001188BFF34F8FBFF36F8FFEE73846BDE888
:10475000F0810000840000200449086818B108684E
:10476000C26C521CC26408687047000048000020F8
:1047700010B5031F4FF080741C601B1F21F0010156
:104780001960191F044B0B6014390A60091F6FF080
:10479000020244380A6010BDC9450008D0E9013260
:1047A00001699A60D0E901235A604A68824201D1C6
:1047B00082684A60002202610868401E08607047F3
:1047C00000F108014FF0FF32C0E90112C160016140
:1047D00000210160704700210161704730B50B680E
:1047E0005A1C02D000F1080202E0026904E02246ED
:1047F000546825689D42FAD953684B6099608A6075
:10480000516008610168491C016030BD42684A601E
:1048100093688B6093685960916008610168491CD6
:1048200001607047502080F31188BFF34F8FBFF3B2
:104830006F8F0A494868401C486001280CD108481D
:10484000006810F0FF0F07D0502080F31188BFF3ED
:104850004F8FBFF36F8FFEE7704700009C00002072
:1048600004ED00E00849486828B1401E486001D1C5
:1048700080F311887047502080F31188BFF34F8F69
:10488000BFF36F8FFEE700009C00002070B500288A
:1048900027D0144DA0F108046168E868014207D1EF
:1048A000502080F31188BFF34F8FBFF36F8FFEE767
:1048B00022683AB1502080F31188BFF34F8FBFF3C5
:1048C0006F8FFEE78143616000F0C0F9606869683E
:1048D000084468602046FFF717FDBDE8704000F00F
:1048E000EFBD70BD8400002006484FF47A71006867
:1048F000B0FBF1F14FF0E020491E41610721016159
:10490000704700002000002010B5FBF7A1FC114902
:1049100010280ED300F1E02090F8F0030A789042BE
:1049200007D2502080F31188BFF34F8FBFF36F8FF2
:10493000FEE709480068896800F4E060884207D90A
:10494000502080F31188BFF34F8FBFF36F8FFEE7C6
:1049500010BD00009C0000200CED00E010B5084BDD
:10496000002200BF53F832401CB1521C082AF9D370
:1049700010BD43F8321003EBC201486010BD0000C7
:10498000D802002070B515460E460446FFF74AFFD0
:1049900094F944100020491C01D184F8440094F992
:1049A0004510491C01D184F84500FFF75BFFA06B5F
:1049B00028B92A46314604F1240000F09FF8204629
:1049C000BDE87040FFF726BE10B5020014D00F48B6
:1049D000006B38B1502080F31188BFF34F8FBFF3C5
:1049E0006F8FFEE700F032F900211046FFF7C0FAA2
:1049F00000F066FD002807D105494FF0805008609F
:104A0000BFF34F8FBFF36F8F10BD00004800002031
:104A100004ED00E070B50546FFF704FF244C05B92E
:104A20002568281DFFF7BAFE58B9E86A214A00EB4D
:104A3000800152F8211021B9012181402069884369
:104A40002061A86A18B105F11800FFF7A7FE606A97
:104A5000401C60622068854207D1291D1648FFF777
:104A6000D5FE6068401C606007E0A068401EA06042
:104A70002846FFF7B6FBFFF74DFDFFF7F3FE606931
:104A8000002814D02068854211D1206B38B1502005
:104A900080F31188BFF34F8FBFF36F8FFEE7074995
:104AA0004FF080500860BFF34F8FBFF36F8F70BD22
:104AB0004800002034010020B002002004ED00E096
:104AC00001490120C86170474800002010B50C461C
:104AD00050B1094909681831FFF780FE2046BDE84A
:104AE00010400121FFF744BA502080F31188BFF332
:104AF0004F8FBFF36F8FFEE74800002070B514465C
:104B00000D4668B10A4909681831FFF77FFE0CB1FC
:104B10004FF0FF3521462846BDE87040FFF728BA20
:104B2000502080F31188BFF34F8FBFF36F8FFEE7E4
:104B30004800002070B5040039D01D4DE06A296896
:104B4000C96A884233D2A069002804DB2868C06A99
:104B5000C0F11000A061E16A164E01EB81016069AD
:104B600006EB810188421FD1201DFFF717FE0121AE
:104B700050B9E06A00EB800256F8222022B92A6977
:104B800001FA00F082432A612868C06AE0622A695B
:104B900081401143296100EB800006EB8000211D5C
:104BA000BDE87040FFF732BE2868C06AE06270BDA1
:104BB000480000203401002028B107490A6A026039
:104BC000C96841607047502080F31188BFF34F8F50
:104BD000BFF36F8FFEE70000480000201CB51748A8
:104BE0000024CDE900402346822215A1164800F09A
:104BF0003BFB012803D100F0C5FC012809D0401C73
:104C00001AD1502080F31188BFF34F8FBFF36F8FFD
:104C1000FEE7502080F31188BFF34F8FBFF36F8FF3
:104C200006484FF0FF312C38816201214161C46098
:104C3000BDE81C4000F040B81CBD0000740000201E
:104C400049444C4500000000454200080248016B01
:104C5000491C016370470000480000201448016BA4
:104C600011B10121C16170470021C1610169B1FA2F
:104C700081F1C1F11F0101EB81020E4951F822308F
:104C80006BB101EB820101F108034A6852684A6086
:104C90009A4201D152684A60D16801607047502041
:104CA00080F31188BFF34F8FBFF36F8FFEE70000D3
:104CB00048000020340100201CB532480168324A07
:104CC000914207D1502080F31188BFF34F8FBFF37B
:104CD0006F8FFEE700682C49491E884207D150209B
:104CE00080F31188BFF34F8FBFF36F8FFEE7274923
:104CF00008780190FF20087008788DF800009DF872
:104D000000009DF8002000F0F000904207D05020F5
:104D100080F31188BFF34F8FBFF36F8FFEE79DF8CD
:104D200000001B4A00F0500010700720906005E062
:104D30009DF800305B008DF80030401E9DF800307B
:104D40001B06F5D4000200F4E06090600198087042
:104D50000C482030016841F470010160016841F0A5
:104D600070410160FFF7C0FD00205060FBF738FA8A
:104D70000848016841F040410160FBF721FA00203A
:104D80001CBD000000ED00E071C20F4100E400E036
:104D90009C00002034EF00E02DE9F04117460E465C
:104DA000050016D0EEB105FB06F05030FFF768FCA9
:104DB00004000CD004F15000AEB12060C4E90F56DD
:104DC0002046012100F0C8F8204684F84C70BDE868
:104DD000F081502080F31188BFF34F8FBFF36F8FA6
:104DE000FEE70020E1E72460E8E700002DE9FF4F3F
:104DF000002683B09B468A46040003D0BAF1000F18
:104E000008D011E0502080F31188BFF34F8FBFF31B
:104E10006F8FFEE7206C38B1502080F31188BFF30C
:104E20004F8FBFF36F8FFEE700F04AFADFF824815F
:104E30004FF000094FF0805748B9059838B150201D
:104E400080F31188BFF34F8FBFF36F8FFEE7FFF73B
:104E5000E9FCA56B45B351462046E668FFF778F9B3
:104E6000BBF1000F13D0E660606A50B104F124007A
:104E700000F0EAFA28B1C8F80070BFF34F8FBFF313
:104E80006F8FFFF7EFFC012007B0BDE8F08F6D1EBC
:104E9000A563206810B9FFF75FFC606020690028F7
:104EA000EFD004F11000E3E7059808B11EB106E069
:104EB000FFF7D8FC27E06846FFF77EFE0126FFF7E4
:104EC000D1FCFFF7C3FEFFF7ADFC94F94400401C92
:104ED00001D184F8449094F94500401C01D184F834
:104EE0004590FFF7BFFC05A9684600F087F9002848
:104EF00020460AD0FFF78EFB00F0E2FA2046FFF7CB
:104F000045FA0028A3D00020BEE7FFF73FFAD8B14A
:104F1000206830B9FFF786FC6068FFF70BFEFFF7EB
:104F2000A1FC04F124000599FFF7D0FD2046FFF70E
:104F300071FB00F0C5FA002889D1C8F80070BFF3F2
:104F40004F8FBFF36F8F82E72046FFF763FB00F0C0
:104F5000B7FA7CE704ED00E070B50D46040025D0FB
:104F6000FFF760FCD4E90F20216802FB00116160AB
:104F70000021A1632168A1600A46D4E90F01401E07
:104F800000FB0121E16021464FF0FF3001F8440FA2
:104F9000487004F110008DB1FFF712FC04F12400F9
:104FA000FFF70EFCFFF75EFC012070BD502080F380
:104FB0001188BFF34F8FBFF36F8FFEE72169002980
:104FC000F0D000F041FA0028ECD004494FF08050B6
:104FD0000860BFF34F8FBFF36F8FE3E704ED00E08E
:104FE0002DE9FF4782B01D468A464FF000080400B5
:104FF00003D0BAF1000F08D011E0502080F31188DF
:10500000BFF34F8FBFF36F8FFEE7206C38B1502096
:1050100080F31188BFF34F8FBFF36F8FFEE7022D30
:105020000AD1E06B012807D0502080F31188BFF32C
:105030004F8FBFF36F8FFEE700F042F93F4F4FF005
:1050400000094FF0805648B9049838B1502080F3D9
:105050001188BFF34F8FBFF36F8FFEE7FFF7E2FBBF
:10506000A06BE16B884207D3022D05D00498D0B124
:10507000B8F1000F1AD01EE02A4651462046FFF72D
:105080007AF8616A19B104F1240000F0DDF920B169
:105090003E60BFF34F8FBFF36F8FFFF7E3FB01203D
:1050A00006B0BDE8F087FFF7DDFB22E06846FFF7BA
:1050B00083FD4FF00108FFF7D5FBFFF7C7FDFFF7B2
:1050C000B1FB94F94400401C01D184F8449094F958
:1050D0004500401C01D184F84590FFF7C3FB04A9AB
:1050E000684600F08BF830B12046FFF793FA00F0E5
:1050F000E7F90020D4E7FFF795FBA06BE16B88424E
:1051000013D1FFF7AFFB04F110000499FFF7DEFCA9
:105110002046FFF77FFA00F0D3F900289ED13E60C9
:10512000BFF34F8FBFF36F8F98E7FFF79BFB2046CE
:10513000FFF770FA00F0C4F990E7000004ED00E01A
:105140002DE9F0471F4690468946040003D0B9F187
:10515000000F08D011E0502080F31188BFF34F8F6B
:10516000BFF36F8FFEE7206C38B1502080F31188B9
:10517000BFF34F8FBFF36F8FFEE7022F0AD1E06BB3
:10518000012807D0502080F31188BFF34F8FBFF361
:105190006F8FFEE7FFF7B8FB5020EFF3118680F327
:1051A0001188BFF34F8FBFF36F8FA06BE16B884205
:1051B00006D3022F04D0002086F31188BDE8F087C3
:1051C00094F945503A4649462046FEF7D4FF681CFC
:1051D00004D06D1C84F845500120EDE7606A00287A
:1051E000FAD004F1240000F02FF90028F4D0B8F12F
:1051F000000FF1D00121C8F80010EDE770B50D46A1
:10520000040019D005B3FFF70DFB164AD1682868D2
:10521000431C0FD02368126A934202D062688A420C
:105220001AD96268891A814216D2401A286020462B
:10523000FFF7C2FC002410E0502080F31188BFF378
:105240004F8FBFF36F8FFEE7502080F31188BFF3BD
:105250004F8FBFF36F8FFEE70124FFF703FB20465C
:1052600070BD0000480000202DE9FF5F8346DDE9A6
:105270000E87994616468A469000FFF701FA050008
:105280001AD05820FFF7FCF9040012D02563002142
:10529000CDE90241CDE900874B463246514658469A
:1052A000FEF7E4FF2046FEF79BFE012004B0BDE8B8
:1052B000F09F2846FFF7EAFA4FF0FF30F6E70000CC
:1052C0000548416919B1006B18B1002070470120F1
:1052D0007047022070470000480000200148C06865
:1052E00070470000480000202DE9F0412E4C0027B7
:1052F000206B40B1A069401CA061E06900B10127AA
:105300003846BDE8F081E668761CE66013D1606B34
:10531000006838B1502080F31188BFF34F8FBFF37E
:105320006F8FFEE7606BA16B6163A063206A401C16
:105330002062FFF7EFF8A06ADFF87080864209D399
:10534000606B006880B1606BC068C5686868864241
:105350000DD2A0622068C06A00EB800158F82100DD
:105360000128CAD90127C8E74FF0FF30F1E7281D0F
:10537000FFF714FAA86A18B105F11800FFF70EFA42
:10538000E86A0121226981401143216100EB80011B
:1053900008EB8100291DFFF739FAE86A2168C96A1C
:1053A0008842CDD30127CBE74800002034010020FC
:1053B00070B504004FF0000140D0214D28688442B0
:1053C00007D0502080F31188BFF34F8FBFF36F8F4A
:1053D000FEE7E06C38B1401EE064A36CE26A9A42DA
:1053E0002CD040B12AE0502080F31188BFF34F8FBA
:1053F000BFF36F8FFEE7201DFFF7D0F9114A01219F
:1054000050B9E06A00EB800352F8233023B92B69CE
:1054100001FA00F083432B61A06CE062C0F1100040
:10542000A061E06A2B6981401943296100EB80008B
:1054300002EB8000211DFFF7E9F90121084670BD4C
:1054400048000020340100202DE9F041C068C46804
:10545000ACB104F118000746FFF7A0F9154D286B11
:105460000126A0B139461448FFF7D0F9E06A29684F
:10547000C96A88421BD90120EE61BDE8F081502045
:1054800080F31188BFF34F8FBFF36F8FFEE7201DAE
:10549000FFF784F9E16A2A6906FA01F010432861EE
:1054A00001EB8100054901EB8000211DDCE70020B4
:1054B000E3E70000480000209C02002034010020A7
:1054C0002DE9F0472C4D00242746286B38B1FFF713
:1054D000A9F9286B401E2863286B40B146E0502094
:1054E00080F31188BFF34F8FBFF36F8FFEE7A9687A
:1054F000224E0120D1B3A6F5B47980463068E8B1D8
:10550000F068C46804F11800FFF748F9201DFFF7A0
:1055100045F9E06A2A6908FA00F11143296100EBB4
:10552000800109EB8100211DFFF770F9E06A29680D
:10553000C96A8842E2D3C5F81C80DFE70CB1FEF7E8
:10554000E9FFAC6944B14646FFF7CEFE00B1EE611B
:10555000641EF9D10020A861E86938B10849012723
:1055600038070860BFF34F8FBFF36F8FFFF77AF9EB
:105570003846BDE8F0870000480000209C0200206B
:1055800004ED00E01CB5FEF793FD0D48006868B11E
:105590000B490220091DCDE9000100234FF482725E
:1055A00008A10A48FFF760FE002807D1502080F3C9
:1055B0001188BFF34F8FBFF36F8FFEE71CBD000054
:1055C00034000020546D722053766300F1450008CA
:1055D000FEB51E4613460200089D4FF0000014D091
:1055E000124C2768002F0FD0CDE900130292062934
:1055F00015DAFFF765FE02284FF000030DD00022F8
:1056000069462068FFF7ECFCFEBD502080F311884E
:10561000BFF34F8FBFF36F8FFEE72A46F0E70023FB
:10562000324669463846FFF78BFDFEBD3400002048
:10563000005EBCE2613FDD83C29C7E20A3FD1F4172
:105640009DC3217FFCA2401E5F01E3BD3E6082DC62
:10565000237D9FC1421CFEA0E1BF5D0380DE3C6252
:10566000BEE0025CDF81633D7C22C09E1D43A1FF42
:105670004618FAA427799BC584DA3866E5BB590732
:10568000DB856739BAE406581947A5FB7826C49A22
:10569000653BD987045AB8E6A7F91B45C6987A2412
:1056A000F8A6441A99C7257B3A6486D85B05E7B902
:1056B0008CD2306EEDB3510F4E10F2AC2F7193CDF2
:1056C000114FADF3702ECC92D38D6F31B2EC0E50E2
:1056D000AFF1134DCE90722C6D33D18F0C52B0EED2
:1056E000326C8ED0530DEFB1F0AE4C1291CF2D73C2
:1056F000CA947628ABF517490856B4EA6937D58BB2
:105700005709EBB536688AD495CB2977F4AA4816A1
:10571000E9B7550B88D6346A2B7597C94A14F6A891
:10572000742AC896154BA9F7B6E80A54D7896B3581
:105730000000891112239B322446AD573665BF7491
:10574000488CC19D5AAFD3BE6CCAE5DB7EE9F7F841
:105750008110080193331A22A5562C47B7753E6471
:10576000C99C408DDBBF52AEEDDA64CBFFF976E821
:1057700002218B30100299132667AF763444BD5551
:105780004AADC3BC588ED19F6EEBE7FA7CC8F5D901
:1057900083310A2091121803A7772E66B5543C4531
:1057A000CBBD42ACD99E508FEFFB66EAFDD874C9E1
:1057B00004428D5316619F702004A9153227BB3611
:1057C0004CCEC5DF5EEDD7FC6888E1997AABF3BAC1
:1057D00085520C4397711E60A1142805B3373A26F1
:1057E000CDDE44CFDFFD56ECE9986089FBBB72AAA1
:1057F00006638F7214409D512225AB343006B917D1
:105800004EEFC7FE5CCCD5DD6AA9E3B8788AF19B80
:1058100087730E6295501C41A3352A24B1163807B0
:10582000CFFF46EEDDDC54CDEBB962A8F99A708B60
:10583000088481951AA793B62CC2A5D33EE1B7F090
:105840004008C919522BDB3A644EED5F766DFF7C40
:10585000899400859BB712A6ADD224C3BFF136E070
:10586000C1184809D33B5A2AE55E6C4FF77D7E6C20
:105870000AA583B4188691972EE3A7F23CC0B5D150
:105880004229CB38500AD91B666FEF7E744CFD5D00
:105890008BB502A499961087AFF326E2BDD034C130
:1058A000C3394A28D11A580BE77F6E6EF55C7C4DE0
:1058B0000CC685D71EE597F42880A1913AA3B3B210
:1058C000444ACD5B5669DF78600CE91D722FFB3EC0
:1058D0008DD604C79FF516E4A9902081BBB332A2F0
:1058E000C55A4C4BD7795E68E11C680DF33F7A2EA0
:1058F0000EE787F61CC495D52AA1A3B03882B193D0
:10590000466BCF7A5448DD59622DEB3C700EF91F7F
:105910008FF706E69DD414C5ABB122A0B9923083AF
:10592000C77B4E6AD5585C49E33D6A2CF11E780F5F
:1059300000008040000000000AD7A33C0000804027
:10594000000000000AD7A33C0000804000000000D7
:105950000AD7A33C00008040000000000AD7A33C07
:1059600000000000BCB8323EABB8B23E6A0A063F47
:1059700063B8323F39665F3FF109863FAB609C3FB9
:1059800046B7B23FBD0DC93F0C64DF3F2EBAF53FAD
:1059900010080640ED321140AE5D1C405088274093
:1059A000D0B232402DDD3D40630749407231544052
:1059B000565B5F400D856A4096AE7540F76B804040
:1059C0008900864001958B405C2991409BBD9640A3
:1059D000BB519C40BDE5A1409E79A7405D0DAD4007
:1059E000FAA0B2407334B840C8C7BD40F75AC340AC
:1059F000FEEDC840DE80CE409413D44020A6D940AE
:105A00008138DF40B5CAE440BB5CEA4093EEEF402A
:105A10003A80F540B111FB407B510041031A03412C
:105A200072E20541C6AA0841FE720B411B3B0E41C2
:105A30001B031141FECA1341C49216416C5A19410D
:105A4000F5211C415FE91E41A9B02141D3772441D2
:105A5000DC3E2741C3052A4189CC2C412C932F41A0
:105A6000AD5932410920354142E6374155AC3A4102
:105A700044723D410D384041AFFD42412AC345418A
:105A80007E884841AA4D4B41AD124E4187D75041C7
:105A9000389C5341BE6056411925594149E95B4143
:105AA0004DAD5E4125716141D03464414DF8664190
:105AB0009CBB6941BC7E6C41AD416F416F0472413A
:105AC00000C77441608977418F4B7A418B0D7D41CE
:105AD00056CF7F417648814128A98241C00984413F
