:020000040800F2
:10000000C03F012055020008B52C000861260008F9
:10001000492C0008C906000811440008000000002F
:100020000000000000000000000000009D0100082A
:100030006B23000800000000F1010008D13A00081D
:100040006F0200086F0200086F0200086F020008CC
:100050006F0200086F0200086F0200086F020008BC
:100060006F0200086F0200086F0200086F020008AC
:100070006F0200086F0200086F0200086F0200089C
:100080006F0200086F0200086F0200086F0200088C
:10009000A10800086F0200086F0200086F02000844
:1000A0006F0200086F0200086F0200086F0200086C
:1000B0006F020008593B00086F0200086F02000839
:1000C0006F0200086F0200086F0200086F0200084C
:1000D0006F0200086F02000875400008ED4000083C
:1000E0006F0200086F0200086F0200086F0200082C
:1000F0006F0200086F0200086F0200086F0200081C
:100100006F0200086F0200086F0200086F0200080B
:10011000E13E00086F0200086F0200086F0200084D
:100120006F0200087D2000086F0200086F020008BF
:100130006F0200086F0200086F0200086F020008DB
:10014000790B00086F0200086F0200086F020008B8
:10015000BD2000086F0200086F0200086D41000812
:100160006F0200086F0200086F0200086F020008AB
:100170006F0200086F0200086F0200086F0200089B
:100180006F0200086F020008DFF80CD000F048FA98
:10019000004800476D480008C03F01202A4B1968FD
:1001A0000868B0E8F04F80F30988BFF36F8F4FF015
:1001B000000080F3118870470000000006480068C6
:1001C000006880F3088862B661B6BFF34F8FBFF353
:1001D0006F8F00DF00BF00BF08ED00E0DFF80C000C
:1001E000016841F470010160704700BF88ED00E0D4
:1001F000EFF30980BFF36F8F134B1A681EF0100FD7
:1002000008BF20ED108A20E9F04F106008B44FF0CD
:10021000500080F31188BFF34F8FBFF36F8F05F04D
:10022000B7F94FF0000080F3118808BC196808681E
:10023000B0E8F04F1EF0100F08BFB0EC108A80F34A
:100240000988BFF36F8F70474C000020EFF30580E3
:10025000704700000648804706480047FEE7FEE773
:10026000FEE7FEE7FEE7FEE7FEE7FEE7FEE7FEE766
:10027000FD3A00088901000840EA01039B0703D00A
:1002800009E008C9121F08C0042AFAD203E011F8D5
:10029000013B00F8013B521EF9D27047D2B201E097
:1002A00000F8012B491EFBD270470022F6E710B57B
:1002B00013460A4604461946FFF7F0FF204610BDD4
:1002C0002DE9FE4F81EA030404F0004421F00041CF
:1002D00000944FF0000B23F0004350EA01045ED07D
:1002E00052EA03045BD0C3F30A54C1F30A552C4409
:1002F000A4F2F3340194A0FB0254C1F3130141F4BE
:100300008011C3F3130343F4801301FB024400FB89
:10031000034E840A970A44EA815447EA8357A4FBB0
:10032000076802958D0A05FB07854FEA932C04FBAD
:100330000C542705029D4FEA065847EA1637B5EBDD
:1003400008056EEB070C870E920E47EA811742EA0A
:100350008312A7FB0201B6EB0B0164EB00042B0D2B
:1003600043EA0C335E1844EB1C50DA465146E7FB77
:100370000201C5F313044FEA0B3343EA14534FEA67
:100380000432019C43EA0603A4F10C040294009C8D
:10039000CDE900B400F0F5F803B0BDE8F08F00201F
:1003A0000146F9E72DE9F04D81EA030404F0004B22
:1003B00021F0004514464FF0000A23F0004150EAB6
:1003C000050220D054EA01021DD0C5F30A570246A7
:1003D000C5F31303C1F31300C1F30A5640F48015AB
:1003E00043F48013A7EB0608101BD64608F2FD382D
:1003F00073EB050002D308F1010801E092185B419C
:10040000B8F1000F03DA00200146BDE8F08D0020AE
:100410004FF48011064684460EE0171B73EB050768
:1004200005D3121B63EB050306434CEA010C490894
:100430004FEA300092185B4150EA0107EDD152EAD1
:10044000030012D082EA040083EA0501084305D0C4
:10045000101BAB4106D20122002306E000224FF020
:10046000004302E06FF0010253101AEB06004CEB60
:10047000085110EB0A0041EB0B01BDE8F04D00F014
:1004800071B80EB5C10F80EAE0700844CA070021B8
:1004900040F233438DE80E000A460B4600F071F837
:1004A00003B000BD0EB540F2334102910021CDE909
:1004B00000110A460B4600F064F803B000BD01F0DD
:1004C000004330B421F0004150EA010206D00A0D89
:1004D000A2F56072C1F31301002A02DC30BC0020D7
:1004E0007047440F44EAC104C100E01830BC00EB7F
:1004F000C250AFF300800029A8BF7047401C4900DC
:1005000008BF20F00100704710B4B0FA80FC00FA78
:100510000CF050EA010404BF10BC704749B1CCF1A3
:10052000200421FA04F411FA0CF118BF012121432F
:100530000843A3EB0C01CB1D4FEA00614FEA1020EA
:1005400042BF002010BC704700EBC350104400298C
:10055000A4BF10BC7047401C490008BF20F0010038
:1005600010BC704710B5141E73F1000408DA401C6B
:1005700041F1000192185B411A4301D120F00100C2
:1005800010BD2DE9F04D92469B4611B1B1FA81F2B2
:1005900002E0B0FA80F22032904600F053F80446B0
:1005A0000F4640EA0A0041EA0B0153465A46084307
:1005B00013D0114653EA010019D0C8F14002504649
:1005C00000F04FF805460E4650465946424600F0A8
:1005D00039F8084305D0012004E020463946BDE83B
:1005E000F08D0020054346EAE0762C4337430A9815
:1005F0006305E40AA0EB08000022FD0A44EA475420
:100600000A3002D500200146E9E7010510196941C9
:10061000DDE9084500196941BDE8F04DA2E7000099
:10062000064C074D06E0E06840F0010394E807003F
:1006300098471034AC42F6D3FFF7AAFDC07000080B
:10064000E0700008202A04DB203A00FA02F10020C2
:1006500070479140C2F1200320FA03F31943904000
:100660007047202A04DB203A21FA02F0002170476B
:1006700021FA02F3D040C2F120029140084319460A
:100680007047000009498A681378AC2B02D1D379EE
:10069000CE2B02D0002101807047B2F801200280E9
:1006A0008868C2780A70007948707047C0000020DE
:1006B00010B503F009F9034C606003F0CFF8A060B7
:1006C00010BD0000C0000020FEE70000F0B585B0BE
:1006D00000244FF4007500958DF808408DF809400E
:1006E00008258DF80A50050A8DF80C00080A8DF8C7
:1006F0000D008DF80E10100A8DF80F008DF81020E7
:10070000180A8DF811000C4E8DF80B508DF8123030
:100710006946304600F040FD054640F6FF7701E0AF
:10072000641CA4B22946304600F088FD002801D19F
:10073000BC42F5D305B0F0BD00640040F0B585B013
:10074000002440F2FF1500958DF808408DF809400F
:1007500008258DF80A50050A8DF80C00080A8DF856
:100760000D008DF80E10100A8DF80F008DF8102076
:10077000180A8DF811000C4E8DF80B508DF81230C0
:100780006946304600F008FD054640F6FF7701E077
:10079000641CA4B22946304600F050FD002801D167
:1007A000BC42F5D305B0F0BD006400402DE9F04F28
:1007B0008BB08A4681461E46904601210820DDF80E
:1007C00050B002F04BFD0121480602F053FD324FBC
:1007D00009220021384601F0E2FE092201213846B3
:1007E00001F0DDFE02218DF82010032000248DF899
:1007F00022408DF82100079001258DF8235007A98C
:10080000384601F07BFE14208DF824008DF8255029
:100810008DF8275009A802F04FFA204F384600F013
:1008200017FB684600F0A8FC8DF806408DF80840DC
:100830008DF807408DF809408DF802B08DF80A4018
:100840008DF803908DF804A08DF80B508DF805807D
:10085000ADF800606946384600F0D2FB8DF81640CE
:100860008DF817408DF81850ADF80C40ADF81040D9
:10087000ADF80E40ADF81240ADF814408DF81950A7
:1008800003A800F0FBFA01220221384600F0B0FB79
:100890000BB0BDE8F08F0000000C02400064004087
:1008A00010B5594C86B00221204600F04DFB0028BF
:1008B0006CD00221204600F0E5F95449204600F0B2
:1008C000C9F96A460021204600F00EFC009A40F269
:1008D00005234F48A2F205219A426BD01DDC4C49FA
:1008E000A2F50072A1F11001013A2AD0012A3AD0F2
:1008F000022A4DD0032A49D19DF80C009DF80B2007
:1009000000EB022088819DF80E009DF80D2000EB81
:10091000022000B2C881953136E0012957D0032961
:1009200065D0062932D1BDF80B10394B49BA09B24E
:100930000181BDF80D20FA3352BA12B24281012072
:1009400052E09DF80C009DF80B2000EB022008807F
:100950009DF80E009DF80D2000EB022000B24880AB
:100960002B49103110E09DF80C009DF80B2000EB96
:10097000022088809DF80E009DF80D2000EB0220DB
:1009800000B2C8802249373100F05AFA06B010BDD3
:100990009DF80C009DF80B2000EB022008819DF8CB
:1009A0000E009DF80D2000EB022000B2488118498E
:1009B0005E31E9E7BDF80B10154B49BA09B2018069
:1009C000BDF80D20AC3352BA12B242800BE0BDF834
:1009D0000B100F4B49BA09B28180BDF80D20D333FB
:1009E00052BA12B2C280242000F088F9CEE7BDF8D6
:1009F0000B10084B49BA09B28181BDF80D2052BADB
:100A000012B2C281EFE7000000640040080000322B
:100A10004230012063310120F0B585B000248DF80B
:100A200008408DF8094008228DF80A208DF80C4006
:100A30008DF8100040F2FF218DF80D40020A104E93
:100A400000918DF80E408DF811408DF80B408DF817
:100A50000F208DF812406946304600F09DFB054698
:100A600040F6FF7701E0641CA4B22946304600F04E
:100A7000E5FB002801D1BC42F5D305B0F0BD000074
:100A8000006400402DE9F04F894682468BB09846BD
:100A900093460121022002F0E1FB0121880602F0C9
:100AA000E9FB334F09220521384601F078FD092280
:100AB0000621384601F073FD6020022607908DF86C
:100AC000206000248DF8224003208DF821000125AC
:100AD0008DF8235007A9384601F010FD40208DF80D
:100AE00024008DF825608DF8275009A802F0E4F85D
:100AF000204E304600F0ACF9684600F03DFB1498FB
:100B00008DF806408DF808408DF802008DF80740FA
:100B10008DF809408DF80A408DF803A08DF80490F7
:100B20008DF80B508DF805B0ADF800806946304661
:100B300000F066FA0E208DF816008DF817408DF83B
:100B40001850ADF80C40ADF81040ADF80E40ADF8BF
:100B50001240ADF814408DF8195003A800F08EF93A
:100B600001220221304600F043FA0BB0BDE8F08FBD
:100B7000000402400068004010B5174C86B0022106
:100B8000204600F0E1F9002824D00221204600F0A0
:100B900079F86A460021204600F0A6FA009811284C
:100BA00018D10E489DF80B1001709DF80C10417083
:100BB0009DF80D1081709DF80E10C1709DF80F10FA
:100BC00001719DF8101041719DF8111081719DF80F
:100BD0001210C17106B010BD00680040AC000020CA
:100BE000F0B585B0002400918DF808408DF80940DB
:100BF00008218DF80A1001788DF80B1041788DF8D6
:100C00000C1081788DF80D10C1788DF80E100179D7
:100C10008DF80F1041798DF8101081798DF8111031
:100C2000C0790B4E8DF812006946304600F0B4FAD8
:100C3000054640F6FF7701E0641CA4B22946304621
:100C400000F0FCFA002801D1BC42F5D305B0F0BD9C
:100C5000006800400A4A914202D100218161704738
:100C6000C1F313028B0101D5C26070474B0101D55E
:100C700002617047090101D5826070474260704788
:100C80007000F03030B5082310240422B1F5007F45
:100C90001DD010DC202929D007DC012921D004290E
:100CA00022D0082900D1C46030BD402920D0B1F540
:100CB000807FF9D10BE00025B1F5004F06D008DCAC
:100CC000B1F5806F03D0B1F5006FEDD18561426061
:100CD00030BDB1F5803F0DD0B1F5003FF8D1446093
:100CE00030BD0549816030BDC36030BD036130BD9A
:100CF000046130BD436030BD010101002DE9F047C2
:100D00001C462DED028B4FF40059A3F82320B3F8B5
:100D10002130D31AA4F82530A4F82120002200297C
:100D200001DD494502DD0223237500E02275A1F2B1
:100D3000D17341F28735AB4202D22270627034E047
:100D400041F6583C0126B4F90430A5684FF4FA681E
:100D5000614501DD267005E0414500DAA67027787F
:100D6000012F03D1414501DA66700EE0A778012F0B
:100D700002D1614500DDE6702678012E02D1667849
:100D8000012E02D0012F08D011E05B1CA38005F5D5
:100D90000055A5602270627009E0E678012E06D148
:100DA0005B1EA380A5F50055A560A270E270B4F9A2
:100DB0000430002B02DD01EB433307E002DBA568C2
:100DC0004D4505DD01EB4333A3F50053E36000E03F
:100DD000E160A3680546B3EB403F03DDA160E08816
:100DE000401C08E06D03002B0BDAA5F500556818D0
:100DF000A060E088401EE080A280BDEC028BBDE8D0
:100E0000F087E068FFF73DFB41EC180B2846FFF741
:100E100049FB41EC100B53EC102B9FED070B51ECF1
:100E2000100BFFF7BFFA53EC182BFFF749FAFFF747
:100E300046FBC4F81500E0E70000000000807640A3
:100E4000A1F8230031F8212F821A8A800880704788
:100E5000094910B588424FF0010101D14C0601E06B
:100E60004FF08064204602F011FA2046BDE81040A1
:100E7000002102F00BBA000000640040F0B5827A55
:100E8000012191402E4A136843F0010313602C4B5B
:100E90001C331C688C431C60294D067B294C0C3587
:100EA000A6B92E688E432E604688C78846EA074654
:100EB000877A04EBC707C7F840660688878846EA42
:100EC0000746877A04EBC707C7F84466067B012EFE
:100ED00012D12E680E432E60867A056804EBC60692
:100EE0004FEA3545C6F84056867A456804EBC60495
:100EF0004FEA3545C4F84456114CC57A241D002DDF
:100F0000256806D00D4325600D4C0589143415B1B4
:100F100004E08D43F7E725688D4325600589012DA1
:100F200002D125680D432560407B012802D1186855
:100F300008431860106820F001001060F0BD000048
:100F400000660040006000400246002053690B42EA
:100F50004AD0B1F5807F3BD013DC08292ED007DCC6
:100F6000012926D0022927D004293DD1D0682BE0C1
:100F7000102925D0202926D0402935D110691021EB
:100F800030E0B1F5004F2BD00BDCB1F5007F22D063
:100F9000B1F5806F22D0B1F5006F25D19069702135
:100FA00020E0B1F5803F11D0B1F5003F1CD1506871
:100FB000E5E790680D4915E0D06802E0D068DEE70B
:100FC000106903210EE0106908210BE05068FBE76F
:100FD0009069012106E09069022103E0906900E038
:100FE0005068042101F044B870470000010101007D
:100FF000002A426901D00A4300E08A4342617047F7
:1010000010B50368002223F002030360036843F075
:10101000010303604FF6FF7300E0521C4468E407CD
:1010200001D19A42F9D14268D2073ED08A79012A89
:1010300002683CD022F080020260CA79012A02686C
:1010400038D022F0400202600A7A012A026834D0C5
:1010500022F0200202604A7A012A026830D022F08F
:10106000100202608A7A012A02682CD022F008025B
:101070000260CA7A012A026828D022F004020260C3
:101080008A78CC78920742EA04620C7942EA0442F8
:101090004C79098842EA0452491E0A43C261016838
:1010A00021F001010160002114E0002010BD42F098
:1010B0008002C1E742F04002C5E742F02002C9E7E2
:1010C00042F01002CDE742F00802D1E742F00402FC
:1010D000D5E7491C4268D20701D09942F9D140684E
:1010E000C007E2D1012010BD10B500EB0113D3F809
:1010F000B04114F004041472D3F8B04134D0E408C1
:10110000C2F80440D3F8B04104F002045472D3F89A
:10111000B44104F00F049472D3F8B441240AD47497
:10112000D3F8B841D472D3F8B841240A1473D3F871
:10113000B841240C5473D3F8B841240E9473D3F8F7
:10114000BC41D473D3F8BC41240A1474D3F8BC4115
:10115000240C5474D3F8BC311B0E937439B101695B
:1011600041F02001016110BD640D1460CAE7C1683F
:1011700041F02001C16010BD00218171C171017277
:1011800041728172C1728170C170032101710221AB
:10119000417101210180704730B5024600209368FB
:1011A0005B0108D49068000101D5012003E090683C
:1011B000C00037D5022002EB0012D2F8803103F0D4
:1011C0000103C2F880310B7A73B3D2F880414D68C5
:1011D0001C434B7A43EAC5031C43C2F880418B7A17
:1011E00003F00F038B72D2F8843123F00F03C2F89F
:1011F0008431D2F884318C7A2343C2F88431CB7A9B
:10120000CC6843EA0423C2F88831CB7B096943EAFE
:101210000121C2F88C11D2F8801141F00101C2F80D
:10122000801130BD042030BDD2F880314C7A234388
:101230000C8843EA4453C2F88031D0E7002221B140
:10124000012905D0022906D112E08268114801E087
:101250008268114802401149501A8A4214D00ADCAF
:10126000A2B16FF0806010180FD002280CD10FE0EF
:1012700082680B48EEE7B0F5007F09D009494018B5
:1012800003D0B0F5003F03D0002070470220704724
:10129000012070470300000400030008000100085B
:1012A000000003100001FFF705489FED060A00212A
:1012B000D0F89E24B0EE401AF0EE400A104700002D
:1012C000BA340120000000000349024889688860A0
:1012D00070470000D12500087C3901202DE9F0413C
:1012E0008AB000257D490895099504460978284665
:1012F00041B17B49097829B16060C4F8B500C4F8F0
:10130000660128E0DFED770AB8EE002AB0EE600A49
:1013100011EE020ABDEEC00A10EE100A60609FEDE9
:10132000720AF0EE001AF0EE402A11EE020A41EEC7
:10133000612A41EE610ABDEEC00AFDEEE22A12EE1C
:10134000900AC4F8B50010EE100ABDEEE00AC4F829
:10135000660110EE100A08AEC4F81702E846B12084
:1013600005FB0047D7F8AC00B0F9230000EE100AE7
:101370007868F8EEC00A00EE100A07F10C00B8EE2B
:10138000C00A01F0E1FC08EB850080ED000AD7F807
:10139000AC00B0F8230026F815006D1CEDB2042D4A
:1013A000DDD3042108A802F03FF8050003D042F283
:1013B0002E20854208DC0098E0640198C4F8FD0006
:1013C0000298C4F8AE015FE0BDF9200090B103F0CF
:1013D0003FFA00EE100ADDED000AB8EEC00A60EE3A
:1013E000200A00EE105AB8EEC01A80EE810A10EE04
:1013F000100A00E00098E064BDF9220090B103F00B
:1014000027FA00EE100ADDED010AB8EEC00A60EE20
:10141000200A00EE105AB8EEC01A80EE810A10EED3
:10142000100A00E00198C4F8FD00BDF9240090B155
:1014300003F00EFA00EE100ADDED020AB8EEC00A63
:1014400060EE200A00EE105AB8EEC01A80EE810A53
:1014500010EE100A00E00298C4F8AE01BDF92600B3
:1014600090B103F0F5F900EE100ADDED030AB8EED5
:10147000C00A60EE200A00EE105AB8EEC01A80EEE4
:10148000810A10EE100A00E00398C4F85F0200EE33
:10149000100ABDEEC00A10EE100A03B2D4F8AE0175
:1014A00000EE100ABDEEC00A10EE100A02B2D4F827
:1014B000FD0000EE100ABDEEC00A10EE100A01B2E7
:1014C000E06CD4F87A4400EE100ABDEEC00A10EECB
:1014D000100A00B2A0470AB0BDE8F081C0000020A9
:1014E000C100002000401C450000FAC370B504464E
:1014F00038484AB2037903B9027190F904308B423B
:1015000004D00123C370002343810271037903B91E
:1015100002714FF4166211FB02F1C4F8791342898B
:10152000D4F82114521C12B242813C2A04DBD1F8B7
:1015300015200A610221C17090F9031004F281356F
:10154000022902D001291AD02AE0D4F82104D0F8C7
:101550001510006900EE901A00EE100A04F2D13066
:1015600001F0F2FBD4F82104B0F9230000EE100AD8
:10157000D4F81104F8EEC00A00EE100A0DE0D4F819
:101580002104B0F9230000EE100AD4F87903F8EE34
:10159000C00A00EE100AB8EEC00A284601F0D4FBDB
:1015A000D4F8C103002300EE100A1A46BDEEC00AAB
:1015B00010EE100A01B2D4F81003D4F87E4400EE05
:1015C000100AA446BDE87040BDEEC00A10EE100A35
:1015D00000B26047D40000202DE9F04F2848294A86
:1015E000A0F16401284FC860002048600A6088604C
:1015F0001031264EC1E901700E60BE460C31254FF8
:10160000DFF88CC00F60C1E901C0B3460C31234E36
:10161000DFF884800E60C1E901800C31204AC1E905
:101620000120204A0A600C311F4CC1E901401F4DC6
:1016300001F10C030D601F491D4A1960C3E9012027
:10164000A2460C33A9461D4C1B4D1C60C3E901503A
:10165000583B5F66C3E91AC0C3E92080C3E91E0690
:10166000C3E91CBE903307C307C3A3E8010607C341
:1016700007C343F84C09C3E90245BDE8F08F0000F9
:10168000E0390120C53A0008352D00081D2D00085D
:101690006D27000859270008A9460008954600084C
:1016A0000D390008F938000895270008812700083F
:1016B000C9120008A912000845380008413800087E
:1016C0002DE9F041B5EEC01A2DED028B86B0B0EEDB
:1016D000608AF0EE408A0025F1EE10FA044600958B
:1016E00001951AD1F5EEC08AF1EE10FA04D1B5EEEB
:1016F000C08AF1EE10FA10D0D4F82604D0F8900089
:1017000000EE100AF1EE400A9FED800A04F22A4032
:1017100001F01AFBB0EE401A04E0D4F8260450F8A9
:10172000881F416078EE880A78EEC81A6E460DF17F
:10173000080831EE600ABDEEC00A10EE103A31EE34
:10174000810A03EB83035B00BDEEC00A636010EE09
:10175000100A31EE610A00EB80004000BDEEC00AC5
:10176000C4F8B50010EE102A30EE810A02EB8200B8
:101770004000BDEEC00AC4F8660110EE101A01EB7D
:1017800081004000C4F81702B12005FB0047D7F8DC
:10179000AC00B0F9230000EE100A7868F8EEC00A39
:1017A00000EE100A07F10C00B8EEC00A01F0CCFA06
:1017B00008EB850080ED000AD7F8AC00B0F82300F4
:1017C00026F815006D1CEDB2042DDDD3042168460A
:1017D00001F02AFE050003D042F22E20854208DCEB
:1017E0000298E0640398C4F8FD000498C4F8AE01C0
:1017F0005FE0BDF9000090B103F02AF800EE100A96
:10180000DDED020AB8EEC00A60EE200A00EE105AC2
:10181000B8EEC01A80EE810A10EE100A00E00298BD
:10182000E064BDF9020090B103F012F800EE100A76
:10183000DDED030AB8EEC00A60EE200A00EE105A91
:10184000B8EEC01A80EE810A10EE100A00E003988C
:10185000C4F8FD00BDF9040090B102F0F9FF00EEFC
:10186000100ADDED040AB8EEC00A60EE200A00EEB0
:10187000105AB8EEC01A80EE810A10EE100A00E08D
:101880000498C4F8AE01BDF9060090B102F0E0FF83
:1018900000EE100ADDED050AB8EEC00A60EE200A7F
:1018A00000EE105AB8EEC01A80EE810A10EE100A4F
:1018B00000E00598C4F85F0200EE100ABDEEC00A11
:1018C00010EE100A03B2D4F8AE0100EE100ABDEE1D
:1018D000C00A10EE100A02B2D4F8FD0000EE100AA1
:1018E000BDEEC00A10EE100A01B2E06CD4F87A44E2
:1018F00000EE100ABDEEC00A10EE100A00B2A047BA
:1019000006B0BDEC028BBDE8F081000000000000D5
:1019100010B51A4C1848C4F892041948C4F8960433
:101920001848C4F89E041848C4F8A2041748C4F81C
:10193000A6041748C4F8B6041648C4F8AA04164802
:10194000C4F8AE041548C4F8B2041548C4F8BE047F
:101950001448C4F8BA0404F28A4401F0B1FF2060CC
:10196000E1680648884701F0A3FF6060A0688047EF
:10197000BDE81040FEF79CBED9150008BA3401201E
:1019800041450008C1160008AD1D0008B51A000841
:10199000E1190008DD120008051A0008ED1400081E
:1019A000B11C00088506000810B508210A4800F09F
:1019B00008FE0A49D1F88A04C26A01EE102AC269F7
:1019C000C06800EE902AD1F89E2400EE100ABDE80F
:1019D000104000210148104700080240BA3401209D
:1019E000002130B4C0F85F12C0F8AE11C0F8FD108D
:1019F000C164D0F87A440B46A44630BC0A46084677
:101A00006047000070B52A4A044648B2937803B98B
:101A1000907092F9025000238D4203D00125557039
:101A200013819070957805B990704FF4166011FB92
:101A300000F1C4F8C8121589D4F870036D1C2DB2DA
:101A4000B0F9230015813C2D01DB0225557092F978
:101A50000120022A02D0012A03D00EE0C4F810337C
:101A60000BE000EE100A04F53470F8EEC00A00EE48
:101A7000101AB8EEC00A01F067F9D4F8C1030023C8
:101A800000EE100A1A46BDEEC00A10EE100A01B2AE
:101A9000D4F81003D4F87E4400EE100AA446BDE842
:101AA0007040BDEEC00A10EE100A00B260470000A0
:101AB000D40000202DE9F0418AB0002504460895A5
:101AC000DFED7A1AB2EE042AF8EE002A20EE020ABE
:101AD000099508AEE846B0EE401A00EE820A00EE24
:101AE000C21AF0EE000AB0EE403AB0EE412A11EE12
:101AF000A23A01EEE02A11EEA21A01EEE00ABDEED2
:101B0000C33ABDEEC22ABDEEC11A13EE100ABDEEF5
:101B1000C00A606012EE100AC4F8B50011EE100A97
:101B2000C4F8660110EE100AC4F81702B12005FBD4
:101B30000047D7F8AC00B0F9230000EE100A78682F
:101B4000F8EEC00A00EE100A07F10C00B8EEC00A69
:101B500001F0FAF808EB850080ED000AD7F8AC0038
:101B6000B0F8230026F815006D1CEDB2042DDDD36E
:101B7000042108A801F058FC050003D042F22E20F1
:101B8000854208DC0098E0640198C4F8FD000298E2
:101B9000C4F8AE015FE0BDF9200090B102F058FE3C
:101BA00000EE100ADDED000AB8EEC00A60EE200A71
:101BB00000EE105AB8EEC01A80EE810A10EE100A3C
:101BC00000E00098E064BDF9220090B102F040FE10
:101BD00000EE100ADDED010AB8EEC00A60EE200A40
:101BE00000EE105AB8EEC01A80EE810A10EE100A0C
:101BF00000E00198C4F8FD00BDF9240090B102F0A6
:101C000027FE00EE100ADDED020AB8EEC00A60EE13
:101C1000200A00EE105AB8EEC01A80EE810A10EECB
:101C2000100A00E00298C4F8AE01BDF9260090B198
:101C300002F00EFE00EE100ADDED030AB8EEC00A57
:101C400060EE200A00EE105AB8EEC01A80EE810A4B
:101C500010EE100A00E00398C4F85F0200EE100ACC
:101C6000BDEEC00A10EE100A03B2D4F8AE0100EEC9
:101C7000100ABDEEC00A10EE100A02B2D4F8FD0040
:101C800000EE100ABDEEC00A10EE100A01B2E06CC0
:101C9000D4F87A4400EE100ABDEEC00A10EE100A25
:101CA00000B2A0470AB0BDE8F08100000000254462
:101CB00070B50446D0F826040D46D0F8900000EE2A
:101CC000100A04F22A40F1EE400A9FED2C0A01F0BE
:101CD0003BF8BDEEC00A10EE100A01B22848C180E0
:101CE0006818491B6060C4F8B510C4F86601C4F8F0
:101CF00017120025B12005FB0046D6F8AC00B0F95C
:101D0000230000EE100A7068F8EEC00A00EE100A18
:101D100006F10C00B8EEC00A01F016F810EE100A39
:101D20006D1CEDB2F064042DE4D3D4F85F0200EE34
:101D3000100ABDEEC00A10EE100A03B2D4F8AE01CC
:101D400000EE100ABDEEC00A10EE100A02B2D4F87E
:101D5000FD0000EE100ABDEEC00A10EE100A01B23E
:101D6000E06CD4F87A4400EE100AA446BDE8704056
:101D7000BDEEC00A10EE100A00B26047000000007D
:101D8000D4000020FFF7C4FD074C00BFD4F88A043C
:101D90000068C27A817AD4F88E0400F062FB0220D7
:101DA00003F0ACFAF2E70000BA3401202DE9F0416B
:101DB00000252DED048B8AB0044608950995D0F8CE
:101DC0002624A84EA849D2F89000B0EE418AF0EE41
:101DD000608AB0EE409A2B46B04200DB0B70A34BFA
:101DE000984201D301230B70B5EEC08AF1EE10FAD0
:101DF00015D10A7804F22A41012A01D02AB117E04C
:101E000000EE900AB3EE0E0A03E000EE900ABBEE7D
:101E10000E0A084600F098FFB0EE408A08E052F83B
:101E2000880F00EE100AB1EE400A10EE100A506062
:101E3000B5EEC09AF1EE10FA0DD0D4F82604D0F821
:101E4000900000EE100AB1EE400A02F047FC02F0EA
:101E50009DFC20EE099AF5EEC08AF1EE10FA0DD045
:101E6000D4F82604D0F8900000EE100AB1EE400A33
:101E700002F034FC02F08AFC60EE288AF2EE040ADA
:101E8000F8EE001A29EE200A08AEE846B0EE401A35
:101E900008EEA00A08EEE01AF0EE000AB0EE402AC2
:101EA00008EE600A18EE212ABDEEC00ABDEEC22A75
:101EB00012EE100AB0EE412A18EE211A08EE602A3E
:101EC0006060BDEEC11ABDEEC22A12EE100AC4F85F
:101ED000B50011EE100AC4F8660110EE100AC4F83D
:101EE0001702B12005FB0047D7F8AC00B0F923007A
:101EF00000EE100A7868F8EEC00A00EE100A07F14A
:101F00000C00B8EEC00A00F01FFF08EB850080ED62
:101F1000000AD7F8AC00B0F8230026F815006D1CB5
:101F2000EDB2042DDDD3042108A801F07DFA0500EF
:101F300003D042F22E20854208DC0098E06401982C
:101F4000C4F8FD000298C4F8AE015FE0BDF92000BE
:101F500090B102F07DFC00EE100ADDED000AB8EE53
:101F6000C00A60EE200A00EE105AB8EEC01A80EEE9
:101F7000810A10EE100A00E00098E064BDF922002A
:101F800090B102F065FC00EE100ADDED010AB8EE3A
:101F9000C00A60EE200A00EE105AB8EEC01A80EEB9
:101FA000810A10EE100A00E00198C4F8FD00BDF9A6
:101FB000240090B102F04CFC00EE100ADDED020AA4
:101FC000B8EEC00A60EE200A00EE105AB8EEC01A51
:101FD00080EE810A10EE100A00E00298C4F8AE010B
:101FE000BDF9260090B102F033FC00EE100ADDEDE1
:101FF000030AB8EEC00A60EE200A00EE105AB8EEEE
:10200000C01A80EE810A10EE100A00E00398C4F8AE
:102010005F0200EE100ABDEEC00A10EE100A03B215
:10202000D4F8AE0100EE100ABDEEC00A10EE100AA0
:1020300002B2D4F8FD0000EE100ABDEEC00A10EEA8
:10204000100A01B2E06CD4F87A4400EE100ABDEE3A
:10205000C00A10EE100A00B2A0470AB0BDEC048B13
:10206000BDE8F0810000C841D40000200000C8C1D4
:10207000024600200A4200D00120704770B50B4D87
:102080000B4C2946204600F00BF901280DD12946BA
:10209000204600F033F82946204600F045F8BDE818
:1020A00070400449044801F055B970BD0088001023
:1020B00028640240BB310120202F012070B50B4D58
:1020C0000B4C2946204600F0EBF801280DD129469B
:1020D000204600F013F82946204600F025F8BDE818
:1020E00070400449044801F035B970BD00880020F3
:1020F00088640240BB310120202F0120074A904212
:1021000001D2074801E005481038064A8B0001EA71
:10211000020101D5C16070478160704710640240C0
:10212000006002407D0F7D0F074A904201D20748B0
:1021300001E005481038064A8B0001EA020101D58A
:10214000C1607047816070471064024000600240C7
:102150007D0F7D0F0029016802D041F0010101E0EF
:1021600021F00101016070472DE9F043016821F081
:10217000010101600021016041608160C160016175
:10218000212141613C493C4A3D251039904202D110
:102190008D60BDE8F083384A4FF47466183290427F
:1021A00001D18E60F5E7344A4FF474173032904213
:1021B00001D18F60EDE7304A4FF0746C48329042A5
:1021C00002D1C1F808C0E4E72B4B2C4A6033984297
:1021D00001D1CA60DDE7284C294B7834A04201D1F7
:1021E000CB60D6E7DFF89080264C08F19008404598
:1021F00001D1CC60CDE7DFF880804FF03D5908F188
:10220000A808404502D1C1F80C90C2E71E49DFF88A
:1022100078800839404501D10D60BAE71A4D18356C
:10222000A84201D10E60B4E7174D3035A84201D164
:102230000F60AEE7144D4835A84202D1C1F800C086
:10224000A7E7114D10496035091FA84201D10A6066
:102250009FE70D4A7832904201D10B6099E70A4A14
:102260009032904201D10C6093E7074AA832904225
:102270008FD1C1F800908CE7106002403D00002033
:10228000400F002000003D20106402400146002065
:102290000968C90700D001207047406880B27047C4
:1022A0000246094B00209A4201D2084A01E0064A40
:1022B000103A8B0001D5526800E01268044B1A40B6
:1022C0000A4200D0012070471064024000600240C2
:1022D0007D0F7D0F0B0607D5436912B143F08003D4
:1022E00001E023F080034361802908D0002A0268BE
:1022F00001F01E0101D00A4300E08A4302607047EA
:1023000030B50368124ACC6813400A682243D1E909
:1023100005452C432243CC6922430C6A22434C6A74
:1023200022438C6A22434C6B22438C6B22431A4318
:102330000260426922F00703D1E90B2422431A43C9
:1023400042610A6942604A6882608968C16030BD42
:102350003F801CF04160704700B5024602F078FAF9
:10236000884200DA0022104600BD70472D4E2E4CE8
:102370002E4FDFF8BC804FF4A56500BFD6F88A0465
:102380000068B0F9001001F52571A94202D8218832
:10239000491C2180B0F9021001F52571A94202D82B
:1023A0002188491C2180B0F9061001F52571A94248
:1023B00002D82188491C2180B0F9041001F525714B
:1023C000A94202D82188491C2180B0F9081001F5E2
:1023D0002571A94202D82188491C218090F90A1050
:1023E000491E022902D82188491C218090F90B003E
:1023F000401E022802D82088401C20802088072800
:1024000003D100F08FF9002020801F21384600F012
:10241000DAF88021404600F0D6F8C82002F06EFFBE
:10242000ACE70000BA340120E200002000100240B6
:10243000000402400021C170817041700170816010
:10244000C1608180C1800161C0F81910C0F8151009
:1024500002220275A0F82510A0F82310A0F8211080
:10246000704710B50446002923D0032921D8002A3B
:102470001FD0032A1DD8E06801EBC10100EB8100E9
:1024800002EB42016FF02F0202EB81010144A160D7
:10249000D4E900209047012802D1A0680068804755
:1024A000A068606040688047A0688068BDE8104010
:1024B000004710BD002818D010EE101AB7EE001A11
:1024C0000160C26800EE101A00EE902A416820EE0A
:1024D000800A00EE902A31EE601A00EE901A01EEAA
:1024E000200A10EE101A81604160704710EE101A39
:1024F000C16000218160416001607047F0B5002338
:10250000012403270D6804FA03F21540954242D1D5
:10251000D0F800C05E0007FA06F52CEA050CC0F8FA
:1025200000C091F804C0D0F800E00CFA06FC4CEAB8
:102530000E0CC0F800C091F804C0BCF1010F02D02D
:10254000BCF1020F1FD1D0F808C02CEA050CC0F86E
:1025500008C091F805C0D0F808E00CFA06FC4CEA77
:102560000E0CC0F808C0D0F804C02CEA020CC0F869
:1025700004C0426891F806C00CFA03FC1FFA8CFCF8
:1025800042EA0C024260C268AA43C260CA79C568C6
:10259000B2402A43C2605B1C102BB3D3F0BD4B0783
:1025A000DB0E9A40C90810B500EB8100016A0F24C8
:1025B0009C40A1430162016A1143016210BD418345
:1025C00070470183704742694A404261704700008A
:1025D00010B501F0D5F906489FED060A0021D0F8A4
:1025E0009E24BDE81040B0EE401AF0EE400A1047BD
:1025F000BA3401200000000010B558B1084C491E43
:102600000BD310F8013B5340DBB234F8133083EAAC
:102610001222F4E74FF6FF7010BD104610BD000007
:102620006460000810B5054C04E000BF10F8013BE1
:102630005340E25C491EF9D2104610BD645F0008A9
:102640004FF4FA7002F05AFE044800F073FD03489C
:1026500000F0BAFC022002F051FEF8E74C3A0120EB
:10266000FEE70000F8B5194C174820621848606270
:102670001848E06118482060184860611848A06157
:10268000184820611848A06200F0AAFA606A8047E2
:1026900020688047206980470025009566690323EC
:1026A000072204212846B0470095A5690323072285
:1026B00004210020A847A26A01B04FF4FA71BDE8D6
:1026C000F040042010470000E12B0008E800002043
:1026D00021390008E13B0008613F0008AD07000810
:1026E000850A0008D53D0008FD26000802494CF681
:1026F000CC400860704700000030004070B50446D0
:102700000D4645F2555000F021F8204600F012F831
:10271000284600F015F800F005F8BDE87040FFF716
:10272000E5BF000002494AF6AA2008607047000091
:102730000030004001494860704700000030004010
:10274000014988607047000000300040014908607E
:1027500070470000003000400348D0F8260450F8CD
:10276000881F416070470000BA34012003490248C5
:102770008968886070470000A91900087C39012029
:102780000348D0F8260450F8881F416070470000C5
:10279000BA34012070B5474CD4F88A0490F865002B
:1027A000810907D010F0300F04D0810702D010F05B
:1027B0000C0F03D1D4F8B6143E488847D4F88A04E5
:1027C000012290F86510B2EB911F0DD1C16DD4F8C4
:1027D0009E2401EE101AC16CC06B00EE901A00EE40
:1027E000100A002133489047D4F88A0490F8651005
:1027F00001F0030101290CD1C16D01EE101AC16C69
:10280000C06B00EE901A00EE100AD4F8A614294806
:102810008847D4F88A0490F86510C1F38101012932
:1028200011D1C16D01EE101AC16CC06B00EE901A8F
:1028300000EE100AD4F8A2141E488847D4F82614D3
:1028400051F8880F4860D4F88A0490F86510C1F3F5
:10285000011101290CD1C16D01EE101AC16CC06BC0
:1028600000EE901A00EE100AD4F8AA141148884716
:10287000D4F88A04D4F8AE244FF0FF3590F86700FE
:10288000C00601D5294600E001210A489047D4F846
:102890008A04D4F8B22490F86700800601D501219B
:1028A00000E0294603489047044903488968886046
:1028B00070BD0000BA340120D94300087C390120E2
:1028C0002DE9F041C44C41F27072C2F1000521685B
:1028D00040F6B8334FEA6506B1F81D004FF0000727
:1028E0005FEAC07C08D05FEAC06C02D5A1F8132073
:1028F00010E0A1F813300DE05FEA807C08D55FEAB4
:10290000C06C02D5A1F8135004E0A1F8136001E0F7
:10291000A1F81370410708D5C106216802D5A1F8B6
:10292000155010E0A1F815600DE0010708D5C106AB
:10293000216802D5A1F8152005E0A1F8153002E0C4
:102940002168A1F815702168F1EE040A31F90D2F04
:1029500000EE102AB8EEC00A20EE200ABDEEC00A32
:1029600010EE102A8A81216831F90F2F00EE102A0B
:10297000B8EEC00A20EE200ABDEEC00A10EE102A02
:102980000A8141060AD5810694F8661002D521F025
:10299000010101E041F0010184F86610010616D53D
:1029A00094F8661021F00601891C21F018011031FD
:1029B00021F06001403184F8661094F8671021F02E
:1029C0000301891C21F00C01083184F86710C1054E
:1029D00020D5810694F8661021F0060101F104016A
:1029E00021F0180101F1100121F0600101F1400115
:1029F00084F8661094F8671021F0030104D5891C4F
:102A000021F00C01091D03E0491C21F00C010831E3
:102A100084F8671081050AD5810694F8671002D5FD
:102A200021F0100101E041F0100184F86710410528
:102A30000AD5810694F8671002D521F0200101E043
:102A400041F0200184F86710C1060FD594F8651095
:102A500021F0C001403121F03001203121F003018B
:102A6000891C21F00C01083184F8651001050FD58F
:102A700094F8651021F0C001803121F0300120313F
:102A800021F00301491C21F00C01083184F8651084
:102A9000C1040FD594F8651021F0C001803121F0F8
:102AA0003001203121F00301891C21F00C01091DA6
:102AB00084F8651081040FD594F8651021F0C001E9
:102AC000803121F03001103121F00301891C21F007
:102AD0000C01083184F86510410416D594F866108D
:102AE00021F00601091D21F01801083121F06001D3
:102AF000403184F8661094F8671021F00301891CB6
:102B000021F00C01083184F86710000416D594F800
:102B1000660020F00600001D20F01800103020F0A4
:102B20006000203084F8660094F8670020F003000D
:102B3000801C20F00C00083084F86700274D2068C6
:102B40006E422A46B0F91300314601F086FE216834
:102B50002A46A1F8130020683146B0F9150001F0AB
:102B60007CFE21682A46A1F8150020683146B0F99C
:102B7000170001F072FE21682A46A1F817002068AC
:102B80003146B0F9190001F068FE2168A1F819007A
:102B90002068B0F9130000EE100A0F48B8EEC00A22
:102BA0003430FFF787FC2068B0F9150000EE100AFA
:102BB0000948B8EEC00A4430FFF77CFC2068B0F941
:102BC0001900BDE8F04100EE100A0348B8EEC00A53
:102BD0005430FFF76FBC0000523401206CFDFFFF42
:102BE0007CB50121102000F039FB0121022000F00A
:102BF00035FB01208DF8040000218DF8061003211B
:102C00008DF805108DF807001F200D4C00906946C7
:102C10002046FFF773FC80200A4D00906946284645
:102C2000FFF76CFC07212046FFF7CBFC182120465C
:102C3000FFF7C5FC80212846FFF7C1FC7CBD0000E2
:102C40000010024000040240FEE7000010B50446F8
:102C50002DED028B00209FED168A60806070207041
:102C60006060A060B0EE482AF0EE481AB0EE481A54
:102C7000F0EE480AB0EE480A04F10C0000F002F948
:102C8000B0EE482AF0EE481AB0EE481AF0EE480AC4
:102C9000B0EE480A04F15C0000F0F4F854F8AC0F10
:102CA000FFF7C8FB0B202071BDEC028B10BD0000AC
:102CB000000000007047000030B50F22C478017892
:102CC0000123FCB1144C246801F1E02104F4E06418
:102CD000C4F5E064C4F30724C4F10405E240447879
:102CE000AC408578154025432A0181F800240078FE
:102CF00000F01F018B404009800000F1E020C0F887
:102D0000003130BD01F01F0083404809800000F110
:102D1000E020C0F8803130BD0CED00E00448002117
:102D2000C0F85F12C0F8AE11C0F8FD10C164704762
:102D3000BA3401200349024889688860704700005E
:102D4000513200087C39012010B500287ED010EEE9
:102D5000103A10EE901A036000EE103A00EE901A4E
:102D60004160C26930EE600A0262826910EE101A98
:102D7000C2618161436A00EE101A00EE903A30EEB3
:102D8000800A00EE902A10EE103A00EE101A43620C
:102D9000C46A046330EE600A846AC46210EE104AAA
:102DA00000EE101A8462C26800EE902A20EE800ABB
:102DB00010EE102A00EE103A4263016900EE901AFC
:102DC00020EE800A10EE101A00EE104A816343696B
:102DD00000EE903A20EE800A10EE103A00EE101A43
:102DE000C363816C00EE901AB4EEE00AF1EE10FAC3
:102DF00000DB8163846B00EE101A00EE904AB1EEA6
:102E0000400AF4EEC00AF1EE10FA06D800EE101AED
:102E1000B1EE400A10EE101A8163816B00EE102AA9
:102E200000EE901A70EE200A00EE103A30EE800AA2
:102E300010EE101A0164406C00EE101A00EE900AB9
:102E4000B4EEE00AF1EE10FA07DB00E002E000EE7B
:102E5000100A10BD9FED0A0A10BD00EE900A00EEA8
:102E6000101AF1EE600AB4EEE00AF1EE10FA04D89E
:102E700000EE100AB1EE400A10BD00EE101A10BDAF
:102E80000000000000281DD010EE101AC16010EEE6
:102E9000901A016111EE101A416111EE901A8164CD
:102EA00012EE101A416400218161C16101628162E8
:102EB000C162016341628160416001600164C1637C
:102EC00081634163704700002DE9F041374C0746AC
:102ED0002DED028B00259FED348AD4F88C605CE0E8
:102EE000605D552857D16019C17A552953D1817D2C
:102EF000552950D1C07D53284DD105F116002044ED
:102F00008178C2784379114402791A441144827954
:102F10001144C2791144027A1144427A1144A83111
:102F2000827AC9B28A423AD1C088FDF7BBFA9FEDD6
:102F3000201B53EC112BFDF7C3F99FED1F1B53EC26
:102F4000112BFDF7BDF9FDF7BAFA00EE100A00EEFD
:102F5000906A1B4AC4F8880030EE600A10EE101A1E
:102F6000C4F89010914204DD00EE100A70EE480A99
:102F700006E0144A91420BD900EE100A70EE080ADE
:102F800000EE106A30EEC00A10EE100AC4F890008D
:102F9000012084F894006D1CEDB2BD42A0D3BDECBD
:102FA000028BBDE8F08100000000B443193201201B
:102FB000000000000000003F0000000000806640AC
:102FC00000009643000096C370B504462DED028BB9
:102FD000D0F862010168C97E9FED538A49B1D4F8E7
:102FE000B91000EE101A30EE480A10EE101AC4F8AC
:102FF000B9100068007F0028D4F8B90007D000EEAF
:10300000100A30EE080A10EE100AC4F8B90000EEFB
:10301000100AD4F85D01D0F8150000EE900A30EEE9
:10302000600ADFED420A04F20D10FFF78DFED4F8BE
:103030005D01B0F9230000EE100AD4F84D01F8EE5E
:10304000C00A00EE100A04F1BD00FFF77DFED4F8BF
:1030500062010068B0F90F0010B300EE900A9FED16
:10306000341AA168F8EEE00A00EE101A6FF01D02A3
:103070001E2160EE810A00EEC80A10EE100AA06060
:1030800000EE100ABDEEC00A10EE100A00B201F008
:10309000E4FB00EE100AB8EEC00A10EE100AA060C1
:1030A000D4F8AC00D0F8150000EE900AA06800EE4D
:1030B000100A04F15C00FFF747FED4F8AC00B0F949
:1030C000230000EE100AD4F89C00F8EEC00A00EECF
:1030D000100A04F10C00FFF737FEE06CD4F86651DB
:1030E00000EE100A0021BDEEC00A10EE100A03B275
:1030F000D4F8FD0000EE100ABDEEC00A10EE100A72
:1031000002B20846A847D4F8FD00D4F86A1100EED0
:10311000100ABDEC028BBDEEC00ABDE8704010EE97
:10312000100A00B2084700009A99193F00000000F9
:103130000AD7233C10B504462DED028B3E48C4F857
:1031400066013E48C4F86A012046FFF77FFD04F19E
:10315000B100FFF77BFD00F0B3FBC4F8620108206B
:1031600000F080FBC4F8AC00072000F07BFB9FED73
:10317000348AC4F85D0108202070B0EE482AF0EED1
:10318000481AB0EE481AF0EE480AB3EE040A04F109
:103190005C00FFF777FEB0EE482AF0EE481AB0EE7A
:1031A000481AF0EE480AB1EE000A04F10C00FFF7ED
:1031B00069FED4F8AC00B0EE482AF0EE481A50F898
:1031C000151FA16001684160D4F8AC00B0EE481A48
:1031D000F0EE480AD0F81510016113206080072036
:1031E00084F8B1009FED170A04F20D10FFF74AFEB4
:1031F000B0EE482AF0EE481A9FED131AF0EE480A96
:10320000B0EE080A04F1BD00FFF73CFED4F85D0102
:1032100050F8151FC4F8B91001684160D4F85D0179
:10322000D0F8151001610120A4F8B3000748C4F8D4
:10323000B900BDEC028B10BD3D070008190A00085B
:1032400000000000000070420AD7233C0080804349
:103250000148D0F8B6140847BA340120044A0029BE
:10326000116801D0014300E0814311607047000004
:1032700030380240044A0029116801D0014300E0BF
:10328000814311607047000040380240044A002921
:10329000116801D0014300E08143116070470000D4
:1032A00020380240044A0029116801D0014300E09F
:1032B000814311607047000044380240044A0029ED
:1032C000116801D0014300E08143116070470000A4
:1032D0002438024030B51C4A11681C4B11F00C0117
:1032E00003D0042901D0082901D0036013E0164956
:1032F000091F0C680C6804F03F04B3FBF4F30C687E
:103300000968C4F388146343C1F30141491C4900AF
:10331000B3FBF1F1016011680F2303EA11110C4BAB
:103320005C5C0168E14041601468072505EA94246B
:103330001C5D21FA04F48460126805EA52329A5C3A
:10334000D140C16030BD00000838024040787D01A6
:1033500014000020F0B5002863D0002961D0314866
:103360000278437842EA0322C2F30A020A804378D1
:103370008478DB0843EA4413C3F30A034B80847860
:10338000C578A40944EA8504057944EA8524C4F390
:103390000A048C80057946796D0845EAC615C5F39F
:1033A0000A05CD804679B6098E724679C6F30116B4
:1033B000CE72067C477C46EA0726C6F30A060E81D3
:1033C0008679C77946EA0726A1F80D60067A477A1A
:1033D00046EA0726A1F80F60867AC77A46EA0726EA
:1033E000A1F81160067BCE76467B0E77867BC77B85
:1033F00046EA0726A1F81D60067C407CA2F58062A3
:103400000A80A3F580634B80A4F5806446EA00201F
:103410008C80A5F58065CD80A0F5806008810120B5
:103420000873F0BD202F012010B50346B0F900004D
:1034300001F00EFA044601200B4A0EE033F91000A9
:1034400001F006FAA04206DDB2F9000033F91000DF
:1034500001F0FEF904461088401C108000B288423A
:10346000ECDB204610BD0000E400002010B504464F
:1034700000200A182318401CA25CC0B283F8072160
:103480001628F6D31B2104F5807001F027F80128D7
:1034900003D0012084F87B0110BD94F8070184F863
:1034A000690194F8080184F86A01B4F80901A4F8E4
:1034B0006B01B4F80B01A4F86D01B4F80D01A4F888
:1034C0006F01B4F80F01A4F87101B4F81101A4F868
:1034D0007301B4F81301A4F8750194F8150184F888
:1034E000770194F8160184F8780194F8170184F8AC
:1034F000790194F8181194F87A014A0861F30000F0
:1035000062F34100890861F3820084F87A010020A7
:10351000C0E7000010B51D4C0A212068B0F900007A
:10352000FEF71AFF2168088020680A21B0F902001E
:10353000FEF712FF2168488020680A21B0F90400D4
:10354000FEF70AFF216888802068B0F9020000EECB
:10355000100A201DB8EEC00AFEF7ACFF2068B0F9D3
:10356000000000EE100A04F11400B8EEC00AFEF7E5
:10357000A1FF2068B0F9040000EE100A04F1240055
:10358000BDE81040B8EEC00AFEF794BF52340120E7
:103590002DE9F041002504462E4601277FE0605DBD
:1035A000A5287AD10521204600F0B6FF012874D164
:1035B000601930F8011FA4F82F118088A4F8310198
:1035C000002041192218401C615CC0B282F8001131
:1035D0000728F6D3B4F9310101281ED003285CD0A6
:1035E00004285AD0A0F58071013956D0B0F5817FFA
:1035F00053D0A0F5807105394FD0A0F50071013985
:1036000004D0A0F50071023930D046E0E81DC1B207
:103610002046FFF72BFF1A353EE0E81DC1B200201F
:103620000B182218401CE35CC0B282F8073107284F
:10363000F6D30C2104F5807000F050FF012803D070
:1036400084F837710B3527E094F8070194F83411AA
:1036500060F30301000960F3071184F83411B4F832
:103660000811A4F8351184F83761EBE7E81DC1B201
:1036700000200B182218401CE35CC0B282F807310E
:103680001428F6D3192104F5807000F027FF0128D3
:103690000FD084F88C711835EDB26D1CEDB2B4F911
:1036A0002D01A8423FF77BAF184880F83361BDE891
:1036B000F081B4F80711A4F87C11B4F80911A4F84A
:1036C0007E1194F80B11204661F3070094F80C1159
:1036D00061F30F2094F80D1161F3174094F80E1167
:1036E00061F31F60C4F88001B4F80F11A4F88411CD
:1036F000B4F81111A4F88611B4F81311A4F88811C4
:10370000B4F81511A4F88A11C5E70000AE32012003
:1037100070B50E4C0E4D2068297890F90A00884249
:1037200001D000F051F82068017B39B1807A03287C
:1037300008D0FFF7EFFE2168002008732068807A28
:10374000287070BDFFF7BCF8F5E700005234012087
:10375000E000002010B52DED028B00F035F8184C7C
:1037600002209FED188A2168B0EE480AC8722168CD
:103770008872201DFEF7BAFEB0EE480A04F114006C
:10378000FEF7B4FEB0EE480A04F12400FEF7AEFEE8
:10379000B0EE480A04F13400FEF7A8FEB0EE480A85
:1037A00004F14400FEF7A2FEB0EE480A04F1540012
:1037B000FEF79CFE00F088F82060BDEC028B10BD87
:1037C000523401200AD7A33D184800210268D18055
:1037D000026891800268518002681180026811734A
:1037E000026811810268A2F811100268A2F80F1095
:1037F0000268A2F80D10026811770268D17602689B
:10380000A2F81D1090F8651021F0FF0180F86510F6
:1038100090F8661021F07F0180F8661090F867102C
:1038200021F00F0180F8671070470000523401202A
:10383000FFF790FFFFF76CFF022001F05FFDF9E753
:10384000704700000349024889688860704700009B
:10385000593800087C390120704700000048704743
:10386000AC00002009281CD2DFE800F01B05070A85
:103870000D10131619000C4870470B48273070477D
:1038800009484E30704708487530704706489C30EC
:1038900070470548C33070470348EA307047034813
:1038A0007047002070470000523001206331012032
:1038B000004870477C3901200048704719320120C8
:1038C000004870475234012000487047BB31012046
:1038D00007499FED081AD1F88A04D1F8A614C269E5
:1038E000C06800EE902A00EE100A01480847000068
:1038F000BA340120000000000348D0F8260450F834
:10390000881F416070470000BA3401200349024813
:103910008968886070470000D13800087C39012030
:103920001CB501210420FFF799FC01208DF804004B
:1039300000208DF8060003218DF805108DF8070092
:103940000820009069460248FEF7D8FD1CBD000023
:1039500000080240F0B4094CDDE904560A2727703C
:103960006070A170E27023716571A671CE20E07164
:103970002046F0BC40F20341FDF732B9CC000020F4
:1039800070B51A4D05F10C04686801782170018842
:10399000090A61708178A1704188090AE170017992
:1039A00021718188090A61718179A171C08840F211
:1039B0000141000AE0712046FDF712F968680189AB
:1039C0002170090A6170817AA170C17AE170B0F842
:1039D0001D002071000A60710020A071E071204676
:1039E000BDE8704040F20241FDF7FAB8C000002087
:1039F0000CB500202749019000900A6842F48032FB
:103A00000A604FF4A0430A6802F400320092019A5F
:103A1000521C0192009A12B9019A9A42F3D10A6893
:103A2000920334D5012000901A484030026842F0D9
:103A3000805202601848026842F440420260154811
:103A4000083002680260026842F4004202600268C4
:103A500042F4A0520260031F104A1A600A6842F042
:103A600080720A600A689201FCD50D4A40F2057125
:103A70001160016821F003010160016841F0020159
:103A800001600168C1F381010229FAD10CBD0090E7
:103A90000CBD00000038024000700040195440077F
:103AA000003C024010B501F057FB00F041F904481A
:103AB000006801F049FCBDE8104001F06DBB00005A
:103AC00000000020884201D001207047002070478C
:103AD00010B5502080F31188BFF34F8FBFF36F8F65
:103AE00002F09CF818B104494FF0805008600020A3
:103AF00080F3118810BD000004ED00E0124810B5FD
:103B0000016841F4700101601048016841F0010151
:103B100001600E4A00210832116002680C4B1A4005
:103B20000260031D0B4A1A60026822F480220260C0
:103B300006480C300160FFF75BFF03494FF000605F
:103B40008039086010BD000088ED00E000380240B8
:103B5000FFFFF6FE1030002410B51E4C0121204658
:103B600000F079F801282FD11B494888401C00B289
:103B70004880B0F57A7F0EDB08784042087000205C
:103B800048808A88521C12B28A803C2A03DBCA8889
:103B9000521CCA80888091F90000104A012802D086
:103BA000401C0DD010E0B1F90200502190FBF1F360
:103BB00001FB130040B980211046FEF704FD03E02D
:103BC00080211046FEF7FDFC2046BDE81040012193
:103BD00000F034B800040040B4000020001002409F
:103BE0007FB50C46054601210220FFF743FB641E0A
:103BF0006D1E00200194ADF800500F4CADF802008E
:103C0000ADF808006946204600F03AF81D208DF80E
:103C10000C0008208DF80D0001208DF80F0003A87E
:103C2000FFF74AF801221146204600F020F8012152
:103C3000204600F006F87FBD00040040C943018221
:103C400070470029018802D041F0010101E021F014
:103C500001010180704702460020138A92890B42BD
:103C600002EA010202D0002A00D001207047002A97
:103C7000828901D00A4300E08A43828170470000B4
:103C800030B50288164B174C98420DD0A0420BD08D
:103C9000B0F1804F08D0144DA84205D0134DA84272
:103CA00002D0134DA84203D122F070054A882A435E
:103CB000104DA84206D0104DA84203D022F4407502
:103CC0000A892A4302804A68C2620A8802859842A9
:103CD00001D0A04201D1897A01860121818230BDC3
:103CE00000000140000401400004004000080040C2
:103CF000000C0040001000400014004000F07F0263
:103D000000EE102A9FED081A0006F8EE400A00EEB9
:103D1000101AB8EE400A00EE810A03D5DFED030A5F
:103D200030EE600A7047000000008043000000474A
:103D30001CB5082015494401CDE9000100232246A5
:103D400013A1164801F02AFF10490620091FCDE9EA
:103D500000010023224612A1154801F01FFF0B4964
:103D60000720091DCDE900010023224611A11448B6
:103D700001F014FF05490B200831CDE900010023B3
:103D8000224610A1124801F009FF1CBD08000020C6
:103D900052656D6F74655F5461736B003138000854
:103DA000436861737369735F5461736B0000000053
:103DB000851D000847696D62616C5F5461736B001B
:103DC000412600084465746563745F5461736B0039
:103DD0006D23000870B596B001213C48FFF73EFA0C
:103DE0000121C804FFF746FA394E08220A2130465D
:103DF000FEF7D5FB08220B213046FEF7D0FB02214F
:103E00008DF8501000248DF852404FF440608DF82A
:103E10005110139001258DF8535013A93046FEF729
:103E20006DFB2C4E304600F0F3F94FF4E1300F906B
:103E3000ADF844400C20ADF84040ADF84600ADF878
:103E40004240ADF848400FA9304600F06FFA3420E8
:103E50008DF854008DF8575006208DF8550015A8A0
:103E6000FEF72AFF012240F22441304600F045FAD5
:103E70000121304600F0BAF9174D2846FEF774F9D3
:103E800068050090301D01901448CDE902044020DF
:103E9000CDE904040001CDE906048010CDE9084015
:103EA0004FF44030CDE90A040C940D94694628463D
:103EB0000E94FEF725FA01212846FEF74BF9012260
:103EC0004021304600F09CF916B070BD040020007F
:103ED00000080240004C004040600240F22F0120E8
:103EE00070B51B4D40F22441284600F0E7F9002848
:103EF0002DD0184C00212046FEF72CF92046FEF765
:103F0000C5F90028FAD128881148001D00881148F9
:103F10004830FEF7C2F9C0F14000C0B200210E4A9D
:103F20000E4B03E05D5C5554491C89B28142F9D3C4
:103F3000022182F89410FEF7C7FF40212046FEF7C9
:103F400009FA2046BDE870400121FEF703B970BDB3
:103F5000004C00404060024019320120F22F012045
:103F600070B596B001213D48FFF778F90121102086
:103F7000FFF798F93A4E07220A213046FEF70FFB69
:103F800002208DF8500000248DF8524003208DF857
:103F90005100351513958DF8534013A93046FEF79F
:103FA000ADFA304E304600F033F92F480F90ADF89F
:103FB00044500420ADF84040ADF84600ADF8424012
:103FC000ADF848400FA9304600F0B0F90121304665
:103FD00000F00CF901224021304600F011F9442094
:103FE0008DF854008DF8554001208DF8570015A824
:103FF000FEF762FE1D4E00213046FEF7ABF830683A
:10400000C007FCD13046FEF7AFF84FF000600090DB
:10401000144804A9001D01901548CDE9020412209E
:1040200081E831004FF48070CDE908404FF4403012
:10403000CDE90A0407940C940D94694630460E9419
:10404000FEF75EF9012210213046FEF743F9012107
:104050003046FEF77FF816B070BD0000010040004A
:104060000000024000100140A08601008864024068
:10407000202F012070B5194D40F22441284600F050
:104080001DF9002829D0164C00212046FEF762F8C1
:104090002046FEF7FBF80028FAD128880F48001DBB
:1040A00000882046FEF7F9F8C0F11900C0B20021DF
:1040B0000C4A0D4B03E0555C5D54491C89B28142AA
:1040C000F9D319212046FEF745F901212046FEF7D4
:1040D00041F8BDE8704000F061BB70BD0044004095
:1040E00088600240392F0120A231012070B51B4D9C
:1040F00040F22441284600F0E1F800282CD0184C6A
:1041000000212046FEF726F82046FEF7BFF80028DB
:10411000FAD128881148001D00882046FEF7BDF816
:104120004042104DC0B20021A5F801000E4B05F130
:104130001F0203E05E5C5654491C89B28142F9D3E8
:1041400000F068F920212046FEF704F901212046FD
:10415000FEF700F80120287070BD00000048004004
:1041600028600240DA310120D22F012070B51B4CAB
:1041700040F22441204600F0A1F800282DD0184D2F
:1041800000212846FDF7E6FF2846FEF77FF80028C5
:10419000FAD120881148001D00882846FEF77DF8D6
:1041A000C0F180000F4C82B20021A4F82D210E48EE
:1041B00003E0435C6354491C89B29142F9D3094836
:1041C000FFF7E6F980212846FEF7C4F801212846CA
:1041D000FDF7C0FF012084F8330170BD00140140D9
:1041E00028640240AE320120522F0120002981892B
:1041F00002D041F4005101E021F400518181704767
:10420000002A828A01D00A4300E08A4382827047F2
:10421000224910B5884206D101211020FFF74EF83F
:104220000021102020E01E49884202D101214C04C7
:1042300029E01C49884202D101218C0423E01A495B
:10424000884202D10121CC041DE01849884202D1E4
:1042500001210C0517E01649884209D101212020CF
:10426000FFF72CF800212020BDE81040FFF726B80A
:104270001049884202D101218C0704E00E4988428E
:104280000AD1012144052046FFF700F82046BDE889
:1042900010400021FEF7FABF10BD000000100140E1
:1042A0000044004000480040004C004000500040E6
:1042B0000014014000780040007C004030B501F05F
:1042C0001F0201240025C1F3421304FA02F2012B5C
:1042D0000FD0022B0FD0838A4FEA1121008813429E
:1042E00004FA01F400EA040001D000B101252846D7
:1042F00030BD8389F0E7038AEEE710B5C1F34213BE
:1043000001F01F040121A140012B07D0022B07D08F
:104310001430002A026805D00A4304E00C30F8E7A4
:104320001030F6E78A43026010BD00007FB50446F6
:10433000008A0D4620F44051E88808432082A08975
:1043400041F20C618843A9882A8911436A89024392
:104350001143A181A08A20F44071A8890843A0825A
:104360006846FEF7B7FF1A48844202D019488442D3
:1043700001D1039800E00298A189090400EBC00173
:1043800001EB0010296801D5490000E08900B0FB6D
:10439000F1F26420B2FBF0F109010B096FF018058E
:1043A0006B4302EB8302A3891D044FF0320306D551
:1043B00003EBC202B2FBF0F000F0070005E003EBF4
:1043C0000212B2FBF0F000F00F00084320817FBD25
:1043D00000100140001401401CB50C48D0F88A04BC
:1043E00090F86710C1F3810201F00301CDE90012DA
:1043F00090F86600C0F34113C0F3C102C0F341015D
:1044000000F00100FFF7A6FA1CBD0000BA3401203D
:10441000FEE700002DE9F0412E4D2DED028B2878AE
:10442000012850D1002405F11F0748E0385DFF281E
:1044300043D13E19F079FE283FD17178B078FFF76B
:104440005DFC9FED258AC0EE080A10EE900AC5F8C3
:104450000700F1783079ED1CFFF750FCC0EE080A38
:1044600010EE900A28607179B079FFF747FCC0EE32
:10447000080AE41DA4B210EE900AA861686855F815
:10448000141F00EE100A00EE901A30EE600A10EED3
:10449000101A45F8081C55F8141C55F8042C00EEA9
:1044A000101A00EE902A30EE600A10EE102A45F83D
:1044B0000C2C45F8041C45F81709641CA4B2B5F887
:1044C0000100A042B2D800202870BDEC028BBDE8EC
:1044D000F0810000DA3101200000C84230B50C46FE
:1044E000050014D0022C12D90A48A11E02882846C1
:1044F000FEF782F82919C2B211F8023C9A4206D19D
:1045000011F8011CB1EB102F01D1012030BD0020AA
:1045100030BD0000BC00002030B50C4605000CD0BA
:10452000022C0AD9FF22611EFEF77CF8291911F826
:10453000011C814201D1012030BD002030BD0000AE
:104540002DE9F04704462DED028B92B0002548225C
:104550003C496846FBF790FE3B48C4F87E043B4864
:10456000C4F87A043A48C4F882043A489FED3A8A7B
:10457000DFED3A8AC4F88604E9464FF0130AB12108
:1045800005FB01F808EB04063046FEF75FFB6F1CE5
:10459000FAB204F80820D4F8821410468847C6F806
:1045A000AC0005EB450109EB8100B0EE482A90EC28
:1045B000030A06F10C00F0EE681AFEF763FCFDB288
:1045C000A6F802A0062DDAD3B0EE482A24209FEDEB
:1045D000248AA4F8C602A4F87703F0EE681AB7EEAE
:1045E000001AF0EE480AB2EE040A04F2D130FEF7E7
:1045F00049FCD4F8210450F8151F4160C4F87D131C
:10460000D4F82114D1F815000861D4F8210450F829
:10461000151F8160D4F886048047C4F826049FEDF6
:10462000112AF0EE481AB2EE041AF0EE480A9FED95
:104630000E0A04F22A40FEF725FC12B0BDEC028BF4
:10464000BDE8F087646200083D070008CD06000859
:1046500065380008B938000800007A4600606A46EC
:1046600000000000000025440000204207499FEDA3
:10467000081AD1F88A04D1F8A214C269C06800EE01
:10468000902A00EE100A014808470000BA340120C1
:10469000000000000348D0F8260450F8881F41604D
:1046A00070470000BA3401200349024889688860D5
:1046B000704700006D4600087C39012002E008C800
:1046C000121F08C1002AFAD170477047002001E08C
:1046D00001C1121F002AFBD17047000010B52DED5B
:1046E000028B00F053F8DFED230AB5EEC00AF2EEBC
:1046F000048AF1EE10FA204C15DB10EE100A1F4967
:10470000884210DA30EEC00A00F040F820EE280AA5
:10471000DFED1B0ABDEEC00A10EE100A04EB8000AC
:1047200090ED000A17E010EE100A144949420844BF
:10473000B0F5000F12D230EE600A00F027F820EE3C
:10474000280ADFED100ABDEEC00A10EE100A04EBD5
:10475000800090ED000A80EE208A06E010EE100A3C
:104760000949884201D1BFEE008AB0EE480ABDEC8B
:10477000028B10BD0000B442AC6200080000B442DD
:104780000000C8420000C8C200003443B5EEC00AB1
:10479000F1EE10FA01D2B1EE400A70472A480178D2
:1047A000FE294FD1417BEE294CD130F8011F49BA87
:1047B00009B200EE101A2449B8EEC01A9FED230A80
:1047C0001839C1EE000A10EE902A0A60428852BAE7
:1047D00012B200EE902AB8EEE01AC1EE000A10EE16
:1047E000902A4A60828852BA12B200EE902AB8EE3D
:1047F000E01AC1EE000A10EE902A8A60C28852BA0E
:1048000012B200EE902AB8EEE01AC1EE000A10EEE5
:10481000902A0A61028952BA12B200EE902AB8EECA
:10482000E01AC1EE000A10EE902ACA60408940BA30
:1048300000B200EE900AB8EEE01AC1EE000A10EEE7
:10484000900A486170470000A23101200000C84270
:10485000002801DA404200B27047884201DD084674
:1048600070479042FCDA1046704700001CB5FDF717
:10487000F9FE07490120CDE900010202002305A14C
:10488000074801F08BF900F043FE00201CBD00003A
:104890000000002053746172745F5461736B0000F8
:1048A000A53A00082DE9F041184C0F460546E66888
:1048B0002068001D00F00CFC38B9206890F82C101E
:1048C00001208840216981432161681C07D137B1EB
:1048D0002168BDE8F0410E48091D00F031BC206898
:1048E0003544B5424560216805D2A06BBDE8F04172
:1048F000091D00F00DBC606B091D00F009FCA06AE9
:10490000854200D2A562BDE8F08100004C00002085
:10491000CC0200202DE9F041054600F01DFC2D4C95
:10492000A068401CA06020682B4F10B1606930B3B4
:104930002BE02560A068012827D1002606EB860021
:1049400007EB800000F0D6FB761C102EF6D3234830
:1049500000F0D0FB2148143000F0CCFB1F48283079
:1049600000F0C8FB1D483C3000F0C4FB1B48503031
:1049700000F0C0FB194860631430A06305E02068B4
:10498000E96AC06A884200D82560606A401C60629B
:104990002864E96A0120226988401043206101EB04
:1049A000810007EB8000291D00F0CAFB00F0F4FB3A
:1049B000606900280CD02068E96AC06A884207D282
:1049C00007494FF080500860BFF34F8FBFF36F8FE0
:1049D000BDE8F0814C0000203C0100207C0200205A
:1049E00004ED00E010B500F0B7FB0E4C2068A0B954
:1049F0000D4800F07FFB0C48143000F07BFB0A48A8
:104A0000E0601430206100220C210A2000F05EFEDC
:104A1000206010B105A100F03BFCBDE8104000F0A3
:104A2000BBBB00003800002014010020546D7251FF
:104A30000000000070B5114E114C17E000F0A0FD11
:104A40003068B8B101F0D6F900F086FBF068C568AF
:104A5000281D00F03DFBA068401EA0606068401E5D
:104A6000606000F099FB284600F055F86068002867
:104A7000E4D170BD01F0BEF9F8E70000B8020020F3
:104A80004C00002030B4026C0B46002A0BD0C168E9
:104A90001144C1604468A14201D30168C16030BCC7
:104AA0001846FBF7E9BB30BC70472DE9F041856B38
:104AB000174604460026026C82B1C7B1E068FBF7D6
:104AC000DBFBE168206C091AE1602268914202D2A6
:104AD0006168081AE060022F16D017E02068A8B9B4
:104AE000606801F0FFF80646002060600EE0A068F4
:104AF000FBF7C2FB216CA0680844A0606168884293
:104B000004D32068A06001E005B16D1E6D1CA56393
:104B10003046BDE8F08110B50446006B00F050FB54
:104B20002046BDE8104000F04BBB000010484FF499
:104B30009631420706D0C01D0D4920F00700411AEA
:104B4000C1F596310B4A00230144C2E9000308393C
:104B5000103A21F0070111604B600B600B1AC0E99D
:104B6000001393604FF000405360D0607047000026
:104B70002003002098000020074C4FF08056074D7E
:104B8000FFF758FF20680128FAD92E60BFF34F8F36
:104B9000BFF36F8FF4E700003C01002004ED00E05C
:104BA0002DE9F0470E46DDE909841746824691005B
:104BB0009946089DA522206BFBF770FB6FF003015F
:104BC000206B01EB8701084420F00707780707D026
:104BD000502080F31188BFF34F8FBFF36F8FFEE734
:104BE0002218315C82F83410315C11B1401C0A2863
:104BF000F6D3002684F83D60102D00D30F25E56222
:104C0000C4E91256201D00F080FA04F1180000F0EB
:104C10007CFA2461C5F110006462A061266584F805
:104C200054604A465146384600F03CFA2060B8F1DC
:104C3000000F01D0C8F80040BDE8F08730B5114939
:104C400000E011460A688242FBD34B685C1884423C
:104C500003D1406818444860084643681C189442D1
:104C600009D1084C103C2468A24209D052681A4469
:104C700042600A6812680260814200D0086030BD5C
:104C80000460F9E79800002070B5002441600B4DE6
:104C90000061914206D8D11A8269914206D2011D63
:104CA000286907E09A4203D2994201D3012403E024
:104CB000011DE86800F02CFA204670BD3800002085
:104CC00010B5044600F048FAA06B28B15FF000046C
:104CD00000F062FA204610BD0124F9E730B587B034
:104CE0002B4D4BE00498002848DB069C606910B10E
:104CF000201D00F0EDF902A800F0B6F80246049875
:104D00000A283BD2DFE800F00505053A26370505FD
:104D10003A260598A169034601442046FFF7B4FFEF
:104D200000B3616A20468847E069012826D1002047
:104D300000900598A169002342181946204601F009
:104D4000E1F878B9502080F31188BFF34F8FBFF39B
:104D50006F8FFEE70598A06128B1811813462046A1
:104D6000FFF792FF0AE0502080F31188BFF34F8FC6
:104D7000BFF36F8FFEE7204600F022FA00231A46A9
:104D800004A9286800F0CCFC0028ABD107B030BDE6
:104D9000380000202DE9FC410F46054600F0F0FBED
:104DA00001A800F061F80446019818B101F022F85A
:104DB000BDE8FC81224EAFB130690068A8B300277E
:104DC000291B3A46306800F077FA01F013F8002802
:104DD000EED11C494FF080500860BFF34F8FBFF3F6
:104DE0006F8FE5E7A542EBD801F004F8F06827469D
:104DF000C068C468201D00F06BF9E069012810D17B
:104E0000A0692B4641193A462046FFF73DFF40B1C5
:104E100000200346014600902A46204601F072F821
:104E200020B1616A20468847C2E707E0502080F33E
:104E30001188BFF34F8FBFF36F8FFEE70127BFE7E6
:104E40003800002004ED00E00648416B096829B1F4
:104E5000416BC968C9684968816270474FF0FF318A
:104E6000FAE700004C00002070B5054600F0D0FEC7
:104E7000064E0446B068844203D200F009F80120CF
:104E800000E0002028602046B46070BD380000209B
:104E9000F8B5194D1FE0C068C4680668201D00F011
:104EA00017F9616A20468847E069012813D1A06993
:104EB0003044B04206D924616060211DE86800F0EA
:104EC00027F908E0002003460146009032462046BC
:104ED00001F018F838B1E86801680029DBD12969C8
:104EE000C5E90310F8BD502080F31188BFF34F8F40
:104EF000BFF36F8FFEE700003800002008484068CD
:104F0000401C4FF0500080F3118804D0BFF34F8F46
:104F1000BFF36F8FFEE7BFF34F8FBFF36F8FFEE7D7
:104F2000A0000020074CE068016841B1C068002182
:104F3000D0F80000FFF72EFFFFF7D0FEF3E70121C6
:104F40000020F7E7380000202DE9F041044600F08A
:104F500003F994F9455004F1240609E0606A48B168
:104F6000304600F00BFF08B100F044FA6D1E6DB240
:104F7000002DF3DC4FF0FF3684F8456000F00CF9AB
:104F800000F0EAF894F9445004F1100709E02069B0
:104F900048B1384600F0F2FE08B100F02BFA6D1E61
:104FA0006DB2002DF3DC84F84460BDE8F04100F000
:104FB000F3B800002DE9F0410546002700F0E0FAC3
:104FC000314E306808B9FFF7B1FDF06805424BD1AA
:104FD000C5B3083568070ED005F00700C0F108001A
:104FE0000544680707D0502080F31188BFF34F8F26
:104FF000BFF36F8FFEE72DB37068854234D8224827
:10500000103001460C6801E020460C466168A94258
:1050100002D221680029F7D131688C4224D0076878
:105020002168016060680837411B10290FD9601999
:10503000420708D0502080F31188BFF34F8FBFF391
:105040006F8FFEE710E041606560FFF7F7FD616874
:105050007068401A7060B268904200D2B060F06828
:1050600001430020C4E9000100F0C4FE780707D026
:10507000502080F31188BFF34F8FBFF36F8FFEE78F
:105080003846BDE8F0810000880000200449086827
:1050900018B10868C26C521CC264086870470000EE
:1050A0004C00002010B5031F4FF080741C601B1FC4
:1050B00021F001011960191F044B0B6014390A60BB
:1050C000091F6FF0020244380A6010BDFD4E00084F
:1050D000D0E9013201699A60D0E901235A604A6837
:1050E000824201D182684A60002202610868401E43
:1050F0000860704700F108014FF0FF32C0E901126B
:10510000C1600161002101607047002101617047A9
:1051100030B50B685A1C02D000F1080202E00269A7
:1051200004E02246546825689D42FAD953684B60D2
:1051300099608A60516008610168491C016030BD56
:1051400042684A6093688B60936859609160086117
:105150000168491C01607047502080F31188BFF33B
:105160004F8FBFF36F8F0A494868401C4860012881
:105170000CD10848006810F0FF0F07D0502080F3D2
:105180001188BFF34F8FBFF36F8FFEE770470000AA
:10519000A000002004ED00E00849486828B1401E46
:1051A000486001D180F311887047502080F3118846
:1051B000BFF34F8FBFF36F8FFEE70000A00000200A
:1051C00070B5002827D0144DA0F108046168E86884
:1051D000014207D1502080F31188BFF34F8FBFF3F6
:1051E0006F8FFEE722683AB1502080F31188BFF339
:1051F0004F8FBFF36F8FFEE78143616000F0C0F90E
:1052000060686968084468602046FFF717FDBDE8DC
:10521000704000F0EFBD70BD8800002006484FF4DC
:105220007A710068B0FBF1F14FF0E020491E416156
:1052300007210161704700002400002010B5FBF732
:1052400005F8114910280ED300F1E02090F8F00382
:105250000A78904207D2502080F31188BFF34F8F15
:10526000BFF36F8FFEE709480068896800F4E060CB
:10527000884207D9502080F31188BFF34F8FBFF3C6
:105280006F8FFEE710BD0000A00000200CED00E0D5
:1052900010B5084B002200BF53F832401CB1521C1D
:1052A000082AF9D310BD43F8321003EBC20148605D
:1052B00010BD0000E002002070B515460E46044601
:1052C000FFF74AFF94F944100020491C01D184F8EB
:1052D000440094F94510491C01D184F84500FFF7BA
:1052E0005BFFA06B28B92A46314604F1240000F088
:1052F0009FF82046BDE87040FFF726BE10B50200BB
:1053000014D00F48006B38B1502080F31188BFF3E0
:105310004F8FBFF36F8FFEE700F032F90021104688
:10532000FFF7C0FA00F066FD002807D105494FF0ED
:1053300080500860BFF34F8FBFF36F8F10BD000028
:105340004C00002004ED00E070B50546FFF704FFB7
:10535000244C05B92568281DFFF7BAFE58B9E86A3C
:10536000214A00EB800152F8211021B9012181402E
:10537000206988432061A86A18B105F11800FFF779
:10538000A7FE606A401C60622068854207D1291D23
:105390001648FFF7D5FE6068401C606007E0A06813
:1053A000401EA0602846FFF7B6FBFFF74DFDFFF754
:1053B000F3FE6069002814D02068854211D1206B6B
:1053C00038B1502080F31188BFF34F8FBFF36F8F38
:1053D000FEE707494FF080500860BFF34F8FBFF3DF
:1053E0006F8F70BD4C0000203C010020B8020020EF
:1053F00004ED00E001490120C86170474C00002025
:1054000010B50C4650B1094909681831FFF780FE04
:105410002046BDE810400121FFF744BA502080F338
:105420001188BFF34F8FBFF36F8FFEE74C00002052
:1054300070B514460D4668B10A4909681831FFF77E
:105440007FFE0CB14FF0FF3521462846BDE8704085
:10545000FFF728BA502080F31188BFF34F8FBFF3B6
:105460006F8FFEE74C00002070B5040039D01D4D51
:10547000E06A2968C96A884233D2A069002804DB3F
:105480002868C06AC0F11000A061E16A164E01EB05
:105490008101606906EB810188421FD1201DFFF761
:1054A00017FE012150B9E06A00EB800256F8222075
:1054B00022B92A6901FA00F082432A612868C06A89
:1054C000E0622A6981401143296100EB800006EB0C
:1054D0008000211DBDE87040FFF732BE2868C06A19
:1054E000E06270BD4C0000203C01002028B107495B
:1054F0000A6A0260C96841607047502080F31188D1
:10550000BFF34F8FBFF36F8FFEE700004C0000200A
:105510001CB517480024CDE900402346822215A17E
:10552000164800F03BFB012803D100F0C5FC012820
:1055300009D0401C1AD1502080F31188BFF34F8F3F
:10554000BFF36F8FFEE7502080F31188BFF34F8FBA
:10555000BFF36F8F06484FF0FF312C388162012175
:105560004161C460BDE81C4000F040B81CBD0000B3
:105570007800002049444C4500000000794B0008A9
:105580000248016B491C0163704700004C00002079
:105590001448016B11B10121C16170470021C16143
:1055A0000169B1FA81F1C1F11F0101EB81020E49DC
:1055B00051F822306BB101EB820101F108034A6816
:1055C00052684A609A4201D152684A60D1680160CB
:1055D0007047502080F31188BFF34F8FBFF36F8F58
:1055E000FEE700004C0000203C0100201CB53248C2
:1055F0000168324A914207D1502080F31188BFF3ED
:105600004F8FBFF36F8FFEE700682C49491E884219
:1056100007D1502080F31188BFF34F8FBFF36F8FF6
:10562000FEE7274908780190FF20087008788DF878
:1056300000009DF800009DF8002000F0F00090426E
:1056400007D0502080F31188BFF34F8FBFF36F8FC7
:10565000FEE79DF800001B4A00F050001070072084
:10566000906005E09DF800305B008DF80030401E32
:105670009DF800301B06F5D4000200F4E060906055
:10568000019808700C482030016841F470010160F5
:10569000016841F070410160FFF7C0FD00205060DB
:1056A000FAF79CFD0848016841F040410160FAF7B3
:1056B00085FD00201CBD000000ED00E071C20F411F
:1056C00000E400E0A000002034EF00E02DE9F0410C
:1056D00017460E46050016D0EEB105FB06F0503019
:1056E000FFF768FC04000CD004F15000AEB120605C
:1056F000C4E90F562046012100F0C8F8204684F87E
:105700004C70BDE8F081502080F31188BFF34F8FBB
:10571000BFF36F8FFEE70020E1E72460E8E70000B9
:105720002DE9FF4F002683B09B468A46040003D034
:10573000BAF1000F08D011E0502080F31188BFF3B8
:105740004F8FBFF36F8FFEE7206C38B1502080F38E
:105750001188BFF34F8FBFF36F8FFEE700F04AFA57
:10576000DFF824814FF000094FF0805748B90598C1
:1057700038B1502080F31188BFF34F8FBFF36F8F84
:10578000FEE7FFF7E9FCA56B45B351462046E66806
:10579000FFF778F9BBF1000F13D0E660606A50B1F3
:1057A00004F1240000F0EAFA28B1C8F80070BFF351
:1057B0004F8FBFF36F8FFFF7EFFC012007B0BDE8FD
:1057C000F08F6D1EA563206810B9FFF75FFC606065
:1057D00020690028EFD004F11000E3E7059808B134
:1057E0001EB106E0FFF7D8FC27E06846FFF77EFE13
:1057F0000126FFF7D1FCFFF7C3FEFFF7ADFC94F9DC
:105800004400401C01D184F8449094F94500401CA8
:1058100001D184F84590FFF7BFFC05A9684600F068
:1058200087F9002820460AD0FFF78EFB00F0E2FA45
:105830002046FFF745FA0028A3D00020BEE7FFF777
:105840003FFAD8B1206830B9FFF786FC6068FFF7EF
:105850000BFEFFF7A1FC04F124000599FFF7D0FD32
:105860002046FFF771FB00F0C5FA002889D1C8F87F
:105870000070BFF34F8FBFF36F8F82E72046FFF7B3
:1058800063FB00F0B7FA7CE704ED00E070B50D466D
:10589000040025D0FFF760FCD4E90F20216802FB4B
:1058A000001161600021A1632168A1600A46D4E96A
:1058B0000F01401E00FB0121E16021464FF0FF3047
:1058C00001F8440F487004F110008DB1FFF712FC8D
:1058D00004F12400FFF70EFCFFF75EFC012070BD11
:1058E000502080F31188BFF34F8FBFF36F8FFEE717
:1058F00021690029F0D000F041FA0028ECD00449D9
:105900004FF080500860BFF34F8FBFF36F8FE3E716
:1059100004ED00E02DE9FF4782B01D468A464FF0B6
:105920000008040003D0BAF1000F08D011E05020A5
:1059300080F31188BFF34F8FBFF36F8FFEE7206CAA
:1059400038B1502080F31188BFF34F8FBFF36F8FB2
:10595000FEE7022D0AD1E06B012807D0502080F32A
:105960001188BFF34F8FBFF36F8FFEE700F042F94E
:105970003F4F4FF000094FF0805648B9049838B1B6
:10598000502080F31188BFF34F8FBFF36F8FFEE776
:10599000FFF7E2FBA06BE16B884207D3022D05D035
:1059A0000498D0B1B8F1000F1AD01EE02A46514633
:1059B0002046FFF77AF8616A19B104F1240000F07B
:1059C000DDF920B13E60BFF34F8FBFF36F8FFFF75C
:1059D000E3FB012006B0BDE8F087FFF7DDFB22E026
:1059E0006846FFF783FD4FF00108FFF7D5FBFFF78F
:1059F000C7FDFFF7B1FB94F94400401C01D184F8C6
:105A0000449094F94500401C01D184F84590FFF77B
:105A1000C3FB04A9684600F08BF830B12046FFF7BD
:105A200093FA00F0E7F90020D4E7FFF795FBA06BAD
:105A3000E16B884213D1FFF7AFFB04F1100004992A
:105A4000FFF7DEFC2046FFF77FFA00F0D3F90028CD
:105A50009ED13E60BFF34F8FBFF36F8F98E7FFF784
:105A60009BFB2046FFF770FA00F0C4F990E70000B6
:105A700004ED00E02DE9F0471F46904689460400FA
:105A800003D0B9F1000F08D011E0502080F3118845
:105A9000BFF34F8FBFF36F8FFEE7206C38B15020FC
:105AA00080F31188BFF34F8FBFF36F8FFEE7022F94
:105AB0000AD1E06B012807D0502080F31188BFF392
:105AC0004F8FBFF36F8FFEE7FFF7B8FB5020EFF368
:105AD000118680F31188BFF34F8FBFF36F8FA06BD8
